:1000000000400020F92E0000F52E0000F52E000023
:10001000F52E0000F52E0000F52E00000000000077
:10002000000000000000000000000000F52E0000AD
:10003000F52E000000000000F52E0000F52E000057
:100040005D1D0000F52E0000F52E0000F52E0000CD
:10005000F52E0000F52E0000C518000095180000D0
:10006000D51B000069110000711100002527000058
:100070002D270000F52E0000252C0000B5240000DF
:10008000CD240000F52E0000091500006D0F0000C2
:100090004925000059250000F52E0000F52E00002E
:1000A000D9240000E92400001125000021250000CA
:1000B000E92D0000F92D0000F52E0000F52E0000BE
:1000C000F52E0000F52E0000F52E0000F52E0000A4
:1000D000F52E0000F52E0000F52E0000F52E000094
:1000E000352700003D180000C1240000F117000072
:1000F000F52E0000F52E0000F52E00000000000097
:1001000000000000000000000000000000000000EF
:1001100000000000000000000000000000000000DF
:10012000F52E0000F52E0000F52E0000F52E000043
:10013000F52E0000F52E0000F52E0000F52E000033
:10018000FFFFFFFFFFFFFFFFFFFFFFFFFFFFFFFF7F
:1001900003329CA77F000000FFFFFFFFFFFFFFFF70
:1001A00010B5054C237833B9044B13B10448AFF3B1
:1001B00000800123237010BD000C0420000000000B
:1001C000CCA40000084B10B51BB108490848AFF398
:1001D00000800848036803B910BD074B002BFBD013
:1001E000BDE81040184700BF00000000040C0420C8
:1001F000CCA400007809042000000000154B002B5F
:1002000008BF134B9D46A3F5803A00218B460F464D
:100210001348144A121A05F01DFD0F4B002B00D095
:1002200098470E4B002B00D0984700200021040077
:100230000D000D48002802D00C4807F00FFB05F018
:10024000AFF92000290003F0CBF805F099F900BFC1
:100250000000080000400020000000000000000036
:10026000000C0420B41604205D780000E58700002F
:1002700030B40648064D074C0749084B084A05604C
:100280000C6000201A6030BC704700BF00000240C4
:10029000000550005051050040000240800002401F
:1002A0002000C000014B01221A707047240C04206A
:1002B000014B01221A7070471C0C04200A4A4000AE
:1002C00008B5114683B200209380D38002F0D6F99E
:1002D00008B1012008BD054A0121107002F000FAA2
:1002E000003018BF012008BD000004201C0C0420B1
:1002F0002DE9F04F254CDFF89CA085B00646274637
:10030000D046234DDFF8909001E0237893B92B7805
:1003100003F0FF0B002BF8D0003618BF0126002198
:10032000084602F0DDF900280CBF3046012005B078
:10033000BDE8F08F87F800B000F0D2F986420146A0
:1003400016D0DAF80030002BE1D0B0F5C06F13D032
:10035000B0F5E06F0ED1019000F048FC04AAD8F887
:100360000030019902F8010DD9F800009847CEE756
:100370005E46D4E75A46F7E7019000F031FC04AA44
:1003800002F8010DD8F800300199EDE7240C0420A3
:100390001C0C0420280C0420200C042010B50F4B4A
:1003A0000F4C002219602060012310460D4902F015
:1003B0000FF908B1012010BD0B4800F06BF800B137
:1003C00010BD41F28830FFF779FF0028F2D1BDE877
:1003D00010404FF48070FFF78BBF00BF200C04204B
:1003E000280C0420B1020000A502000008B5FFF7A8
:1003F00065FF08B1012008BDBDE80840FFF778BFE0
:1004000010B504460846FFF759FF20B92046BDE85D
:100410001040FFF76DBF012010BD00BF10F0010FAD
:1004200008B5084604D0FFF749FF50B1012008BDC8
:10043000FFF744FF0028F9D1BDE808400920FFF785
:1004400057BF0820BDE80840FFF752BFF8B50F4C72
:100450008D1C8E1D4FF0010E6FF03F0765726FF01F
:100460000305F1B2A080608184F806E0E77125728F
:1004700022B11BB1C4F88820C4F88C30044800F0C5
:10048000E9FC003018BF0120F8BD00BF2C0C04208F
:10049000320C0420F8B500F061FC08B10120F8BD71
:1004A0000D4B4FF4807201276FF03F066FF003058C
:1004B0000224981D06219F71DE711D725C725A81A3
:1004C0009A8000F0C7FC0028E8D1BDE8F8404FF45E
:1004D0007A710820FFF7A2BF2C0C04200146F8B562
:1004E0000F4B4FF400726FF03F076FF003060325C8
:1004F000012459701973981D0721DF711E725D72F6
:100500005A819C719A8000F0A5FC08B12046F8BD84
:100510002046BDE8F8404FF47A71FFF77FBF00BF77
:100520002C0C0420F8B51D4B187369B30988A3F887
:100530000D10EAB111681A4CC3F80F1095881021FC
:10054000A58092790C275A7540F2062201246FF09B
:100550003F066FF0030598705F7212485A819C71D4
:10056000DE711D729A8000F075FC30B12046F8BD36
:1005700040F2052209210527E8E74FF47A710820A7
:10058000BDE8F840FFF74ABF1AB10988A3F80D107B
:10059000D0E7072103274FF40172D7E72C0C042082
:1005A0003B0C0420320C042008B502460123002134
:1005B00040F20720FFF74AFF00B108BD4FF47A71FF
:1005C0000120BDE80840FFF729BF00BFF0B50C4689
:1005D00016461B4D83B00146224605F10D00ADF8CD
:1005E00006302C7305F0C0FA032E1DD040F21B23F9
:1005F000BDF80610281904344673E4B2C181A11D68
:10060000012602346FF03F076FF00302C9B20D48B4
:10061000AB806B816C72AE71EF712A7200F01AFCC4
:1006200038B1304603B0F0BD0134E4B240F21A23D1
:10063000E5E730464FF47A71FFF7F0FE03B0F0BD06
:100640002C0C0420320C0420F8B50E4B4FF4A062A1
:100650006FF03F076FF0030602250124981D062165
:10066000DF711E725D725A819C719A8000F0F2FBFC
:1006700008B12046F8BD2046BDE8F8404FF47A7135
:10068000FFF7CCBE2C0C0420F8B50D46134C1146D8
:10069000A0812A4604F10F00A57305F065FA40F227
:1006A000015305F109016FF03F076FF003020535B3
:1006B0000126C9B2A01DE771227265726381A6711D
:1006C000A38000F0C7FB08B13046F8BD4FF47A7143
:1006D0000820BDE8F840FFF7A1BE00BF2C0C0420A5
:1006E000F0B5C54D83B005F14604002320460DF159
:1006F00007024021C5F84A3085F84E30C5F846302B
:1007000000F0BAFB10B99DF8073013B9012003B00F
:10071000F0BD022B08D995F84620042A04D195F89B
:100720004810DA1E914202D0022003B0F0BD95F8C5
:1007300047200E2A00F07081FF2AF5D195F8492054
:10074000A02AF1D195F84B0095F84A20032942EAF6
:10075000002212B295F84C6094B2E5D940F20E2115
:10076000073B8A42DBB200F02E8118DD40F20331F4
:100770008A4246D0B2F5417F39DBB2F5A06F00F076
:10078000BF8040F38D80B2F5C06F00F02581B2F5D7
:10079000E06F25D1092B00F0F6810320B7E740F286
:1007A00001218A423CDCB2F5007F80F2CD8040F22C
:1007B00001118A4200F0BF80B2F5817F10D1022B77
:1007C000EBD995F84E0095F84D3095F84F108B4ABF
:1007D00043EA0023A5F8BC3085F8BE10C5F8C02058
:1007E0001EB140F201139C42D7D120468FE740F260
:1007F00001318A4200F0DB8000F3C580B2F5407F12
:10080000EED1032BC9D195F84E1095F84D3095F8DF
:100810004F2043EA0123A5F8C43085F8C620DFE75E
:10082000B2F5027F00F0CF8049DCA2F50172022A06
:10083000D6D8112BB1D1724A95F84D10134695F8C0
:100840004E0053F87EED41EA00209F8895F859103C
:1008500095F85830978043EA012195F85D7095F836
:100860005C3095F85BC095F85A2043EA0723A5F859
:10087000CC0095F84F7095F85000A5F8D81095F871
:10088000571042EA0C22C5F8CFE0A5F8DA20A5F807
:10089000DC3085F8CE7085F8D50085F8D6109FE756
:1008A000B2F5417F9CD1062B7FF477AF554A1346B2
:1008B00053F8670D9B88C5F8B400938090E740F229
:1008C00009218A428CD1082B7FF667AF4E4B95F8F1
:1008D0004D701A4652F8420D95F85410B2F804E0E3
:1008E00095F85520C5F890003A3BA3F83EE0C5F8CE
:1008F0009C20C5F8983085F8967085F897106FE7BA
:1009000095F84F703C4D142F3FF647AF022B7FF602
:1009100044AF95F84E1095F84D303A4643EA01231E
:1009200005F1F90005F1500185F8F870A5F8F630E9
:1009300005F01AF954E7012B7FF42FAF95F84D30ED
:10094000204685F8F430E2E6092B7FF626AF2F4BE0
:1009500095F84DE01A4652F8520D95F85470928869
:10096000C5F8A00095F855109A8095F85620493B97
:10097000C5F8AC3085F8A6E085F8A77085F8A81012
:10098000C5F8B0202CE7082B7FF407AF204995F875
:100990004E700A4652F8770D95F84D30928843EA2A
:1009A00007238A80A5F8C430C5F8C60018E7022BD3
:1009B0007FF4F3AE95F84E2095F84D3043EA0223CC
:1009C000A5F8C4300CE7002B3FF4E7AE114AC5F898
:1009D000F030C5F8EC2003E7032B7FF4DEAE95F88A
:1009E0004E1095F84D3095F84F2043EA0123A5F8B5
:1009F000DE3085F8E020F3E62C0C04207C0C04208B
:100A0000FB0C0420E00C0420BC0C0420CC0C0420C3
:100A1000F20C0420790C042095F84A30C02B7FF4A6
:100A200083AE95F84B30FC2B7FF47EAE95F84D00ED
:100A300095F84C30052943EA002000B295F84E4065
:100A400082B27FF671AEAB8893427FF4A6AE40F2DD
:100A500012238A1F9842D2B23BD01EDDB0F5427FEE
:100A600000F0828040F20933984273D040F215239F
:100A700098425CD0D5F88C104F4B9142FFF48DAE6C
:100A800003F14F01D3F8880005F06EF8122C3FF601
:100A900084AE4A4B33F8140039E6B0F5817F2CD090
:100AA00040F203239842E5D1072A7FF476AED5F8C9
:100AB0008C30414A072B7FF470AE1146D2F8883053
:100AC00051F84F0F18608988998092F855209A71D3
:100AD000DCE7002A3FF461AED5F88C303649052BAF
:100AE0007FF45BAE91F84F30D1F888005A0000F8DF
:100AF000023B503105F038F8C8E7042A7FF44DAEC8
:100B0000D5F88C202C4B042A7FF447AE93F8500084
:100B100093F84F20D3F8881042EA00220A8093F815
:100B2000522093F8513043EA02234B80AEE7D5F8C8
:100B30008C30013A9A4220493FF62FAED1F88830E6
:100B400091F84F2018685A6091F84F20503105F005
:100B50000BF89BE7012CD5F8883029D0002C95D1D3
:100B600001221A700820D2E5002A3FF416AED5F80B
:100B70008C20114B012A7FF410AED3F8882093F813
:100B80004F30137082E70E4995F84EE00A4652F84E
:100B9000950D95F84D30978895F8552043EA0E232A
:100BA0008F80A5F8E230C5F8E40085F8EA2017E662
:100BB00000221A700A20AAE52C0C0420DC9C0000FC
:100BC000100D042030B40546044C0FCC2860696039
:100BD000AA60EB6023882B8230BC7047F80C04209D
:100BE000014B93F8E00070472C0C0420014B93F864
:100BF000EA0070472C0C0420014BD3F880301847D2
:100C0000400D04202DE9F043504D4FF4806483B033
:100C1000C5F880410646894690461F46C5F8804083
:100C2000BFF34F8FBFF36F8F2021012000F076FAC2
:100C300018BB0446464D05E0BDF8062001341ABB3A
:100C4000AC4252D00DF106020821002000F06EFAED
:100C500003460028F0D03D4B4FF48062C3F880215A
:100C600001241A602021012000F050FA00280CBF56
:100C70002046012003B0BDE8F0830120C5F8804183
:100C80002C6003B0BDE8F0833148304A4FF48061F6
:100C90008442C2F8801111601ED02E4C022201A99C
:100CA000C4F800D061602281628136B32A4D4222AD
:100CB000286821468DF801308DF804308DF8053014
:100CC0008DF8002001F0E6FB68B99DF805309845E5
:100CD00033D93B700524C5E70624C3E728681D49BE
:100CE00001F0D8FB38B30424BCE7184B4FF4806202
:100CF000C3F8802106241A60B4E7174D81232868C1
:100D000021468DF801608DF804608DF805608DF83E
:100D1000003001F0BFFB0028E5D19DF80530984573
:100D20003B70D7D326813B7826606381C4F804905A
:100D30003B78002BD2D1002494E787F80080A4F8F8
:100D400008806081C4F800906060F1E700E100E095
:100D5000A08601000C000420400D042010B53A4C80
:100D600084B0C4F88000102104F1300000F05EF976
:100D700010B1012004B010BD23462C22211D0220F9
:100D800001F07CF910B1022004B010BD01462068CA
:100D900001F0B2F90028F6D10122082100F09AF9F9
:100DA0000028E6D1082100F071F90028E1D10822DD
:100DB0000A2100F055F902460028DAD123490A2019
:100DC00000F0BEF90028D4D101221046202100F005
:100DD00065F90028CDD12021012000F097F90028E5
:100DE000C7D101224FF40071022000F057F900280A
:100DF000BFD14FF40071022000F090F90028B8D163
:100E000002904FF6FE7202E0029B01330293029BB6
:100E10009342F9D94FF40071022000F077F90028CD
:100E2000A7D103904FF6FE7202E0039B01330393B8
:100E3000039B9342F9D90DF1070340220449002096
:100E4000FFF7E0FE96E700BF400D0420F90B00001D
:100E5000800D042010B50C4682B00DF10703014649
:100E600022460120FFF7CEFE9DF807309C4218BFB6
:100E7000042002B010BD00BF13460A460146002000
:100E8000FFF7C0BE10B50A4C1822234609490120BD
:100E900000F0ACFD00B110BD0521206800F080FE1F
:100EA0000028F8D120680121BDE8104000F022BEE2
:100EB000DC0D0420C40D042000B5074B83B001A94C
:100EC000186800F035FE18B1002003B05DF804FB8F
:100ED000019803B05DF804FBDC0D0420EFF31080F3
:100EE00072B6104A1378D3B90F4B012170B4117048
:100EF00059680E4E0E4C6FF0784241F001014FF4EC
:100F0000002559609E6025601A62DA625A63DA63CE
:100F10009A64DA641A6580F3108870BC704780F3B5
:100F200010887047001404200000014000100420C5
:100F300000E100E030B40C4C012304EBC005696013
:100F4000AA60834039B1D4F8DC000343C4F8DC3034
:100F5000002030BC7047D4F8DC20002022EA0303D4
:100F6000C4F8DC3030BC704700140420184B2DE965
:100F7000F047184DD3F84C809C6C1F6DD5F8DC30D1
:100F800044EA070919EA03091AD0B9FA89F30126D4
:100F9000C3F11F0305EBC301D1F804A006FA03F364
:100FA000002229EA0309BAF1000F05D01C42886823
:100FB00014BF01210221D047B9FA89F3202BE7D1D0
:100FC000034B9C641F65C3F84C80BDE8F08700BFED
:100FD00000000140001404202DE9F0410F46124E9C
:100FE00082B0F568002405EBC00556F82420092FCF
:100FF0000CBF138D938DD5F8008099B2138E0B40E2
:10100000ADF806301386B8F1000F00D02BB90134CB
:10101000032CEAD102B0BDE8F0810DF106022146B1
:101020006868C047F3E700BF1C0004200A4AD36881
:101030000BB10020704730B408494FF400754FF4ED
:101040008064D060036043608360C3600D600020F3
:101050000C6030BC704700BF1C00042000E100E0C1
:10106000094B53F82000EFF3108372B6092906D01C
:101070000A2900D1828583F31088002070470285F9
:1010800083F31088002070471C000420024B53F8A3
:1010900020300020998470471C0004200C4B10B4B1
:1010A00053F82000EFF3108472B683889BB23AB9EC
:1010B00023EA0101818084F31088002010BC70476E
:1010C0001943818084F31088002010BC704700BF52
:1010D0001C0004200C4B10B453F82000EFF31084D4
:1010E00072B683899BB23AB923EA0101818184F304
:1010F0001088002010BC70471943818184F3108848
:10110000002010BC704700BF1C000420024B53F8A5
:1011100020300020198370471C000420024B53F834
:1011200020300020998370471C000420034B53F8A3
:10113000203000201B8A1940118070471C000420B9
:10114000093830B480B2EFF3108372B6054CE4680E
:1011500004EBC00544F830106A6083F31088002067
:1011600030BC70471C00042009210020FFF734BF69
:101170000A210120FFF730BF674A0023F0B512882B
:10118000046880F82A3080F82B30A38803F4886341
:101190009342FAD183898A885B000D68CF7B9BB22A
:1011A00002838A7B03F0FE064561C6818772002AAE
:1011B0004DD147688E6897F90070B1F80CE0002FA8
:1011C00003F0FE0102854262C181C661A0F820E001
:1011D00008DB07F01F0E0123504A7F0903FA0EF3C4
:1011E00042F8273023889BB243F021032380A38851
:1011F00003F00303C3F102039BB25BB925E015F8CA
:10120000012B013BA281028B9BB2013A92B2456154
:101210000283D3B1028B92B2002AF0D1028C92B237
:101220009AB135465A1E92B20132324415F8013B4A
:10123000A381038C954203F1FF339BB2C561038404
:1012400003D0038C9BB2002BF0D12183F0BD436807
:101250008D6893F900308989002246F00106934297
:101260000185C6814562C261028407DB03F01F0568
:1012700001222A495B09AA4041F8232023889BB216
:1012800043F011032380038D9BB2B3F5807F33D8E5
:10129000038D0022013B9BB223820285038B9BB20C
:1012A000002B35D023889BB243F020032380A388F2
:1012B00003F00303C3F1020292B2BAB1028B92B2FD
:1012C000A2B1C3F1010189B242690131114402E0C6
:1012D000038B9BB253B112F8013BA381038B914264
:1012E00003F1FF339BB242610383F1D1C38923F041
:1012F00001039BB22383F0BD4FF480732382038DDF
:10130000A3F580739BB20385038B9BB2002BC9D1DD
:10131000C3892383F0BD00BFE014042000E100E096
:10132000F0B5446883B094F90030002B0EDB5A0905
:101330000121204C03F01F03203201FA03F344F88B
:101340002230BFF34F8FBFF36F8F446802681A4992
:10135000938809889BB2ADF80430BDF804309BB285
:101360009380B2F84C3003F0C0038B4209D09389CC
:101370009BB2ADF80630B2F84C3003F0C0038B429C
:10138000F5D1A36800211C884FF0010E5F889E886C
:10139000DD881180A2F850E014801C895B89978455
:1013A000A2F85060A2F85450A2F858408381084631
:1013B00003B0F0BD00E100E0E01404202DE9F041AD
:1013C000154C0646A08C984680B2B0F5217F0C469D
:1013D00004D112490B6843F030030B60104D002715
:1013E00005EB0615C8F8007039462046EC6004F09D
:1013F00031FC0C4A6B6806EB460602EB860665601C
:101400002360E7622046AE60FFF78AFF3846C8F8DF
:101410000040BDE8F08100BF0020004034000240E1
:101420002C0004203C00042010B50446FFF778FF90
:1014300063680020D86010BD38B5002303741546DA
:101440000446FFF799FE90F82A2052B194F82B3009
:101450002B601BB1082084F82A0038BD94F82A00BC
:1014600038BD104604F12C0100F050FA08B10D20EF
:1014700038BD044B21681A888B8803F48863934233
:10148000FAD1E3E7E01404200022C262FFF748BF6C
:1014900030B583B005460C46002001A900F064F980
:1014A00010B1042003B030BD0F4B9C4206D8019B05
:1014B000B3FBF4F46408A3B2A34202D0012003B04A
:1014C00030BD0A4A1288002AF8D19BB25A1E92B245
:1014D00012F47F40F2D1073B9BB242EA03232A6811
:1014E0009BB29384DEE700BF801A0600E01404205C
:1014F000044A21F07F0312889A4206BF81810020AE
:101500000B207047E01404206F4BF0B4D8680368D8
:10151000827A9D88ADB205811AB1C18900221983F2
:1015200082726A4C05F004022688B24241D0B3F8B8
:101530004C20C2F30112C2F1020292B29AB1018BA5
:1015400089B289B1476902E0018B89B261B117F8AC
:10155000011B013A9981018B92B2013989B247612D
:101560000183002AF0D10022018B89B2E1B9018DFB
:1015700089B2002940F0A280B2B1018C89B299B140
:10158000013A92B2C76901323A4402E0018C89B251
:1015900051B117F8011B9981018CBA4201F1FF3159
:1015A00089B2C7610184F1D1028C92B20AB90422D6
:1015B0009A8005F00805ADB2AE4226D0B3F84C10C3
:1015C000C1F381118AB200297BD0456A4FF480773C
:1015D0001B89013ADBB22B700368456A998A013591
:1015E00089B292B2456269B9068DB6B256B1068D1E
:1015F000B6B2B6F5807F4DD91F82018DA1F58071FD
:1016000089B20185002AE3D12588028902F0B00160
:10161000A94247D002F01001A94290F82B1002F025
:1016200080041CBF41F0010180F82B10AC4218BFB0
:1016300041F0020102F0200418BF80F82B10AC42E8
:1016400036D041F0040180F82B1002F48072AA42D7
:101650001CD019469A8802F48862AA42FAD14368DB
:1016600093F90030002B0EDB5A090121184C03F0CE
:101670001F03203201FA03F344F82230BFF34F8FE7
:10168000BFF36F8F0168134B1B880B802C30F0BCAD
:1016900000F092B9068D013EB6B21E820185002A85
:1016A00096D1B1E702F480729542D2D1F0BC704776
:1016B0000029CAD1082180F82B10C6E7C2891A83F5
:1016C00072E73546A1E700BF2C000420E014042097
:1016D00000E100E03C0004204CF61432F8B51C4B4D
:1016E0001C48194602250024DA601D610460DA6096
:1016F0001A692A431A610B69154A9B05FBD546F600
:101700001A064CF61435144B14491868144F20F07F
:101710000300186000241F201C605F60DE605861B9
:101720000C608C604C64D56011690E4B21F0040193
:101730004FF40060402780264FF4007511611F6050
:101740001E605D60586001F0F5FB2046F8BD00BFEB
:1017500000C10440E414042000C3044000C004405D
:101760000404100000E100E038B504460D4601F025
:10177000E1FB8CB1012C0DD10A4B5B6803F03F03F8
:10178000094A002B126808BF0123B2FBF3F30020C3
:101790002B6038BD042038BD024B5B68C3F30523C2
:1017A000EEE700BF00C304400C150420012810B56B
:1017B00019D014D3022810D109046FF47F03EFF37A
:1017C000108272B60948446823401943416082F38D
:1017D000108801F0AFFB002010BD042010BD0902ED
:1017E0006FF47C53EBE76FF03F03E8E700C304407E
:1017F00038B50F4A0F4B14689B6903F0060524B1F6
:1018000013F004020BD19B0702D40A4B9D6138BD33
:10181000094B07211868A047064B9D6138BD064B50
:10182000002218680821A047024B9D6138BD00BF07
:10183000E414042000C30440EC14042038B5124A18
:10184000124B15689B6903F4CC445DB14CB158044C
:101850000DD4990413D49A0513D45B0504D506213D
:1018600006E038BD002CFCD0084B9C6138BD04213B
:10187000074B00221868A847044B9C6138BD032120
:10188000F6E70521F4E700BFE414042000C3044098
:10189000EC14042008B5084B5968CB070BD5074B4F
:1018A0001B681BB1064A106800229847024A536819
:1018B00043F00103536008BD00C00440E414042059
:1018C000EC14042038B50E4D0E4A2B6854684BB109
:1018D00062070ED4A30705D50B4A2B6810680121B7
:1018E00000229847074A04F0060453681C435460DA
:1018F00038BD05490022086811469847EAE700BF4D
:10190000E414042000C00440EC140420274B0029F8
:10191000F0B506BF194602270027032844D8DFE8A0
:1019200000F040393B024FF0FF340627EFF31083FD
:1019300072B644F659061E4DDFF878E0EE60AE68E8
:1019400026F003063043A860DEF810003843044058
:10195000CEF81040EFF31180520182F311880A682B
:1019600052B9BFF34F8F30BF83F31088EFF310836A
:1019700072B60A68002AF4D00A68013A0A6080F355
:1019800011880C490A6922F002020A61BFF34F8FE5
:1019900083F310880020F0BD47F004074FF0FF34B8
:1019A000C4E76FF00604C1E70620F0BDE814042088
:1019B00000C0044000ED00E0034620B11A6800209A
:1019C00001321A607047EFF3108372B605490A6955
:1019D00022F002020A61BFF34F8F83F31088024B9B
:1019E000ECE700BF00ED00E0E81404202DE9F04131
:1019F0000D4604460021196028461E46670004F083
:101A000029F938483B1950F8231029600A8902F057
:101A1000800292B2002AF9D10A800A858B881A06C0
:101A2000FCD50B89DB05FCD441F6FF738B808A88DB
:101A3000D205FCD500238B810B828A889305FCD5C7
:101A4000391900EB8101DFF8A8E004EBC4038D60D5
:101A50009B000EEB03023EF803E02B68B2F8028015
:101A6000B2F804C06961A3F800E01189B2F806E099
:101A7000A3F82880A3F80CC0B2F80AC0A3F810E0BD
:101A8000B2F80CE099821849A3F818C08B42A3F869
:101A900044E013D03C4400EB840494F904303560F6
:101AA000002B2B7307DB03F01F0001220F495B099A
:101AB000824041F823200020BDE8F081118AA3F87C
:101AC0004C10518AA3F850102B68B2F814E0D18A58
:101AD000A3F854E02B68128BA3F858102B68A3F8D6
:101AE0007020D7E7480004200014004000E100E027
:101AF00060000420026813891B06FCD4EFF31082F7
:101B000072B669B101680B889BB243F001030B8088
:101B100082F31088026893881B06FCD5002070476A
:101B200001680B8823F001031B041B0C0B80EFE7FB
:101B30000268138903F4C063002BFAD190F90C30CA
:101B4000002B22DB70B45A090124144D03F01F034B
:101B5000203204FA03F345F82230BFF34F8FBFF36E
:101B60006F8F066890F90C30308AB289002B92B2E0
:101B700042EA00420A6005DB03F01F0294405B0961
:101B800045F82340002070BC7047108A93899BB2AF
:101B900043EA00430B600020704700BF00E100E013
:101BA0000268938DDB04FCD430B4EFF3108472B67A
:101BB00005682A8D22F4F0731B041B0C43EA4113C1
:101BC0002B8584F310880268938D5B04FCD500207C
:101BD00030BC7047604B2DE9F0419F683B68188826
:101BE0009A8892B212F07E064BD080B220F4FF6148
:101BF00021F0030189B200296DD1188D9A8D80B230
:101C000092B212F01F0502D0C40640F08580B3F8EE
:101C10005000B3F8482080B292B2C2F30C046CB307
:101C200041F6FE7E00EA0E0EBEF1000F05D08005E3
:101C300003D5900501D541F40061B3F8500080B29E
:101C400020F43E6E2EF0030EBEF1000F1BD1D7F82C
:101C50000480B8F1000F01D0002937D19A8892B2E0
:101C600032439A809A8D92B22A439A85B3F84820DB
:101C700092B22243A3F84820BDE8F081B3F8502087
:101C8000E5E73146B9E710F4804F04D012F0100FA9
:101C900018BF41F4802110F4005F04D012F0080F47
:101CA00018BF41F4003110F4805F04D012F0040F2B
:101CB00018BF41F480314005C9D5D207C7D5D7F840
:101CC000048041F40041B8F1000FC7D00022B86889
:101CD000C0473B68C2E700F0040189B209B1C2F312
:101CE0004001C50403D5140748BF41F004010504B1
:101CF00003D5540648BF41F02001450403D594069E
:101D000048BF41F0100180047FF577AFD5067FF51D
:101D100074AF41F0080170E7C40603D5D40648BF8C
:101D200041F48061040703D5140748BF41F40071F2
:101D3000440703D5540748BF41F48071840703D595
:101D4000940748BF41F08001C0077FF560AFD4071A
:101D500048BF41F040015AE748000420604B2DE99C
:101D6000F0415F693B6818889A8892B212F07E064B
:101D70004BD080B220F4FF6121F0030189B2002929
:101D80006DD1188D9A8D80B292B212F01F0502D0DB
:101D9000C40640F08580B3F85000B3F8482080B204
:101DA00092B2C2F30C046CB341F6FE7E00EA0E0E52
:101DB000BEF1000F05D0800503D5900501D541F493
:101DC0000061B3F84C0080B220F43E6E2EF0030E9A
:101DD000BEF1000F1BD1D7F80480B8F1000F01D07D
:101DE000002937D19A8892B232439A809A8D92B262
:101DF0002A439A85B3F8482092B22243A3F8482098
:101E0000BDE8F081B3F84C20E5E73146B9E710F4BE
:101E1000804F04D012F0100F18BF41F4802110F44D
:101E2000005F04D012F0080F18BF41F4003110F425
:101E3000805F04D012F0040F18BF41F480314005D8
:101E4000C9D5D207C7D5D7F8048041F40041B8F10D
:101E5000000FC7D00022B868C0473B68C2E700F057
:101E6000040189B209B1C2F34001C50403D51407C6
:101E700048BF41F00401050403D5540648BF41F0B2
:101E80002001450403D5940648BF41F010018004A9
:101E90007FF577AFD5067FF574AF41F0080170E7A5
:101EA000C40603D5D40648BF41F48061040703D5B6
:101EB000140748BF41F40071440703D5540748BFD5
:101EC00041F48071840703D5940748BF41F0800135
:101ED000C0077FF560AFD40748BF41F040015AE723
:101EE00048000420012914D0022908D0016941F0DA
:101EF0004001016183684BB1C06800221847016945
:101F0000836841F010010161002BF5D12830FFF703
:101F100053BD016941F004010161EBE7012915D0CE
:101F2000022908D0116941F08001116193684BB119
:101F3000D068002218471169936841F020011161AF
:101F4000002BF5D102F12800FFF736BD116941F0F1
:101F500008011161EAE700BFF0B5016883B00B8C9E
:101F60009BB2ADF806300C88A4B2260638D50369BA
:101F700043F002030361C36963BB0B8A9A0726D44B
:101F80008B8A426823F4185392F90C201B041B0C13
:101F90000125002A8B8280F822500CDB5309364938
:101FA00002F01F02203305FA02F241F82320BFF3AA
:101FB0004F8FBFF36F8F83680546002B55D00169A3
:101FC0000022C068984729680C8003B0F0BD0B88D8
:101FD0009B07D5D40369002BD2D10C8003B0F0BD90
:101FE000E5063DD4BDF80620BDF8065002F00F020C
:101FF000C2F1080292B2C5F303258AB1838BABB15B
:10200000466900E093B13778013B0F8190F820706A
:10201000013A9BB23E4492B283834661002AF1D1D9
:1020200090F8243013B1838B002BA4D1002DA2D0C3
:10203000C38B002B9FD0826901E0002B9BD08B8843
:10204000013D1370C38B816990F82120013B0A4444
:102050009BB2ADB2C38382610168002DEDD18AE7E6
:10206000036943F00103036185E72830FFF7A4FC0F
:1020700029680C8003B0F0BD00E100E0F8B505462A
:102080000C461F460846002103F0E4FD164EA90049
:10209000164A4B1902EB8302314490684B8836F89C
:1020A00025500021626014612060A1620582838155
:1020B0003C602268138A9BB243F001031382FEF74F
:1020C0000DFF6368224698780949FEF733FF08B18F
:1020D0000E20F8BD6368224698790649FEF72AFF6C
:1020E0000028F5D1F8BD00BF089D0000A80004201D
:1020F0001D1F0000E51E000080F82610002070471C
:102100002DE9F04F4B680C680A894D898361446161
:102110008283C5830C7B036880F820404C7B4FF0A2
:10212000000E80F82140CE7B8C7B80F822E01F8A55
:1021300085B027F441573F043F0C80F8234080F8D6
:102140002460C0F810E000961F82002C00F0178178
:102150009F8A002D40F07481BFB247F400579F82E0
:102160001F8890F826E0BFB2ADF80E70BDF80E7073
:10217000009EBFB21F801F8AB1F80A80BFB247F02D
:1021800002071F82A3F830E01EB1B8F1010F00F082
:102190007781B3F810E00F891FFA8EFE4EF4405E8F
:1021A000A3F810E0B3F810E02EF4405E4FEA0E4EB4
:1021B0004FEA1E4EA3F810E0B3F81CE02EF0070E15
:1021C0004FEA0E4E4FEA1E4EA3F81CE0002F00F01F
:1021D0004981D0F804E0BEF800A0BEF802904FFAA2
:1021E0008AFCBCF1000F0ADB0AF01F0A4FF0010B5A
:1021F000A54E4FEA5C1C0BFA0AFA46F82CA0FE0723
:10220000DFF888A248BF01374FF0010C0CFA09FC37
:1022100048BFBFB2CAF814C8CAF828C0CAF824C058
:10222000CAF834C0DFF868A24FEA570C0CF1FF3C43
:10223000DAF800604FEA0C1CA7F1020A0F684FEAB7
:1022400009194CF0454C06EB090B57444CF0010CB6
:1022500003F1080A46F809700196CBF804A04FF084
:102260000309CBF808C04746B8F1000F00F0BE8064
:10227000BEF804B0BEF806C04FFA8BFABAF1000FF0
:102280000ADB0BF01F064FF0010B0BFA06FB7E4E2C
:102290004FEA5A1A46F82AB018F0010FDFF8ECB1ED
:1022A00018BF08F101084FF0010A0AFA0CFA18BF2A
:1022B0001FFA88F7CBF81CA8DFF8D481CBF828A048
:1022C000CBF824A0CBF834A0C7F34F0A0AF1FF3AA9
:1022D000D1F804B04FEA0A11D8F800A04FEA0C1C5C
:1022E000023F41F09A415F4441F001010AEB0C0BBF
:1022F00003F104084AF80C80CBF80470CBF80810FE
:1023000000219984009949F00409002973D1002D16
:1023100040F0AD80198A89B241F480511982AA42F5
:1023200038BF2A461A83002C7CD1416979B1828B4F
:10233000A2F10806B6B2541E4AB10D78A2B21D81B0
:1023400090F82040B242214482834161F3D11A8A3D
:10235000520658BF9B889EF90C30002B07DB03F018
:102360001F04012248495B09A24041F8232090F84C
:102370002530002B6AD1002005B0BDE8F08F002A7F
:1023800014BF4FF408574FF40057002D51D19C8AC9
:10239000A4B247EA04019982198A89B241F0400146
:1023A0001982198890F8264089B2ADF80E10BDF850
:1023B0000E1089B21980198A89B241F0020119827E
:1023C0001C860024A146198AD0F804E089B241F4A1
:1023D00040511982198A21F440510904090C1982CB
:1023E000998B21F007010904090C99830021998434
:1023F000009900298BD0998C013A21F0F001090451
:10240000090C9984998C89B241F0010141EA820258
:1024100092B29A841A8A92B242F400621A821D839E
:10242000002C82D09A8B92B242EA0909A3F81C9040
:102430008DE7998A89B241F4806139439982B0E786
:1024400027F400573F043F0C9F8289E60146002293
:1024500028311046FFF75AFA00288CD00D2005B01D
:10246000BDE8F08FD0F804E04FF00109FBE6002A48
:102470007FF455AF198A89B241F4005119824EE7B1
:10248000002180F823109CE700E100E000000140FB
:10249000049D0000012310B580F825300446FFF7A5
:1024A0002FFE002384F8253018B92369002B18BFAC
:1024B0000F2010BD014B1869FFF74EBDA800042086
:1024C000014B586AFFF748BDA8000420014B986BE8
:1024D000FFF742BDA8000420024B00221B699A832B
:1024E000704700BFA8000420084B00211B691A6830
:1024F000D983938B23F007031B041B0C9383938ACC
:102500009BB243F400539382704700BFA80004209D
:10251000024B00225B6A9A83704700BFA800042028
:10252000084B00215B6A1A68D983938B23F0070359
:102530001B041B0C9383938A9BB243F40053938236
:10254000704700BFA8000420024B00229B6B9A83B7
:10255000704700BFA8000420084B00219B6B1A683D
:10256000D983938B23F007031B041B0C9383938A5B
:102570009BB243F400539382704700BFA80004202D
:10258000F8B5104B104F53F8206057F82030B58B3A
:102590006BB1ADB2EA0704460CD4AB0707D50B4AC2
:1025A00057F8243052F824000221002298470323D0
:1025B000B381F8BD0549002251F820000121984758
:1025C000EBE700BF1C9D0000FC140420F014042065
:1025D00070B4204D204C45F8201044F820202BB337
:1025E0001E4B1B56002B07DB03F01F0401221C4966
:1025F0005B09A24041F823201A4B1B4E1B4D1C4C7B
:102600001C491D4A53F8203036F8106035F8105038
:1026100034F8104031F8101032F810201E810020DC
:102620001D809C82198470BC9A8470470B4B1B568A
:10263000002BE1DB5A090121094C03F01F03203272
:1026400001FA03F344F82230BFF34F8FBFF36F8FCB
:10265000D2E700BFFC140420F0140420289D0000E1
:1026600000E100E01C9D00002C9D0000149D000076
:10267000149D00003C9D0000349D0000174A8B888B
:1026800052F82000CA8803804FF47A73828200E0F7
:1026900013B3828B013B12F0400F9BB2F8D1038938
:1026A0008A7830B403F4C043CD784C78134343EABE
:1026B00045130CB143F008030A780AB143F0040350
:1026C0000A7A0AB143F080034A7A0AB143F400431C
:1026D000038130BC00207047062070471C9D00001D
:1026E0000F4A4FF47A7352F8202000E0B3B1908B78
:1026F000013B00F0400080B29BB20028F6D1138964
:1027000023F010031B041B0C138129B113899BB206
:1027100043F0100313817047084670470620704746
:102720001C9D00000020FFF72BBF00BF0120FFF71A
:1027300027BF00BF0220FFF723BF00BF2DE9F041F4
:102740000C461146E36A00261A691E73E26282682B
:102750000129054693881ED023F020031B041B0C7F
:10276000938090F82D3073B1EB681BB194F834204E
:10277000022A1BD004F13C00FFF71EF9E16A0B7B33
:102780003BBBBDE8F0818268938823F001031B0402
:102790001B0C9380E8E723F012031B041B0C9380AF
:1027A000C368DBB194F83420022A17D1206B0027CC
:1027B0000669D0F800E0AA69AF6107603068266357
:1027C000C8B1A2B1042128699847E16A0B7B002BAC
:1027D000D7D0A36B2846BDE8F0411847AA68938A72
:1027E0005B06FCD5138F9BB2002BF8D1C2E7724673
:1027F00028699847C2E784F83400002AF7D0E1E757
:102800000B46416A012BCA6A70B5044610691CD098
:10281000022B0CBF4FF480654FF4805503685BB109
:10282000437B4BB1A36900262B43A3613246067359
:102830002046FFF783FF616AA36920462B43A3610B
:102840000022BDE87040FFF779BF4FF48075E5E7DF
:102850000B46016A012BCA6A70B5044610691CD088
:10286000022B0CBF4FF400654FF4005503685BB1B9
:10287000437B4BB1A36900262B43A361012206735E
:102880002046FFF75BFF216AA36920462B43A36123
:102890000122BDE87040FFF751BF4FF40075E5E736
:1028A0004B7B33B9826893889BB243F002039380D9
:1028B0007047426870B4147801230F4AA340C2F8ED
:1028C00014389362536253634B680C4D013B0E689E
:1028D0002D681A018068210142F0404233446C188F
:1028E00042F001026B506060A26083889BB243F0AB
:1028F0001003838070BC704700000140049D0000FD
:102900004B7B33B9826893889BB243F00103938079
:102910007047426870B4547801230F4AA340C2F84C
:102920001C389362536253634B680C4D013B0E6835
:102930002D681A018068210142F0406233446C180E
:1029400042F0010268506360A26083889BB243F04A
:102950002003838070BC704700000140049D00008C
:1029600038B5436A0446DB6A1A68F2B1197B51B97B
:10297000C5683DB1002202212069A847636ADB6A6D
:102980001A68AAB138BD856899682B88DBB25354A0
:10299000416ACA6A936854680133A3429360F1D1D3
:1029A000BDE838400022FFF7C9BEC568002DE1D15F
:1029B0001B7B002BE6D1A3681B8838BD70B516467B
:1029C00000220C4605463C311046FEF79FFF68B9D1
:1029D000226B136910601A6823634AB1A86930B189
:1029E000AA69002332600D20AB6170BD012070BD6B
:1029F00084F83420F2E700BF8368002210B49A8084
:102A0000436893F90320002A0EDB530901211B4C74
:102A100002F01F02203301FA02F244F82320BFF330
:102A20004F8FBFF36F8F436893F90220002A0EDBAC
:102A300053090121114C02F01F02203301FA02F266
:102A400044F82320BFF34F8FBFF36F8F436893F990
:102A50000420002A0EDB53090121084C02F01F025A
:102A6000203301FA02F244F82320BFF34F8FBFF363
:102A70006F8F43680020D86010BC704700E100E011
:102A80002DE9F84F144605468B461746DDF8289089
:102A90004FF0000ADFF84C811A4651462046C9F82B
:102AA00000A02E0103F0D6F808EB06039A686360D5
:102AB000A26007F830BBFEF711FABBF1010F66D038
:102AC0004249626804F144031078A166276284F8E1
:102AD00064A0A7652766E765C4F86CA067652364F2
:102AE00022463B49FEF726FA002866D1BBF1000FCB
:102AF0004BD13848C5EBC5056D00A368425B28443F
:102B00009A81A3684288C1881A85A368828846444E
:102B10009A84A36802899985A36841891A84A36865
:102B200000229987A3689A80C9F800406168F46020
:102B300091F90420002A0DDB53099B0003F1604347
:102B400002F01F02012003F5614300FA02F2C3F80C
:102B500080211A6091F90230002B07DB03F01F047B
:102B600001221D485B09A24040F8232091F903305F
:102B7000002B28DB03F01F001749012282405B096C
:102B800041F823200020BDE8F88F04F17007616848
:102B9000124A487867620023BA6307F114023A6167
:102BA000BF623F63FF627F6287F83430FB63224677
:102BB0000B49FEF7BFF900289BD02046FFF71CFF0A
:102BC0000F20BDE8F88F0020BDE8F88FA128000095
:102BD00051280000449D000000E100E001290000B0
:102BE00001280000E4000420F8B50646056A012724
:102BF000AC6A4FF0000CD4F810E085F8347084E82B
:102C0000060027736373C4F808C0069CE96AAB6BBF
:102C1000C5F828E098472246316A3046BDE8F840BA
:102C2000FFF7CCBE6F4B70B5DD6882B0AB681C8916
:102C300004F00E040C2C1CD8DFE804F0071B221B48
:102C40001D1B3A1B1B1B1B1B1D00B3F84460B3F874
:102C50004020B6B2310792B201D0D2074DD4B3F8BA
:102C60004020002122F007021204120CA3F8402099
:102C7000297502B070BD2846FFF772FE02B070BD24
:102C80002A6AD26A11680029F3D0107B0028F0D09C
:102C900092688A5C1A80296ACA6A9368506801330C
:102CA00083429360E5D328460122FFF747FDE0E722
:102CB0009A8A92B2D1061AD51B888023560711D55D
:102CC000940743F0200301D543F040032A7D002AF6
:102CD000CFD1A96904220B43AB61696A2846FFF78B
:102CE0002DFDC6E79007EFD4002BC2D0EEE712F01F
:102CF000080F14BF10230023E0E701A90020FEF70E
:102D000033FD08B100230193AB68F007B3F8481016
:102D1000B3F8442089B292B212D5988C12090604F5
:102D200042EA013223D4019BDB00B3FBF2F2AA6238
:102D3000EB6813B195F82C2072BBAB681A888EE74C
:102D400016F0020F14BF4FF400720022EC687007F7
:102D500048BF42F48072310748BF42F4806224B118
:102D6000696A91F83410022925D0EA61E6E73F2A22
:102D700018D85102C908A1F50061012601981E85E5
:102D8000C000B0FBF2F241F40843A9689BB28B8407
:102D9000AB689C85AA62CBE7AA6A03212869984799
:102DA000AB68CBE77F2A0AD81102C9080124A1F534
:102DB00000612646E2E705212869A047BDE7FF2A12
:102DC00006D8D101C908A1F5006102240126D5E782
:102DD000C2F30F26F0009101B1FBF0F10324A1F53D
:102DE0000061CBE7E4000420024B0122D868016AAD
:102DF000FFF7A4BCE4000420024B0022D868416A1B
:102E0000FFF79CBCE400042000B5084908480A68A4
:102E100083B042F4A0020A60B0230090054A022168
:102E20000020FFF72DFE03B05DF804FB0000024018
:102E30000815042068150420F0B5064689B0164A26
:102E400005AB164C07CA03C3154D216804AC1A70B4
:102E50000F0C00230822ADF80C10286805A9009477
:102E60008DF80E70FFF7C0FE304603F0A5F82B6812
:102E700002463146009418460023FFF7B5FE03A82A
:102E800003F09AF82B680246009403A91846002321
:102E9000FFF7AAFE09B0F0BD609D00006C9D000028
:102EA0000815042070B5114B84B01B6806461A0C37
:102EB000ADF808308DF80A2003F07EF80C4D03AC15
:102EC0002B6802463146184600940023FFF78CFE1B
:102ED00002A803F071F82B680246009402A9184674
:102EE0000023FFF781FE04B070BD00BF6C9D0000A1
:102EF00008150420FEE700BF08B50B4A0B4B9A42A9
:102F00000DD2D0430A4918440B4620F00300043088
:102F1000084453F8041B834242F8041BF9D100F023
:102F200047F8FDF76BF900BF000004207C0904207E
:102F300064A6000030B4194C236803F00303022B8D
:102F400008D0032B22D030BC154A164B1360164A0A
:102F5000136070472368E068E368E268114DC2F3CC
:102F6000004205FA02F200F01F0000FB02F1C3F379
:102F7000C323B1FBF3F2E3680949C3F3002322FA48
:102F800003F3094A0B60136030BC7047074B044AD7
:102F90001B6830BC1360044A1360704700C30440D0
:102FA0000C15042080BA8C0110150420141504207F
:102FB00044F659020A4BDA605A6942F003025A6138
:102FC000EFF3108372B6074A07484FF4E021906090
:102FD0005162BFF36F8FBFF34F8F83F31088704739
:102FE00000C0044000ED00E0000000000020704739
:102FF000704700BF08B54069FEF716FA08B140F007
:10300000806008BD10B5044600F098FB204610BD56
:1030100010B500F11403044600F11801302200201D
:10302000FEF7CCF910B140F0806010BD6069FEF78A
:103030002BFA0028F7D160690249FEF729FA002827
:10304000F1D1F2E7801A0600044A4821938E9BB220
:1030500043F0300393868174FFF7DABF000002402B
:1030600070B5044688B00D464069A17CFEF740FA71
:10307000034618B140F0806008B070BD08AE06F895
:10308000183D60690123022401AA04A9069504964B
:10309000ADF814308DF81E308DF81F30ADF81C409F
:1030A000FEF7CAF90028E5D108B070BDFFF7D8BF18
:1030B00030B583B00D46022201A9FFF7D1FF0446C7
:1030C00068B99DF805309DF8040043EA0020C00867
:1030D00001F038F94FF0765101F088F92860204668
:1030E00003B030BD30B583B00D46022201A9FFF711
:1030F000B7FF0446A0B99DF805309DF8040043EAE7
:103100000020C00801F01EF94FF0765101F06EF971
:10311000054901F06BF94FF0844101F05FF8286038
:10312000204603B030BD00BF6666E63FB1F5017FC3
:10313000F8B500F086801AD940F20623994200F0D3
:103140008F8052D3B1F5A06F3ED040F20153994227
:1031500040F09A80554C564B07CB206020461B7898
:1031600023736160A260BDE8F840FFF79BBE0229AF
:103170004BD037D9032912D040F20323994240F0B3
:1031800083804A4D4B4C0FCC2860206869602861D1
:10319000AA60EB602846BDE8F840FFF783BE464EC4
:1031A000424C06F1200735460FCDBD4220606160DC
:1031B000A260E36006F1100604F11004F3D107CE1B
:1031C000206033783948CBE73C4C384D0FCC24781D
:1031D00028602C746960AA60EB602846BDE8F8405E
:1031E000FFF760BE01294FD1F8BD304D344C0FCCF4
:1031F00028606960AA60EB602846FFF753FE3149FA
:10320000314A00230B701370F8BD304E274C06F185
:10321000200735460FCDBD4220606160A260E360AB
:1032200006F1100604F11004F3D103CE3288B3780E
:10323000206061602281A3721C48BDE8F840FFF75E
:1032400031BE234B194C07CB1B7820602373A2603F
:1032500020466160FFF726FE1B4B01221A70F8BD65
:10326000124D1C4C0FCC28606960AA6007CC2688E0
:10327000A4782861EB606961AA61AE83AC772846C7
:10328000BDE8F840FFF70EBE084D134C0FCC286088
:103290006960AA6007CC24782861EB602C776961AB
:1032A000AA612846BDE8F840FFF7FCBD18160420C7
:1032B000549E0000649E0000C49E0000409E0000DA
:1032C000309E00002D1504202C150420989E00002F
:1032D000209E0000789E0000F49E0000002270B541
:1032E00011461120FDF71EF90546A0B1F323324A1D
:1032F0003249334802F05CFD3148FFF79DFD2B4613
:10330000304A31492E4802F053FD2D48FFF7CAFDDF
:10331000002002F035F941F2883140F20320FDF738
:103320006FF80446A0B1F623234A2449244802F04A
:103330003FFD2348FFF780FD2346244A22492048C9
:1033400002F036FD1E48FFF7ADFD284602F018F9E1
:103350001F4D2846FDF728F90646A0B1F923164A65
:103360001649174802F024FD1548FFF765FD33465E
:10337000184A1549124802F01BFD1148FFF792FD4B
:10338000204602F0FDF82B78112B13D00C4D124C77
:103390000FCC28606960AA6007CC2688A4782861D1
:1033A000EB606961AA61AE83AC772846BDE87040E6
:1033B000FFF778BD70BD00BF149F00007C9F000028
:1033C00018160420849F0000A09F0000C09F0000EA
:1033D0002D150420EC9F000008A000000000000054
:1033E0002DE9F047BA49BB4B9AB0002208911A80E8
:1033F000FCF73EFFFEF770F9002848D1012108468E
:10340000FEF7D4F90446002840F051810121FEF76F
:10341000CDF90446002840F03E81FFF7F5FCAE4EA2
:10342000AE4D06F1300734460FCCBC4228606960CF
:10343000AA60EB6006F1100605F11005F3D1A7486C
:10344000FFF730FDFDF71EFD08A8FFF7FDFD50B1A9
:1034500020F07F43020EA249A04802F0A9FC9F4839
:10346000FFF720FDFEE708A8FFF7C0FD044608A807
:10347000FFF7BCFD014600B324F07F43220E9849BC
:10348000964802F095FC9548FFF70CFDFEE70446D0
:103490008C23944A9449914802F08AFC8F48FFF7A4
:1034A000CBFC2346914A92498C4802F081FC8B4820
:1034B000FFF7F8FC002002F063F88E48FCF76EFF7F
:1034C0000446002840F0DA800420FDF707F804469F
:1034D000002840F0C680034602460C218648FDF7CE
:1034E00075F80446002840F0AF80FFF7F7FEFDF7BF
:1034F000ABF80446002840F09A8048227F4977487C
:1035000002F032FB7E4E7548FFF7CCFC812203238C
:103510003270737006F10208B71D4FF4FA60FCF7C1
:1035200065FF044678B9774B1B78C3B9764B1B7897
:10353000112BF2D0FFF7D2FE4FF4FA60FCF756FFE2
:1035400004460028EFD0C323664A6749634802F067
:103550002FFC6248FFF770FC23466C4AA3E703A8E0
:10356000FDF730FBFDF7A8FC1AAB43F8640D1868B3
:1035700002226749C8F8000008A8FFF797FDF37911
:10358000B0791AAD43EA0020C00800F0DBFE4FF02E
:10359000765100F02BFF5F4945F8600D824600F040
:1035A00025FF4FF0844100F019FE814628684B4CFE
:1035B0003860504600F056FB02460B4620465649FE
:1035C00002F0F6FB2046FFF76DFC484600F04AFB90
:1035D00002460B462046514902F0EAFB2046FFF71F
:1035E00061FC474A1421BDF80C00FDF74DF878B98D
:1035F0004FF08441484600F0EFFD00F033FB32A36A
:10360000D3E9002300F0ACFC00F092FD029084E7C7
:10361000434D0FCD2060616003CD2D882061A260F5
:103620002046E36025836161FFF73CFCE0E74FF44F
:103630008D732C4A2C49294802F0BAFB2748FFF722
:10364000FBFB2346374A2EE74FF48A73254A264967
:10365000224802F0ADFB2148FFF7EEFB2346324A39
:1036600021E740F211131F4A1F491C4802F0A0FB3A
:103670001A48FFF7E1FB23462C4A14E740F20D13EA
:10368000184A1949154802F093FB1448FFF7D4FB78
:103690002346274A07E79223124A13490F4802F0AC
:1036A00087FB0E48FFF7C8FB2346224AFBE68F2321
:1036B0000C4A0D49094802F07BFB0848FFF7BCFBA8
:1036C00023461D4AEFE600BFCDCCCCCCCCCCFC3F92
:1036D000DC9D0000082C0040A0A00000181604206B
:1036E000D0A00000149F00007C9F000028A00000D4
:1036F000A09F00002D31000038A1000098A100001B
:10370000181504202C1504202D150420E0A100001C
:103710001E1504206666E63F0CA2000030A20000E1
:1037200054A200006CA1000048A1000018A10000F4
:10373000F8A0000074A0000050A0000001F060BFDD
:1037400010B50446024B036000F0CEF8204610BDD1
:1037500078A2000010B50446044B036000F0C4F8E2
:103760002046FFF7EBFF204610BD00BF78A2000007
:103770002DE9F04F894681B019461D461646074689
:103780000A9CDDF82CB0DDF830A0DDF8348000F0C4
:1037900073F888B1B9F1000FC8F8004088F80460E8
:1037A0001EDB4C44A2450CBF0624012488F80640C9
:1037B000002001B0BDE8F08F544518D0B8682B4602
:1037C0000568CDF83480CDF830A0CDF82CB00A943F
:1037D000EC6932464946A44601B0BDE8F04F604767
:1037E00019F1020FE4D1012388F80630E0E75946C9
:1037F000384600F041F80028E0D0002088F8056045
:1038000001B0BDE8F08F00BF70B582B0069C0D46D8
:103810009442064609D0B068294606680694346A80
:10382000A44602B0BDE8704060471946019200937B
:1038300000F022F8009B019A0028ECD0062002B08C
:1038400070BD00BF2DE9F04107460C4615461E46E7
:1038500000F062F808B1BDE8F081B8683346066848
:103860002146B4692A46A446BDE8F041604700BF3E
:10387000704700BF00207047814211D008B54068F2
:1038800003782A2B0AD049680B782A2B08BF01310C
:1038900002F0B4FAB0FA80F0400908BD002008BD7B
:1038A0000120704770B5066884B0002410231546C7
:1038B000029312686B46B66900948DF80440039435
:1038C000B0479DF8043003F00603062B11BF2046D5
:1038D000009B01202B6004B070BD00BF0098904297
:1038E0000CBF06200120704710B50446024B036050
:1038F000FFF7BEFF204610BDF0A2000010B5044641
:10390000044B0360FFF7B4FF2046FFF717FF204684
:1039100010BD00BFF0A2000038B515461C46FFF7E9
:10392000ABFF20B1082206232560E260237138BD79
:10393000F0B583B0089D0A9917468D4206460B9C48
:103940000BD019463046FFF797FF18B101232560C9
:103950002771A371002003B0F0BD09990193FFF70F
:103960008BFF18B10020677103B0F0BD019BE8E741
:103970002DE9F04117461C4606460D46FFF77CFF31
:1039800008B9032C01D9BDE8F0812B683A463146CD
:103990002846BDE8F0415B69184700BF81F000414F
:1039A00002E000BF83F0004330B54FEA41044FEA24
:1039B000430594EA050F08BF90EA020F1FBF54EABF
:1039C000000C55EA020C7FEA645C7FEA655C00F05B
:1039D000E2804FEA5454D4EB5555B8BF6D420CDD2C
:1039E0002C4480EA020281EA030382EA000083EAAF
:1039F000010180EA020281EA0303362D88BF30BD4F
:103A000011F0004F4FEA01314FF4801C4CEA1131A4
:103A100002D0404261EB410113F0004F4FEA033303
:103A20004CEA133302D0524263EB430394EA050F8E
:103A300000F0A780A4F10104D5F1200E0DDB02FAFD
:103A40000EFC22FA05F2801841F1000103FA0EF291
:103A5000801843FA05F359410EE0A5F120050EF157
:103A6000200E012A03FA0EFC28BF4CF0020C43FA88
:103A700005F3C01851EBE37101F0004507D54FF095
:103A8000000EDCF1000C7EEB00006EEB0101B1F5E5
:103A9000801F1BD3B1F5001F0CD349085FEA30002B
:103AA0004FEA3C0C04F101044FEA445212F5800F36
:103AB00080F09A80BCF1004F08BF5FEA500C50F1D3
:103AC000000041EB045141EA050130BD5FEA4C0CB6
:103AD000404141EB010111F4801FA4F10104E9D13F
:103AE00091F0000F04BF01460020B1FA81F308BF36
:103AF0002033A3F10B03B3F120020CDA0C3208DD02
:103B000002F1140CC2F10C0201FA0CF021FA02F1DC
:103B10000CE002F11402D8BFC2F1200C01FA02F14C
:103B200020FA0CFCDCBF41EA0C019040E41AA2BF71
:103B300001EB0451294330BD6FEA04041F3C1CDA39
:103B40000C340EDC04F11404C4F1200220FA04F059
:103B500001FA02F340EA030021FA04F345EA030103
:103B600030BDC4F10C04C4F1200220FA02F001FAC5
:103B700004F340EA0300294630BD21FA04F0294647
:103B800030BD94F0000F83F4801306BF81F48011E0
:103B90000134013D4EE77FEA645C18BF7FEA655C53
:103BA00029D094EA050F08BF90EA020F05D054EA25
:103BB000000C04BF1946104630BD91EA030F1EBF2A
:103BC0000021002030BD5FEA545C05D1400049412E
:103BD00028BF41F0004130BD14F580043CBF01F521
:103BE000801130BD01F0004545F0FE4141F4700107
:103BF0004FF0000030BD7FEA645C1ABF19461046E2
:103C00007FEA655C1CBF0B46024650EA013406BFE2
:103C100052EA033591EA030F41F4002130BD00BFA1
:103C200090F0000F04BF0021704730B54FF480645E
:103C300004F132044FF000054FF0000150E700BFDF
:103C400090F0000F04BF0021704730B54FF480643E
:103C500004F1320410F0004548BF40424FF000012B
:103C60003EE700BF42004FEAE2014FEA31014FEA6E
:103C700002701FBF12F07F4393F07F4F81F06051BD
:103C8000704792F0000F14BF93F07F4F704730B52C
:103C90004FF4607401F0004521F0004120E700BFBF
:103CA00050EA010208BF704730B54FF000050AE046
:103CB00050EA010208BF704730B511F0004502D547
:103CC000404261EB41014FF4806404F132045FEA49
:103CD000915C3FF4DCAE4FF003025FEADC0C18BFEE
:103CE00003325FEADC0C18BF033202EBDC02C2F1E4
:103CF000200300FA03FC20FA02F001FA03FE40EA76
:103D00000E0021FA02F11444C1E600BF70B54FF075
:103D1000FF0C4CF4E06C1CEA11541DBF1CEA135557
:103D200094EA0C0F95EA0C0F00F0DEF82C4481EABF
:103D3000030621EA4C5123EA4C5350EA013518BFDF
:103D400052EA033541F4801143F4801338D0A0FBCC
:103D500002CE4FF00005E1FB02E506F00042E0FB79
:103D600003E54FF00006E1FB03569CF0000F18BF7F
:103D70004EF0010EA4F1FF04B6F5007F64F5407427
:103D800004D25FEA4E0E6D4146EB060642EAC621BA
:103D900041EA55514FEAC52040EA5E504FEACE2E27
:103DA000B4F1FD0C88BFBCF5E06F1ED8BEF1004F2A
:103DB00008BF5FEA500E50F1000041EB045170BDA6
:103DC00006F0004646EA010140EA020081EA0301EA
:103DD000B4EB5C04C2BFD4EB0C0541EA045170BDE6
:103DE00041F480114FF0000E013C00F3AB8014F160
:103DF000360FDEBF002001F0004170BDC4F10004A9
:103E0000203C35DA0C341BDC04F11404C4F1200529
:103E100000FA05F320FA04F001FA05F240EA020084
:103E200001F0004221F0004110EBD37021FA04F6BA
:103E300042EB06015EEA430E08BF20EAD37070BD74
:103E4000C4F10C04C4F1200500FA04F320FA05F0D3
:103E500001FA04F240EA020001F0004110EBD370D5
:103E600041F100015EEA430E08BF20EAD37070BD45
:103E7000C4F1200500FA05F24EEA020E20FA04F31E
:103E800001FA05F243EA020321FA04F001F00041CD
:103E900021FA04F220EA020000EBD3705EEA430E3E
:103EA00008BF20EAD37070BD94F0000F0FD101F06D
:103EB0000046400041EB010111F4801F08BF013CA6
:103EC000F7D041EA060195F0000F18BF704703F0E4
:103ED0000046520043EB030313F4801F08BF013D6B
:103EE000F7D043EA0603704794EA0C0F0CEA135527
:103EF00018BF95EA0C0F0CD050EA410618BF52EAE1
:103F00004306D1D181EA030101F000414FF00000E6
:103F100070BD50EA410606BF1046194652EA4306F4
:103F200019D094EA0C0F02D150EA013613D195EA68
:103F30000C0F05D152EA03361CBF104619460AD1B0
:103F400081EA030101F0004141F0FE4141F47001BA
:103F50004FF0000070BD41F0FE4141F4780170BDAA
:103F600070B54FF0FF0C4CF4E06C1CEA11541DBF0F
:103F70001CEA135594EA0C0F95EA0C0F00F0A7F811
:103F8000A4EB050481EA030E52EA03354FEA01313E
:103F900000F088804FEA03334FF0805545EA131351
:103FA00043EA12634FEA022245EA111545EA106519
:103FB0004FEA00260EF000419D4208BF964244F1B0
:103FC000FD0404F5407402D25B084FEA3202B61ACF
:103FD00065EB03055B084FEA32024FF480104FF4A3
:103FE000002CB6EB020E75EB030E22BFB61A754617
:103FF00040EA0C005B084FEA3202B6EB020E75EBAA
:10400000030E22BFB61A754640EA5C005B084FEA11
:104010003202B6EB020E75EB030E22BFB61A7546DE
:1040200040EA9C005B084FEA3202B6EB020E75EBE9
:10403000030E22BFB61A754640EADC0055EA060EAA
:1040400018D04FEA051545EA16754FEA06164FEAED
:10405000C30343EA52734FEAC2025FEA1C1CC0D199
:1040600011F4801F0BD141EA00014FF000004FF026
:10407000004CB6E711F4801F04BF01430020B4F1E7
:10408000FD0C88BFBCF5E06F3FF6AFAEB5EB030C9F
:1040900004BFB6EB020C5FEA500C50F1000041EB9C
:1040A000045170BD0EF0004E4EEA113114EB5C0469
:1040B000C2BFD4EB0C0541EA045170BD41F480113C
:1040C0004FF0000E013C90E645EA060E8DE60CEA44
:1040D000135594EA0C0F08BF95EA0C0F3FF43BAF61
:1040E00094EA0C0F0AD150EA01347FF434AF95EA18
:1040F0000C0F7FF425AF104619462CE795EA0C0FFC
:1041000006D152EA03353FF4FDAE1046194622E7C8
:1041100050EA410618BF52EA43067FF4C5AE50EAA2
:1041200041047FF40DAF52EA43057FF4EBAE12E792
:104130004FEA4102B2F1E04324BFB3F5001CDCF1C9
:10414000FE5C0DD901F0004C4FEAC0024CEA507001
:10415000B2F1004F40EB830008BF20F00100704730
:1041600011F0804F21D113F13872BCBF01F0004033
:10417000704741F480114FEA5252C2F11802C2F165
:10418000200C10FA0CF320FA02F018BF40F00100E6
:104190004FEAC1234FEAD32303FA0CFC40EA0C0098
:1041A00023FA02F34FEA4303CCE77FEA625307D1D5
:1041B00050EA01331EBF4FF0FE4040F4400070470C
:1041C00001F0004040F0FE4040F40000704700BFA6
:1041D00080F0004002E000BF81F0004142001FBFBC
:1041E0005FEA410392EA030F7FEA226C7FEA236CC5
:1041F0006AD04FEA1262D2EB1363C1BFD2184140BA
:1042000048404140B8BF5B42192B88BF704710F04F
:10421000004F40F4000020F07F4018BF404211F0F2
:10422000004F41F4000121F07F4118BF494292EA5A
:10423000030F3FD0A2F1010241FA03FC10EB0C0086
:10424000C3F1200301FA03F100F0004302D5494213
:1042500060EB4000B0F5000F13D3B0F1807F06D3C0
:1042600040084FEA310102F10102FE2A51D2B1F1B8
:10427000004F40EBC25008BF20F0010040EA0300AD
:104280007047490040EB000010F4000FA2F101025A
:10429000EDD1B0FA80FCACF1080CB2EB0C0200FAE4
:1042A0000CF0AABF00EBC25052421843BCBFD04032
:1042B0001843704792F0000F81F4000106BF80F4AC
:1042C00000000132013BB5E74FEA41037FEA226C6F
:1042D00018BF7FEA236C21D092EA030F04D092F03A
:1042E000000F08BF0846704790EA010F1CBF00206E
:1042F000704712F07F4F04D1400028BF40F00040CB
:10430000704712F100723CBF00F50000704700F0EA
:10431000004343F0FE4040F4000070477FEA226211
:1043200016BF08467FEA23630146420206BF5FEAE2
:10433000412390EA010F40F4800070474FF00003E2
:1043400004E000BF10F0004348BF40425FEA000CA9
:1043500008BF704743F0964301464FF000001CE051
:1043600050EA010208BF70474FF000030AE000BFA7
:1043700050EA010208BF704711F0004302D54042E5
:1043800061EB41015FEA010C02BF84460146002057
:1043900043F0B64308BFA3F18053A3F50003BCFA72
:1043A0008CF2083AA3EBC25310DB01FA02FC63441F
:1043B00000FA02FCC2F12002BCF1004F20FA02F226
:1043C00043EB020008BF20F00100704702F1200219
:1043D00001FA02FCC2F1200250EA4C0021FA02F27A
:1043E00043EB020008BF20EADC7070474FF0FF0C7F
:1043F0001CEAD0521EBF1CEAD15392EA0C0F93EA7A
:104400000C0F6FD01A4480EA010C400218BF5FEA1B
:1044100041211ED04FF0006343EA501043EA51118E
:10442000A0FB01310CF00040B1F5000F3EBF490088
:1044300041EAD3715B0040EA010062F17F02FD2A8C
:104440001DD8B3F1004F40EBC25008BF20F001006F
:10445000704790F0000F0CF0004C08BF49024CEA86
:10446000502040EA51207F3AC2BFD2F1FF0340EA18
:10447000C250704740F400004FF00003013A5DDC89
:1044800012F1190FDCBF00F000407047C2F10002CA
:10449000410021FA02F1C2F1200200FA02FC5FEAB7
:1044A000310040F1000053EA4C0308BF20EADC7001
:1044B000704792F0000F00F0004C02BF400010F473
:1044C000000F013AF9D040EA0C0093F0000F01F020
:1044D000004C02BF490011F4000F013BF9D041EA42
:1044E0000C018FE70CEAD15392EA0C0F18BF93EA44
:1044F0000C0F0AD030F0004C18BF31F0004CD8D16E
:1045000080EA010000F00040704790F0000F17BFF4
:1045100090F0004F084691F0000F91F0004F14D03A
:1045200092EA0C0F01D142020FD193EA0C0F03D192
:104530004B0218BF084608D180EA010000F0004095
:1045400040F0FE4040F40000704740F0FE4040F470
:10455000400070474FF0FF0C1CEAD0521EBF1CEA0F
:10456000D15392EA0C0F93EA0C0F69D0A2EB03022D
:1045700080EA010C49024FEA402037D04FF08053C7
:1045800043EA111143EA10130CF000408B4238BF8C
:104590005B0042F17D024FF4000C8B4224BF5B1A9A
:1045A00040EA0C00B3EB510F24BFA3EB510340EAE8
:1045B0005C00B3EB910F24BFA3EB910340EA9C0096
:1045C000B3EBD10F24BFA3EBD10340EADC001B0106
:1045D00018BF5FEA1C1CE0D1FD2A3FF650AF8B42AA
:1045E00040EBC25008BF20F0010070470CF0004CB7
:1045F0004CEA50207F32C2BFD2F1FF0340EAC250E2
:10460000704740F400004FF00003013A37E792F0A2
:10461000000F00F0004C02BF400010F4000F013A00
:10462000F9D040EA0C0093F0000F01F0004C02BFFB
:10463000490011F4000F013BF9D041EA0C0195E764
:104640000CEAD15392EA0C0F08D142027FF47DAFFD
:1046500093EA0C0F7FF470AF084676E793EA0C0FED
:1046600004D14B023FF44CAF08466EE730F0004CEB
:1046700018BF31F0004CCAD130F000427FF45CAF7B
:1046800031F000437FF43CAF5FE700BF03685A009E
:104690004CBF43F0004323F000431844704700BF71
:1046A00061B32DE9F84F01F1FF3A90460646D14635
:1046B000002707EB090404EBD4746410E5007119BA
:1046C0000846FFF7E3FFA245834605F108003044A2
:1046D00009D0FFF7DBFFC34500F1FF3005D84045A7
:1046E00009D2671CE5E7C34505D9A74202D004F10A
:1046F000FF39DEE700210846BDE8F88F084670471D
:10470000012807D0022807D0044B00280CBF184608
:10471000002070470248704702487047154E00005D
:10472000194E00001D4E000030B5254B83B00446E5
:104730008D1E7BB301A92846AFF3008020B30199F9
:104740002A46FFF7ADFF0146F0B1FFF79FFF4B6828
:10475000A064012B12D0002B01F1040021DBFFF734
:1047600095FF0023E06423650368002B1DDBFFF742
:104770008DFF00232061184603B030BD0023236164
:104780000523184603B030BD0023236109231846D2
:1047900003B030BD0B490C4B0846591AC9100191A2
:1047A000CEE70123E0642365DEE7C3F30360FFF790
:1047B000A7FF0028206114BF00230923DBE700BF07
:1047C00000000000F4A4000064A60000036810B517
:1047D000DA07044606D49B0700F1480009D500F02B
:1047E0005BFC2368590709D51A070ED5DB0613D5DC
:1047F00010BD00F049FC23685907F5D404F1D0003E
:1048000000F052FC23681A07F0D404F5A87000F0F9
:1048100053FC2368DB06EBD404F5E870BDE81040D8
:1048200000F08EBC03680BB11844704718467047FF
:1048300009207047704700BF70B504460D4608E078
:104840002A6C2369626121462A460120984708287C
:1048500008D1296C2046FFF767FF06460028EFD0F5
:1048600000F086FE0728FBD13046296CFFF7E2FFF7
:10487000281D00F0FDFB00BF2DE9F0470646ADF511
:10488000727D03AD0C1D17460FCC0FC50FCC0FC5A5
:104890000FCC0FC594E80F0002ACD6F80C80D6F808
:1048A000189085E80F0000233046216C2360FFF745
:1048B0003BFF0546002F14BF0A2709277DB1A36BD4
:1048C00047F010018DE81002324663640120334640
:1048D000C04778BB28460DF5727DBDE8F087236C94
:1048E0004FF4F072736121467AA801F03DF9336903
:1048F0007AAA314638469847889B82468DE810024E
:1049000039466364324633460120C04790B94FF4BC
:10491000F0727AA9204601F027F9BAF1080F06D102
:10492000216C3046FFF700FF09270546C6E7BAF1BC
:10493000070F04D009200DF5727DBDE8F0872846E9
:10494000216CFFF777FF03A800F092FB406C7047E3
:10495000F0B5CB6BF9B00B640E1D01AD0F460446EC
:104960000FCE0FC50FCE0FC50FCE0FC596E80F00A7
:104970004FF0FF3685E80F00009606E023696A468F
:10498000214698470828054608D110992046FFF788
:10499000CBFE0028F2D0092079B0F0BD6846FFF7C1
:1049A00015FF062DF7D139462046FFF745FF00BF1A
:1049B00030B4DD6BC160826119461D64002230BCD9
:1049C0005AE700BF70B54369C6680B6426B101227F
:1049D000FFF752FF00F0CCFD03690A4604460D467E
:1049E000014602209847072807D0082803D1294606
:1049F0002046FFF721FF00F0BBFD3046296CFFF792
:104A000019FF281D00F034FBC2682AB110B4CC6B2A
:104A100000220C6410BC2FE79AE700BF704700BF6C
:104A2000836813B1014601201847704700B5042977
:104A300007D8DFE801F00309060909000BB90F2ABE
:104A400005D902205DF804FB01205DF804FB00EBB2
:104A5000820252681846019B1A605DF804FB00BF91
:104A600010B584B0002303AC0A4600941946FFF742
:104A7000DDFF039804B010BD00B5042907D8DFE8B6
:104A800001F00309060909000BB90F2A05D9022014
:104A90005DF804FB01205DF804FB019900EB820244
:104AA0000968184651605DF804FB00BF10B584B07A
:104AB00004AC44F8042D00230A4600941946FFF77D
:104AC000DBFF04B010BD00BFF0B5D36BADF50F7DBB
:104AD0001364151D17AC07460E460FCD0FC40FCD3E
:104AE0000FC40FCD0FC495E80F004FF0FF3584E8D9
:104AF0000F00169511E016A86A46FFF7D7FF31465A
:104B000016A8B84780B9049B16AA6946082098479A
:104B10000528044609D0092806D026996846FFF7DB
:104B200003FE0C210028E6D0092416A8FFF74EFE4C
:104B300020460DF50F7DF0BD2DE9F04FCC6C914670
:104B400022688BB004340D460792089400F0030BE2
:104B50001E46002B64D11202032307928DF82560B4
:104B60008DF824302B6DBBF1020F08BFAC6B13F036
:104B7000010343D100F00800C2B2039201932768F9
:104B8000002F3DD0022E47D02788B4F8028004348D
:104B9000AB6C28F0010A0F2148469A44FFF760FFEA
:104BA000824537D827F001039A4450452CBF002096
:104BB00001204FEA480808F0020807F0010748EA18
:104BC0000708B8F1010F41D038D3B8F1020F1DD159
:104BD000236823F000420292BBF1000F79D130B17B
:104BE0000399002900F08180002A00F0A880002BA2
:104BF00079DB029B013304EB8304C0E700230193BC
:104C0000022E40DDFFF714FE002842D009200BB031
:104C1000BDE8F08F0020CCE7D4F804800834B7E773
:104C2000022B9FDC130CD9B212048DF8253002231D
:104C300004EB810407928DF8243093E7BBF1000F59
:104C400002D0002840F0B080043498E7BBF1000F98
:104C500026D1B0B194E80C00991C4FEAD272D5D09D
:104C600005F158010133069100F09480201DFFF7F3
:104C7000D9FD06AB01462846AFF30080002840F07E
:104C8000B88008347BE707A9484600F0F3FA00280B
:104C9000BCD1019B002B5CD108200BB0BDE8F08F8C
:104CA0000D2148462F6AFFF7DBFE8742E9D1AB6A48
:104CB0009C42E6D12046FFF7E9FC0F210246484618
:104CC000FFF7F4FE48462A460021FFF7EFFE0720D3
:104CD0009DE70D2148462F6AFFF7C2FE874248D064
:104CE0002368002B85DA043483E7029B3BB305F18C
:104CF0005803271DCDF810B0DDF80C80A346DDF871
:104D000008A01C46059602E0B245B04616D03846CB
:104D10000694FFF787FD06AB014600222846AFF355
:104D2000008008F1010604370028EDD0029B5C46A4
:104D30004345DDF810B0059ED2D100E05C46484600
:104D40000D21FFF78DFE069B2862AC626B62062088
:104D50005DE70F214846FFF783FE0E2102464846D5
:104D6000FFF7A4FE48462A4A0F21FFF79FFE0720BF
:104D70004DE7AB6A9C42B3D1042202990027A318E5
:104D8000A962EF622A636B632368BB421FDB0123C6
:104D900001932EE748460D21FFF762FE2862069B2D
:104DA0006B62AC62062032E72046FFF76FFC0434EA
:104DB0000646AC632846AFF3008000283FF426AFD8
:104DC000484632460F21FFF771FE07201FE70846CD
:104DD000013004EB8000FFF759FC0F2102464846E2
:104DE000FFF764FE48462A463946FFF75FFE072074
:104DF0000DE707460D214846FFF732FE022F2862D5
:104E0000CDD12B46069A43F82C2F6B62C9E700BF21
:104E10000000000000238FE601238DE602238BE6CD
:104E2000F0B50446C5B004290DD8DFE801F05703FA
:104E30000C310F00012B4FEA124695B266D1721960
:104E4000102A40F29F80022045B0F0BD002BFAD11D
:104E5000102AF8D82368D80600F1C98022AE30465F
:104E6000019200F077F9A06B019A0023012505FA61
:104E700003F1114203D00168043046F823100133D6
:104E8000042BF4D1A063304600F05AF90020DBE790
:104E9000032BD8D1150C97B2EB19102BD3D823685C
:104EA0001E0700F1B88022AE30467F0000F026F9E0
:104EB00006EBC5027B1EA56B57B12946043A51F893
:104EC000040B013B42F8040F581CF8D105EB870591
:104ED0003046A56300F0F0F80020B5E7002BB2D112
:104EE000A56B97B2201D012606FA03F1394203F1A2
:104EF000010302D0296804350160102B00F1040081
:104F0000F2D112F400503BD1A5639DE7052B9AD155
:104F10007719202F97D80F2E65D92F46002D48D10D
:104F20002A460027002AA06B71DD00EBC202014671
:104F300044A800EBC6008C3851F8045B914240F85D
:104F4000045FF9D1084697B13246102E44A938BF04
:104F5000102201EBC202A2F5C4727900043A00EB00
:104F6000810150F8045B814242F8045FF9D1012BC2
:104F700047D00F2EA16332D917B102A800F094F8E0
:104F8000002061E70F2E3FF65EAF00272268D107B1
:104F90000DD522F00101052B21600193204652D04E
:104FA00022F0030240F8482B00F072F8019B002F1A
:104FB00051D02268510736D4012B3ED00F2E06D88F
:104FC00022A8019300F06CF8019B002FA8D002A842
:104FD000019300F06DF8019BC6F11002A2E722A830
:104FE00000F05AF8C8E7102FCFD9103FCEE723F0D2
:104FF0001003236004F5E870019200F0ABF8019A09
:105000002CE70431A16322A800F03EF8B8E7002F96
:105010009AD10146ABE723F00803236004F5A8709A
:1050200000F06CF83FE7204622F0040240F8D02B55
:10503000019300F03DF8019BBEE722A8019300F028
:1050400027F8019BC8E741F0020140F8481B00F037
:1050500027F8019BABE7012B03D00F2E3FF660AF83
:10506000AEE722A8019300F013F8019B58E700BFB8
:1050700000F1340191E838009C46A6464CF8045DE6
:1050800090E8FF0FE54600BD90EC210B704700BF94
:1050900080EC210B704700BF90EC200B704700BFE5
:1050A00080EC200B704700BFD0EC200B704700BF96
:1050B000C0EC200B704700BFF0EC0201F0EC0211D5
:1050C000F0EC0221F0EC0231F0EC0241F0EC025184
:1050D000F0EC0261F0EC0271F0EC0281F0EC029174
:1050E000F0EC02A1F0EC02B1F0EC02C1F0EC02D164
:1050F000F0EC02E1F0EC02F1704700BFE0EC0201DD
:10510000E0EC0211E0EC0221E0EC0231E0EC0241C3
:10511000E0EC0251E0EC0261E0EC0271E0EC0281B3
:10512000E0EC0291E0EC02A1E0EC02B1E0EC02C1A3
:10513000E0EC02D1E0EC02E1E0EC02F1704700BFEC
:10514000B0FC0181B0FC0191B0FC01A1B0FC01B147
:10515000704700BFA0FC0181A0FC0191A0FC01A14F
:10516000A0FC01B1704700BFEC4600B52DE900502E
:105170002DE9FF1F4FF000032DE90C0001A9FFF7F7
:10518000E7FBDDF840E012B0704700BFEC4600B529
:105190002DE900502DE9FF1F4FF000032DE90C0011
:1051A00001A9FFF70FFCDDF840E012B0704700BF27
:1051B000EC4600B52DE900502DE9FF1F4FF000032C
:1051C0002DE90C0001A9FFF71FFCDDF840E012B04B
:1051D000704700BFEC4600B52DE900502DE9FF1FD8
:1051E0004FF000032DE90C0001ABFFF7E1FBDDF808
:1051F00040E012B0704700BFEC4600B52DE900500A
:105200002DE9FF1F4FF000032DE90C0001AAFFF765
:105210005BFCDDF840E012B0704700BF037A1BB9B9
:10522000437A43B9B02070475A1E036802721A02CB
:105230000260180E70474268013B10B44372136855
:105240000321141D01721A024460026010BC180E82
:10525000704700BF00B585B003AA0023009219462D
:105260000C22FFF7E3FB039805B05DF804FB00BFD9
:10527000F0E700BF2DE9F04306460D4685B04FF03C
:1052800000082846FFF7CAFFB028044600F0B480A3
:1052900020F07F0313F0FF0320D000F0F003802BF9
:1052A0007AD0902B35D0A02B48D0B02B5CD0C02B1F
:1052B00000F0898000F0F803D02B0BD100F007023A
:1052C000013242F40022052301213046FFF7A8FDF8
:1052D0000028D6D0092005B0BDE8F0830DF10C09F7
:1052E00019468700CDF800900D223046FFF79EFB4F
:1052F000FFB2039B043760064CBFDF1BFF1800237F
:10530000CDF8009019460D2230460397FFF7B4FB05
:10531000B7E700F00D030D2BDCD003AF002300F046
:105320000F02194600973046FFF780FB00230097D5
:1053300019460D223046FFF79FFBA2E7C2434FF408
:105340007F6302F0070243FA02F2010702EA030256
:105350004FF0000348BF42F4804219463046FFF741
:105360005FFD0028B6D18CE7B1284AD0B22853D0CF
:10537000B32800F0818000F0FC03B42BAAD000F029
:1053800007020132012342F4002219463046FFF79A
:1053900047FD00289ED174E72846FFF73FFF24020F
:1053A0002043B0F5004F95D004010023A2B2194666
:1053B0003046FFF735FD00288CD114F4004F18BF9C
:1053C0004FF001085DE7C62862D0C7286CD000F016
:1053D000F803C02B7BD0C82800F09180C9287FF447
:1053E00079AF2846FFF71AFF020300F00F0002F41E
:1053F00070220130024366E7B8F1000F6ED0002042
:1054000069E72846FFF70AFF024600283FF462AF2B
:1054100010F0F003B9D05DE700230DF10C090D2267
:105420001946CDF800903046FFF700FB2846FFF7FD
:10543000F5FE02064FF002040CD5039B00F07F003E
:10544000A040034428460393FFF7E8FE030604F157
:105450000704F2D4039B00F07F0000FA04F203F586
:10546000017400231444CDF8009019460D223046F3
:105470000394FFF701FB04E72846FFF7CFFE010383
:1054800000F00F0001F47021421C01230A437CE765
:105490002846FFF7C3FE010300F00F0001F470215E
:1054A000421C03230A4370E72846FFF7B7FE024673
:1054B00000283FF40FAF10F0F0037FF40BAF04218E
:1054C0003046FFF7ADFC00287FF404AFD9E600F0CA
:1054D0000F020132032342F4202256E703AC434675
:1054E0000E22414600943046FFF7A0FA0094304661
:1054F00043460F224146FFF7BFFA4046EBE62846F7
:10550000FFF78CFE00F0F00200F00F0310320133C1
:1055100043EA0232D7E600BF10B5C36C84B0032063
:105520005A688DF80C00DC7912020833084601A98C
:1055300001928DF80D400293FFF79CFE04B010BD60
:1055400008B5FFF795FE806C08BD00BF08B5FFF7F2
:105550008FFEC36CD87903EB8000083008BD00BF14
:1055600008B500F005F800BF08B5FFF7F9FF00BF68
:1055700008B5062000F0FEFB012004F0A1FB00BFEF
:1055800008B50021044602F0FDF8044B1868C36B0F
:1055900003B19847204604F093FB00BF48A30000E6
:1055A00070B50F4E0F4D761BB61018BF002405D0F6
:1055B000013455F8043B9847A642F9D10A4E0B4DE9
:1055C00004F080FB761BB61018BF002406D001340F
:1055D00055F8043B9847A642F9D170BD70BD00BF95
:1055E0006C0904206C090420740904206C0904204F
:1055F000024B0146186800F00BB800BF20050420DC
:10560000024B0146186803F04FB900BF2005042083
:105610002DE9F04F01F10B05162D83B0064640F23F
:10562000A08035F0070500F1C080A94200F2BD80DE
:1056300000F05EFBB5F5FC7FC0F090826B0A00F0D5
:10564000BB80042B00F27781A80900F1390E4FEAE4
:105650004E013830BE4F07EB81014C680839A1423A
:1056600007D1AEE0002A80F2AE80E468A14200F0EB
:10567000A880636823F003035A1B0F2AF2DDB449A4
:105680003C6901F1080E744500F0A881636823F0BD
:1056900003035A1B0F2A00F38E81002AC1F814E07D
:1056A000C1F810E080F29380B3F5007F80F05C8158
:1056B000DB084A684FEAA3094FF0010C013351F8A7
:1056C00033800CFA09F901EBC30C49EA0202ACF190
:1056D000080CC4F80CC0C4F808804A6041F8334094
:1056E000C8F80C40831001249C4094427CD814429A
:1056F00006D120F003006400144200F10400FAD047
:1057000007EBC009CC468046DCF80C108C4507D16D
:1057100066E1002A80F27481C9688C4500F06081DE
:105720004B6823F003035A1B0F2AF2DD0C46CB68AB
:1057300054F808CF45F00108C1F804800D4442F048
:105740000101CCF80C303046C3F808C07D613D61E2
:10575000C5F80CE0C5F808E06960AA5000F0CAFA84
:105760001FE0102921D800F0C3FA102506230220DB
:10577000774F07EB83035C68A3F10802944200F0C3
:1057800038816368E16823F0030323445A68A568FD
:1057900042F00102E96030468D605A6000F0AAFADA
:1057A0000834204603B0BDE8F08F002420460C23C7
:1057B000336003B0BDE8F08F80214FF0400E3F20F2
:1057C00048E770465BE723445A68E168DFE7234413
:1057D0005A68304642F001025A60083400F08AFAF2
:1057E000204603B0BDE8F08FBC68636823F003086F
:1057F000A84504D3C5EB08030F2B00F38C80554B51
:10580000DFF860911A68D9F800302A44013304EBBC
:10581000080A00F0608102F580520F3222F47F62A4
:1058200022F00F0211463046019200F065FAB0F105
:10583000FF3F8346019A00F05881824500F2FC80C8
:10584000454BDA4519681144196000F05381D9F8C5
:105850000000DFF810E101301BBFCAEB0B0A514416
:10586000CEF800B019601BF0070100F01781C1F1FC
:105870000800C1F58051834408315A44C2F30B0239
:10588000C2EB010949463046019300F035FA431C4A
:10589000019B00F03F81CBEB00024A4442F0010241
:1058A0001968BC424944C7F808B01960CBF8042015
:1058B000DFF8A49016D0B8F10F0F40F2FD806268B7
:1058C000A8F10C0323F0070302F00102E0184FF0E7
:1058D000050E1A430F2B6260C0F804E0C0F808E020
:1058E00000F21C811D4BBC681A68914288BF196088
:1058F0001B4B1A689142626888BF196022F003024C
:105900009542A2EB050301D80F2B04DC304600F0D2
:10591000F1F9002445E745F0010243F00103254475
:1059200062603046BD6008346B6000F0E3F92046E9
:1059300003B0BDE8F08F142B71D9542B00F2A48072
:10594000280B00F16F0E4FEA4E016E3082E600BF69
:1059500024050420381504203C15042034150420A7
:1059600030150420300904205A0A042A5ED9142A6A
:1059700000F2B38002F15C0149005B3207EB810C5D
:1059800057F82110ACF1080C8C45DFF8D88100F0F5
:1059900088804A6822F00302934202D289688C45CB
:1059A000F7D1D1F80CC07A68C4F80CC0A160CCF86B
:1059B0000840CC6096E645F0010742F0010325441B
:1059C000676030464D610D61C5F80CE0C5F808E030
:1059D0006B60AA50083400F08DF9E2E64A6881E66F
:1059E00008F1010818F0030F0CF1080C7FF48CAEDD
:1059F00030E0DC68A34208BF02303FF440AEC0E6AE
:105A00000C460B445A68C96854F8085F42F001021A
:105A10005A603046E9608D6000F06CF9C1E603F130
:105A20005C0E03F15B004FEA4E0113E69A0902F1A6
:105A3000390149003832A1E7BC424A4B3FF400AF7C
:105A40009C68626822F003025AE759F808399945C0
:105A500040F0828010F0030F00F1FF30F5D17B6839
:105A600023EA04037B6064009C423FF6BDAE002C39
:105A70003FF4BAAE1C4240467FF442AE64001C4282
:105A800000F10400FAD03BE6B3F5AA7F18D8E80B82
:105A900000F1780E4FEA4E017730DBE54FF480518C
:105AA000EBE60121D8F80430921001FA02F21A4311
:105AB000C8F80420614677E70123CBF8043025E7D6
:105AC00040F25452934220D8A80C00F17D0E4FEAC8
:105AD0004E017C30BEE51032A4E6542A26D81A0BBB
:105AE00002F16F0149006E3248E7BC68626822F03B
:105AF000030205E7CAF30B0000287FF4A8AE424476
:105B0000BB6842F001025A60ECE6FE214FF07F0EC6
:105B10007E209FE501224FF00009C1E604F1080153
