:1000000000400020612A00005D2A00005D2A0000F7
:100010005D2A00005D2A00005D2A0000000000004B
:100020000000000000000000000000005D2A000049
:100030005D2A0000000000005D2A00005D2A00002B
:10004000FD1700005D2A00005D2A00005D2A000007
:100050005D2A00005D2A00006513000035130000D2
:100060007516000069110000711100008D2200005A
:10007000952200005D2A00008D2700001D20000051
:10008000352000005D2A00005D2A00006D0F000091
:10009000B1200000C12000005D2A00005D2A0000A0
:1000A000412000005120000079200000892000003C
:1000B00051290000612900005D2A00005D2A00002E
:1000C0005D2A00005D2A00005D2A00005D2A000014
:1000D0005D2A00005D2A00005D2A00005D2A000004
:1000E0009D220000DD120000292000009112000076
:1000F0005D2A00005D2A00005D2A0000000000006B
:1001000000000000000000000000000000000000EF
:1001100000000000000000000000000000000000DF
:100120005D2A00005D2A00005D2A00005D2A0000B3
:100130005D2A00005D2A00005D2A00005D2A0000A3
:10018000FFFFFFFFFFFFFFFFFFFFFFFFFFFFFFFF7F
:1001900003329CA77F000000FFFFFFFFFFFFFFFF70
:1001A00010B5054C237833B9044B13B10448AFF3B1
:1001B00000800123237010BD000C0420000000000B
:1001C0006C290100084B10B51BB108490848AFF372
:1001D00000800848036803B910BD074B002BFBD013
:1001E000BDE81040184700BF00000000040C0420C8
:1001F0006C2901006409042000000000154B002B4D
:1002000008BF134B9D46A3F5803A00218B460F464D
:100210001348144A121A0BF0E9FF0F4B002B00D0C1
:1002200098470E4B002B00D0984700200021040077
:100230000D000D48002802D00C480EF00DF90BF00F
:100240009FFB2000290002F09FFF0BF07FF900BF09
:100250000000080000400020000000000000000036
:10026000000C0420D016042059E4000061F60000C0
:1002700030B40648064D074C0749084B084A05604C
:100280000C6000201A6030BC704700BF00000240C4
:10029000000550005051050040000240800002401F
:1002A0002000C000014B01221A707047240C04206A
:1002B000014B01221A7070471C0C04200A4A4000AE
:1002C00008B5114683B200209380D38001F08AFFE5
:1002D00008B1012008BD054A0121107001F0B4FFEA
:1002E000003018BF012008BD000004201C0C0420B1
:1002F0002DE9F04F254CDFF89CA085B00646274637
:10030000D046234DDFF8909001E0237893B92B7805
:1003100003F0FF0B002BF8D0003618BF0126002198
:10032000084601F091FF00280CBF3046012005B0BF
:10033000BDE8F08F87F800B000F0D2F986420146A0
:1003400016D0DAF80030002BE1D0B0F5C06F13D032
:10035000B0F5E06F0ED1019000F048FC04AAD8F887
:100360000030019902F8010DD9F800009847CEE756
:100370005E46D4E75A46F7E7019000F031FC04AA44
:1003800002F8010DD8F800300199EDE7240C0420A3
:100390001C0C0420280C0420200C042010B50F4B4A
:1003A0000F4C002219602060012310460D4901F016
:1003B000C3FE08B1012010BD0B4800F06BF800B17E
:1003C00010BD41F28830FFF779FF0028F2D1BDE877
:1003D00010404FF48070FFF78BBF00BF200C04204B
:1003E000280C0420B1020000A502000008B5FFF7A8
:1003F00065FF08B1012008BDBDE80840FFF778BFE0
:1004000010B504460846FFF759FF20B92046BDE85D
:100410001040FFF76DBF012010BD00BF10F0010FAD
:1004200008B5084604D0FFF749FF50B1012008BDC8
:10043000FFF744FF0028F9D1BDE808400920FFF785
:1004400057BF0820BDE80840FFF752BFF8B50F4C72
:100450008D1C8E1D4FF0010E6FF03F0765726FF01F
:100460000305F1B2A080608184F806E0E77125728F
:1004700022B11BB1C4F88820C4F88C30044800F0C5
:10048000E9FC003018BF0120F8BD00BF2C0C04208F
:10049000320C0420F8B500F061FC08B10120F8BD71
:1004A0000D4B4FF4807201276FF03F066FF003058C
:1004B0000224981D06219F71DE711D725C725A81A3
:1004C0009A8000F0C7FC0028E8D1BDE8F8404FF45E
:1004D0007A710820FFF7A2BF2C0C04200146F8B562
:1004E0000F4B4FF400726FF03F076FF003060325C8
:1004F000012459701973981D0721DF711E725D72F6
:100500005A819C719A8000F0A5FC08B12046F8BD84
:100510002046BDE8F8404FF47A71FFF77FBF00BF77
:100520002C0C0420F8B51D4B187369B30988A3F887
:100530000D10EAB111681A4CC3F80F1095881021FC
:10054000A58092790C275A7540F2062201246FF09B
:100550003F066FF0030598705F7212485A819C71D4
:10056000DE711D729A8000F075FC30B12046F8BD36
:1005700040F2052209210527E8E74FF47A710820A7
:10058000BDE8F840FFF74ABF1AB10988A3F80D107B
:10059000D0E7072103274FF40172D7E72C0C042082
:1005A0003B0C0420320C042008B502460123002134
:1005B00040F20720FFF74AFF00B108BD4FF47A71FF
:1005C0000120BDE80840FFF729BF00BFF0B50C4689
:1005D00016461B4D83B00146224605F10D00ADF8CD
:1005E00006302C730BF028FD032E1DD040F21B2388
:1005F000BDF80610281904344673E4B2C181A11D68
:10060000012602346FF03F076FF00302C9B20D48B4
:10061000AB806B816C72AE71EF712A7200F01AFCC4
:1006200038B1304603B0F0BD0134E4B240F21A23D1
:10063000E5E730464FF47A71FFF7F0FE03B0F0BD06
:100640002C0C0420320C0420F8B50E4B4FF4A062A1
:100650006FF03F076FF0030602250124981D062165
:10066000DF711E725D725A819C719A8000F0F2FBFC
:1006700008B12046F8BD2046BDE8F8404FF47A7135
:10068000FFF7CCBE2C0C0420F8B50D46134C1146D8
:10069000A0812A4604F10F00A5730BF0CDFC40F2B7
:1006A000015305F109016FF03F076FF003020535B3
:1006B0000126C9B2A01DE771227265726381A6711D
:1006C000A38000F0C7FB08B13046F8BD4FF47A7143
:1006D0000820BDE8F840FFF7A1BE00BF2C0C0420A5
:1006E000F0B5C54D83B005F14604002320460DF159
:1006F00007024021C5F84A3085F84E30C5F846302B
:1007000000F0BAFB10B99DF8073013B9012003B00F
:10071000F0BD022B08D995F84620042A04D195F89B
:100720004810DA1E914202D0022003B0F0BD95F8C5
:1007300047200E2A00F07081FF2AF5D195F8492054
:10074000A02AF1D195F84B0095F84A20032942EAF6
:10075000002212B295F84C6094B2E5D940F20E2115
:10076000073B8A42DBB200F02E8118DD40F20331F4
:100770008A4246D0B2F5417F39DBB2F5A06F00F076
:10078000BF8040F38D80B2F5C06F00F02581B2F5D7
:10079000E06F25D1092B00F0F6810320B7E740F286
:1007A00001218A423CDCB2F5007F80F2CD8040F22C
:1007B00001118A4200F0BF80B2F5817F10D1022B77
:1007C000EBD995F84E0095F84D3095F84F108B4ABF
:1007D00043EA0023A5F8BC3085F8BE10C5F8C02058
:1007E0001EB140F201139C42D7D120468FE740F260
:1007F00001318A4200F0DB8000F3C580B2F5407F12
:10080000EED1032BC9D195F84E1095F84D3095F8DF
:100810004F2043EA0123A5F8C43085F8C620DFE75E
:10082000B2F5027F00F0CF8049DCA2F50172022A06
:10083000D6D8112BB1D1724A95F84D10134695F8C0
:100840004E0053F87EED41EA00209F8895F859103C
:1008500095F85830978043EA012195F85D7095F836
:100860005C3095F85BC095F85A2043EA0723A5F859
:10087000CC0095F84F7095F85000A5F8D81095F871
:10088000571042EA0C22C5F8CFE0A5F8DA20A5F807
:10089000DC3085F8CE7085F8D50085F8D6109FE756
:1008A000B2F5417F9CD1062B7FF477AF554A1346B2
:1008B00053F8670D9B88C5F8B400938090E740F229
:1008C00009218A428CD1082B7FF667AF4E4B95F8F1
:1008D0004D701A4652F8420D95F85410B2F804E0E3
:1008E00095F85520C5F890003A3BA3F83EE0C5F8CE
:1008F0009C20C5F8983085F8967085F897106FE7BA
:1009000095F84F703C4D142F3FF647AF022B7FF602
:1009100044AF95F84E1095F84D303A4643EA01231E
:1009200005F1F90005F1500185F8F870A5F8F630E9
:100930000BF082FB54E7012B7FF42FAF95F84D307D
:10094000204685F8F430E2E6092B7FF626AF2F4BE0
:1009500095F84DE01A4652F8520D95F85470928869
:10096000C5F8A00095F855109A8095F85620493B97
:10097000C5F8AC3085F8A6E085F8A77085F8A81012
:10098000C5F8B0202CE7082B7FF407AF204995F875
:100990004E700A4652F8770D95F84D30928843EA2A
:1009A00007238A80A5F8C430C5F8C60018E7022BD3
:1009B0007FF4F3AE95F84E2095F84D3043EA0223CC
:1009C000A5F8C4300CE7002B3FF4E7AE114AC5F898
:1009D000F030C5F8EC2003E7032B7FF4DEAE95F88A
:1009E0004E1095F84D3095F84F2043EA0123A5F8B5
:1009F000DE3085F8E020F3E62C0C04207C0C04208B
:100A0000FB0C0420E00C0420BC0C0420CC0C0420C3
:100A1000F20C0420790C042095F84A30C02B7FF4A6
:100A200083AE95F84B30FC2B7FF47EAE95F84D00ED
:100A300095F84C30052943EA002000B295F84E4065
:100A400082B27FF671AEAB8893427FF4A6AE40F2DD
:100A500012238A1F9842D2B23BD01EDDB0F5427FEE
:100A600000F0828040F20933984273D040F215239F
:100A700098425CD0D5F88C104F4B9142FFF48DAE6C
:100A800003F14F01D3F888000BF0D6FA122C3FF691
:100A900084AE4A4B33F8140039E6B0F5817F2CD090
:100AA00040F203239842E5D1072A7FF476AED5F8C9
:100AB0008C30414A072B7FF470AE1146D2F8883053
:100AC00051F84F0F18608988998092F855209A71D3
:100AD000DCE7002A3FF461AED5F88C303649052BAF
:100AE0007FF45BAE91F84F30D1F888005A0000F8DF
:100AF000023B50310BF0A0FAC8E7042A7FF44DAE58
:100B0000D5F88C202C4B042A7FF447AE93F8500084
:100B100093F84F20D3F8881042EA00220A8093F815
:100B2000522093F8513043EA02234B80AEE7D5F8C8
:100B30008C30013A9A4220493FF62FAED1F88830E6
:100B400091F84F2018685A6091F84F2050310BF0FF
:100B500073FA9BE7012CD5F8883029D0002C95D169
:100B600001221A700820D2E5002A3FF416AED5F80B
:100B70008C20114B012A7FF410AED3F8882093F813
:100B80004F30137082E70E4995F84EE00A4652F84E
:100B9000950D95F84D30978895F8552043EA0E232A
:100BA0008F80A5F8E230C5F8E40085F8EA2017E662
:100BB00000221A700A20AAE52C0C04203011010032
:100BC000100D042030B40546044C0FCC2860696039
:100BD000AA60EB6023882B8230BC7047F80C04209D
:100BE000014B93F8E00070472C0C0420014B93F864
:100BF000EA0070472C0C0420014BD3F880301847D2
:100C0000400D04202DE9F043504D4FF4806483B033
:100C1000C5F880410646894690461F46C5F8804083
:100C2000BFF34F8FBFF36F8F2021012000F076FAC2
:100C300018BB0446464D05E0BDF8062001341ABB3A
:100C4000AC4252D00DF106020821002000F06EFAED
:100C500003460028F0D03D4B4FF48062C3F880215A
:100C600001241A602021012000F050FA00280CBF56
:100C70002046012003B0BDE8F0830120C5F8804183
:100C80002C6003B0BDE8F0833148304A4FF48061F6
:100C90008442C2F8801111601ED02E4C022201A99C
:100CA000C4F800D061602281628136B32A4D4222AD
:100CB000286821468DF801308DF804308DF8053014
:100CC0008DF8002001F09AF968B99DF80530984533
:100CD00033D93B700524C5E70624C3E728681D49BE
:100CE00001F08CF938B30424BCE7184B4FF4806250
:100CF000C3F8802106241A60B4E7174D81232868C1
:100D000021468DF801608DF804608DF805608DF83E
:100D1000003001F073F90028E5D19DF805309845C1
:100D20003B70D7D326813B7826606381C4F804905A
:100D30003B78002BD2D1002494E787F80080A4F8F8
:100D400008806081C4F800906060F1E700E100E095
:100D5000A08601000C000420400D042010B53A4C80
:100D600084B0C4F88000102104F1300000F05EF976
:100D700010B1012004B010BD23462C22211D0220F9
:100D800000F0CCFE10B1022004B010BD0146206876
:100D900000F066FF0028F6D10122082100F09AF940
:100DA0000028E6D1082100F071F90028E1D10822DD
:100DB0000A2100F055F902460028DAD123490A2019
:100DC00000F0BEF90028D4D101221046202100F005
:100DD00065F90028CDD12021012000F097F90028E5
:100DE000C7D101224FF40071022000F057F900280A
:100DF000BFD14FF40071022000F090F90028B8D163
:100E000002904FF6FE7202E0029B01330293029BB6
:100E10009342F9D94FF40071022000F077F90028CD
:100E2000A7D103904FF6FE7202E0039B01330393B8
:100E3000039B9342F9D90DF1070340220449002096
:100E4000FFF7E0FE96E700BF400D0420F90B00001D
:100E5000800D042010B50C4682B00DF10703014649
:100E600022460120FFF7CEFE9DF807309C4218BFB6
:100E7000042002B010BD00BF13460A460146002000
:100E8000FFF7C0BE10B50A4C1822234609490120BD
:100E900000F0FCFA00B110BD0521206800F0D0FB85
:100EA0000028F8D120680121BDE8104000F072BB95
:100EB000DC0D0420C40D042000B5074B83B001A94C
:100EC000186800F085FB18B1002003B05DF804FB42
:100ED000019803B05DF804FBDC0D0420EFF31080F3
:100EE00072B6104A1378D3B90F4B012170B4117048
:100EF00059680E4E0E4C6FF0784241F001014FF4EC
:100F0000002559609E6025601A62DA625A63DA63CE
:100F10009A64DA641A6580F3108870BC704780F3B5
:100F200010887047001404200000014000100420C5
:100F300000E100E030B40C4C012304EBC005696013
:100F4000AA60834039B1D4F8DC000343C4F8DC3034
:100F5000002030BC7047D4F8DC20002022EA0303D4
:100F6000C4F8DC3030BC704700140420184B2DE965
:100F7000F047184DD3F84C809C6C1F6DD5F8DC30D1
:100F800044EA070919EA03091AD0B9FA89F30126D4
:100F9000C3F11F0305EBC301D1F804A006FA03F364
:100FA000002229EA0309BAF1000F05D01C42886823
:100FB00014BF01210221D047B9FA89F3202BE7D1D0
:100FC000034B9C641F65C3F84C80BDE8F08700BFED
:100FD00000000140001404202DE9F0410F46124E9C
:100FE00082B0F568002405EBC00556F82420092FCF
:100FF0000CBF138D938DD5F8008099B2138E0B40E2
:10100000ADF806301386B8F1000F00D02BB90134CB
:10101000032CEAD102B0BDE8F0810DF106022146B1
:101020006868C047F3E700BF1C0004200A4AD36881
:101030000BB10020704730B408494FF400754FF4ED
:101040008064D060036043608360C3600D600020F3
:101050000C6030BC704700BF1C00042000E100E0C1
:10106000094B53F82000EFF3108372B6092906D01C
:101070000A2900D1828583F31088002070470285F9
:1010800083F31088002070471C000420024B53F8A3
:1010900020300020998470471C0004200C4B10B4B1
:1010A00053F82000EFF3108472B683889BB23AB9EC
:1010B00023EA0101818084F31088002010BC70476E
:1010C0001943818084F31088002010BC704700BF52
:1010D0001C0004200C4B10B453F82000EFF31084D4
:1010E00072B683899BB23AB923EA0101818184F304
:1010F0001088002010BC70471943818184F3108848
:10110000002010BC704700BF1C000420024B53F8A5
:1011100020300020198370471C000420024B53F834
:1011200020300020998370471C000420034B53F8A3
:10113000203000201B8A1940118070471C000420B9
:10114000093830B480B2EFF3108372B6054CE4680E
:1011500004EBC00544F830106A6083F31088002067
:1011600030BC70471C00042009210020FFF734BF69
:101170000A210120FFF730BF4CF61432F8B51C4BA2
:101180001C48194602250024DA601D610460DA60FB
:101190001A692A431A610B69154A9B05FBD546F665
:1011A0001A064CF61435144B14491868144F20F0E5
:1011B0000300186000241F201C605F60DE6058611F
:1011C0000C608C604C64D56011690E4B21F00401F9
:1011D0004FF40060402780264FF4007511611F60B6
:1011E0001E605D60586001F059FC2046F8BD00BFEC
:1011F00000C10440E014042000C3044000C00440C7
:101200000404100000E100E038B504460D4601F08A
:1012100045FC8CB1012C0DD10A4B5B6803F03F03F8
:10122000094A002B126808BF0123B2FBF3F3002028
:101230002B6038BD042038BD024B5B68C3F3052327
:10124000EEE700BF00C3044008150420012810B5D4
:1012500019D014D3022810D109046FF47F03EFF3DF
:10126000108272B60948446823401943416082F3F2
:10127000108801F013FC002010BD042010BD0902ED
:101280006FF47C53EBE76FF03F03E8E700C30440E3
:1012900038B50F4A0F4B14689B6903F0060524B15B
:1012A00013F004020BD19B0702D40A4B9D6138BD99
:1012B000094B07211868A047064B9D6138BD064BB6
:1012C000002218680821A047024B9D6138BD00BF6D
:1012D000E014042000C30440E814042038B5124A86
:1012E000124B15689B6903F4CC445DB14CB15804B2
:1012F0000DD4990413D49A0513D45B0504D50621A3
:1013000006E038BD002CFCD0084B9C6138BD0421A0
:10131000074B00221868A847044B9C6138BD032185
:10132000F6E70521F4E700BFE014042000C3044001
:10133000E814042008B5084B5968CB070BD5074BB8
:101340001B681BB1064A106800229847024A53687E
:1013500043F00103536008BD00C00440E0140420C2
:10136000E814042038B50E4D0E4A2B6854684BB172
:1013700062070ED4A30705D50B4A2B68106801211C
:1013800000229847074A04F0060453681C4354603F
:1013900038BD05490022086811469847EAE700BFB2
:1013A000E014042000C00440E8140420274B002966
:1013B000F0B506BF194602270027032844D8DFE806
:1013C00000F040393B024FF0FF340627EFF3108363
:1013D00072B644F659061E4DDFF878E0EE60AE684E
:1013E00026F003063043A860DEF8100038430440BE
:1013F000CEF81040EFF31180520182F311880A6891
:1014000052B9BFF34F8F30BF83F31088EFF31083CF
:1014100072B60A68002AF4D00A68013A0A6080F3BA
:1014200011880C490A6922F002020A61BFF34F8F4A
:1014300083F310880020F0BD47F004074FF0FF341D
:10144000C4E76FF00604C1E70620F0BDE4140420F1
:1014500000C0044000ED00E0034620B11A680020FF
:1014600001321A607047EFF3108372B605490A69BA
:1014700022F002020A61BFF34F8F83F31088024B00
:10148000ECE700BF00ED00E0E41404202DE9F0419A
:101490000D4604460021196028461E4667000AF0E2
:1014A000A5FE38483B1950F8231029600A8902F03C
:1014B000800292B2002AF9D10A800A858B881A0626
:1014C000FCD50B89DB05FCD441F6FF738B808A8841
:1014D000D205FCD500238B810B828A889305FCD52D
:1014E000391900EB8101DFF8A8E004EBC4038D603B
:1014F0009B000EEB03023EF803E02B68B2F802807B
:10150000B2F804C06961A3F800E01189B2F806E0FE
:10151000A3F82880A3F80CC0B2F80AC0A3F810E022
:10152000B2F80CE099821849A3F818C08B42A3F8CE
:1015300044E013D03C4400EB840494F9043035605B
:10154000002B2B7307DB03F01F0001220F495B09FF
:10155000824041F823200020BDE8F081118AA3F8E1
:101560004C10518AA3F850102B68B2F814E0D18ABD
:10157000A3F854E02B68128BA3F858102B68A3F83B
:101580007020D7E72C0004200014004000E100E0A8
:1015900044000420026813891B06FCD4EFF3108278
:1015A00072B669B101680B889BB243F001030B80EE
:1015B00082F31088026893881B06FCD500207047D0
:1015C00001680B8823F001031B041B0C0B80EFE761
:1015D0000268138903F4C063002BFAD190F90C3030
:1015E000002B22DB70B45A090124144D03F01F03B1
:1015F000203204FA03F345F82230BFF34F8FBFF3D4
:101600006F8F066890F90C30308AB289002B92B245
:1016100042EA00420A6005DB03F01F0294405B09C6
:1016200045F82340002070BC7047108A93899BB214
:1016300043EA00430B600020704700BF00E100E078
:101640000268938DDB04FCD430B4EFF3108472B6DF
:1016500005682A8D22F4F0731B041B0C43EA411326
:101660002B8584F310880268938D5B04FCD50020E1
:1016700030BC7047604B2DE9F0419F683B6818888B
:101680009A8892B212F07E064BD080B220F4FF61AD
:1016900021F0030189B200296DD1188D9A8D80B295
:1016A00092B212F01F0502D0C40640F08580B3F854
:1016B0005000B3F8482080B292B2C2F30C046CB36D
:1016C00041F6FE7E00EA0E0EBEF1000F05D0800549
:1016D00003D5900501D541F40061B3F8500080B204
:1016E00020F43E6E2EF0030EBEF1000F1BD1D7F892
:1016F0000480B8F1000F01D0002937D19A8892B246
:1017000032439A809A8D92B22A439A85B3F8482040
:1017100092B22243A3F84820BDE8F081B3F85020EC
:10172000E5E73146B9E710F4804F04D012F0100F0E
:1017300018BF41F4802110F4005F04D012F0080FAC
:1017400018BF41F4003110F4805F04D012F0040F90
:1017500018BF41F480314005C9D5D207C7D5D7F8A5
:10176000048041F40041B8F1000FC7D00022B868EE
:10177000C0473B68C2E700F0040189B209B1C2F377
:101780004001C50403D5140748BF41F00401050416
:1017900003D5540648BF41F02001450403D5940603
:1017A00048BF41F0100180047FF577AFD5067FF583
:1017B00074AF41F0080170E7C40603D5D40648BFF2
:1017C00041F48061040703D5140748BF41F4007158
:1017D000440703D5540748BF41F48071840703D5FB
:1017E000940748BF41F08001C0077FF560AFD40780
:1017F00048BF41F040015AE72C000420604B2DE91E
:10180000F0415F693B6818889A8892B212F07E06B0
:101810004BD080B220F4FF6121F0030189B200298E
:101820006DD1188D9A8D80B292B212F01F0502D040
:10183000C40640F08580B3F85000B3F8482080B269
:1018400092B2C2F30C046CB341F6FE7E00EA0E0EB7
:10185000BEF1000F05D0800503D5900501D541F4F8
:101860000061B3F84C0080B220F43E6E2EF0030EFF
:10187000BEF1000F1BD1D7F80480B8F1000F01D0E2
:10188000002937D19A8892B232439A809A8D92B2C7
:101890002A439A85B3F8482092B22243A3F84820FD
:1018A000BDE8F081B3F84C20E5E73146B9E710F424
:1018B000804F04D012F0100F18BF41F4802110F4B3
:1018C000005F04D012F0080F18BF41F4003110F48B
:1018D000805F04D012F0040F18BF41F4803140053E
:1018E000C9D5D207C7D5D7F8048041F40041B8F173
:1018F000000FC7D00022B868C0473B68C2E700F0BD
:10190000040189B209B1C2F34001C50403D514072B
:1019100048BF41F00401050403D5540648BF41F017
:101920002001450403D5940648BF41F0100180040E
:101930007FF577AFD5067FF574AF41F0080170E70A
:10194000C40603D5D40648BF41F48061040703D51B
:10195000140748BF41F40071440703D5540748BF3A
:1019600041F48071840703D5940748BF41F080019A
:10197000C0077FF560AFD40748BF41F040015AE788
:101980002C000420012914D0022908D0016941F05B
:101990004001016183684BB1C068002218470169AA
:1019A000836841F010010161002BF5D12830FFF769
:1019B00053BD016941F004010161EBE7012915D034
:1019C000022908D0116941F08001116193684BB17F
:1019D000D068002218471169936841F02001116115
:1019E000002BF5D102F12800FFF736BD116941F057
:1019F00008011161EAE700BFF0B5016883B00B8C04
:101A00009BB2ADF806300C88A4B2260638D503691F
:101A100043F002030361C36963BB0B8A9A0726D4B0
:101A20008B8A426823F4185392F90C201B041B0C78
:101A30000125002A8B8280F822500CDB530936499D
:101A400002F01F02203305FA02F241F82320BFF30F
:101A50004F8FBFF36F8F83680546002B55D0016908
:101A60000022C068984729680C8003B0F0BD0B883D
:101A70009B07D5D40369002BD2D10C8003B0F0BDF5
:101A8000E5063DD4BDF80620BDF8065002F00F0271
:101A9000C2F1080292B2C5F303258AB1838BABB1C0
:101AA000466900E093B13778013B0F8190F82070D0
:101AB000013A9BB23E4492B283834661002AF1D13F
:101AC00090F8243013B1838B002BA4D1002DA2D029
:101AD000C38B002B9FD0826901E0002B9BD08B88A9
:101AE000013D1370C38B816990F82120013B0A44AA
:101AF0009BB2ADB2C38382610168002DEDD18AE74C
:101B0000036943F00103036185E72830FFF7A4FC74
:101B100029680C8003B0F0BD00E100E0F8B505468F
:101B20000C461F46084600210AF060FB164EA9002D
:101B3000164A4B1902EB8302314490684B8836F801
:101B400025500021626014612060A16205828381BA
:101B50003C602268138A9BB243F001031382FFF7B3
:101B6000BDF96368224698780949FFF7E3F908B19F
:101B70000E20F8BD6368224698790649FFF7DAF926
:101B80000028F5D1F8BD00BF5C1101008C000420D5
:101B9000BD19000085190000426892F90C30002B35
:101BA00013DB10B45A090121094C03F01F03203242
:101BB00001FA03F344F82230BFF34F8FBFF36F8F66
:101BC00042680020106110BC70470020106170470F
:101BD00000E100E010B4EFF3108472B6026891B92E
:101BE0001183138A23F002031B041B0C1382138A34
:101BF0009BB243F4207343F00103138284F31088F3
:101C0000002010BC7047138A9BB243F0020313827A
:101C100084F31088002010BC704700BF30B583B03B
:101C200005460C46002001A9FFF7EEFA10B103208B
:101C300003B030BD0199B1EB440F02D20C2003B0C8
:101C400030BDB1FBF4F35B08013B9BB203F03F02F4
:101C50009A4201D00720EBE72B689A81E8E700BFA2
:101C600080F82610002070472DE9F04F4B680C6873
:101C70000A894D89836144618283C5830C7B036833
:101C800080F820404C7B4FF0000E80F82140CE7B46
:101C90008C7B80F822E01F8A85B027F441573F04EF
:101CA0003F0C80F8234080F82460C0F810E00096D4
:101CB0001F82002C00F017819F8A002D40F0748154
:101CC000BFB247F400579F821F8890F826E0BFB24A
:101CD000ADF80E70BDF80E70009EBFB21F801F8A57
:101CE000B1F80A80BFB247F002071F82A3F830E0C4
:101CF0001EB1B8F1010F00F07781B3F810E00F8941
:101D00001FFA8EFE4EF4405EA3F810E0B3F810E028
:101D10002EF4405E4FEA0E4E4FEA1E4EA3F810E03E
:101D2000B3F81CE02EF0070E4FEA0E4E4FEA1E4E9F
:101D3000A3F81CE0002F00F04981D0F804E0BEF8C1
:101D400000A0BEF802904FFA8AFCBCF1000F0ADB3B
:101D50000AF01F0A4FF0010BA54E4FEA5C1C0BFA6C
:101D60000AFA46F82CA0FE07DFF888A248BF013720
:101D70004FF0010C0CFA09FC48BFBFB2CAF814C8F6
:101D8000CAF828C0CAF824C0CAF834C0DFF868A26C
:101D90004FEA570C0CF1FF3CDAF800604FEA0C1CDC
:101DA000A7F1020A0F684FEA09194CF0454C06EBFF
:101DB000090B57444CF0010C03F1080A46F809706E
:101DC0000196CBF804A04FF00309CBF808C04746B2
:101DD000B8F1000F00F0BE80BEF804B0BEF806C037
:101DE0004FFA8BFABAF1000F0ADB0BF01F064FF027
:101DF000010B0BFA06FB7E4E4FEA5A1A46F82AB040
:101E000018F0010FDFF8ECB118BF08F101084FF02E
:101E1000010A0AFA0CFA18BF1FFA88F7CBF81CA8B7
:101E2000DFF8D481CBF828A0CBF824A0CBF834A0DD
:101E3000C7F34F0A0AF1FF3AD1F804B04FEA0A118A
:101E4000D8F800A04FEA0C1C023F41F09A415F44D1
:101E500041F001010AEB0C0B03F104084AF80C8075
:101E6000CBF80470CBF8081000219984009949F050
:101E70000409002973D1002D40F0AD80198A89B280
:101E800041F480511982AA4238BF2A461A83002C95
:101E90007CD1416979B1828BA2F10806B6B2541E99
:101EA0004AB10D78A2B21D8190F82040B24221447F
:101EB00082834161F3D11A8A520658BF9B889EF9EA
:101EC0000C30002B07DB03F01F04012248495B099B
:101ED000A24041F8232090F82530002B6AD1002041
:101EE00005B0BDE8F08F002A14BF4FF408574FF437
:101EF0000057002D51D19C8AA4B247EA040199826F
:101F0000198A89B241F040011982198890F8264057
:101F100089B2ADF80E10BDF80E1089B21980198A79
:101F200089B241F0020119821C860024A146198A57
:101F3000D0F804E089B241F440511982198A21F4A1
:101F400040510904090C1982998B21F007010904F9
:101F5000090C998300219984009900298BD0998CD0
:101F6000013A21F0F0010904090C9984998C89B295
:101F700041F0010141EA820292B29A841A8A92B235
:101F800042F400621A821D83002C82D09A8B92B296
:101F900042EA0909A3F81C908DE7998A89B241F4B5
:101FA000806139439982B0E727F400573F043F0C22
:101FB0009F8289E60146002228311046FFF7F6F994
:101FC00000288CD00D2005B0BDE8F08FD0F804E0DB
:101FD0004FF00109FBE6002A7FF455AF198A89B258
:101FE00041F4005119824EE7002180F823109CE74C
:101FF00000E100E00000014058110100012310B58C
:1020000080F825300446FFF72FFE002384F82530A2
:1020100018B92369002B18BF0F2010BD014B186998
:10202000FFF7EABC8C000420014B586AFFF7E4BCC0
:102030008C000420014B986BFFF7DEBC8C00042061
:10204000024B00221B699A83704700BF8C0004205A
:10205000084B00211B691A68D983938B23F007036F
:102060001B041B0C9383938A9BB243F4005393820B
:10207000704700BF8C000420024B00225B6A9A83E9
:10208000704700BF8C000420084B00215B6A1A686F
:10209000D983938B23F007031B041B0C9383938A30
:1020A0009BB243F400539382704700BF8C0004201E
:1020B000024B00229B6B9A83704700BF8C00042068
:1020C000084B00219B6B1A68D983938B23F007037D
:1020D0001B041B0C9383938A9BB243F4005393829B
:1020E000704700BF8C000420F8B5104B104F53F818
:1020F000206057F82030B58B6BB1ADB2EA070446CB
:102100000CD4AB0707D50B4A57F8243052F82400FB
:102110000221002298470323B381F8BD054900221C
:1021200051F8200001219847EBE700BF7011010032
:10213000F8140420EC14042070B4204D204C45F811
:10214000201044F820202BB31E4B1B56002B07DB1E
:1021500003F01F0401221C495B09A24041F823201F
:102160001A4B1B4E1B4D1C4C1C491D4A53F820306A
:1021700036F8106035F8105034F8104031F810106F
:1021800032F810201E8100201D809C82198470BCB2
:102190009A8470470B4B1B56002BE1DB5A09012137
:1021A000094C03F01F03203201FA03F344F82230F4
:1021B000BFF34F8FBFF36F8FD2E700BFF814042037
:1021C000EC1404207C11010000E100E0701101001A
:1021D00080110100681101006811010090110100D7
:1021E00088110100174A8B8852F82000CA880380A2
:1021F0004FF47A73828200E013B3828B013B12F0BA
:10220000400F9BB2F8D103898A7830B403F4C043FD
:10221000CD784C78134343EA45130CB143F00803DF
:102220000A780AB143F004030A7A0AB143F0800342
:102230004A7A0AB143F40043038130BC002070475E
:1022400006207047701101000F4A4FF47A7352F85C
:10225000202000E0B3B1908B013B00F0400080B241
:102260009BB20028F6D1138923F010031B041B0C2A
:10227000138129B113899BB243F010031381704776
:102280000846704706207047701101000020FFF7D4
:102290002BBF00BF0120FFF727BF00BF0220FFF7C1
:1022A00023BF00BF2DE9F0410C461146E36A00262A
:1022B0001A691E73E26282680129054693881ED05E
:1022C00023F020031B041B0C938090F82D3073B176
:1022D000EB681BB194F83420022A1BD004F13C00B7
:1022E000FFF7BAF8E16A0B7B3BBBBDE8F08182687F
:1022F000938823F001031B041B0C9380E8E723F071
:1023000012031B041B0C9380C368DBB194F83420C8
:10231000022A17D1206B00270669D0F800E0AA69CD
:10232000AF61076030682663C8B1A2B10421286993
:102330009847E16A0B7B002BD7D0A36B2846BDE8FA
:10234000F0411847AA68938A5B06FCD5138F9BB2AD
:10235000002BF8D1C2E7724628699847C2E784F893
:102360003400002AF7D0E1E70B46416A012BCA6A24
:1023700070B5044610691CD0022B0CBF4FF4806569
:102380004FF4805503685BB1437B4BB1A3690026D2
:102390002B43A361324606732046FFF783FF616A31
:1023A000A36920462B43A3610022BDE87040FFF7DC
:1023B00079BF4FF48075E5E70B46016A012BCA6AC5
:1023C00070B5044610691CD0022B0CBF4FF4006599
:1023D0004FF4005503685BB1437B4BB1A369002602
:1023E0002B43A361012206732046FFF75BFF216A9E
:1023F000A36920462B43A3610122BDE87040FFF78B
:1024000051BF4FF40075E5E74B7B33B98268938881
:102410009BB243F0020393807047426870B4147813
:1024200001230F4AA340C2F81438936253625363E6
:102430004B680C4D013B0E682D681A018068210124
:1024400042F0404233446C1842F001026B5060602D
:10245000A26083889BB243F01003838070BC7047F6
:1024600000000140581101004B7B33B9826893880A
:102470009BB243F0010393807047426870B4547874
:1024800001230F4AA340C2F81C389362536253637E
:102490004B680C4D013B0E682D681A0180682101C4
:1024A00042F0406233446C1842F0010268506360AD
:1024B000A26083889BB243F02003838070BC704786
:1024C000000001405811010038B5436A0446DB6A38
:1024D0001A68F2B1197B51B9C5683DB100220221D9
:1024E0002069A847636ADB6A1A68AAB138BD8568A3
:1024F00099682B88DBB25354416ACA6A936854685E
:102500000133A3429360F1D1BDE838400022FFF7C8
:10251000C9BEC568002DE1D11B7B002BE6D1A368A5
:102520001B8838BD70B5164600220C4605463C3166
:102530001046FEF73BFF68B9226B136910601A68FA
:1025400023634AB1A86930B1AA69002332600D2023
:10255000AB6170BD012070BD84F83420F2E700BF8C
:102560008368002210B49A80436893F90320002AFC
:102570000EDB530901211B4C02F01F02203301FA2C
:1025800002F244F82320BFF34F8FBFF36F8F4368ED
:1025900093F90220002A0EDB53090121114C02F0AD
:1025A0001F02203301FA02F244F82320BFF34F8FB9
:1025B000BFF36F8F436893F90420002A0EDB5309A1
:1025C0000121084C02F01F02203301FA02F244F804
:1025D0002320BFF34F8FBFF36F8F43680020D86075
:1025E00010BC704700E100E02DE9F84F14460546A5
:1025F0008B461746DDF828904FF0000ADFF84C8133
:102600001A4651462046C9F800A02E0109F0EEFDF9
:1026100008EB06039A686360A26007F830BBFEF718
:102620005DFCBBF1010F66D04249626804F14403CE
:102630001078A166276284F864A0A7652766E7651D
:10264000C4F86CA06765236422463B49FEF772FC20
:10265000002866D1BBF1000F4BD13848C5EBC5054A
:102660006D00A368425B28449A81A3684288C188B0
:102670001A85A368828846449A84A368028999854A
:10268000A36841891A84A36800229987A3689A8065
:10269000C9F800406168F46091F90420002A0DDB5C
:1026A00053099B0003F1604302F01F02012003F570
:1026B000614300FA02F2C3F880211A6091F90230F6
:1026C000002B07DB03F01F0401221D485B09A24019
:1026D00040F8232091F90330002B28DB03F01F0082
:1026E0001749012282405B0941F823200020BDE800
:1026F000F88F04F170076168124A48786762002316
:10270000BA6307F114023A61BF623F63FF627F62FE
:1027100087F83430FB6322460B49FEF70BFC002898
:102720009BD02046FFF71CFF0F20BDE8F88F00204C
:10273000BDE8F88F09240000B923000098110100BA
:1027400000E100E06924000069230000C8000420C3
:10275000F8B50646056A0127AC6A4FF0000CD4F8BC
:1027600010E085F8347084E8060027736373C4F8BA
:1027700008C0069CE96AAB6BC5F828E0984722467A
:10278000316A3046BDE8F840FFF7CCBE6F4B70B5FC
:10279000DD6882B0AB681C8904F00E040C2C1CD8D8
:1027A000DFE804F0071B221B1D1B3A1B1B1B1B1B16
:1027B0001D00B3F84460B3F84020B6B2310792B2BE
:1027C00001D0D2074DD4B3F84020002122F00702F7
:1027D0001204120CA3F84020297502B070BD2846DF
:1027E000FFF772FE02B070BD2A6AD26A1168002932
:1027F000F3D0107B0028F0D092688A5C1A80296A96
:10280000CA6A93685068013383429360E5D32846CF
:102810000122FFF747FDE0E79A8A92B2D1061AD566
:102820001B888023560711D5940743F0200301D558
:1028300043F040032A7D002ACFD1A96904220B432B
:10284000AB61696A2846FFF72DFDC6E79007EFD414
:10285000002BC2D0EEE712F0080F14BF10230023A4
:10286000E0E701A90020FEF7CFFC08B100230193A7
:10287000AB68F007B3F84810B3F8442089B292B2BD
:1028800012D5988C1209060442EA013223D4019B26
:10289000DB00B3FBF2F2AA62EB6813B195F82C20CF
:1028A00072BBAB681A888EE716F0020F14BF4FF4A4
:1028B00000720022EC68700748BF42F48072310752
:1028C00048BF42F4806224B1696A91F83410022949
:1028D00025D0EA61E6E73F2A18D85102C908A1F5D8
:1028E0000061012601981E85C000B0FBF2F241F4A0
:1028F0000843A9689BB28B84AB689C85AA62CBE72E
:10290000AA6A032128699847AB68CBE77F2A0AD8CF
:102910001102C9080124A1F500612646E2E705215C
:102920002869A047BDE7FF2A06D8D101C908A1F54B
:10293000006102240126D5E7C2F30F26F0009101C1
:10294000B1FBF0F10324A1F50061CBE7C80004203E
:10295000024B0122D868016AFFF7A4BCC80004201A
:10296000024B0022D868416AFFF79CBCC8000420D3
:1029700000B5084908480A6883B042F4A0020A601A
:10298000B0230090054A02210020FFF72DFE03B07E
:102990005DF804FB000002400415042084150420A7
:1029A000F0B5064689B0164A05AB164C07CA03C3F4
:1029B000154D216804AC1A700F0C00230822ADF8E5
:1029C0000C10286805A900948DF80E70FFF7C0FE62
:1029D000304609F0D1FF2B68024631460094184674
:1029E0000023FFF7B5FE03A809F0C6FF2B680246D7
:1029F000009403A918460023FFF7AAFE09B0F0BD12
:102A0000B4110100C01101000415042070B5114B70
:102A100084B01B6806461A0CADF808308DF80A2001
:102A200009F0AAFF0C4D03AC2B680246314618464C
:102A300000940023FFF78CFE02A809F09DFF2B688D
:102A40000246009402A918460023FFF781FE04B055
:102A500070BD00BFC011010004150420FEE700BFD7
:102A600008B50B4A0B4B9A420DD2D0430A49184481
:102A70000B4620F003000430084453F8041B834243
:102A800042F8041BF9D100F047F8FDF7B7FB00BF8F
:102A90000000042068090420D82C010030B4194C2F
:102AA000236803F00303022B08D0032B22D030BC91
:102AB000154A164B1360164A136070472368E06886
:102AC000E368E268114DC2F3004205FA02F200F039
:102AD0001F0000FB02F1C3F3C323B1FBF3F2E36871
:102AE0000949C3F3002322FA03F3094A0B60136078
:102AF00030BC7047074B044A1B6830BC1360044A63
:102B00001360704700C304400815042080BA8C018C
:102B10000C1504201015042044F659020A4BDA6003
:102B20005A6942F003025A61EFF3108372B6074A02
:102B300007484FF4E02190605162BFF36F8FBFF3FD
:102B40004F8F83F31088704700C0044000ED00E011
:102B5000000000000F207047704700BF10B504460A
:102B600000F070FC204610BD08B5006DFFF714F8AA
:102B700008B140F0C06008BDF0B587B08DF8051011
:102B8000002101230B26022501AC8DF800108DF8E1
:102B90001610006D02A917468DF80460ADF81050AC
:102BA000ADF812308DF814308DF815308DF81730DF
:102BB0000294CDF80CD0FFF721FA18B140F0C060B4
:102BC00007B0F0BD9DF800303B7007B0F0BD00BF0E
:102BD000F0B587B00023032501248DF801100A27E2
:102BE00001AE006D02A98DF80220CDF808D08DF855
:102BF00004308DF805308DF806308DF817308DF8DB
:102C000016308DF80070ADF81050ADF812508DF8F8
:102C100014408DF815400396FFF7F0F908B140F025
:102C2000C06007B0F0BD00BF036870B51B69044603
:102C30000D461646984700B170BD236832465B6961
:102C4000A91C204698470028F6D123683246291D42
:102C50002046BDE870409B69184700BF014B0360E8
:102C6000704700BF3412010010B500F15003044654
:102C700000F121012C220120FEF750FF10B140F09D
:102C8000C06010BD0121206DFEF7A4FF0028F6D121
:102C90000649206DFEF7C2FF0028F0D1206D01210A
:102CA000FEF7DEFF0028EAD1EBE700BF20A1070016
:102CB00030B5036883B05D6A0DF10702012300217E
:102CC0000446A84730B99DF80730AD2B18BF4FF028
:102CD000206001D003B030BD22680123556A194637
:102CE0000DF107022046A8470028F3D19DF80730D0
:102CF0001D2B01D00948EDE723680DF107025D6A3D
:102D0000204601230221A8470028E3D19DF807307F
:102D10000348F22B08BF0020DCE700BF0100000AD7
:102D20000200000A30B5026883B0556A01230DF134
:102D300007022C210446A84768B99DF8072023689C
:102D400002F0380242F003029D6A8DF80720204607
:102D500001232C21A84703B030BD00BF70B582B05D
:102D60000546FFF781FF08B102B070BD2846FFF7A6
:102D70009FFF04460028F7D12A680123966A1F2185
:102D800052222846B04740F6FE720194019B9342BE
:102D900005D8019B01330193019B9342F9D9002887
:102DA000E2D12846FFF7BEFFDEE700BF2DE9F04184
:102DB00082B0002302AF054688461C4607F8013D55
:102DC00001E044450CD22A680123566A0B213A4699
:102DD0002846B0479DF807300134DB07E4B2F0D550
:102DE000B8EB040018BF012002B0BDE8F08100BFBD
:102DF00070B504460D460A21FFF7D8FF23682A461E
:102E00005E6A204601230E21B04700B170BD2368E1
:102E10006A1C5D6A2046AC46BDE8704001230F2164
:102E2000604700BF70B504460D460A21FFF7BEFF9C
:102E300023682A465E6A204601231021B04700B16C
:102E400070BD23686A1C5D6A2046AC46BDE87040D0
:102E500001231121604700BF2DE9F04104461646C9
:102E60000D460A21FFF7A2FF22683346576A204623
:102E70002A461221B84708B1BDE8F08121686A1CD2
:102E80004D6A33462046AC46BDE8F0411321604709
:102E900070B5036882B00E465D6A0DF1070201232A
:102EA0002D210446A84760B99DF80720236822F029
:102EB000030232439D6A8DF80720204601232D210D
:102EC000A84702B070BD00BF0221FFF7E1BF00BFFD
:102ED0000021FFF7DDBF00BFB1F5017FF8B500F0BD
:102EE00086801AD940F20623994200F08F8052D38F
:102EF000B1F5A06F3ED040F20153994240F09A8064
:102F0000554C564B07CB206020461B7823736160DD
:102F1000A260BDE8F840FFF779BD02294BD037D950
:102F2000032912D040F20323994240F083804A4D96
:102F30004B4C0FCC2860206869602861AA60EB6068
:102F40002846BDE8F840FFF761BD464E424C06F109
:102F5000200735460FCDBD4220606160A260E3606E
:102F600006F1100604F11004F3D107CE2060337887
:102F70003948CBE73C4C384D0FCC247828602C7472
:102F80006960AA60EB602846BDE8F840FFF73EBDE7
:102F900001294FD1F8BD304D344C0FCC2860696009
:102FA000AA60EB602846FFF731FD3149314A002322
:102FB0000B701370F8BD304E274C06F120073546D4
:102FC0000FCDBD4220606160A260E36006F1100693
:102FD00004F11004F3D103CE3288B378206061602D
:102FE0002281A3721C48BDE8F840FFF70FBD234BB8
:102FF000194C07CB1B7820602373A26020466160C8
:10300000FFF704FD1B4B01221A70F8BD124D1C4C3A
:103010000FCC28606960AA6007CC2688A478286154
:10302000EB606961AA61AE83AC772846BDE8F840E1
:10303000FFF7ECBC084D134C0FCC28606960AA6008
:1030400007CC24782861EB602C776961AA61284657
:10305000BDE8F840FFF7DABC34160420BC120100CA
:10306000CC1201002C130100A812010098120100DB
:1030700029150420281504200013010088120100DE
:10308000E01201005C130100002270B5114611200E
:10309000FDF748FA0546A0B1E723324A32493348E2
:1030A00009F066FB3148FFF77BFC2B46304A31497B
:1030B0002E4809F05DFB2D48FFF7A8FC002008F022
:1030C00045FA41F2883140F20320FDF799F90446B0
:1030D000A0B1EA23234A2449244809F049FB2348A4
:1030E000FFF75EFC2346244A2249204809F040FBB2
:1030F0001E48FFF78BFC284608F028FA1F4D28468B
:10310000FDF752FA0646A0B1ED23164A16491748B4
:1031100009F02EFB1548FFF743FC3346184A1549C2
:10312000124809F025FB1148FFF770FC204608F013
:103130000DFA2B78112B13D00C4D124C0FCC2860AC
:103140006960AA6007CC2688A4782861EB60696171
:10315000AA61AE83AC772846BDE87040FFF756BC45
:1031600070BD00BF7C130100E4130100341604207D
:10317000EC13010008140100281401002915042093
:103180005414010070140100F0B59DB007A8FFF7BA
:1031900065FD954B00221A80FDF76AF8FDF7ECFFFC
:1031A0000446002840F0148101210846FEF74EF83D
:1031B0000446002840F000810121FEF747F804464C
:1031C000002840F0ED80FDF75DFEFFF7D1FB874D55
:1031D000874F2C4607F1300E3E460FCE76452060D5
:1031E0006160A260E36007F1100704F11004F3D1FD
:1031F0003B887E482380FFF709FC07A8FFF7AEFD58
:1032000050B120F07F43020E7A49784809F0B0FAB5
:103210007648FFF7FBFBFEE707A8FFF755FE0446DD
:1032200007A8FFF751FE014678B124F07F43220E34
:1032300070496E4809F09CFA6C48FFF7E7FBFEE71F
:1032400007A8FFF789FC00F015FD6B48FDF7A6F80D
:103250000446002840F097800420FDF73FF904461B
:10326000002840F08380034602460C216348FDF7A6
:10327000ADF9044600286CD1FFF706FFFDF7E4F92D
:103280000446002858D148225D49584808F0D4FE29
:103290005648FFF7BBFB5B4B812101225A4F197047
:1032A0005A709E1C4FF4FA60FDF7A0F8044670BBFC
:1032B0003B7833B9554B1B78112BF3D0FFF7E4FE65
:1032C000F0E702A8FDF77EFCFDF7F6FD1CAB43F826
:1032D0006C0D1868062230604D4907A8FFF7A4FC62
:1032E000484A1421BDF80800FDF7CEF90028D9D0CE
:1032F000484C0FCC2860696003CC248828613B4887
:10330000AA60EB602C836961FFF780FBCAE7C123E9
:10331000414A4249354809F02BFA3448FFF740FB4F
:1033200023463F4A3F49314809F022FA2F48FFF728
:103330006DFB002008F00AF94FF48773364A3749CD
:103340002A4809F015FA2948FFF72AFB2346364A8E
:10335000E8E74FF48473304A3049244809F008FA0A
:103360002248FFF71DFB2346304ADBE740F20513F6
:10337000294A2A491D4809F0FBF91C48FFF710FBB0
:1033800023462B4ACEE740F20113234A234917482C
:1033900009F0EEF91548FFF703FB2346254AC1E77C
:1033A00091231D4A1D49114809F0E2F90F48FFF722
:1033B000F7FA2346204AB5E78E23174A17490B48E8
:1033C00009F0D6F90948FFF7EBFA23461B4AA9E7AB
:1033D0008B23114A1149054809F0CAF90348FFF740
:1033E000DFFA2346164A9DE7082C004034160420D5
:1033F000081501003C150100D92E0000A41501009C
:103400000416010014150420281504202915042091
:103410001A150420781601007C130100E413010042
:103420004C16010008140100D8150100B415010064
:103430008415010064150100DC140100B8140100BA
:103440009014010008F0CCBA10B50446024B03609A
:1034500000F0FAFC204610BD9C16010010B5044691
:10346000044B036000F0F0FC2046FFF7EBFF204622
:1034700010BD00BF9C1601002DE9F04F894681B0B8
:1034800019461D46164607460A9CDDF82CB0DDF8A5
:1034900030A0DDF8348000F0D7FB88B1B9F1000F1F
:1034A000C8F8004088F804601EDB4C44A2450CBFFD
:1034B0000624012488F80640002001B0BDE8F08F02
:1034C000544518D0B8682B460568CDF83480CDF83F
:1034D00030A0CDF82CB00A94EC6932464946A44697
:1034E00001B0BDE8F04F604719F1020FE4D10123AC
:1034F00088F80630E0E75946384600F0A5FB00287A
:10350000E0D0002088F8056001B0BDE8F08F00BF72
:1035100070B582B0069C0D469442064609D0B0684C
:10352000294606680694346AA44602B0BDE8704095
:10353000604719460192009300F086FB009B019AB8
:103540000028ECD0062002B070BD00BF2DE9F0418C
:1035500007460C4615461E4600F08EFC08B1BDE835
:10356000F081B868334606682146B4692A46A44605
:10357000BDE8F041604700BF5028F8B554D000F0D6
:103580000F040C2C4ED8DFE804F007394907174D1B
:103590004D4D4D1F1B071700154655F8044B44B100
:1035A00000F07006102E18BF0A461444020648BFE9
:1035B00024681C602846F8BD154655F8084BEEE710
:1035C000154635F9024BEAE700242746154615F85B
:1035D00001EB0EF07F06BE401EF0800F44EA0604A9
:1035E00007F10707F3D11F2FD9D81EF0400FD6D00F
:1035F0004FF0FF3606FA07F73C43D1E70024274691
:10360000154615F801EB0EF07F06BE401EF0800F48
:1036100044EA060407F10707F3D1C0E7154635F879
:10362000024BBCE707F08AFF033222F0030555F88E
:10363000044B1C602846F8BDFF2815D008B500F0E3
:103640007003202B12D00AD9402B14D0502B17D046
:10365000302B07D1BDE80840084607F06BBF7BB1AF
:10366000102B0DD007F06AFF002070470846BDE818
:10367000084007F05BBF0846BDE8084007F046BFBA
:10368000002008BDF8B50C4615460746002842D074
:1036900007F03CFF286026780134FF2E32D03946EF
:1036A0003046FFF7C9FF224601462B1D3046FFF783
:1036B00063FF04462378601CFF2B2B7528D0002461
:1036C000224610232B7510F8011B01F07F03934055
:1036D000090644EA030402F10702F4D40444EC604E
:1036E00000242246037801306B7510F8011B01F0AD
:1036F0007F0393401C430B0602F10702F5D40444F8
:103700002C61F8BD68602378601CFF2B2B75D6D127
:103710000023EB60E4E7BDE72DE9F04F00F0030480
:1037200097B00023012C894690460A9321D00ED3EE
:10373000022C0AD14146484607F0D4FE002800F08A
:10374000D480092017B0BDE8F08F07F0F7FE00F035
:10375000080000F0FF030028ECD116AA42F82C1D47
:10376000009219460C22404607F06CF9012304939D
:1037700013E000F0080000F0FF04002800F0B9801A
:1037800016AA42F82C1D44F002040092E4B2194635
:103790000C224046049407F055F9404607F0BCFE61
:1037A00005900028C6D010AB1A46059940460693EE
:1037B000FFF768FF414604469DF85400FFF73CFFC1
:1037C0000DF13C0B0023129019460F22CDF800B0EA
:1037D000404607F011F90F9B149A23F0010394421D
:1037E00003F1FF3643D20DF1340A0EAF9DF8555068
:1037F00000212846FFF720FF22465346014628466F
:10380000FFF7BAFE9DF85540054600212046FFF718
:1038100013FF2A463B4601462046FFF7ADFE9DF8C2
:103820005540054600212046FFF706FF2A4601467F
:103830005B462046FFF7A0FE04460020024614F82F
:10384000011B01F07F0393400D0640EA030002F1E3
:103850000702F4D4109A0D9B13449E4207D30E9A8C
:1038600013449E42C0F0BA80149BA342BED80025E8
:1038700003950124049BDB0756D4049B190740F1F0
:10388000A880012C00F09C810DF1340A0EAF16AA1D
:10389000002342F8289D1946009240461A4607F038
:1038A000D1F8002319460122CDF800A040460D951D
:1038B00007F0C8F8002319460F220097404607F08A
:1038C0009BF80E9A039D002302F001021543009716
:1038D000404619460F220E9507F0B4F8022C00F06E
:1038E000F580072017B0BDE8F08F082017B0BDE8BD
:1038F000F08F10AB009306930D22234621464046DD
:10390000D9F8205007F078F8109B9D4224D016ABD0
:1039100043F82C9D0093214623460C22404607F095
:1039200091F80223049338E70EAF002319460D22C5
:10393000009740460A9C07F05FF8059A0E9BC9F86D
:103940002C20039AC9F82440C9F82850C9F830201F
:10395000C9F820300620F5E616AB43F82C9D0093FD
:10396000214623460C22404607F06CF8D9F8303047
:10397000039383B3D9F82C30D9F828500593032446
:103980000DF1340A0EAF002D81DA069A05994046F2
:10399000FFF778FE41469DF85400FFF74DFEAA0060
:1039A00082F00302D243139E1290B358164433B1EF
:1039B0003246002352F8041F01330029FAD10422B1
:1039C000C9F82830C9F82C00C9F83460C9F830208B
:1039D0005DE7012CD4D1484600F0AEFA0F9B002BD6
:1039E0003FF4A8AE119A13440393002800F0D58049
:1039F000149C01380444002B3FF49CAE002C00F0D2
:103A0000D080049B13F00803099300F0BC80472288
:103A10004E2389F8002089F801305522432389F884
:103A2000022089F8033046224F2389F8042089F8C0
:103A300005305222002389F8062089F80730002338
:103A40000793CDF8208000252A4614F8011B01F0C9
:103A50007F039340080645EA030502F10702F4D408
:103A60001F2A05D8490603D5012393405B421D4315
:103A700000263246204610F8011B01F07F039340D8
:103A80001E430B0602F10702F5D41F2A05D848068B
:103A900003D5012393405B421E43002D3DD03FDD03
:103AA0009DF85400FF286CD000F00703042B3FF66C
:103AB0004CAE01A252F823F0FF3A00004B37000051
:103AC000F93A0000FF3A0000D73A0000484600F0FB
:103AD0002FF9072036E6EB005B42139A12991A443D
:103AE0003B46FFF749FD0E9999B1B9F1000F09D195
:103AF000002E5DD03444A6E76B005B42EDE7AB00DF
:103B00005B42EAE70AAB0022484600F0B9F8002819
:103B1000EED0DDF820800324ACE601230793E7E72D
:103B2000B9F1000F01D0099B93B16B1C139AC3EB41
:103B3000837352F82330002BDAD1049BDDF8208008
:103B4000DA073FF5F2AE099B002B3BD000F05EF8A0
:103B5000139A6B1CC3EB837352F823100A9802EB81
:103B600083080F9021B9E8E758F8041F0029E4D032
:103B700041445B460022484600F082F80028F3D01A
:103B8000B6E70023A9E799F80730012B0CBF59F8D5
:103B9000203C09F158030A9351E7039B002B3FF4A3
:103BA000C9AD049B13F001057FF4C4AD022464E6A3
:103BB000079BDDF82080002BF3D1BBE500F042FA33
:103BC00000F016F80324DEE608B5804707F0B6FCDF
:103BD00000F038FA07F0B2FC0D46044600F078FA1F
:103BE000013501D000F046F8204600F0B5F900BFDD
:103BF00008B5034B1868BFF35F8FFFF7E5FF00BF01
:103C0000D800042008B58047FFF7F2FF08B5034B42
:103C10001868BFF35F8FFFF7F5FF00BFDC000420DB
:103C2000024B1868BFF35F8F704700BFD8000420B5
:103C3000024B1868BFF35F8F704700BFDC000420A1
:103C4000704700BF00207047814211D008B540681E
:103C500003782A2B0AD049680B782A2B08BF013138
:103C600008F0ACFDB0FA80F0400908BD002008BDA6
:103C7000012070471EB400F08DF81EBC07F06CFAEE
:103C8000F0B5027883B0472A0E461F461AD00023AB
:103C9000254C0193236820469B68984780B1019B7F
:103CA00002251B6801933368214630461C6901AA2E
:103CB0000123A04710B12846019B3B6003B0F0BD33
:103CC0000125F0E743784E2BE1D18378552BDED1E7
:103CD000C378432B19D0C378432BD8D10379432B16
:103CE000D5D143792B2BD2D183792B2BCFD1C3794B
:103CF000012BCCD804D050F8204C58300190C9E7A3
:103D000050F8200C50F8784CF8E70379462BE2D1B4
:103D100043794F2BDFD18379522BDCD1C379002B30
:103D2000D9D10193014CB5E7E017010088170100D4
:103D300010B5044600F0AEFA2378A4F12002472B18
:103D400004D0836823BB8260012010BD63784E2BB2
:103D5000F7D1A378552BF4D1E378432BF1D1237914
:103D6000432BEED163792B2BEBD1A3792B2BE8D10D
:103D7000E379012BE5D854F8043C0133012B44F8D6
:103D8000043CE1D1836844F8083C8260012010BD06
:103D9000FFF72EFF08B500F07DFA836883B393F830
:103DA0002020472A04D00022826003F1200008BDB1
:103DB00093F821204E2AF6D193F82220552AF2D1E9
:103DC00093F82320432AEED193F82420432AEAD102
:103DD00093F825202B2AE6D193F826202B2AE2D12E
:103DE00093F82720012ADED8DA69013ADA61002A3D
:103DF000DBD19969002281609A6103F1200008BD3E
:103E0000FFF7F6FE70B5066884B00024102315464F
:103E1000029312686B46B66900948DF804400394CF
:103E2000B0479DF8043003F00603062B11BF20466F
:103E3000009B01202B6004B070BD00BF0098904231
:103E40000CBF06200120704710B50446024B0360EA
:103E5000FFF7F6FE204610BD1417010010B504460A
:103E6000044B0360FFF7ECFE2046FFF7EBFA204619
:103E700010BD00BF1417010038B515461C46FFF7EA
:103E8000E3FE20B1082206232560E260237138BDDD
:103E9000F0B583B0089D0A9917468D4206460B9CE3
:103EA0000BD019463046FFF7CFFE18B1012325602D
:103EB0002771A371002003B0F0BD09990193FFF7AA
:103EC000C3FE18B10020677103B0F0BD019BE8E7A5
:103ED0002DE9F04117461C4606460D46FFF7B4FE95
:103EE00008B9032C01D9BDE8F0812B683A46314668
:103EF0002846BDE8F0415B69184700BF0378472BAF
:103F000001D00020704743784E2BFAD18378552B8F
:103F1000F7D1C378432BF4D10379432BF1D1437903
:103F20002B2BEED183792B2BEBD1C07901288CBFC1
:103F300000200120704700BF10B530B1044600F0EA
:103F400081F82046FFF7DAFF08B9FFF751FE54F871
:103F5000140CFFF739FE00BF2DE9F04F85B0024683
:103F6000FFF7CCFF68B152F8184C104652F8145CB9
:103F7000966A176BD2F834B000F064F82046FFF769
:103F800041FE104600F05EF8FFF740FE00F05AF8E0
:103F9000FFF72EFE00F056F800F078F9D0F8008018
:103FA00098F82730012B39D008F178034FF0000939
:103FB0005C46CB460DF1100A27F0030200924AF846
:103FC000083DB3451EDA276807B12744534600224F
:103FD000394608F12000FFF753FE28BB3B6804AACE
:103FE0001B6942F8040D0193384601231249019FD1
:103FF000B847009B002818BF4FF001090BF1010BD7
:104000001C44DEE7B9F1000F0BD0042000F04CFA9D
:104010000A4B0B4A0360084900F0C2F8D8F8003098
:10402000C4E72846FFF7D0FD00F0F8F800F050F89C
:1040300000F04EF8FFF71EFE20180100F0170100F7
:104040009D42000038B5044600F024F92278036848
:10405000472AA4F1200105D0002B31D11C46016074
:10406000204638BD62784E2AF6D1A278552AF3D17F
:10407000E278432AF0D12279432AEDD162792B2AC2
:10408000EAD1A2792B2AE7D1E279012AE4D854F8BF
:104090000C2C002A11DB013245688B4244F80C2CB1
:1040A00005F1FF3242601CBF44F8103C016020461D
:1040B000646A06F099FC204638BDC2F10102EBE7C4
:1040C000FFF796FD013101D0FFF7D4FDFFF744FF64
:1040D00008B500F0DBF80246006800283DD090F8F3
:1040E0002030472B06D0002313602030BDE8084065
:1040F00006F07CBC90F821304E2BF4D190F82230A1
:10410000552BF0D190F82330432BECD190F824308C
:10411000432BE8D190F825302B2BE4D190F82630B2
:104120002B2BE0D190F82730012BDCD84369002BF2
:1041300005DB013B08D05A1C0DD0436108BD01339B
:10414000FBD101691160F8E7036920301360BDE815
:10415000084006F04BBCFFF74BFD08BD012810B529
:104160001AD8BFF35F8FA1F1280353E8002F013A5B
:1041700043E800200028F8D1BFF35F8F5AB951F807
:104180001C3C01F158040BB1204698472046BDE87D
:10419000104000F0A1B910BD51F8140CFFF714FD48
:1041A000F8B504460F46164600F074F8436801253A
:1041B0002B44436044F8787C44F8746C44F8805C89
:1041C000FFF736FD44F8700CFFF72AFD124947232C
:1041D00043224FF04E0EA4F1580504F8583C5527E1
:1041E0002B23002644F86C0C04F857EC44F8501CC0
:1041F00004F8552C04F8542C04F8533C04F8523CB1
:1042000004F8567C04F8516C284606F093FF2846C3
:10421000FFF718FFFFF7ECFC5D41000010B500F060
:1042200039F842680368013242606BB193F820208C
:10423000472A0BD00022026003F12004204606F03A
:104240009DFF2046FFF7FEFEFFF7D2FC93F82120EA
:104250004E2AEFD193F82220552AEBD193F8232050
:10426000432AE7D193F82420432AE3D193F8252069
:104270002B2ADFD193F826202B2ADBD193F8272095
:10428000012AD7D85A6952425A61D5E70048704787
:104290002C150420004870472C150420704700BFDF
:1042A00000487047CC17010010B50446FFF7CAF864
:1042B000204610BD70B53D4B82B01A78002A37D128
:1042C00001241C7006F0BAF900285DD040684FF058
:1042D000FF320378364D2A2B18BF044602AB08BFC5
:1042E000041943F8042D00221146204606F036F941
:1042F0002B680646DB68302201212E4807F030FB90
:10430000019B7BB12B682046D96807F06BF92B68BD
:104310000222DB680121284807F022FB019B8BB1B8
:10432000FFF77CFF2B683046D96807F05BF9EEE7B2
:104330001F4B1D221B680121DB68204807F010FB82
:1043400007F0FCF8304607F04BFBE9E701290C4683
:1043500027D1FFF777FE03689B6898472B680646CE
:104360002146DB680B22164807F0FAFA2B68304624
:10437000D96807F037F92B680A20D96807F0F6F8F2
:10438000FFF7A6FE07F0DAF8094B21461B682D223D
:10439000DB680C4807F0E4FAF4E7FFF799FEFFF753
:1043A00069FCFFF74FFEFFF793FEEBE7381504209B
:1043B000080504204C180100801801002C18010089
:1043C000B418010084180100F0B41D4CA0F10806D7
:1043D000616850F8087CC9B1F519A9421BD04A6838
:1043E0002AB3954204D326E09D42114604D21A46D0
:1043F00053680C1D002BF7D111685518AE4213D02D
:1044000040F8043C23685E60F0BC704740F8041C30
:104410006660F0BC704791E80C00174440F8087CD7
:1044200040F8043C6660EFE739441160ECE713465E
:1044300004340A46E0E7134604340A46DCE700BFCA
:104440003C15042030B4174C00F10803072B6368B7
:1044500086BF00F10F0121F007010821EBB11A68B6
:10446000914204D81BE002688A4205D2034658688C
:104470000028F8D130BC70470433521A072A09D9F2
:104480004568441865604250186801601C60083037
:1044900030BC704742681A60F9E71846EAE71846E8
:1044A000231DEAE73C15042038B500F180052846B5
:1044B00007F08EFA044638B180220021204607F02A
:1044C00095FE04F1800038BD2846FFF7BBFF044687
:1044D0000028F1D1FFF78CFB064A80389368984298
:1044E00005D9D2681344984201D2FFF76DBF07F097
:1044F00077BA00BF3C15042038B5084C4FF41E6550
:104500002846E56007F064FAA06020B100236060EF
:104510000560436038BDE060606038BD3C15042034
:1045200070B44C1E4B2C2CD8DFE804F03C3C3C3CD7
:104530002B2B2B2B26263C262626262626262626F1
:104540002626262B27272727272727273C262626E8
:1045500026262B26273D3C2B3C27273D2B2B26268A
:10456000263C3C3C3C3C263C3C263C2B2B26262631
:104570002B2B2B2626263C3CCAB144698569AC42CC
:1045800002DB002070BC704704EB4405066901346F
:10459000AD00446174190CD071556260A36020466F
:1045A00070BC70471AB1002BE7D11846EAE71046F5
:1045B000E8E72046E6E700BF2DE9F047C368B2F11F
:1045C000000A04460F461A7815BF4FF01C084FF03A
:1045D00019084FF01D094FF01A0914BF1E261B269B
:1045E0000D4612E0562A1BD04B2A22D1E1603146FB
:1045F000236B0633236300231A462046FFF790FF00
:104600002860A0B1E368051D1A78722A03F1010140
:10461000E8D1226B01330932E36022634146EAE7C5
:10462000226B01330932E36022634946E3E7BDE8C8
:10463000F087BAF1000F01D1462A02D02846BDE822
:10464000F087BD42FAD01D201E211C2207E01B2B43
:104650000BD0192B00D13A700437BD42EED03F6821
:104660003B781A2BF3D13870F6E73970F4E700BFC6
:1046700010B4C3680A461C78522C0DD04F2C02D0BF
:10468000084610BC7047046B2021033404630133D7
:10469000C36010BC002343E7046B1F210234046392
:1046A000F5E700BF002A4CD070B505460E4614460B
:1046B0002378013B4B2B2AD8DFE803F03535353E14
:1046C00029292626353535353535353535353535D0
:1046D00035353529353535353535353535352E2EA4
:1046E000353529353535352A3535353529263535AC
:1046F00035353535353535353535352929352A2A98
:104700002A2A293535353535A468002CD0D170BD1D
:104710006468002CCCD1FAE762681378052B03D1CA
:10472000336801333360626831462846FFF7BAFFC9
:10473000A468002CBCD1EAE72B6801332B606268C7
:10474000F2E7704782B32DE9F0410D460446D0F8F8
:104750000011AF184FF0000809E00B46BD4201F10F
:104760000101C4F80011E65484F804611AD0FF294D
:1047700015F8016BF1D1D4F8083184F8FF80D4F832
:104780000C2120469847D4F8203101210B44C4F86D
:104790002031BD424FF00003C4F80011E65484F804
:1047A0000461E4D1BDE8F081704700BF30B4036814
:1047B00004461A786E2A15D0A2F1300109291BD8B7
:1047C000002500200133236000EB800002EB400055
:1047D0001A783038A2F130010929F3D905B14042E5
:1047E00030BC7047591C01605A78A2F13003092B84
:1047F00002D80B460125E4E70020F1E7436982690E
:10480000934214DA03EB43020169920010B50133BD
:104810008C18436108D041238B540C30FFF7C6FF3E
:1048200023466060184610BD2346184610BD00237D
:104830001846704710B5C36804461A785F2A0DD031
:104840006E2A0FD00C30FFF7B1FF01300AD4E368B5
:104850001A785F2A06D10133E36010BD01330020CE
:10486000E36010BD4FF0FF3010BD00BF38B5C36826
:104870001A78542A01D0002038BD0133C3600446A1
:10488000FFF7D8FF051EF6DBA26A6369A169013252
:104890008B42A262EFDA03EB4302216901339200FB
:1048A00063618B18E7D0052088545D60184638BDD9
:1048B000F8B504460C30FFF779FF061E4FDDE568BA
:1048C00063685B1B9E422CDCA268AB195207E36055
:1048D00004D5AA5D242A04BF0133E360092E0CDD50
:1048E00008222049284607F075FB30B92B7A2E2B79
:1048F0001AD05F2B18D0242B16D06369A26993427B
:104900000FDA03EB430221690133920063618B18D4
:1049100007D035B1184600278F545D609E60E06275
:10492000F8BD0020E062F8BD6B7A4E2BE5D1236B19
:104930006269A16916339E1B8A422663F1DA02EB93
:104940004203216901329B006261CA18E9D0064E18
:1049500000201525C854104656609560E2E70020F7
:10496000F8BD00BFF81F01000420010038B5C3687E
:104970000D461A78422A10D104460133E3602046DE
:10498000FFF796FF2A4603464B212046FFF7C8FD56
:10499000E36805461A78422AEFD0284638BD00BFA2
:1049A000C2681378532B02D00021084670472DE9C6
:1049B000F041531CC36053788BB1931CC36054788F
:1049C0005F2C2DD10023026A93421CD2826AC169F6
:1049D000013251F8231082620846BDE8F0811C467E
:1049E000836803F00803002B14BF012500250ED0B7
:1049F0004D4B742203F1A80101E013F81C2F9442DF
:104A000037D08B42F9D100210846BDE8F08100295A
:104A1000EED0C3681B78433B012B98BF0125E7E725
:104A2000A4F13005EBB2092B79D800210DE0303B21
:104A30009942E8D8C2681478511C1CB1C16014783E
:104A40005F2C14D01946A4F13005EDB2A4F1410257
:104A500001EBC103092DD2B204EB8303E7D9192A74
:104A6000D1D801EBC10204EB8203373BE0E701330D
:104A7000A9E75C69002C49D0426981698A4243DA1E
:104A800002EB4206D0F810E0B60001321EEB06073A
:104A9000D3F81880426140D04FF0180C0EF806C0D1
:104AA0003E467C60C7F80880C66245B3DE681C6974
:104AB000036B91422344036324DD02EB4201056949
:104AC000890001326B18426125D018226A541946B8
:104AD0005E609C60C3681B78422B7FF47DAF044608
:104AE000FFF744FF00288ED0236A626A934210DAEF
:104AF000E1695A1C41F82300014622626CE75E68B6
:104B00009C68D5E70021E5E70026CDE78169426989
:104B1000CBE7014660E71946DCE73E46C4E7A4F16F
:104B20004103192B81D95BE7C018010038B5044651
:104B300029B9C3681A7832B15A1CC2601978682939
:104B400019D0762901D0002038BD04F10C05284683
:104B5000FFF72CFEE3681A785F2AF4D10133E36093
:104B60002846FFF723FEE3681A785F2AEBD101336A
:104B7000E360012038BD04F10C00FFF717FEF2E7F7
:104B8000D0F810310246C3B15A680B68906870B112
:104B900002782F2A0DD1002B04DC09E002782F2A9D
:104BA00007D143B18068013B0028F7D170477047B7
:104BB00001D0002070474068704701211846C2F8B4
:104BC00018117047002941D038B505460C462378A6
:104BD0004B2B27D8DFE803F02E26262626302E2B57
:104BE0002B26262626262626262626262626262660
:104BF0002E26262626262626262626262626262E45
:104C0000262626262E262626262E2B26262626262F
:104C100026262626262626262E2E2626262E2E2E0C
:104C200026262E2E61682846FFF7CCFF18B9A46807
:104C3000002CCCD1002038BD211D2846FFF7A0FF55
:104C40000028F7D003782F2BF4D138BD002070470F
:104C5000F0B55368946801330B44A34283B0154602
:104C60000E46074613D8EC680CB103B0F0BD95E8CA
:104C7000090032463946184407F0DEF92B686A68A5
:104C800033449C546B681E446E6003B0F0BDD26820
:104C9000002AEAD11CB9022B4FF0020402D96400A9
:104CA000A342FCD82146286807F014FB10B1286005
:104CB000AC60D8E70190286806F092FE019B0122C3
:104CC0002B606B60AB60EA60CFE700BF2DE9F04777
:104CD000C56882B02A7800238A420446019300F016
:104CE000C8810F4601AE23E0662B5AD0A3F13002F3
:104CF000092A00F2F881204601F0A6FA05460028AC
:104D000049D0E3681B78492B00F0B4800246C4F810
:104D1000348000232E212046FFF702FC306000285B
:104D20003BD0E56800F108062B78BB4200F06381B8
:104D30004FF00109D4F83480C4F834902B784C2B10
:104D400070D0542B78D0732BCED16B78722B00F0AF
:104D50003C81702B00F05581204601F0B3F90546E7
:104D6000C8B10378312B6CD0322B3ED16B68032B4A
:104D700011D8DFE803F08E411010742BECD16B7862
:104D80006C2BE9D1204600F0DFFDE56881466B78A9
:104D9000002B40F0B381C4F83480002002B0BDE89D
:104DA000F0876B78702BD7D1AB1CE360AB78542BBA
:104DB0006BD02046FFF73EFD6FF0004300EA030290
:104DC0009A42E8D001306369A2699342E3DA22692A
:104DD000591C03EB4303616112EB8301DBD0062511
:104DE00002F823500A46486091E7332BD3D1E36899
:104DF0001A785F2A00F060814FF00009204600F029
:104E00009DF90346B9F1000F05D00246382120462E
:104E1000FFF786FB03462A4636212046FFF780FB34
:104E2000024603E0204601F061FE0246C4F83480E9
:104E3000002A7FF46EAFB0E72046FFF717FD024669
:104E4000F4E7D0F804A0226BDAF80830DAF8009022
:104E5000023B134423634846B34907F0AFFC0028E4
:104E600000F0E180DAF80C30032B94D8DFE803F08F
:104E700011955F19204600F045FB2A4603460421A0
:104E80002046FFF74DFB0246D0E70335E5600020E2
:104E900099E72A46002335212046FFF741FB0246C9
:104EA000C4E7B9F1000F3FF476AFA049484607F0D8
:104EB00085FC002800F0BC8099F800306E2B7FF450
:104EC0006AAF99F80130772B02D0612B7FF463AF82
:104ED0005F212046FFF7FAFE8146204600F034FDB0
:104EE000E36882461A78452A00F0D780702A00F0DD
:104EF000EB80692A7FF44FAF5B786C2B7FF44BAF6C
:104F0000204600F01BF9034652463B212046FFF79E
:104F100007FB4A4603463A212046FFF701FB2A4693
:104F2000034639212046FFF7FBFA02467EE7B9F136
:104F3000000F3FF430AF6B681B685A78632A00F0AB
:104F40008A80204600F0FAF882467949484607F000
:104F500035FC002879D07749484607F02FFC28B166
:104F60004846754907F02AFC002857D1204601F031
:104F70006BF9E36881461B78492B00F092804B4621
:104F8000524638212046FFF7CBFA2A4603463721FE
:104F90002046FFF7C5FA024648E7B9F1000F3FF493
:104FA0002BAF99F80030702B02D06D2B7FF424AF1B
:104FB00099F801209A427FF41FAFE3681A785F2ABC
:104FC00000F08E804FF0010918E70235E5602046B9
:104FD00000F0BAFC0546204601F036F9E368824647
:104FE0001B78492B4ED003462A4649462046FFF7F8
:104FF00097FA02461AE701980135E56002B0BDE86C
:10500000F0870235E560204600F098F8002302465C
:105010004A212046FFF784FA024607E7204600F0BF
:105020008DF88146ABE7204600F08EFC0346F2E6A1
:10503000204600F083F88146204600F07FF8824643
:10504000204600F07BF803465EE745212046FFF747
:105050003DFE814693E71B78A3F16302012A03D941
:10506000723B012B3FF66DAF204600F06DFC82468F
:105070006BE71A4601352E21C56002B0BDE8F04746
:10508000FFF74EBA204600F03DFA5246034604218F
:105090002046FFF745FA0346A6E70133E360002305
:1050A00032E7204600F02EFA4A4603460421204605
:1050B000FFF736FA814662E70133E3604521204677
:1050C000FFF704FE0346A6E65A78692A7FF463AE2A
:1050D0000233E36045212046FFF7F8FD034613E75E
:1050E0000133E36088E66F2B16D0692B7FF445AE61
:1050F0006B786C2B7FF430AE4FF000090235452100
:10510000E5602046FFF7E2FD4A460346302120468F
:10511000FFF706FA024689E66B786E2B7FF41CAE29
:105120000235E560E7E500BFE0240100282001002A
:105130001C2001002020010024200100C1680B7800
:105140004C2B6BD0542B6BD0732B2DE9F0410446C4
:1051500024D0662B0FD0A3F13002092A00F29A81E5
:10516000204601F071F80546A8B1E3681B78492B89
:105170006DD0BDE8F0814B78702B2FD0204600F029
:10518000A1FF054638B10378312B4BD0322B16D016
:10519000332B00F024810020BDE8F0814B78722B86
:1051A00060D0702BEAD10231C160FFF7C7FF002346
:1051B00002464A212046BDE8F041FFF7B1B96B68CD
:1051C000032BE8D801A252F823F000BF9952000047
:1051D0009953000097510000975100008B1CC36049
:1051E0008B78542B54D0FFF725FB6FF0004300EA77
:1051F00003029A42CFD0421C6369A1698B42CADA8A
:1052000003EB430120690133890063614318C2D075
:10521000062444545A601846BDE8F08101F066BC8B
:10522000FFF724BB4768226BBB683E68023B134410
:1052300023633046AE4907F0C1FA002800F0DB8056
:10524000FB68032BA7D8DFE803F027BA722F2046AC
:1052500000F058F92A46034604212046BDE8F041F3
:10526000FFF75EB90231C16000F06EFB05462046D3
:1052700000F0EAFFE36806461B78492B00F0DF8068
:1052800003462A462046BDE8F0410121FFF748B910
:105290000331C1600022AFE72A462046BDE8F04155
:1052A00000233521FFF73CB9002E3FF474AF91493C
:1052B000304607F083FA002800F0A18033786E2B87
:1052C0007FF469AF7378772B02D0612B7FF463AFE3
:1052D0005F212046FFF7FAFC0646204600F034FB2B
:1052E000E36807461978452900F0B980702900F075
:1052F000C58069297FF44FAF5B786C2B7FF44BAF8F
:105300002046FFF71BFF03463A463B212046FFF7A6
:1053100007F9324603463A212046FFF701F92A46AB
:10532000034639212046BDE8F041FFF7F9B8002EC9
:105330003FF431AF6B681B685A78632A72D02046FD
:10534000FFF7FCFE07466C49304607F037FA0028A5
:1053500062D06A49304607F031FA28B130466849D0
:1053600007F02CFA002875D1204600F06DFFE368A5
:1053700006461B78492B76D033463A4638212046DC
:10538000FFF7CEF82A46034637212046BDE8F04114
:10539000FFF7C6B80133E36000262046FFF7CEFED4
:1053A00003462EB1024638212046FFF7B9F80346DE
:1053B0002A462046BDE8F0413621FFF7B1B8002E5D
:1053C000EAD03378702B01D06D2BE5D172789A42F8
:1053D000E2D1E3681A785F2ADCD00126DDE7E368D2
:1053E0001A785F2AD8D10133E36045212046FFF7C0
:1053F0006DFC0346DCE7204600F0A6FAD7E720461E
:10540000FFF79CFE06462046FFF798FE074620461B
:10541000FFF794FE034677E745212046FFF756FC49
:105420000646A9E71B78A3F16302012A02D9723B61
:10543000012B84D8204600F087FA074683E72046F0
:1054400000F060F83246034604212046FFF768F872
:10545000034616E72046FFF771FE06468CE7013348
:10546000E360002350E7204600F04CF83246034644
:1054700004212046FFF754F806467DE75A78692A4A
:105480007FF489AE0233E36045212046FFF71EFC1E
:10549000034639E76F2B14D0692B19D14B786C2B4D
:1054A0007FF46CAE00250231E16020464521FFF714
:1054B0000DFC2A46034630212046BDE8F041FFF7A7
:1054C0002FB84B786E2B7FF459AE0231C16047E69E
:1054D000742B7FF453AE4B786C2B7FF44FAE00F0FF
:1054E00033FAE16805464B78002B3FF454AEDAE717
:1054F000E0240100282001001C20010020200100E0
:1055000024200100C1680B78493B012B56D82DE9B6
:10551000F0414A1CC2604B7882B0452B0446C66AF3
:105520004ED002AD002145F8041D0127493B0F2B49
:105530003BD8DFE803F035353A1A3A3A3A3A3A3A84
:105540003A3A3A3A3A080132D4F83480E2602046D6
:105550006763FFF7F3FDE368C4F834801A78452ADF
:1055600028D0002002B0BDE8F081204601F0BEFA4C
:10557000024600232F21002AF3D02046FEF7D0FF59
:10558000286000F108050028EBD0E2681378452B6D
:10559000CCD101980132E260E66202B0BDE8F08150
:1055A0002046FFF7AFFF0246E3E7204600F0CCF9C4
:1055B0000246DEE70133E3600246DAE70020704787
:1055C00000231A460231C1602F2102B0BDE8F0412C
:1055D000FEF7A6BF2DE9F043C26883B013780546F5
:1055E0004E3B0C2B69D8DFE803F01B6868686859EC
:1055F000681668686868070001320021C26000F020
:1056000099FFEB6806461978452900F09C80002038
:1056100003B0BDE8F08300F017FE03B0BDE8F083EF
:105620000132C26001A90122FEF7C6FF81460028AF
:10563000EDD000212846FFF71BF88046EA68B44EFB
:1056400014780027002C00F0EE80442C00F0D78066
:10565000A4F13003DBB21C2B40F2AD80A4F1610356
:10566000DBB2192B40F2AC80552C00F0E280532CB9
:1056700000F0E880492C00F0DE80542C00F01A8104
:10568000452C00F04B814D2C40F0CD80002F00F0D8
:10569000CA80531CEB6054781A46D3E75378742BB6
:1056A00029D00021FFF77CF9EB6804461B78492BD1
:1056B00047D0204603B0BDE8F08300F0C5FDEB689D
:1056C00004461B78492BF4D10028A0D02B6A6A6AC3
:1056D00093429CDAE9695A1C41F8230028462A6261
:1056E000FFF710FF2246034604212846FEF718FF65
:1056F00003B0BDE8F0834369816902328B42C26026
:10570000C0F2AA800024284600F09EFD22460346EF
:1057100001212846FEF704FF2B6BEA6803332B6355
:1057200013780446492BC4D100283FF470AF2B6A8C
:105730006A6A9342BFF66BAFE9695A1C41F82300CD
:105740002A622846CCE75A1CEA605978732900F08F
:105750009880642900F0B2802846FFF73BFF04469A
:10576000002800F08A800378452B00F08680472BC4
:1057700000F083804FF0FF37EB681A785F2A00F063
:10578000B4807B1C79D06B69AA69934277DA03EB0A
:1057900043022969013392006B618B1803D04620C4
:1057A00088549F605C60324628460221FEF7B8FEAE
:1057B00003B0BDE8F08326FA03F3D9077FF54EAFB7
:1057C000284600F041FD4FB3012103463A462846E2
:1057D000FEF7A6FE0746532C1DD0EA681478452C28
:1057E0003FF436AFFFB12B6A6A6A93421BDAEA696B
:1057F000591C42F82370EA682962147822E753782A
:10580000284603F0DF03542B0AD000F01DFD002FC3
:10581000DAD10746E1E7EA68147813E70746DAE7E2
:1058200000F092F8F3E70020C9F8000003B0BDE8EB
:10583000F0832846E9E7002FF5D02846FFF762FEFF
:105840000421C2E701212846FFF7AAF8002FBBD1A7
:10585000EA6807461478F5E603EB43010269013371
:105860008900436153183FF44DAF2A4E00270320AF
:1058700057541C465E60986045E7234693E7002333
:1058800091E79A1CEA609A785F2A38D06B69AA6916
:105890009342F4DA03EB430128698900013342188B
:1058A0006B61ECD01C4C002747540E21134654600A
:1058B000916078E72846FEF7D9FFA8E70233EB604E
:1058C0002846FEF7B7FF071EFFF6A1AE2846FFF7F2
:1058D00081FE044600283FF456AF0378452B3FF481
:1058E00052AF472B3FF44FAF46E72846013340F80D
:1058F0000C3FFEF75BFF0028BFF643AF87E6284664
:10590000033340F80C3FFEF751FF0028BEDA7EE675
:10591000FF0308103C2001002C200100C9F8007092
:10592000002F3FF474AEB8F1000F04D0019BCDF806
:105930000480C8F80430EB681A78452A7FF467AE13
:105940000133EB60019868E62DE9F043C16883B04C
:105950000B780446722B55D0562B53D04B2B51D07D
:10596000A3F130024A2A00F28A80DFE812F0B20086
:10597000B200B200B200B200B200B200B200B20097
:10598000B2008800880088008800880088008800AD
:10599000B8008800E10003018800EF00F5008800EE
:1059A00088008800880088007501B2008D019B0185
:1059B0008800A901B7010F02D8018800880088007B
:1059C0008800B2008800880088008800880088006D
:1059D000EA01EA01EA01EA01EA01EA01EA01EA016F
:1059E000EA01EA018800EA01EA01EA01EA01880025
:1059F00088008800EA01EA019800EA01EA01EA0168
:105A0000EA01EA01002201A92046FEF7D5FD05467C
:105A1000002834D0E36820461B78462B34D0FFF7AB
:105A200093FF286058B303781F3B012B30D9019AAC
:105A30002AB3236A616A8B4221DAE069591C40F873
:105A40002320019D2162284603B0BDE8F083012395
:105A5000656B20466363FFF771FB656302460023B5
:105A600042212046FEF75CFD0546019038B1E3680F
:105A70001A7822B15A1CE2601B78452B1ED00025F3
:105A8000284603B0BDE8F08300F034FD2860C9E784
:105A9000019A436842602A6801922B60C7E701318E
:105AA000E1602046FEF704FF00230246282120463D
:105AB000FEF736FD05460190002DE0D0236A626AAC
:105AC0009342DCDAE1695A1C41F82350019D2262BD
:105AD000D6E72046FFF77EFD05460190ECE7481C1F
:105AE000E0604B785F2B00F07482303B092B00F2B2
:105AF0007E8203460133E3601A78303A092AF9D9E5
:105B00006269A1698A4211DA02EB420126698900C1
:105B100001327518626109D01A1A07D0002777542C
