:1000000000400020C11B0000BD1B0000BD1B000004
:10001000BD1B0000BD1B0000BD1B00000000000058
:10002000000000000000000000000000BD1B0000F8
:10003000BD1B000000000000BD1B0000BD1B000038
:100040001D0B0000BD1B0000BD1B0000BD1B000000
:10005000BD1B0000BD1B00006D0800003D08000036
:1000600095090000A1040000A9040000ED130000A0
:10007000F5130000BD1B0000ED180000D1120000B8
:10008000E9120000BD1B0000B104000021030000C4
:100090006513000075130000BD1B0000BD1B0000B0
:1000A000F5120000051300002D1300003D130000A1
:1000B000B11A0000C11A0000BD1B0000BD1B0000EA
:1000C000BD1B0000BD1B0000BD1B0000BD1B0000D0
:1000D000BD1B0000BD1B0000BD1B0000BD1B0000C0
:1000E000FD130000E5070000DD1200009907000085
:1000F000BD1B0000BD1B0000BD1B00000000000078
:1001000000000000000000000000000000000000EF
:1001100000000000000000000000000000000000DF
:10012000BD1B0000BD1B0000BD1B0000BD1B00006F
:10013000BD1B0000BD1B0000BD1B0000BD1B00005F
:10018000FFFFFFFFFFFFFFFFFFFFFFFFFFFFFFFF7F
:1001900003329CA77F000000FFFFFFFFFFFFFFFF70
:1001A00010B5054C237833B9044B13B10448AFF3B1
:1001B00000800123237010BD000C0420000000000B
:1001C000AC1C0100084B10B51BB108490848AFF33F
:1001D00000800848036803B910BD074B002BFBD013
:1001E000BDE81040184700BF00000000040C0420C8
:1001F000AC1C01001C09042000000000154B002B62
:1002000008BF134B9D46A3F5803A00218B460F464D
:100210001348144A121A0BF0A5FE0F4B002B00D006
:1002200098470E4B002B00D0984700200021040077
:100230000D000D48002802D00C480DF0C9FF0BF04E
:100240005BFA2000290001F0FBFF0BF03BF800BF38
:100250000000080000400020000000000000000036
:10026000000C0420BC160420D1E10000D9F30000EA
:1002700003490448044B054A086000201A6070478F
:1002800000000240150050004000024050011000E4
:10029000EFF3108072B6104A1378D3B90F4B0121D7
:1002A00070B4117059680E4E0E4C6FF0784241F0E8
:1002B00001014FF4002559609E6025601A62DA62E0
:1002C0005A63DA639A64DA641A6580F3108870BC42
:1002D000704780F31088704700140420000001402C
:1002E0000010042000E100E030B40C4C012304EBCA
:1002F000C0056960AA60834039B1D4F8DC000343CB
:10030000C4F8DC30002030BC7047D4F8DC2000207A
:1003100022EA0303C4F8DC3030BC70470014042028
:10032000184B2DE9F047184DD3F84C809C6C1F6D8D
:10033000D5F8DC3044EA070919EA03091AD0B9FAFA
:1003400089F30126C3F11F0305EBC301D1F804A013
:1003500006FA03F3002229EA0309BAF1000F05D0D7
:100360001C42886814BF01210221D047B9FA89F3E1
:10037000202BE7D1034B9C641F65C3F84C80BDE87C
:10038000F08700BF00000140001404202DE9F04177
:100390000F46124E82B0F568002405EBC00556F8F2
:1003A0002420092F0CBF138D938DD5F8008099B2AE
:1003B000138E0B40ADF806301386B8F1000F00D055
:1003C0002BB90134032CEAD102B0BDE8F0810DF164
:1003D000060221466868C047F3E700BF000004201A
:1003E0000A4AD3680BB10020704730B408494FF473
:1003F00000754FF48064D060036043608360C36025
:100400000D6000200C6030BC704700BF000004206D
:1004100000E100E00A4B4FF40072C3F88020BFF304
:100420004F8FBFF36F8F4FF48062C3F88020BFF30C
:100430004F8FBFF36F8F034B0020D860704700BF12
:1004400000E100E0000004200C4B10B453F8200041
:10045000EFF3108472B683889BB23AB923EA0101A4
:10046000818084F31088002010BC7047194381807C
:1004700084F31088002010BC704700BF00000420E7
:10048000024B53F8203000201983704700000420ED
:10049000024B53F82030002099837047000004205D
:1004A00009210020FFF772BF0A210120FFF76EBF6C
:1004B0006F4BF0B4D8680368827A9D88ADB205812D
:1004C0001AB1C1890022198382726A4C05F00402B4
:1004D0002688B24241D0B3F84C20C2F30112C2F1D7
:1004E000020292B29AB1018B89B289B1476902E0E6
:1004F000018B89B261B117F8011B013A9981018B17
:1005000092B2013989B247610183002AF0D10022F9
:10051000018B89B2E1B9018D89B2002940F0A28036
:10052000B2B1018C89B299B1013A92B2C769013274
:100530003A4402E0018C89B251B117F8011B99814C
:10054000018CBA4201F1FF3189B2C7610184F1D156
:10055000028C92B20AB904229A8005F00805ADB265
:10056000AE4226D0B3F84C10C1F381118AB20029F3
:100570007BD0456A4FF480771B89013ADBB22B7040
:100580000368456A998A013589B292B2456269B9B0
:10059000068DB6B256B1068DB6B2B6F5807F4DD98E
:1005A0001F82018DA1F5807189B20185002AE3D1F6
:1005B0002588028902F0B001A94247D002F010015B
:1005C000A94290F82B1002F080041CBF41F00101F9
:1005D00080F82B10AC4218BF41F0020102F0200459
:1005E00018BF80F82B10AC4236D041F0040180F8DF
:1005F0002B1002F48072AA421CD019469A8802F489
:100600008862AA42FAD1436893F90030002B0EDBCE
:100610005A090121184C03F01F03203201FA03F399
:1006200044F82230BFF34F8FBFF36F8F0168134B35
:100630001B880B802C30F0BC00F092B9068D013E77
:10064000B6B21E820185002A96D1B1E702F480720B
:100650009542D2D1F0BC70470029CAD1082180F858
:100660002B10C6E7C2891A8372E73546A1E700BF9F
:1006700010000420E014042000E100E02000042029
:100680004CF61432F8B51C4B1C48194602250024C0
:10069000DA601D610460DA601A692A431A610B6925
:1006A000154A9B05FBD546F61A064CF61435144B35
:1006B00014491868144F20F00300186000241F200C
:1006C0001C605F60DE6058610C608C604C64D560BB
:1006D00011690E4B21F004014FF400604027802681
:1006E0004FF4007511611F601E605D60586001F07D
:1006F00085FA2046F8BD00BF00C10440E414042080
:1007000000C3044000C004400404100000E100E005
:1007100038B504460D4601F071FA8CB1012C0DD1AB
:100720000A4B5B6803F03F03094A002B126808BFBD
:100730000123B2FBF3F300202B6038BD042038BD49
:10074000024B5B68C3F30523EEE700BF00C3044020
:100750000C150420012810B519D014D3022810D18B
:1007600009046FF47F03EFF3108272B609484468FE
:1007700023401943416082F3108801F03FFA0020C2
:1007800010BD042010BD09026FF47C53EBE76FF03D
:100790003F03E8E700C3044038B50F4A0F4B146825
:1007A0009B6903F0060524B113F004020BD19B07EB
:1007B00002D40A4B9D6138BD094B07211868A04738
:1007C000064B9D6138BD064B002218680821A047E2
:1007D000024B9D6138BD00BFE414042000C30440F7
:1007E000EC14042038B5124A124B15689B6903F4C7
:1007F000CC445DB14CB158040DD4990413D49A057E
:1008000013D45B0504D5062106E038BD002CFCD0CE
:10081000084B9C6138BD0421074B00221868A8478B
:10082000044B9C6138BD0321F6E70521F4E700BFC6
:10083000E414042000C30440EC14042008B5084B61
:100840005968CB070BD5074B1B681BB1064A1068CC
:1008500000229847024A536843F00103536008BDE1
:1008600000C00440E4140420EC14042038B50E4DFC
:100870000E4A2B6854684BB162070ED4A30705D506
:100880000B4A2B681068012100229847074A04F0A0
:10089000060453681C43546038BD054900220868AB
:1008A00011469847EAE700BFE414042000C0044062
:1008B000EC140420274B0029F0B506BF1946022787
:1008C0000027032844D8DFE800F040393B024FF00E
:1008D000FF340627EFF3108372B644F659061E4D17
:1008E000DFF878E0EE60AE6826F003063043A860DB
:1008F000DEF8100038430440CEF81040EFF31180CA
:10090000520182F311880A6852B9BFF34F8F30BF8A
:1009100083F31088EFF3108372B60A68002AF4D0CC
:100920000A68013A0A6080F311880C490A6922F0CA
:1009300002020A61BFF34F8F83F310880020F0BDDD
:1009400047F004074FF0FF34C4E76FF00604C1E737
:100950000620F0BDE814042000C0044000ED00E0D3
:10096000034620B11A68002001321A607047EFF385
:10097000108372B605490A6922F002020A61BFF3C8
:100980004F8F83F31088024BECE700BF00ED00E0CF
:10099000E8140420604B2DE9F0419F683B681888FB
:1009A0009A8892B212F07E064BD080B220F4FF619A
:1009B00021F0030189B200296DD1188D9A8D80B282
:1009C00092B212F01F0502D0C40640F08580B3F841
:1009D0005000B3F8482080B292B2C2F30C046CB35A
:1009E00041F6FE7E00EA0E0EBEF1000F05D0800536
:1009F00003D5900501D541F40061B3F8500080B2F1
:100A000020F43E6E2EF0030EBEF1000F1BD1D7F87E
:100A10000480B8F1000F01D0002937D19A8892B232
:100A200032439A809A8D92B22A439A85B3F848202D
:100A300092B22243A3F84820BDE8F081B3F85020D9
:100A4000E5E73146B9E710F4804F04D012F0100FFB
:100A500018BF41F4802110F4005F04D012F0080F99
:100A600018BF41F4003110F4805F04D012F0040F7D
:100A700018BF41F480314005C9D5D207C7D5D7F892
:100A8000048041F40041B8F1000FC7D00022B868DB
:100A9000C0473B68C2E700F0040189B209B1C2F364
:100AA0004001C50403D5140748BF41F00401050403
:100AB00003D5540648BF41F02001450403D59406F0
:100AC00048BF41F0100180047FF577AFD5067FF570
:100AD00074AF41F0080170E7C40603D5D40648BFDF
:100AE00041F48061040703D5140748BF41F4007145
:100AF000440703D5540748BF41F48071840703D5E8
:100B0000940748BF41F08001C0077FF560AFD4076C
:100B100048BF41F040015AE72C000420604B2DE90A
:100B2000F0415F693B6818889A8892B212F07E069D
:100B30004BD080B220F4FF6121F0030189B200297B
:100B40006DD1188D9A8D80B292B212F01F0502D02D
:100B5000C40640F08580B3F85000B3F8482080B256
:100B600092B2C2F30C046CB341F6FE7E00EA0E0EA4
:100B7000BEF1000F05D0800503D5900501D541F4E5
:100B80000061B3F84C0080B220F43E6E2EF0030EEC
:100B9000BEF1000F1BD1D7F80480B8F1000F01D0CF
:100BA000002937D19A8892B232439A809A8D92B2B4
:100BB0002A439A85B3F8482092B22243A3F84820EA
:100BC000BDE8F081B3F84C20E5E73146B9E710F411
:100BD000804F04D012F0100F18BF41F4802110F4A0
:100BE000005F04D012F0080F18BF41F4003110F478
:100BF000805F04D012F0040F18BF41F4803140052B
:100C0000C9D5D207C7D5D7F8048041F40041B8F15F
:100C1000000FC7D00022B868C0473B68C2E700F0A9
:100C2000040189B209B1C2F34001C50403D5140718
:100C300048BF41F00401050403D5540648BF41F004
:100C40002001450403D5940648BF41F010018004FB
:100C50007FF577AFD5067FF574AF41F0080170E7F7
:100C6000C40603D5D40648BF41F48061040703D508
:100C7000140748BF41F40071440703D5540748BF27
:100C800041F48071840703D5940748BF41F0800187
:100C9000C0077FF560AFD40748BF41F040015AE775
:100CA0002C000420012914D0022908D0016941F048
:100CB0004001016183684BB1C06800221847016997
:100CC000836841F010010161002BF5D12830FFF756
:100CD00047BE016941F004010161EBE7012915D02C
:100CE000022908D0116941F08001116193684BB16C
:100CF000D068002218471169936841F02001116102
:100D0000002BF5D102F12800FFF72ABE116941F04E
:100D100008011161EAE700BFF0B5016883B00B8CF0
:100D20009BB2ADF806300C88A4B2260638D503690C
:100D300043F002030361C36963BB0B8A9A0726D49D
:100D40008B8A426823F4185392F90C201B041B0C65
:100D50000125002A8B8280F822500CDB530936498A
:100D600002F01F02203305FA02F241F82320BFF3FC
:100D70004F8FBFF36F8F83680546002B55D00169F5
:100D80000022C068984729680C8003B0F0BD0B882A
:100D90009B07D5D40369002BD2D10C8003B0F0BDE2
:100DA000E5063DD4BDF80620BDF8065002F00F025E
:100DB000C2F1080292B2C5F303258AB1838BABB1AD
:100DC000466900E093B13778013B0F8190F82070BD
:100DD000013A9BB23E4492B283834661002AF1D12C
:100DE00090F8243013B1838B002BA4D1002DA2D016
:100DF000C38B002B9FD0826901E0002B9BD08B8896
:100E0000013D1370C38B816990F82120013B0A4496
:100E10009BB2ADB2C38382610168002DEDD18AE738
:100E2000036943F00103036185E72830FFF798FD6C
:100E300029680C8003B0F0BD00E100E0F8B505467C
:100E40000C461F46084600210BF08CF8164EA900F0
:100E5000164A4B1902EB8302314490684B8836F8EE
:100E600025500021626014612060A16205828381A7
:100E70003C602268138A9BB243F001031382FFF7A0
:100E800007FA6368224698780949FFF72DFA08B1F6
:100E90000E20F8BD6368224698790649FFF724FAC8
:100EA0000028F5D1F8BD00BF180701004400042058
:100EB000DD0C0000A50C0000426892F90C30002BFC
:100EC00013DB10B45A090121094C03F01F0320322F
:100ED00001FA03F344F82230BFF34F8FBFF36F8F53
:100EE00042680020106110BC7047002010617047FC
:100EF00000E100E00268138A31B923F400631B04A7
:100F00001B0C1382002070479BB243F400631382D2
:100F10000020704780F82610002070472DE9F04F20
:100F20004B680C680A894D89836144618283C5835B
:100F30000C7B036880F820404C7B4FF0000E80F85B
:100F40002140CE7B8C7B80F822E01F8A85B027F47D
:100F500041573F043F0C80F8234080F82460C0F8DC
:100F600010E000961F82002C00F017819F8A002D50
:100F700040F07481BFB247F400579F821F8890F8F9
:100F800026E0BFB2ADF80E70BDF80E70009EBFB285
:100F90001F801F8AB1F80A80BFB247F002071F8284
:100FA000A3F830E01EB1B8F1010F00F07781B3F87B
:100FB00010E00F891FFA8EFE4EF4405EA3F810E099
:100FC000B3F810E02EF4405E4FEA0E4E4FEA1E4E8C
:100FD000A3F810E0B3F81CE02EF0070E4FEA0E4E17
:100FE0004FEA1E4EA3F81CE0002F00F04981D0F814
:100FF00004E0BEF800A0BEF802904FFA8AFCBCF1F3
:10100000000F0ADB0AF01F0A4FF0010BA54E4FEA52
:101010005C1C0BFA0AFA46F82CA0FE07DFF888A23F
:1010200048BF01374FF0010C0CFA09FC48BFBFB2B2
:10103000CAF814C8CAF828C0CAF824C0CAF834C00C
:10104000DFF868A24FEA570C0CF1FF3CDAF80060B9
:101050004FEA0C1CA7F1020A0F684FEA09194CF07D
:10106000454C06EB090B57444CF0010C03F1080A00
:1010700046F809700196CBF804A04FF00309CBF8AD
:1010800008C04746B8F1000F00F0BE80BEF804B0BB
:10109000BEF806C04FFA8BFABAF1000F0ADB0BF06C
:1010A0001F064FF0010B0BFA06FB7E4E4FEA5A1A51
:1010B00046F82AB018F0010FDFF8ECB118BF08F1BC
:1010C00001084FF0010A0AFA0CFA18BF1FFA88F754
:1010D000CBF81CA8DFF8D481CBF828A0CBF824A04B
:1010E000CBF834A0C7F34F0A0AF1FF3AD1F804B0A5
:1010F0004FEA0A11D8F800A04FEA0C1C023F41F059
:101100009A415F4441F001010AEB0C0B03F1040822
:101110004AF80C80CBF80470CBF8081000219984B1
:10112000009949F00409002973D1002D40F0AD80E9
:10113000198A89B241F480511982AA4238BF2A46DD
:101140001A83002C7CD1416979B1828BA2F1080607
:10115000B6B2541E4AB10D78A2B21D8190F820405B
:10116000B242214482834161F3D11A8A520658BFA8
:101170009B889EF90C30002B07DB03F01F04012233
:1011800048495B09A24041F8232090F82530002B04
:101190006AD1002005B0BDE8F08F002A14BF4FF4DB
:1011A00008574FF40057002D51D19C8AA4B247EA4A
:1011B00004019982198A89B241F040011982198883
:1011C00090F8264089B2ADF80E10BDF80E1089B225
:1011D0001980198A89B241F0020119821C86002403
:1011E000A146198AD0F804E089B241F4405119822D
:1011F000198A21F440510904090C1982998B21F0B4
:1012000007010904090C9983002199840099002998
:101210008BD0998C013A21F0F0010904090C9984D2
:10122000998C89B241F0010141EA820292B29A841A
:101230001A8A92B242F400621A821D83002C82D074
:101240009A8B92B242EA0909A3F81C908DE7998A19
:1012500089B241F4806139439982B0E727F400579D
:101260003F043F0C9F8289E6014600222831104648
:10127000FFF720FB00288CD00D2005B0BDE8F08FD3
:10128000D0F804E04FF00109FBE6002A7FF455AFE7
:10129000198A89B241F4005119824EE7002180F881
:1012A00023109CE700E100E000000140140701006A
:1012B000012310B580F825300446FFF72FFE0023E8
:1012C00084F8253018B92369002B18BF0F2010BDF2
:1012D000014B1869FFF720BD44000420014B586AF8
:1012E000FFF71ABD44000420014B986BFFF714BDB3
:1012F00044000420024B00221B699A83704700BF00
:1013000044000420084B00211B691A68D983938B81
:1013100023F007031B041B0C9383938A9BB243F4B3
:1013200000539382704700BF44000420024B002208
:101330005B6A9A83704700BF44000420084B002179
:101340005B6A1A68D983938B23F007031B041B0C79
:101350009383938A9BB243F400539382704700BFF8
:1013600044000420024B00229B6B9A83704700BF0D
:1013700044000420084B00219B6B1A68D983938B8F
:1013800023F007031B041B0C9383938A9BB243F443
:1013900000539382704700BF44000420F8B5104BFF
:1013A000104F53F8206057F82030B58B6BB1ADB2B9
:1013B000EA0704460CD4AB0707D50B4A57F824308C
:1013C00052F824000221002298470323B381F8BD7C
:1013D0000549002251F8200001219847EBE700BFA2
:1013E00024070100FC140420F01404200020FFF75F
:1013F000D5BF00BF0120FFF7D1BF00BF0220FFF71C
:10140000CDBF00BF2DE9F0410C461146E36A00262E
:101410001A691E73E26282680129054693881ED00C
:1014200023F020031B041B0C938090F82D3073B124
:10143000EB681BB194F83420022A1BD004F13C0065
:10144000FFF78EFAE16A0B7B3BBBBDE8F081826857
:10145000938823F001031B041B0C9380E8E723F01F
:1014600012031B041B0C9380C368DBB194F8342077
:10147000022A17D1206B00270669D0F800E0AA697C
:10148000AF61076030682663C8B1A2B10421286942
:101490009847E16A0B7B002BD7D0A36B2846BDE8A9
:1014A000F0411847AA68938A5B06FCD5138F9BB25C
:1014B000002BF8D1C2E7724628699847C2E784F842
:1014C0003400002AF7D0E1E70B46416A012BCA6AD3
:1014D00070B5044610691CD0022B0CBF4FF4806518
:1014E0004FF4805503685BB1437B4BB1A369002681
:1014F0002B43A361324606732046FFF783FF616AE0
:10150000A36920462B43A3610022BDE87040FFF78A
:1015100079BF4FF48075E5E70B46016A012BCA6A73
:1015200070B5044610691CD0022B0CBF4FF4006547
:101530004FF4005503685BB1437B4BB1A3690026B0
:101540002B43A361012206732046FFF75BFF216A4C
:10155000A36920462B43A3610122BDE87040FFF739
:1015600051BF4FF40075E5E74B7B33B98268938830
:101570009BB243F0020393807047426870B41478C2
:1015800001230F4AA340C2F8143893625362536395
:101590004B680C4D013B0E682D681A0180682101D3
:1015A00042F0404233446C1842F001026B506060DC
:1015B000A26083889BB243F01003838070BC7047A5
:1015C00000000140140701004B7B33B98268938807
:1015D0009BB243F0010393807047426870B4547823
:1015E00001230F4AA340C2F81C389362536253632D
:1015F0004B680C4D013B0E682D681A018068210173
:1016000042F0406233446C1842F00102685063605B
:10161000A26083889BB243F02003838070BC704734
:10162000000001401407010038B5436A0446DB6A34
:101630001A68F2B1197B51B9C5683DB10022022187
:101640002069A847636ADB6A1A68AAB138BD856851
:1016500099682B88DBB25354416ACA6A936854680C
:101660000133A3429360F1D1BDE838400022FFF777
:10167000C9BEC568002DE1D11B7B002BE6D1A36854
:101680001B8838BD70B5164600220C4605463C3115
:101690001046FFF70FF968B9226B136910601A68DA
:1016A00023634AB1A86930B1AA69002332600D20D2
:1016B000AB6170BD012070BD84F83420F2E700BF3B
:1016C0008368002210B49A80436893F90320002AAB
:1016D0000EDB530901211B4C02F01F02203301FADB
:1016E00002F244F82320BFF34F8FBFF36F8F43689C
:1016F00093F90220002A0EDB53090121114C02F05C
:101700001F02203301FA02F244F82320BFF34F8F67
:10171000BFF36F8F436893F90420002A0EDB53094F
:101720000121084C02F01F02203301FA02F244F8B2
:101730002320BFF34F8FBFF36F8F43680020D86023
:1017400010BC704700E100E02DE9F84F1446054653
:101750008B461746DDF828904FF0000ADFF84C81E1
:101760001A4651462046C9F800A02E010AF0FAFB9D
:1017700008EB06039A686360A26007F830BBFEF7C7
:1017800087FDBBF1010F66D04249626804F1440352
:101790001078A166276284F864A0A7652766E765CC
:1017A000C4F86CA06765236422463B49FEF79CFDA4
:1017B000002866D1BBF1000F4BD13848C5EBC505F9
:1017C0006D00A368425B28449A81A3684288C1885F
:1017D0001A85A368828846449A84A36802899985F9
:1017E000A36841891A84A36800229987A3689A8014
:1017F000C9F800406168F46091F90420002A0DDB0B
:1018000053099B0003F1604302F01F02012003F51E
:10181000614300FA02F2C3F880211A6091F90230A4
:10182000002B07DB03F01F0401221D485B09A240C7
:1018300040F8232091F90330002B28DB03F01F0030
:101840001749012282405B0941F823200020BDE8AE
:10185000F88F04F170076168124A487867620023C4
:10186000BA6307F114023A61BF623F63FF627F62AD
:1018700087F83430FB6322460B49FEF735FD00281C
:101880009BD02046FFF71CFF0F20BDE8F88F0020FB
:10189000BDE8F88F69150000191500003007010038
:1018A00000E100E0C9150000C91400008000042018
:1018B000F8B50646056A0127AC6A4FF0000CD4F86B
:1018C00010E085F8347084E8060027736373C4F869
:1018D00008C0069CE96AAB6BC5F828E09847224629
:1018E000316A3046BDE8F840FFF7CCBE6F4B70B5AB
:1018F000DD6882B0AB681C8904F00E040C2C1CD887
:10190000DFE804F0071B221B1D1B3A1B1B1B1B1BC4
:101910001D00B3F84460B3F84020B6B2310792B26C
:1019200001D0D2074DD4B3F84020002122F00702A5
:101930001204120CA3F84020297502B070BD28468D
:10194000FFF772FE02B070BD2A6AD26A11680029E0
:10195000F3D0107B0028F0D092688A5C1A80296A44
:10196000CA6A93685068013383429360E5D328467E
:101970000122FFF747FDE0E79A8A92B2D1061AD515
:101980001B888023560711D5940743F0200301D507
:1019900043F040032A7D002ACFD1A96904220B43DA
:1019A000AB61696A2846FFF72DFDC6E79007EFD4C3
:1019B000002BC2D0EEE712F0080F14BF1023002353
:1019C000E0E701A90020FEF7A3FE08B10023019380
:1019D000AB68F007B3F84810B3F8442089B292B26C
:1019E00012D5988C1209060442EA013223D4019BD5
:1019F000DB00B3FBF2F2AA62EB6813B195F82C207E
:101A000072BBAB681A888EE716F0020F14BF4FF452
:101A100000720022EC68700748BF42F48072310700
:101A200048BF42F4806224B1696A91F834100229F7
:101A300025D0EA61E6E73F2A18D85102C908A1F586
:101A40000061012601981E85C000B0FBF2F241F44E
:101A50000843A9689BB28B84AB689C85AA62CBE7DC
:101A6000AA6A032128699847AB68CBE77F2A0AD87E
:101A70001102C9080124A1F500612646E2E705210B
:101A80002869A047BDE7FF2A06D8D101C908A1F5FA
:101A9000006102240126D5E7C2F30F26F000910170
:101AA000B1FBF0F10324A1F50061CBE78000042035
:101AB000024B0122D868016AFFF7A4BC8000042011
:101AC000024B0022D868416AFFF79CBC80000420CA
:101AD00000B5084908480A6883B042F4A0020A60C9
:101AE000B0230090054A02210020FFF72DFE03B02D
:101AF0005DF804FB00000240081504207015042066
:101B0000F0B5064689B0164A05AB164C07CA03C3A2
:101B1000154D216804AC1A700F0C00230822ADF893
:101B20000C10286805A900948DF80E70FFF7C0FE10
:101B300030460AF0DDFD2B68024631460094184617
:101B40000023FFF7B5FE03A80AF0D2FD2B6802467A
:101B5000009403A918460023FFF7AAFE09B0F0BDC0
:101B60004C070100580701000815042070B5114BFF
:101B700084B01B6806461A0CADF808308DF80A20B0
:101B80000AF0B6FD0C4D03AC2B68024631461846F0
:101B900000940023FFF78CFE02A80AF0A9FD2B6831
:101BA0000246009402A918460023FFF781FE04B004
:101BB00070BD00BF5807010008150420FEE700BFF4
:101BC00008B50B4A0B4B9A420DD2D0430A49184430
:101BD0000B4620F003000430084453F8041B8342F2
:101BE00042F8041BF9D100F047F8FEF707FB00BFED
:101BF00000000420200904205420010030B4194CB6
:101C0000236803F00303022B08D0032B22D030BC3F
:101C1000154A164B1360164A136070472368E06834
:101C2000E368E268114DC2F3004205FA02F200F0E7
:101C30001F0000FB02F1C3F3C323B1FBF3F2E3681F
:101C40000949C3F3002322FA03F3094A0B60136026
:101C500030BC7047074B044A1B6830BC1360044A11
:101C60001360704700C304400C15042080BA8C0137
:101C7000101504201415042044F659020A4BDA60AA
:101C80005A6942F003025A61EFF3108372B6074AB1
:101C900007484FF4E02190605162BFF36F8FBFF3AC
:101CA0004F8F83F31088704700C0044000ED00E0C0
:101CB00000000000704700BF10B5044600F070FB44
:101CC000204610BD014610B50A4B82B0186801AC21
:101CD00000238A698C60CB600424019010680C8218
:101CE0004B82CB750831FFF7E3FA08B140F0C060D2
:101CF00002B010BD80070100024670B582B0806955
:101D000000240DF106060DF107058DF806108DF87B
:101D1000074001219660D560006811825182D1751B
:101D200002F108011C46FFF7C3FA18B140F0C06089
:101D300002B070BD9DF80730237002B070BD00BFC7
:101D4000024630B583B08069002401AD8DF80410DF
:101D50008DF8053095600223D460006813825482A8
:101D6000D47502F10801FFF7A3FA08B140F0C06092
:101D700003B030BD30B4054D0024012205608475E8
:101D800081610275427530BC704700BFAC0701002D
:101D9000F0B505460E4683B0002338228DF80220A8
:101DA0008DF804308DF805304FF47A742A680DF1FF
:101DB00003039768082101222846B84760BB013C0D
:101DC0002CD0ADF80600BDF806309BB2B3F5806F9D
:101DD0000BD2BDF8063001339BB2ADF80630BDF82A
:101DE00006309BB2B3F5806FF3D39DF90330002B1F
:101DF000DCDB0DF1020201ABA969AA60EB600222F3
:101E0000012308682B82EB756A8205F10801FFF750
:101E10004FFA38B140F0C06003B0F0BD4FF0106031
:101E200003B0F0BD9DF804209DF8053043EA02237D
:101E30003380F1E730B583B00D460DF10601FFF7B1
:101E4000A7FF044678B9BDF8060008F083F84FF004
:101E5000605108F0D7F84FF07E5107F0C9FF0349F1
:101E600008F0D0F82860204603B030BD9A99993F19
:101E700030B5026883B0D5680023012210210446E2
:101E8000A84708B103B030BD2268FF2102AB03F8B8
:101E9000021D9568182101222046A84728B99DF8FF
:101EA000063053B1164803B030BD9DF80620144BE0
:101EB000002A18BF184603B030BD22680723D56832
:101EC000202101222046A8470028DBD12268F821E2
:101ED00002AB03F8011D9568204601222821A8477E
:101EE00030B99DF807300748072B08BF0020C9E725
:101EF0009DF80720034B072A18BF1846C2E700BF0A
:101F00000100000902000009836910B5022104469E
:101F10001868FEF7FFFF10B140F0C06010BD2368E5
:101F200020465B6898470028F8D12046BDE810405D
:101F3000FFF79EBF0020704708B5D0F88000FEF77D
:101F4000BBFF08B140F0C06008BD00BF000000004A
:101F5000F0B583B002AB002543F8045D0F4638307E
:101F60001946FFF767FF0446A8B9019E2946304687
:101F700008F0E6F990B9304607F080FC0AA3D3E9EF
:101F8000002307F0F9FD0AA3D3E9002307F0F4FDCD
:101F900007F0DAFE3860204603B0F0BD06F10046D7
:101FA000E9E700BFAFF300807B14AE476107C24092
:101FB000B21C3F59D3EA3B3E01460E4B70B541F887
:101FC000803B01250023022604464163868580F874
:101FD000305080F8315080F8333080F8323038306B
:101FE000FFF7C8FE40F257332674A56063602046B1
:101FF00070BD00BF48080100704700BF30B5C2F394
:10200000090283B042EA81218AB2002301A9016159
:102010000446150A438343614FF4006101208DF8A3
:1020200005208DF80450FEF733FA18B140F04070E7
:1020300003B030BD236A04F110011868FFF738F9C6
:1020400018B140F0C06003B030BD4FF40061012012
:10205000FEF716FA0028E9D1EAE700BF036A10B5D7
:10206000002104461868FEF755FF10B140F0C0602B
:1020700010BD10212046FEF7B3F910B140F04070BA
:1020800010BD012210464FF40061FEF7DDF9002873
:10209000F4D14FF400610120FEF7F2F90028EDD1F0
:1020A0002046BDE8104002220721FFF7A7BF00BF6E
:1020B00010B5012209210446FFF7A0FF024600B136
:1020C00010BD20461146FFF799FF0028F8D1FEF712
:1020D000A1F90028F4D040F0407010BD70B504465E
:1020E000C2F3090282B042EA81218AB2022001A928
:1020F000160A002560836161C4F810D04FF40061B6
:1021000001208DF800608DF801201E468DF80450E6
:102110008DF80550FEF7BCF918B140F0407002B0E0
:1021200070BD236A04F110011868FFF7C1F818B1F7
:1021300040F0C06002B070BD4FF400610120FEF7B6
:102140009FF90028E9D19DF804209DF8053043EA65
:1021500002233380E3E700BF0B4630B5144983B058
:102160000446184608F002F84FF0894107F04AFF8C
:1021700008F00EF985B22A4620460121FFF73EFFFE
:1021800008B103B030BD02460DF10603204602211E
:10219000FFF7A4FF0028F4D1BDF80600C0F3090042
:1021A000854214BF4FF04060002003B030BD00BF37
:1021B00000409C4638B500F15401044600F180030C
:1021C0002C220020FEF73AFE10B140F0C06038BD6E
:1021D0000121D4F88000FEF78DFE0028F5D104F12E
:1021E00014052846FFF73AFF0028F0D10849284691
:1021F000FFF7B2FF0028EAD12846FFF759FF002871
:10220000E5D104F13800BDE83840FFF77DBE00BFDE
:102210000A3B1046094B10B5044640F8383BFFF71F
:1022200049FD04F11400FFF7E7FE204610BD04F15C
:102230001400FFF7E1FE00F0CBFC00BF48080100EE
:10224000F0B5A5B003A8FFF7B7FE4A4B00221A80ED
:10225000FEF70EF8FEF714FA0446002879D10121A2
:102260000846FEF777FA0446002866D10121FEF7FA
:1022700071FA044600284BD1FFF72AFC3E4E3F4D31
:1022800006F1200734460FCCBC4228606960AA6082
:10229000EB6006F1100605F11005F3D13288B37832
:1022A00036482A80AB70FFF761FC03A8FFF782FF76
:1022B000F0B9044601A903A8FFF74AFEC0B9019886
:1022C00007F0DCFA02460B462C482D490AF00CF9BF
:1022D0002A48FFF74BFC4FF6FE720294029B934292
:1022E000E8D8029B01330293029B9342F9D9E1E7BC
:1022F00020F07F43020E234920480AF0F5F81F48DA
:10230000FFF734FC03A8FFF785FF012025B0F0BDDF
:102310009F231D4A1D4919480AF0E6F81748FFF7A0
:10232000EFFB23461A4A1B4914480AF0DDF813480C
:10233000FFF71CFC002008F0C5FF9C23124A13493C
:102340000E480AF0D1F80D48FFF7DAFB2346124A8F
:10235000E9E799230C4A0D4908480AF0C5F80748EF
:10236000FFF7CEFB23460D4ADDE703A8FFF752FF38
:1023700000F02EFC082C00406C09010020160420FF
:10238000B80901009009010068080100CC080100AB
:1023900040090100FC0801001C090100D4080100EB
:1023A00009F0DAB910B50446024B036000F0FAFCFC
:1023B000204610BDE009010010B50446044B03603F
:1023C00000F0F0FC2046FFF7EBFF204610BD00BFF9
:1023D000E00901002DE9F04F894681B019461D46FC
:1023E000164607460A9CDDF82CB0DDF830A0DDF873
:1023F000348000F0D7FB88B1B9F1000FC8F8004075
:1024000088F804601EDB4C44A2450CBF062401245E
:1024100088F80640002001B0BDE8F08F544518D080
:10242000B8682B460568CDF83480CDF830A0CDF8DB
:102430002CB00A94EC6932464946A44601B0BDE886
:10244000F04F604719F1020FE4D1012388F80630FC
:10245000E0E75946384600F0A5FB0028E0D0002010
:1024600088F8056001B0BDE8F08F00BF70B582B09C
:10247000069C0D469442064609D0B0682946066877
:102480000694346AA44602B0BDE87040604719461D
:102490000192009300F086FB009B019A0028ECD08B
:1024A000062002B070BD00BF2DE9F04107460C4682
:1024B00015461E4600F08EFC08B1BDE8F081B868F4
:1024C000334606682146B4692A46A446BDE8F04171
:1024D000604700BF5028F8B554D000F00F040C2C12
:1024E0004ED8DFE804F007394907174D4D4D4D1F11
:1024F0001B071700154655F8044B44B100F0700651
:10250000102E18BF0A461444020648BF24681C60F7
:102510002846F8BD154655F8084BEEE7154635F93F
:10252000024BEAE700242746154615F801EB0EF0AA
:102530007F06BE401EF0800F44EA060407F107073D
:10254000F3D11F2FD9D81EF0400FD6D04FF0FF3651
:1025500006FA07F73C43D1E700242746154615F84D
:1025600001EB0EF07F06BE401EF0800F44EA060429
:1025700007F10707F3D1C0E7154635F8024BBCE772
:1025800008F098FE033222F0030555F8044B1C6056
:102590002846F8BDFF2815D008B500F07003202BA1
:1025A00012D00AD9402B14D0502B17D0302B07D182
:1025B000BDE80840084608F079BE7BB1102B0DD06D
:1025C00008F078FE002070470846BDE8084008F093
:1025D00069BE0846BDE8084008F054BE002008BDAA
:1025E000F8B50C4615460746002842D008F04AFECA
:1025F000286026780134FF2E32D039463046FFF766
:10260000C9FF224601462B1D3046FFF763FF0446F3
:102610002378601CFF2B2B7528D000242246102322
:102620002B7510F8011B01F07F039340090644EA63
:10263000030402F10702F4D40444EC6000242246AF
:10264000037801306B7510F8011B01F07F03934094
:102650001C430B0602F10702F5D404442C61F8BDBB
:1026600068602378601CFF2B2B75D6D10023EB60AC
:10267000E4E7BDE72DE9F04F00F0030497B0002335
:10268000012C894690460A9321D00ED3022C0AD100
:102690004146484608F0E2FD002800F0D4800920B9
:1026A00017B0BDE8F08F08F005FE00F0080000F05C
:1026B000FF030028ECD116AA42F82C1D00921946FF
:1026C0000C22404608F07AF80123049313E000F04E
:1026D000080000F0FF04002800F0B98016AA42F8B4
:1026E0002C1D44F002040092E4B219460C2240462C
:1026F000049408F063F8404608F0CAFD05900028ED
:10270000C6D010AB1A46059940460693FFF768FFFE
:10271000414604469DF85400FFF73CFF0DF13C0B89
:102720000023129019460F22CDF800B0404608F061
:102730001FF80F9B149A23F00103944203F1FF3614
:1027400043D20DF1340A0EAF9DF8555000212846B2
:10275000FFF720FF2246534601462846FFF7BAFE00
:102760009DF85540054600212046FFF713FF2A46F5
:102770003B4601462046FFF7ADFE9DF85540054615
:1027800000212046FFF706FF2A4601465B46204609
:10279000FFF7A0FE04460020024614F8011B01F0DA
:1027A0007F0393400D0640EA030002F10702F4D4D0
:1027B000109A0D9B13449E4207D30E9A13449E42D7
:1027C000C0F0BA80149BA342BED800250395012413
:1027D000049BDB0756D4049B190740F1A880012C09
:1027E00000F09C810DF1340A0EAF16AA002342F8C6
:1027F000289D1946009240461A4607F0DFFF002345
:1028000019460122CDF800A040460D9507F0D6FFED
:10281000002319460F220097404607F0A9FF0E9AA1
:10282000039D002302F0010215430097404619461C
:102830000F220E9507F0C2FF022C00F0F580072052
:1028400017B0BDE8F08F082017B0BDE8F08F10ABCF
:10285000009306930D22234621464046D9F8205086
:1028600007F086FF109B9D4224D016AB43F82C9DA9
:102870000093214623460C22404607F09FFF022387
:10288000049338E70EAF002319460D220097404607
:102890000A9C07F06DFF059A0E9BC9F82C20039A3D
:1028A000C9F82440C9F82850C9F83020C9F82030A8
:1028B0000620F5E616AB43F82C9D009321462346EF
:1028C0000C22404607F07AFFD9F83030039383B3E7
:1028D000D9F82C30D9F82850059303240DF1340A87
:1028E0000EAF002D81DA069A05994046FFF778FE73
:1028F00041469DF85400FFF74DFEAA0082F0030206
:10290000D243139E1290B358164433B1324600237B
:1029100052F8041F01330029FAD10422C9F82830E3
:10292000C9F82C00C9F83460C9F830205DE7012CE3
:10293000D4D1484600F0AEFA0F9B002B3FF4A8AE6E
:10294000119A13440393002800F0D580149C013899
:102950000444002B3FF49CAE002C00F0D080049B7C
:1029600013F00803099300F0BC8047224E2389F836
:10297000002089F801305522432389F8022089F884
:10298000033046224F2389F8042089F8053052226B
:10299000002389F8062089F8073000230793CDF833
:1029A000208000252A4614F8011B01F07F03934084
:1029B000080645EA030502F10702F4D41F2A05D8E8
:1029C000490603D5012393405B421D43002632464E
:1029D000204610F8011B01F07F0393401E430B06B5
:1029E00002F10702F5D41F2A05D8480603D50123B2
:1029F00093405B421E43002D3DD03FDD9DF85400C7
:102A0000FF286CD000F00703042B3FF64CAE01A268
:102A100052F823F05B2A0000A7260000552A000088
:102A20005B2A0000332A0000484600F02FF90720F7
:102A300036E6EB005B42139A12991A443B46FFF7C5
:102A400049FD0E9999B1B9F1000F09D1002E5DD061
:102A50003444A6E76B005B42EDE7AB005B42EAE77C
:102A60000AAB0022484600F0B9F80028EED0DDF8A5
:102A700020800324ACE601230793E7E7B9F1000FB8
:102A800001D0099B93B16B1C139AC3EB837352F86B
:102A90002330002BDAD1049BDDF82080DA073FF5E4
:102AA000F2AE099B002B3BD000F05EF8139A6B1C32
:102AB000C3EB837352F823100A9802EB83080F903C
:102AC00021B9E8E758F8041F0029E4D041445B46E7
:102AD0000022484600F082F80028F3D0B6E7002331
:102AE000A9E799F80730012B0CBF59F8203C09F1F0
:102AF00058030A9351E7039B002B3FF4C9AD049B95
:102B000013F001057FF4C4AD022464E6079BDDF8F1
:102B10002080002BF3D1BBE500F042FA00F016F85C
:102B20000324DEE608B5804708F0C4FB00F038FA5D
:102B300008F0C0FB0D46044600F078FA013501D0DC
:102B400000F046F8204600F0B5F900BF08B5034B89
:102B50001868BFF35F8FFFF7E5FF00BF9000042008
:102B600008B58047FFF7F2FF08B5034B1868BFF3BD
:102B70005F8FFFF7F5FF00BF94000420024B186839
:102B8000BFF35F8F704700BF90000420024B1868AE
:102B9000BFF35F8F704700BF94000420704700BFF1
:102BA00000207047814211D008B5406803782A2B75
:102BB0000AD049680B782A2B08BF013109F0BAFC0A
:102BC000B0FA80F0400908BD002008BD0120704720
:102BD0001EB400F08DF81EBC08F07AF9F0B502784A
:102BE00083B0472A0E461F461AD00023254C019376
:102BF000236820469B68984780B1019B02251B688B
:102C000001933368214630461C6901AA0123A0477D
:102C100010B12846019B3B6003B0F0BD0125F0E7F1
:102C200043784E2BE1D18378552BDED1C378432BEB
:102C300019D0C378432BD8D10379432BD5D143790D
:102C40002B2BD2D183792B2BCFD1C379012BCCD88D
:102C500004D050F8204C58300190C9E750F8200CAF
:102C600050F8784CF8E70379462BE2D143794F2BA3
:102C7000DFD18379522BDCD1C379002BD9D10193D9
:102C8000014CB5E7240B0100CC0A010010B5044645
:102C900000F0AEFA2378A4F12002472B04D0836819
:102CA00023BB8260012010BD63784E2BF7D1A3783F
:102CB000552BF4D1E378432BF1D12379432BEED17B
:102CC00063792B2BEBD1A3792B2BE8D1E379012B63
:102CD000E5D854F8043C0133012B44F8043CE1D11D
:102CE000836844F8083C8260012010BDFFF72EFF86
:102CF00008B500F07DFA836883B393F82020472A53
:102D000004D00022826003F1200008BD93F8212046
:102D10004E2AF6D193F82220552AF2D193F8232097
:102D2000432AEED193F82420432AEAD193F82520B0
:102D30002B2AE6D193F826202B2AE2D193F82720DC
:102D4000012ADED8DA69013ADA61002ADBD1996911
:102D5000002281609A6103F1200008BDFFF7F6FEB2
:102D600070B5066884B000241023154602931268DB
:102D70006B46B66900948DF804400394B0479DF803
:102D8000043003F00603062B11BF2046009B0120F0
:102D90002B6004B070BD00BF009890420CBF0620AD
:102DA0000120704710B50446024B0360FFF7F6FEA2
:102DB000204610BD580A010010B50446044B0360BC
:102DC000FFF7ECFE2046FFF7EBFA204610BD00BFF0
:102DD000580A010038B515461C46FFF7E3FE20B13E
:102DE000082206232560E260237138BDF0B583B068
:102DF000089D0A9917468D4206460B9C0BD0194632
:102E00003046FFF7CFFE18B1012325602771A3716B
:102E1000002003B0F0BD09990193FFF7C3FE18B17C
:102E20000020677103B0F0BD019BE8E72DE9F04198
:102E300017461C4606460D46FFF7B4FE08B9032C9C
:102E400001D9BDE8F0812B683A4631462846BDE8F5
:102E5000F0415B69184700BF0378472B01D0002081
:102E6000704743784E2BFAD18378552BF7D1C3782E
:102E7000432BF4D10379432BF1D143792B2BEED1A2
:102E800083792B2BEBD1C07901288CBF0020012046
:102E9000704700BF10B530B1044600F081F82046FD
:102EA000FFF7DAFF08B9FFF751FE54F8140CFFF7EB
:102EB00039FE00BF2DE9F04F85B00246FFF7CCFF89
:102EC00068B152F8184C104652F8145C966A176BA9
:102ED000D2F834B000F064F82046FFF741FE104607
:102EE00000F05EF8FFF740FE00F05AF8FFF72EFE04
:102EF00000F056F800F078F9D0F8008098F8273004
:102F0000012B39D008F178034FF000095C46CB461D
:102F10000DF1100A27F0030200924AF8083DB3456C
:102F20001EDA276807B1274453460022394608F1C4
:102F30002000FFF753FE28BB3B6804AA1B6942F838
:102F4000040D0193384601231249019FB847009BA5
:102F5000002818BF4FF001090BF1010B1C44DEE7FC
:102F6000B9F1000F0BD0042000F04CFA0A4B0B4AC9
:102F70000360084900F0C2F8D8F80030C4E72846DA
:102F8000FFF7D0FD00F0F8F800F050F800F04EF830
:102F9000FFF71EFE640B0100340B0100F931000045
:102FA00038B5044600F024F922780368472AA4F1D2
:102FB000200105D0002B31D11C460160204638BDD0
:102FC00062784E2AF6D1A278552AF3D1E278432AC4
:102FD000F0D12279432AEDD162792B2AEAD1A27964
:102FE0002B2AE7D1E279012AE4D854F80C2C002AE4
:102FF00011DB013245688B4244F80C2C05F1FF329D
:1030000042601CBF44F8103C01602046646A07F02F
:10301000A7FB204638BDC2F10102EBE7FFF796FDA2
:10302000013101D0FFF7D4FDFFF744FF08B500F0F0
:10303000DBF80246006800283DD090F82030472B8E
:1030400006D0002313602030BDE8084007F08ABB9B
:1030500090F821304E2BF4D190F82230552BF0D13E
:1030600090F82330432BECD190F82430432BE8D157
:1030700090F825302B2BE4D190F826302B2BE0D183
:1030800090F82730012BDCD84369002B05DB013B8E
:1030900008D05A1C0DD0436108BD0133FBD1016932
:1030A0001160F8E7036920301360BDE8084007F0BD
:1030B00059BBFFF74BFD08BD012810B51AD8BFF367
:1030C0005F8FA1F1280353E8002F013A43E8002065
:1030D0000028F8D1BFF35F8F5AB951F81C3C01F1B9
:1030E00058040BB1204698472046BDE8104000F038
:1030F000A1B910BD51F8140CFFF714FDF8B5044642
:103100000F46164600F074F8436801252B444360CF
:1031100044F8787C44F8746C44F8805CFFF736FD22
:1031200044F8700CFFF72AFD1249472343224FF061
:103130004E0EA4F1580504F8583C55272B230026C1
:1031400044F86C0C04F857EC44F8501C04F8552C67
:1031500004F8542C04F8533C04F8523C04F8567C10
:1031600004F8516C284607F0A1FE2846FFF718FF27
:10317000FFF7ECFCB930000010B500F039F84268F8
:103180000368013242606BB193F82020472A0BD0CC
:103190000022026003F12004204607F0ABFE204627
:1031A000FFF7FEFEFFF7D2FC93F821204E2AEFD165
:1031B00093F82220552AEBD193F82320432AE7D114
:1031C00093F82420432AE3D193F825202B2ADFD13A
:1031D00093F826202B2ADBD193F82720012AD7D871
:1031E0005A6952425A61D5E70048704718150420C1
:1031F0000048704718150420704700BF004870470A
:10320000100B010010B50446FFF7CAF8204610BDA8
:1032100070B53D4B82B01A78002A37D101241C705A
:1032200006F0BAF900285DD040684FF0FF3203780D
:10323000364D2A2B18BF044602AB08BF041943F8C9
:10324000042D00221146204606F036F92B6806466A
:10325000DB68302201212E4808F03EFA019B7BB149
:103260002B682046D96808F079F82B680222DB68C1
:103270000121284808F030FA019B8BB1FFF77CFF51
:103280002B683046D96808F069F8EEE71F4B1D221D
:103290001B680121DB68204808F01EFA08F00AF8D4
:1032A000304608F059FAE9E701290C4627D1FFF723
:1032B00077FE03689B6898472B6806462146DB68C3
:1032C0000B22164808F008FA2B683046D96808F037
:1032D00045F82B680A20D96808F004F8FFF7A6FE25
:1032E00007F0E8FF094B21461B682D22DB680C48DC
:1032F00008F0F2F9F4E7FFF799FEFFF769FCFFF732
:103300004FFEFFF793FEEBE724150420C0040420D2
:10331000900B0100C40B0100700B0100F80B0100C1
:10332000C80B0100F0B41D4CA0F10806616850F80C
:10333000087CC9B1F519A9421BD04A682AB3954245
:1033400004D326E09D42114604D21A4653680C1D50
:10335000002BF7D111685518AE4213D040F8043C49
:1033600023685E60F0BC704740F8041C6660F0BCE7
:10337000704791E80C00174440F8087C40F8043C82
:103380006660EFE739441160ECE7134604340A46FF
:10339000E0E7134604340A46DCE700BF28150420A2
:1033A00030B4174C00F10803072B636886BF00F1A7
:1033B0000F0121F007010821EBB11A68914204D8EE
:1033C0001BE002688A4205D2034658680028F8D1FB
:1033D00030BC70470433521A072A09D9456844188B
:1033E00065604250186801601C60083030BC70474E
:1033F00042681A60F9E71846EAE71846231DEAE72B
:103400002815042038B500F18005284608F09CF9FD
:10341000044638B180220021204608F0A3FD04F1C3
:10342000800038BD2846FFF7BBFF04460028F1D1D5
:10343000FFF78CFB064A80389368984205D9D2681A
:103440001344984201D2FFF76DBF08F085B900BF61
:103450002815042038B5084C4FF41E652846E56051
:1034600008F072F9A06020B100236060056043603D
:1034700038BDE060606038BD2815042070B44C1E73
:103480004B2C2CD8DFE804F03C3C3C3C2B2B2B2B6A
:1034900026263C2626262626262626262626262BB1
:1034A00027272727272727273C26262626262B2699
:1034B000273D3C2B3C27273D2B2B2626263C3C3CFE
:1034C0003C3C263C3C263C2B2B2626262B2B2B2615
:1034D00026263C3CCAB144698569AC4202DB002027
:1034E00070BC704704EB440506690134AD004461CB
:1034F00074190CD071556260A360204670BC70478F
:103500001AB1002BE7D11846EAE71046E8E7204653
:10351000E6E700BF2DE9F047C368B2F1000A0446B0
:103520000F461A7815BF4FF01C084FF019084FF0DE
:103530001D094FF01A0914BF1E261B260D4612E066
:10354000562A1BD04B2A22D1E1603146236B063329
:10355000236300231A462046FFF790FF2860A0B19E
:10356000E368051D1A78722A03F10101E8D1226B84
:1035700001330932E36022634146EAE7226B0133FB
:103580000932E36022634946E3E7BDE8F087BAF118
:10359000000F01D1462A02D02846BDE8F087BD427F
:1035A000FAD01D201E211C2207E01B2B0BD0192B4B
:1035B00000D13A700437BD42EED03F683B781A2BF9
:1035C000F3D13870F6E73970F4E700BF10B4C36880
:1035D0000A461C78522C0DD04F2C02D0084610BC45
:1035E0007047046B2021033404630133C36010BCB3
:1035F000002343E7046B1F2102340463F5E700BF97
:10360000002A4CD070B505460E4614462378013B7F
:103610004B2B2AD8DFE803F03535353E29292626FD
:103620003535353535353535353535353535352956
:10363000353535353535353535352E2E3535293554
:103640003535352A35353535292635353535353550
:10365000353535353535352929352A2A2A2A29356A
:1036600035353535A468002CD0D170BD6468002C88
:10367000CCD1FAE762681378052B03D133680133A4
:103680003360626831462846FFF7BAFFA468002C11
:10369000BCD1EAE72B6801332B606268F2E7704720
:1036A00082B32DE9F0410D460446D0F80011AF1861
:1036B0004FF0000809E00B46BD4201F10101C4F8DA
:1036C0000011E65484F804611AD0FF2915F8016B43
:1036D000F1D1D4F8083184F8FF80D4F80C212046C9
:1036E0009847D4F8203101210B44C4F82031BD4261
:1036F0004FF00003C4F80011E65484F80461E4D1EB
:10370000BDE8F081704700BF30B4036804461A7802
:103710006E2A15D0A2F1300109291BD800250020FE
:103720000133236000EB800002EB40001A78303850
:10373000A2F130010929F3D905B1404230BC7047EC
:10374000591C01605A78A2F13003092B02D80B46AC
:103750000125E4E70020F1E743698269934214DA26
:1037600003EB43020169920010B501338C184361E9
:1037700008D041238B540C30FFF7C6FF234660600E
:10378000184610BD2346184610BD00231846704742
:1037900010B5C36804461A785F2A0DD06E2A0FD080
:1037A0000C30FFF7B1FF01300AD4E3681A785F2AC2
:1037B00006D10133E36010BD01330020E36010BD8A
:1037C0004FF0FF3010BD00BF38B5C3681A78542AD7
:1037D00001D0002038BD0133C3600446FFF7D8FF95
:1037E000051EF6DBA26A6369A16901328B42A262FF
:1037F000EFDA03EB430221690133920063618B1816
:10380000E7D0052088545D60184638BDF8B50446F9
:103810000C30FFF779FF061E4FDDE56863685B1B20
:103820009E422CDCA268AB195207E36004D5AA5D66
:10383000242A04BF0133E360092E0CDD082220494D
:10384000284608F083FA30B92B7A2E2B1AD05F2B3A
:1038500018D0242B16D06369A26993420FDA03EBC8
:10386000430221690133920063618B1807D035B19F
:10387000184600278F545D609E60E062F8BD00200E
:10388000E062F8BD6B7A4E2BE5D1236B6269A169CA
:1038900016339E1B8A422663F1DA02EB420321694A
:1038A00001329B006261CA18E9D0064E002015253E
:1038B000C854104656609560E2E70020F8BD00BF8E
:1038C0003C1301004813010038B5C3680D461A784F
:1038D000422A10D104460133E3602046FFF796FFE9
:1038E0002A4603464B212046FFF7C8FDE3680546FC
:1038F0001A78422AEFD0284638BD00BFC268137834
:10390000532B02D00021084670472DE9F041531C8B
:10391000C36053788BB1931CC36054785F2C2DD156
:103920000023026A93421CD2826AC169013251F8B3
:10393000231082620846BDE8F0811C46836803F0CC
:103940000803002B14BF012500250ED04D4B742217
:1039500003F1A80101E013F81C2F944237D08B42E9
:10396000F9D100210846BDE8F0810029EED0C368F6
:103970001B78433B012B98BF0125E7E7A4F13005F5
:10398000EBB2092B79D800210DE0303B9942E8D801
:10399000C2681478511C1CB1C16014785F2C14D01B
:1039A0001946A4F13005EDB2A4F1410201EBC103C7
:1039B000092DD2B204EB8303E7D9192AD1D801EB40
:1039C000C10204EB8203373BE0E70133A9E75C69FE
:1039D000002C49D0426981698A4243DA02EB4206EF
:1039E000D0F810E0B60001321EEB0607D3F81880BD
:1039F000426140D04FF0180C0EF806C03E467C6085
:103A0000C7F80880C66245B3DE681C69036B914243
:103A10002344036324DD02EB42010569890001327E
:103A20006B18426125D018226A5419465E609C606A
:103A3000C3681B78422B7FF47DAF0446FFF744FF39
:103A400000288ED0236A626A934210DAE1695A1C18
:103A500041F82300014622626CE75E689C68D5E766
:103A60000021E5E70026CDE781694269CBE7014601
:103A700060E71946DCE73E46C4E7A4F14103192B91
:103A800081D95BE7040C010038B5044629B9C36845
:103A90001A7832B15A1CC2601978682919D076296F
:103AA00001D0002038BD04F10C052846FFF72CFE9C
:103AB000E3681A785F2AF4D10133E3602846FFF700
:103AC00023FEE3681A785F2AEBD10133E36001201B
:103AD00038BD04F10C00FFF717FEF2E7D0F8103103
:103AE0000246C3B15A680B68906870B102782F2AF9
:103AF0000DD1002B04DC09E002782F2A07D143B155
:103B00008068013B0028F7D17047704701D0002042
:103B100070474068704701211846C2F81811704775
:103B2000002941D038B505460C4623784B2B27D8C1
:103B3000DFE803F02E26262626302E2B2B262626DF
:103B40002626262626262626262626262E2626260D
:103B500026262626262626262626262E26262626FD
:103B60002E262626262E2B262626262626262626E0
:103B7000262626262E2E2626262E2E2E26262E2EAD
:103B800061682846FFF7CCFF18B9A468002CCCD197
:103B9000002038BD211D2846FFF7A0FF0028F7D0E0
:103BA00003782F2BF4D138BD00207047F0B553684F
:103BB000946801330B44A34283B015460E46074672
:103BC00013D8EC680CB103B0F0BD95E8090032469B
:103BD0003946184408F0ECF82B686A6833449C5462
:103BE0006B681E446E6003B0F0BDD268002AEAD153
:103BF0001CB9022B4FF0020402D96400A342FCD886
:103C00002146286808F022FA10B12860AC60D8E795
:103C10000190286807F0A0FD019B01222B606B60DA
:103C2000AB60EA60CFE700BF2DE9F047C56882B01E
:103C30002A7800238A420446019300F0C8810F4687
:103C400001AE23E0662B5AD0A3F13002092A00F21C
:103C5000F881204601F0A6FA0546002849D0E3681D
:103C60001B78492B00F0B4800246C4F8348000234E
:103C70002E212046FFF702FC306000283BD0E5688B
:103C800000F108062B78BB4200F063814FF0010978
:103C9000D4F83480C4F834902B784C2B70D0542B4B
:103CA00078D0732BCED16B78722B00F03C81702BC7
:103CB00000F05581204601F0B3F90546C8B10378FC
:103CC000312B6CD0322B3ED16B68032B11D8DFE83F
:103CD00003F08E411010742BECD16B786C2BE9D172
:103CE000204600F0DFFDE56881466B78002B40F050
:103CF000B381C4F83480002002B0BDE8F0876B784F
:103D0000702BD7D1AB1CE360AB78542B6BD0204623
:103D1000FFF73EFD6FF0004300EA03029A42E8D04D
:103D200001306369A2699342E3DA2269591C03EB0B
:103D30004303616112EB8301DBD0062502F82350B7
:103D40000A46486091E7332BD3D1E3681A785F2A9B
:103D500000F060814FF00009204600F09DF9034615
:103D6000B9F1000F05D0024638212046FFF786FB47
:103D700003462A4636212046FFF780FB024603E031
:103D8000204601F061FE0246C4F83480002A7FF428
:103D90006EAFB0E72046FFF717FD0246F4E7D0F814
:103DA00004A0226BDAF80830DAF80090023B1344E2
:103DB00023634846B34908F0BDFB002800F0E180CA
:103DC000DAF80C30032B94D8DFE803F011955F1973
:103DD000204600F045FB2A46034604212046FFF713
:103DE0004DFB0246D0E70335E560002099E72A46FF
:103DF000002335212046FFF741FB0246C4E7B9F115
:103E0000000F3FF476AFA049484608F093FB002826
:103E100000F0BC8099F800306E2B7FF46AAF99F8FF
:103E20000130772B02D0612B7FF463AF5F212046F6
:103E3000FFF7FAFE8146204600F034FDE368824633
:103E40001A78452A00F0D780702A00F0EB80692AA2
:103E50007FF44FAF5B786C2B7FF44BAF204600F0C4
:103E60001BF9034652463B212046FFF707FB4A4613
:103E700003463A212046FFF701FB2A460346392133
:103E80002046FFF7FBFA02467EE7B9F1000F3FF448
:103E900030AF6B681B685A78632A00F08A8020462E
:103EA00000F0FAF882467949484608F043FB0028BA
:103EB00079D07749484608F03DFB28B14846754916
:103EC00008F038FB002857D1204601F06BF9E36871
:103ED00081461B78492B00F092804B465246382190
:103EE0002046FFF7CBFA2A46034637212046FFF744
:103EF000C5FA024648E7B9F1000F3FF42BAF99F835
:103F00000030702B02D06D2B7FF424AF99F8012084
:103F10009A427FF41FAFE3681A785F2A00F08E8020
:103F20004FF0010918E70235E560204600F0BAFCC1
:103F30000546204601F036F9E36882461B78492B96
:103F40004ED003462A4649462046FFF797FA0246D6
:103F50001AE701980135E56002B0BDE8F087023547
:103F6000E560204600F098F8002302464A212046EA
:103F7000FFF784FA024607E7204600F08DF88146F5
:103F8000ABE7204600F08EFC0346F2E6204600F048
:103F900083F88146204600F07FF88246204600F0F4
:103FA0007BF803465EE745212046FFF73DFE81464C
:103FB00093E71B78A3F16302012A03D9723B012B1B
:103FC0003FF66DAF204600F06DFC82466BE71A4667
:103FD00001352E21C56002B0BDE8F047FFF74EBAAB
:103FE000204600F03DFA5246034604212046FFF7E2
:103FF00045FA0346A6E70133E360002332E7204693
:1040000000F02EFA4A46034604212046FFF736FA0E
:10401000814662E70133E36045212046FFF704FE55
:104020000346A6E65A78692A7FF463AE0233E3605A
:1040300045212046FFF7F8FD034613E70133E3600F
:1040400088E66F2B16D0692B7FF445AE6B786C2B0E
:104050007FF430AE4FF0000902354521E56020467F
:10406000FFF7E2FD4A46034630212046FFF706FAF5
:10407000024689E66B786E2B7FF41CAE0235E56054
:10408000E7E500BF241801006C1301006013010074
:104090006413010068130100C1680B784C2B6BD0CE
:1040A000542B6BD0732B2DE9F041044624D0662BA2
:1040B0000FD0A3F13002092A00F29A81204601F0C4
:1040C00071F80546A8B1E3681B78492B6DD0BDE8AF
:1040D000F0814B78702B2FD0204600F0A1FF0546D1
:1040E00038B10378312B4BD0322B16D0332B00F064
:1040F00024810020BDE8F0814B78722B60D0702BBA
:10410000EAD10231C160FFF7C7FF002302464A210E
:104110002046BDE8F041FFF7B1B96B68032BE8D842
:1041200001A252F823F000BFF5410000F542000063
:10413000F3400000F34000008B1CC3608B78542BCD
:1041400054D0FFF725FB6FF0004300EA03029A42C8
:10415000CFD0421C6369A1698B42CADA03EB4301E9
:1041600020690133890063614318C2D00624445496
:104170005A601846BDE8F08101F066BCFFF724BB29
:104180004768226BBB683E68023B1344236330469A
:10419000AE4908F0CFF9002800F0DB80FB68032B64
:1041A000A7D8DFE803F027BA722F204600F058F9AD
:1041B0002A46034604212046BDE8F041FFF75EB9D8
:1041C0000231C16000F06EFB0546204600F0EAFFB8
:1041D000E36806461B78492B00F0DF8003462A4639
:1041E0002046BDE8F0410121FFF748B90331C16025
:1041F0000022AFE72A462046BDE8F04100233521E2
:10420000FFF73CB9002E3FF474AF9149304608F0F7
:1042100091F9002800F0A18033786E2B7FF469AF0C
:104220007378772B02D0612B7FF463AF5F21204638
:10423000FFF7FAFC0646204600F034FBE368074629
:104240001978452900F0B980702900F0C5806929E6
:104250007FF44FAF5B786C2B7FF44BAF2046FFF7BA
:104260001BFF03463A463B212046FFF707F932463B
:1042700003463A212046FFF701F92A460346392131
:104280002046BDE8F041FFF7F9B8002E3FF431AF0A
:104290006B681B685A78632A72D02046FFF7FCFED1
:1042A00007466C49304608F045F9002862D06A4953
:1042B000304608F03FF928B13046684908F03AF92D
:1042C000002875D1204600F06DFFE36806461B7894
:1042D000492B76D033463A4638212046FFF7CEF8B0
:1042E0002A46034637212046BDE8F041FFF7C6B80D
:1042F0000133E36000262046FFF7CEFE03462EB1D1
:10430000024638212046FFF7B9F803462A462046E0
:10431000BDE8F0413621FFF7B1B8002EEAD033787E
:10432000702B01D06D2BE5D172789A42E2D1E3680F
:104330001A785F2ADCD00126DDE7E3681A785F2A65
:10434000D8D10133E36045212046FFF76DFC0346D9
:10435000DCE7204600F0A6FAD7E72046FFF79CFEF0
:1043600006462046FFF798FE07462046FFF794FED4
:10437000034677E745212046FFF756FC0646A9E7A6
:104380001B78A3F16302012A02D9723B012B84D866
:10439000204600F087FA074683E7204600F060F8E1
:1043A0003246034604212046FFF768F8034616E725
:1043B0002046FFF771FE06468CE70133E3600023D9
:1043C00050E7204600F04CF83246034604212046D0
:1043D000FFF754F806467DE75A78692A7FF489AEDC
:1043E0000233E36045212046FFF71EFC034639E710
:1043F0006F2B14D0692B19D14B786C2B7FF46CAEDA
:1044000000250231E16020464521FFF70DFC2A46D8
:10441000034630212046BDE8F041FFF72FB84B7826
:104420006E2B7FF459AE0231C16047E6742B7FF4E6
:1044300053AE4B786C2B7FF44FAE00F033FAE1684B
:1044400005464B78002B3FF454AEDAE72418010000
:104450006C13010060130100641301006813010074
:10446000C1680B78493B012B56D82DE9F0414A1C15
:10447000C2604B7882B0452B0446C66A4ED002AD6E
:10448000002145F8041D0127493B0F2B3BD8DFE8ED
:1044900003F035353A1A3A3A3A3A3A3A3A3A3A3A27
:1044A0003A080132D4F83480E26020466763FFF7AF
:1044B000F3FDE368C4F834801A78452A28D0002038
:1044C00002B0BDE8F081204601F0BEFA02460023AA
:1044D0002F21002AF3D02046FEF7D0FF286000F1FC
:1044E00008050028EBD0E2681378452BCCD1019861
:1044F0000132E260E66202B0BDE8F0812046FFF7DB
:10450000AFFF0246E3E7204600F0CCF90246DEE7C3
:104510000133E3600246DAE70020704700231A46C1
:104520000231C1602F2102B0BDE8F041FEF7A6BF05
:104530002DE9F043C26883B0137805464E3B0C2B3F
:1045400069D8DFE803F01B6868686859681668680E
:104550006868070001320021C26000F099FFEB6833
:1045600006461978452900F09C80002003B0BDE87C
:10457000F08300F017FE03B0BDE8F0830132C260A3
:1045800001A90122FEF7C6FF81460028EDD00021D7
:104590002846FFF71BF88046EA68B44E14780027D7
:1045A000002C00F0EE80442C00F0D780A4F1300302
:1045B000DBB21C2B40F2AD80A4F16103DBB2192BFE
:1045C00040F2AC80552C00F0E280532C00F0E880E3
:1045D000492C00F0DE80542C00F01A81452C00F0AC
:1045E0004B814D2C40F0CD80002F00F0CA80531C31
:1045F000EB6054781A46D3E75378742B29D0002106
:10460000FFF77CF9EB6804461B78492B47D020461E
:1046100003B0BDE8F08300F0C5FDEB6804461B78ED
:10462000492BF4D10028A0D02B6A6A6A93429CDA05
:10463000E9695A1C41F8230028462A62FFF710FF57
:104640002246034604212846FEF718FF03B0BDE8C2
:10465000F0834369816902328B42C260C0F2AA8052
:104660000024284600F09EFD2246034601212846EC
:10467000FEF704FF2B6BEA6803332B6313780446C1
:10468000492BC4D100283FF470AF2B6A6A6A934269
:10469000BFF66BAFE9695A1C41F823002A6228462D
:1046A000CCE75A1CEA605978732900F09880642995
:1046B00000F0B2802846FFF73BFF0446002800F0D8
:1046C0008A800378452B00F08680472B00F083809A
:1046D0004FF0FF37EB681A785F2A00F0B4807B1C3C
:1046E00079D06B69AA69934277DA03EB43022969AF
:1046F000013392006B618B1803D0462088549F6071
:104700005C60324628460221FEF7B8FE03B0BDE8E1
:10471000F08326FA03F3D9077FF54EAF284600F061
:1047200041FD4FB3012103463A462846FEF7A6FE57
:104730000746532C1DD0EA681478452C3FF436AF59
:10474000FFB12B6A6A6A93421BDAEA69591C42F884
:104750002370EA682962147822E75378284603F028
:10476000DF03542B0AD000F01DFD002FDAD10746DD
:10477000E1E7EA68147813E70746DAE700F092F811
:10478000F3E70020C9F8000003B0BDE8F083284635
:10479000E9E7002FF5D02846FFF762FE0421C2E7C3
:1047A00001212846FFF7AAF8002FBBD1EA68074687
:1047B0001478F5E603EB4301026901338900436194
:1047C00053183FF44DAF2A4E0027032057541C4680
:1047D0005E60986045E7234693E7002391E79A1CC3
:1047E000EA609A785F2A38D06B69AA699342F4DA52
:1047F00003EB430128698900013342186B61ECD057
:104800001C4C002747540E2113465460916078E7F2
:104810002846FEF7D9FFA8E70233EB602846FEF7EB
:10482000B7FF071EFFF6A1AE2846FFF781FE04463C
:1048300000283FF456AF0378452B3FF452AF472B87
:104840003FF44FAF46E72846013340F80C3FFEF7F0
:104850005BFF0028BFF643AF87E62846033340F8E6
:104860000C3FFEF751FF0028BEDA7EE6FF0308107A
:104870008013010070130100C9F80070002F3FF48D
:1048800074AEB8F1000F04D0019BCDF80480C8F8D5
:104890000430EB681A78452A7FF467AE0133EB6089
:1048A000019868E62DE9F043C16883B00B780446AF
:1048B000722B55D0562B53D04B2B51D0A3F1300235
:1048C0004A2A00F28A80DFE812F0B200B200B20099
:1048D000B200B200B200B200B200B200B200880072
:1048E000880088008800880088008800B800880058
:1048F000E10003018800EF00F500880088008800CF
:10490000880088007501B2008D019B018800A90113
:10491000B7010F02D8018800880088008800B20023
:10492000880088008800880088008800EA01EA0181
:10493000EA01EA01EA01EA01EA01EA01EA01EA011F
:104940008800EA01EA01EA01EA018800880088009B
:10495000EA01EA019800EA01EA01EA01EA01EA0152
:10496000002201A92046FEF7D5FD0546002834D0D7
:10497000E36820461B78462B34D0FFF793FF28606E
:1049800058B303781F3B012B30D9019A2AB3236A0D
:10499000616A8B4221DAE069591C40F82320019DAD
:1049A0002162284603B0BDE8F0830123656B2046F1
:1049B0006363FFF771FB65630246002342212046D3
:1049C000FEF75CFD0546019038B1E3681A7822B124
:1049D0005A1CE2601B78452B1ED00025284603B0E8
:1049E000BDE8F08300F034FD2860C9E7019A436810
:1049F00042602A6801922B60C7E70131E1602046DE
:104A0000FEF704FF0023024628212046FEF736FD6C
:104A100005460190002DE0D0236A626A9342DCDAF9
:104A2000E1695A1C41F82350019D2262D6E72046D5
:104A3000FFF77EFD05460190ECE7481CE0604B78EF
:104A40005F2B00F07482303B092B00F27E8203461C
:104A50000133E3601A78303A092AF9D96269A16909
:104A60008A4211DA02EB4201266989000132751887
:104A7000626109D01A1A07D0002777546860AA60CB
:104A80001A785F2A00F0C9820025A9E00131E160AF
:104A90002046FFF707FF0023024625212046FEF7A8
:104AA000EDFC05460190B5E7204600F0D1FC054637
:104AB0000190AFE70131E1602046FFF7F3FE0023EC
:104AC000024626212046FEF7D9FC05460190A1E7C3
:104AD0004B1CE3604B78002B3FF47FAF8B1CE360F3
:104AE0004B78463B302B3FF678AF01A252F823F0CB
:104AF000BD4E0000DB490000DB490000DB4900003F
:104B0000DB490000DB490000DB490000DB49000015
:104B1000DB490000DB490000DB490000DB49000005
:104B2000DB490000DB490000AB490000DB49000025
:104B3000DB490000DB490000DB490000DB490000E5
:104B4000DB490000DB490000DB490000DB490000D5
:104B5000DB490000DB490000DB490000914E00000A
:104B6000DB490000DB490000754E0000B14D00003C
:104B7000854D0000DB490000594D00002D4D00001F
:104B8000DB490000DB490000DB490000DB49000095
:104B90004D4E0000DB490000354E0000DB490000AF
:104BA000DB490000174E0000AB490000DB49000064
:104BB000DD4D00000131E1602046FFF773FE054640
:104BC00000283FF461AF2046FFF76CFE00283FF459
:104BD0005BAF03462A462B212046FEF74FFC0546D5
:104BE000019517E70131E1602046FFF75BFE0023E6
:104BF000024624212046FEF741FC0546019009E7C4
:104C00000131E1602046FFF74DFE002302462221DC
:104C10002046FEF733FC05460190FBE60131E160DA
:104C20002046FFF73FFE0023024623212046FEF7E1
:104C300025FC05460190EDE64B78A3F13002092AE8
:104C400005D95F2B03D0413B192B00F28B8100214A
:104C50002046FEF753FEE36801901B780546492B7A
:104C60007FF4BCAE2046FFF7FBFB2A460346042137
:104C70002046FEF703FC0546B2E70131E16020461D
:104C8000FEF7C4FD01902046FFF70CFE019B024693
:104C900021212046FEF7F2FB05460190BAE6613B72
:104CA000B74F6269A56903EB83039B0007F1C4005A
:104CB000AA42184480F2378102EB4206D4F810E091
:104CC000B60001321EEB0605626100F02C8127223E
:104CD0000EF806203B446860226BD3F8C8300131DF
:104CE0001344E160236379E62046FEF76DFDE66834
:104CF000019033780546492B7FF48CAEA36B002BD3
:104D000040F0508100283FF468AE236A626A934203
:104D1000BFF663AEE1695A1C41F8230022622046C7
:104D2000019DFFF79DFB2A460346A0E76369A26940
:104D3000934280F2F88003EB43012269890001333A
:104D40005518636100F0EF808E4B272050546B6044
:104D5000236B0833236341E66369A269934280F2BF
:104D6000E28003EB43012269890001335518636136
:104D700000F0D980844B272050546B60236B0433A0
:104D800023632BE66369A269934280F2CC8003EB34
:104D900043012269890001335518636100F0C38023
:104DA0007A4B272050546B60236B0933236315E63D
:104DB0006369A269934280F2B68003EB43012269E2
:104DC000890001335518636100F0AD80704B2720D6
:104DD00050546B60236B0A332363FFE58B785F2BA2
:104DE00000F0FF802046FEF7B7FC0546002D3FF49B
:104DF000F7AEE3681A785F2A7FF446AE0133E360CA
:104E00002046FFF74FFD2A4603462D212046FEF798
:104E100035FB0546E4E66369A269934280F283802C
:104E200003EB4301226989000133551863617AD08D
:104E3000584B8AE72046FFF735FD002302464A21FA
:104E40002046FEF71BFB05460190E3E56369A26976
:104E5000934268DA03EB4301226989000133551854
:104E6000636160D04C4B272050546B60236B11332F
:104E70002363B3E56369A269934254DA03EB430108
:104E8000226989000133551863614CD0434B88E790
:104E90006369A2699342BFF6A0AD03EB43022169A7
:104EA0000133920063618B183FF497AD3C4C0025B1
:104EB00004208D541D465C6098608FE56369A2698B
:104EC000934280F28580256903EB43008000013323
:104ED0002A182C26636101922E548B78303BDBB26A
:104EE000092B94BF01230023138174D91546204652
:104EF000FFF7D8FC019B68605B68002B3FF46DAD49
:104F000004F10C00FEF700FCE268137843B1531C77
:104F1000E3601378A3F17303B3FA83F35B091BB265
:104F2000019D6B815AE5002301935B68FFDE00253C
:104F30000130E0602046FFF7B5FC2A4603462A21EF
:104F40002046FEF79BFA05464AE60123656B20469C
:104F50006363FFF7A1F86563054600283FF494AD4D
:104F6000E3688DE52046FFF7E3FA05460190002847
:104F70003FF433AD0378182B7FF44EAD2EE500BF20
:104F8000040C0100340F01000C0F0100D00E0100D1
:104F9000F80E0100200F0100480F0100E40E01008F
:104FA000841301002046D4F81490D4F82080A76A16
:104FB000256BFFF755FAE2681278492A1CD0256361
:104FC000E660C4F81490C4F82080A762019D21E532
:104FD00000231B70FFDE04F10C00FEF795FB019D22
:104FE00085E703310123666BE16063632046FFF7C9
:104FF00053F866630546F9E6019B002B3FF4EDACE0
:10500000226A616A8A42BFF6E8ACE569511C45F83C
:105010002230019A0346216229E6184688E700BF3C
:10502000F8B5C36884461F7827B35A1CC2605A7803
:105030001F78002A59D09A1CC260762F044693F834
:1050400001E044D0632F16D1BEF1760F13D1436B2C
:10505000856BB3FA83F35B098363FFF723FCA36BD0
:105060000246002B53D0002334212046FEF706FAD7
:10507000A563F8BDBE46294D3D20002204E08CBF4B
:1050800018465A1C82422ED0831A03EBD37302EBCC
:10509000630319016C5829442678BE42EFD1647825
:1050A0007445ECD1DCF81430DCF8182093421ADA9D
:1050B00003EB4302DCF8100001339200CCF814300B
:1050C000831829D03124845459601846F8BDAEF1B4
:1050D0003005EBB2092BCED8FEF798FB6369A269C5
:1050E0000146934203DB0020F8BD9646C3E703EB7D
:1050F000430220690133920063618318F3D00029D1
:10510000F1D0322484545D6099601846F8BD332193
:105110002046FEF7B3F9ABE71846F8BD5C0F010077
:1051200030B5C26883B013780021019143B3452B99
:1051300026D02E2B24D0044601AD16E04F2B16D0DE
:105140002046FFF7AFFB00232E21C8B102462046C0
:10515000FEF794F9286098B1E26800F10805137829
:1051600043B1452B06D02E2B04D0522BE6D15378D9
:10517000452BE5D1019818B1836823B103B030BD48
:10518000002003B030BD426811782729F6D152685B
:10519000117C0929F2D15168226B521A22634360B3
:1051A000ECE700BFF8B5C26804461378A3F13001FC
:1051B000092920D9A3F16101192925D9A3F14301B6
:1051C00001292CD94C2B00F08980552B33D15378F1
:1051D0006C2B32D0742B2ED1531CC3605378742B9C
:1051E0005BD0422B4FF000050CD129462046BDE88C
:1051F000F840FEF769BBFEF709FB0546E3681B783C
:10520000422BF2D02846F8BDFFF70AFF054618B139
:105210000378312B00F0B280E3681B78F0E7C16AB5
:1052200021B1087800286DD018286BD0432B00F0EE
:10523000C280442B70D00020F8BD531CC36053784B
:105240006C2BCED10232C260FFF76AFF06460028FF
:1052500000F0DA80E2681378452BC2D10132E260B7
:105260002046FEF795FA002813DB6369A269934292
:105270000FDA03EB43022169920001338D18636159
:1052800007D045238B546E60A860236A626A9342FC
:105290001CDBE36800251B78B2E70232C260FEF730
:1052A00077FA0028F5DB6369A2699342F1DA03EB30
:1052B00043022169920001338D186361E9D04723CD
:1052C0008B546860236A626A9342E2DAE1695A1C8D
:1052D00041F82350E36822621B7891E70132C260F3
:1052E000FEF794FA05460028A5D0E26813785F2BF4
:1052F00086D12046013240F80C2FFEF705FA00282F
:105300008ADA98E7206B8B68034423631378432B76
:1053100051D0442B7FF465AF5378303B052B8AD8AE
:1053200001A050F823F000BF71530000415300006A
:105330006D53000037520000795300007553000090
:1053400002276369A069951C8342E56030DA03EBAC
:1053500043002669800001333518636128D039B3D2
:10536000082333542F71A960937849E70327E8E7AE
:105370000127E6E70527E4E70427E2E74268216B17
:10538000936810680B4407332363214907F0D2F870
:1053900000287FF441AF2046FEF738FA2A4603463C
:1053A00036212046FEF76AF8E36805461B7827E7B2
:1053B0009378002524E75378313B042B3FF63BAF2D
:1053C000DFE803F01A03201E1C0002276369A069AE
:1053D000951C8342E560EBDA03EB4300266980000D
:1053E000013335186361E3D00029E1D0072333543A
:1053F0002F71A960937803E70127E7E70527E5E721
:105400000427E3E70327E1E7E36805461B78F7E6AF
:105410008C13010070B5C36804461A784A2A0DD06F
:1054200071B90D462046FFF77BFE78B103462A4648
:105430002046BDE870402921FEF720B80133C36043
:105440002046FFF72FFA05460028EBD1002070BD5B
:10545000C3681A78462A01D00020704710B55A1C3C
:10546000C2605A780121592A04BF0233C36004463E
:10547000FFF7D0FF01462046FEF7A8F8E3681A7848
:10548000452A01D0002010BD0133E36010BD00BFEC
:105490002DE9F047C36805461A78472A29D0542ACF
:1054A00027D00E46FFF744F8044660B316B1AB6848
:1054B000DB072CD5EB681B788BB3452B2FD021460F
:1054C0000B78042BA3F11C0200F01A81C0F01681A6
:1054D000042A00F2138149680029F1D12846FFF718
:1054E00099FF2246034603212846BDE8F047FDF711
:1054F000C5BF296B01F114022A631A78542A11D00E
:10550000472A00F085800020BDE8F0876468237892
:10551000A3F11C02042AF9D9022B00F001812046D4
:10552000BDE8F0875A1CEA605A78002AEBD09A1C32
:10553000EA605B78433B332BE5D801A252F823F0B5
:1055400027590000075500000755000011590000B9
:1055500007550000FB580000E5580000CF58000038
:1055600007550000075500000755000007550000CB
:1055700007550000075500000755000007550000BB
:10558000B95800009F5800000755000085580000DA
:105590009B59000007550000075500000755000003
:1055A000075500000755000007550000075500008B
:1055B000075500000755000007550000075500007B
:1055C0006759000007550000075500000755000007
:1055D00007550000B15900000755000007550000AD
:1055E000075500000755000007550000075500004B
:1055F000075500000755000007550000075500003B
:105600000755000007550000075500005F580000CF
:105610005A1CEA605A78002A3FF475AF9A1CEA6077
:105620005A78413A312A3FF66EAF01A151F822F083
:105630001B580000075500000755000007550000E3
:1056400007550000075500000755000007550000EA
:1056500007550000075500000755000007550000DA
:1056600007550000075500000755000007550000CA
:1056700007550000FD570000075500003358000093
:1056800007550000E75700000755000007550000C8
:10569000075500000755000007550000075500009A
:1056A000075500000755000007550000075500008A
:1056B000075500000755000007550000075500007A
:1056C000075500000755000007550000075500006A
:1056D000075500000755000007550000075500005A
:1056E000075500000755000007550000075500004A
:1056F000075500003D570000342B0FD10021EDE687
:105700004A685AB11378082B03F1FF31F4D8072BFC
:10571000F4D2012902D89268002AF3D10121DDE6F2
:10572000A26813781C3B042B04D8526813781C3BE6
:10573000042BFAD9A2602046BDE8F08705F10C00E1
:10574000FDF7E2FF01287FF7DEAEEB681A78002A4A
:105750003FF4D9AE5F1CEF601B785F2B7FF4D3AEB4
:1057600000229046461E4FF040093B78002B3FF444
:10577000CAAE242B00F035813C46002104E014F829
:10578000013F23B1242B02D00131B142F7DB6B6919
:10579000A869834280F21F81286903EB430403F167
:1057A000010E10EB8403C5F814E000F0148100F83A
:1057B00024805F609960EF68761A0F44EF60002ADA
:1057C00000F02C813F212846FDF758FE02460028B4
:1057D0003FF499AE002EC8DC2846BDE8F047002310
:1057E0003E21FDF74BBE2846FEF7A2FE00230246EF
:1057F00013212846BDE8F047FDF740BE2846FEF7D6
:1058000097FE04462846FDF7A7FF224603461621C9
:105810002846BDE8F047FDF731BE00212846FFF7D6
:1058200037FE0023024617212846BDE8F047FDF762
:1058300025BE9A7800212846002A00F0F180DA1C63
:10584000EA609B786E2B40F0EB80FFF721FE00238F
:10585000024649212846BDE8F047FDF70FBE7621F4
:105860002846FEF711F900283FF44DAE00212846E6
:10587000FFF70EFE0023024610212846BDE8F04740
:10588000FDF7FCBD0F3129632846FFF70BF8002315
:10589000024609212846BDE8F047FDF7EFBD0A3171
:1058A00029632846FEF7FEFF002302460A21284608
:1058B000BDE8F047FDF7E2BD2846FEF7F3FF002301
:1058C00002460D212846BDE8F047FDF7D7BD284622
:1058D000FEF7E8FF0023024612212846BDE8F04704
:1058E000FDF7CCBD2846FEF7DDFF002302460C2164
:1058F0002846BDE8F047FDF7C1BD2846FEF718FE73
:105900000023024614212846BDE8F047FDF7B6BD46
:105910002846FEF7C7FF002302460E212846BDE8B1
:10592000F047FDF7ABBD2846FEF7BCFF044605F186
:105930000C00FDF7E9FE0028FFF6E5ADEB681A78EC
:105940005F2A7FF4E0AD0133EB602846FEF7AAFF43
:105950002B6B0246591D296323462846BDE8F047B4
:105960000B21FDF78BBD00212846FEF78DF800289E
:105970003FF4C9AD00212846FEF786F800283FF421
:10598000C2AD00212846FFF783FD00230246112106
:105990002846BDE8F047FDF771BD2846FEF7C8FD73
:1059A0000023024615212846BDE8F047FDF766BDF5
:1059B00068212846FEF768F800283FF4A4AD0021CE
:1059C0002846FFF765FD002302460F212846BDE863
:1059D000F047FDF753BDEB6800201944E960BDE8CE
:1059E000F0877B78532B27D05F2B23D0242B7FF499
:1059F0008AAD18466B69A9698B421FDA2C6903EBE3
:105A000043015F1C14EB81036F6117D004F82190F0
:105A10005860EF68023E0237EF60D0E61A46D9E6DA
:105A2000FFF736FD0023024648212846BDE8F0472F
:105A3000FDF724BD2E20DDE72F20DBE7EB680020FB
:105A40000233EB60BDE8F087F8B5C26813784C2BE1
:105A500001D00020F8BD531CC360517805465F2972
:105A60003ED05A2943D0FEF71DFF0028F1D003781D
:105A7000272B4AD0EE6833786E2B4FD03C21452B34
:105A800052D0002BE5D0334601E0002CE1D00133A9
:105A9000EB601C78452CF8D19C1B6B69AA6993427A
:105AA00031DA03EB43022F699200013317EB020E48
:105AB0006B6128D03EB334B373464FF0000C07F847
:105AC00002C0CEF80460CEF8084002462846FDF732
:105AD000D5FCEB681A78452ABBD10133EB60F8BDE1
:105AE000931CC36092785A2A18BF002007D1013353
:105AF000EB6000212846FFF7CBFCEB681A78452ABB
:105B0000EBD00020F8BD0023DFE743681A7C002AB1
:105B1000B0D05A682B6B9B1A2B63ABE7721CEA6000
