:1000000000400020212900001D2900001D290000BA
:100010001D2900001D2900001D290000000000000E
:100020000000000000000000000000001D2900008A
:100030001D290000000000001D2900001D290000EE
:10004000711800001D2900001D2900001D29000055
:100050001D2900001D290000D9130000A91300006C
:10006000E9160000DD110000E51100003922000052
:10007000412200001D29000039270000C91F00008F
:10008000E11F00001D2900001D290000E10F0000F4
:100090005D2000006D2000001D2900001D290000CA
:1000A000ED1F0000FD1F000025200000352000008E
:1000B000FD2800000D2900001D2900001D29000059
:1000C0001D2900001D2900001D2900001D29000018
:1000D0001D2900001D2900001D2900001D29000008
:1000E0004922000051130000D51F00000513000035
:1000F0001D2900001D2900001D290000000000002E
:1001000000000000000000000000000000000000EF
:1001100000000000000000000000000000000000DF
:100120001D2900001D2900001D2900001D290000B7
:100130001D2900001D2900001D2900001D290000A7
:10018000FFFFFFFFFFFFFFFFFFFFFFFFFFFFFFFF7F
:1001900003329CA77F000000FFFFFFFFFFFFFFFF70
:1001A00010B5054C237833B9044B13B10448AFF3B1
:1001B00000800123237010BD000C0420000000000B
:1001C000748C0000084B10B51BB108490848AFF308
:1001D00000800848036803B910BD074B002BFBD013
:1001E000BDE81040184700BF00000000040C0420C8
:1001F000748C00005809042000000000154B002BEF
:1002000008BF134B9D46A3F5803A00218B460F464D
:100210001348144A121A04F00BF80F4B002B00D0AD
:1002200098470E4B002B00D0984700200021040077
:100230000D000D48002802D00C4804F09BF903F093
:100240009DFC2000290002F069FC03F087FC00BF40
:100250000000080000400020000000000000000036
:10026000000C042080160420754500008145000024
:1002700010B5084A084C136882B0002143F4A0036B
:100280001360084600947023044A02F083F902B018
:1002900010BD00BF000002401C0C04207415042097
:1002A0000FB430B585B008AB53F8041B0B4C1A469D
:1002B0002046039304F0DCF8204604F091F8084A45
:1002C00000231568214602460093284602F016FADC
:1002D00005B0BDE8304004B0704700BFE41504200D
:1002E0001C0C042030B40648064D074C0749084B47
:1002F000084A05600C6000201A6030BC704700BFDF
:10030000000002400005500050510500400002402E
:10031000800002402000C000014B01221A7070478B
:10032000280C0420014B01221A707047200C042075
:100330000A4A400008B5114683B200209380D3805A
:1003400001F026FF08B1012008BD054A0121107007
:1003500001F050FF003018BF012008BD000004204C
:10036000200C04202DE9F04F254CDFF89CA085B02F
:1003700006462746D046234DDFF8909001E02378CB
:1003800093B92B7803F0FF0B002BF8D0003618BF81
:1003900001260021084601F02DFF00280CBF304641
:1003A000012005B0BDE8F08F87F800B000F0D2F969
:1003B0008642014616D0DAF80030002BE1D0B0F5C5
:1003C000C06F13D0B0F5E06F0ED1019000F048FC83
:1003D00004AAD8F80030019902F8010DD9F80000FC
:1003E0009847CEE75E46D4E75A46F7E7019000F01B
:1003F00031FC04AA02F8010DD8F800300199EDE7AC
:10040000280C0420200C04202C0C0420240C042094
:1004100010B50F4B0F4C00221960206001231046CD
:100420000D4901F05FFE08B1012010BD0B4800F03E
:100430006BF800B110BD41F28830FFF779FF00285A
:10044000F2D1BDE810404FF48070FFF78BBF00BFC2
:10045000240C04202C0C04202503000019030000A8
:1004600008B5FFF765FF08B1012008BDBDE80840E9
:10047000FFF778BF10B504460846FFF759FF20B9CB
:100480002046BDE81040FFF76DBF012010BD00BF42
:1004900010F0010F08B5084604D0FFF749FF50B12E
:1004A000012008BDFFF744FF0028F9D1BDE808404E
:1004B0000920FFF757BF0820BDE80840FFF752BFEB
:1004C000F8B50F4C8D1C8E1D4FF0010E6FF03F07DD
:1004D00065726FF00305F1B2A080608184F806E0D8
:1004E000E771257222B11BB1C4F88820C4F88C30A2
:1004F000044800F0E9FC003018BF0120F8BD00BF3F
:10050000300C0420360C0420F8B500F061FC08B172
:100510000120F8BD0D4B4FF4807201276FF03F06AC
:100520006FF003050224981D06219F71DE711D7274
:100530005C725A819A8000F0C7FC0028E8D1BDE8BF
:10054000F8404FF47A710820FFF7A2BF300C042066
:100550000146F8B50F4B4FF400726FF03F076FF094
:1005600003060325012459701973981D0721DF71B3
:100570001E725D725A819C719A8000F0A5FC08B1D0
:100580002046F8BD2046BDE8F8404FF47A71FFF7E9
:100590007FBF00BF300C0420F8B51D4B187369B342
:1005A0000988A3F80D10EAB111681A4CC3F80F10AE
:1005B00095881021A58092790C275A7540F2062261
:1005C00001246FF03F066FF0030598705F721248C8
:1005D0005A819C71DE711D729A8000F075FC30B1F9
:1005E0002046F8BD40F2052209210527E8E74FF42F
:1005F0007A710820BDE8F840FFF74ABF1AB10988B0
:10060000A3F80D10D0E7072103274FF40172D7E7B5
:10061000300C04203F0C0420360C042008B50246A0
:100620000123002140F20720FFF74AFF00B108BD77
:100630004FF47A710120BDE80840FFF729BF00BFE1
:10064000F0B50C4616461B4D83B00146224605F117
:100650000D00ADF806302C7303F074FD032E1DD091
:1006600040F21B23BDF80610281904344673E4B287
:10067000C181A11D012602346FF03F076FF0030214
:10068000C9B20D48AB806B816C72AE71EF712A728A
:1006900000F01AFC38B1304603B0F0BD0134E4B2CA
:1006A00040F21A23E5E730464FF47A71FFF7F0FE87
:1006B00003B0F0BD300C0420360C0420F8B50E4B0E
:1006C0004FF4A0626FF03F076FF00306022501248C
:1006D000981D0621DF711E725D725A819C719A808D
:1006E00000F0F2FB08B12046F8BD2046BDE8F84016
:1006F0004FF47A71FFF7CCBE300C0420F8B50D46EC
:10070000134C1146A0812A4604F10F00A57303F093
:1007100019FD40F2015305F109016FF03F076FF039
:10072000030205350126C9B2A01DE7712272657268
:100730006381A671A38000F0C7FB08B13046F8BD05
:100740004FF47A710820BDE8F840FFF7A1BE00BF62
:10075000300C0420F0B5C54D83B005F146040023EC
:1007600020460DF107024021C5F84A3085F84E3089
:10077000C5F8463000F0BAFB10B99DF8073013B940
:10078000012003B0F0BD022B08D995F84620042AB9
:1007900004D195F84810DA1E914202D0022003B02D
:1007A000F0BD95F847200E2A00F07081FF2AF5D1A0
:1007B00095F84920A02AF1D195F84B0095F84A20E8
:1007C000032942EA002212B295F84C6094B2E5D9AE
:1007D00040F20E21073B8A42DBB200F02E8118DD89
:1007E00040F203318A4246D0B2F5417F39DBB2F59F
:1007F000A06F00F0BF8040F38D80B2F5C06F00F0B5
:100800002581B2F5E06F25D1092B00F0F681032098
:10081000B7E740F201218A423CDCB2F5007F80F26A
:10082000CD8040F201118A4200F0BF80B2F5817F95
:1008300010D1022BEBD995F84E0095F84D3095F874
:100840004F108B4A43EA0023A5F8BC3085F8BE1050
:10085000C5F8C0201EB140F201139C42D7D12046FA
:100860008FE740F201318A4200F0DB8000F3C5805F
:10087000B2F5407FEED1032BC9D195F84E1095F813
:100880004D3095F84F2043EA0123A5F8C43085F890
:10089000C620DFE7B2F5027F00F0CF8049DCA2F589
:1008A0000172022AD6D8112BB1D1724A95F84D1097
:1008B000134695F84E0053F87EED41EA00209F88DC
:1008C00095F8591095F85830978043EA012195F82A
:1008D0005D7095F85C3095F85BC095F85A2043EA56
:1008E0000723A5F8CC0095F84F7095F85000A5F8AF
:1008F000D81095F8571042EA0C22C5F8CFE0A5F8B9
:10090000DA20A5F8DC3085F8CE7085F8D50085F8BA
:10091000D6109FE7B2F5417F9CD1062B7FF477AFCD
:10092000554A134653F8670D9B88C5F8B400938069
:1009300090E740F209218A428CD1082B7FF667AFFD
:100940004E4B95F84D701A4652F8420D95F85410DA
:10095000B2F804E095F85520C5F890003A3BA3F8AA
:100960003EE0C5F89C20C5F8983085F8967085F86B
:1009700097106FE795F84F703C4D142F3FF647AF37
:10098000022B7FF644AF95F84E1095F84D303A465D
:1009900043EA012305F1F90005F1500185F8F870EB
:1009A000A5F8F63003F0CEFB54E7012B7FF42FAF10
:1009B00095F84D30204685F8F430E2E6092B7FF6B5
:1009C00026AF2F4B95F84DE01A4652F8520D95F888
:1009D00054709288C5F8A00095F855109A8095F843
:1009E0005620493BC5F8AC3085F8A6E085F8A770DD
:1009F00085F8A810C5F8B0202CE7082B7FF407AFC6
:100A0000204995F84E700A4652F8770D95F84D300A
:100A1000928843EA07238A80A5F8C430C5F8C60047
:100A200018E7022B7FF4F3AE95F84E2095F84D3081
:100A300043EA0223A5F8C4300CE7002B3FF4E7AEED
:100A4000114AC5F8F030C5F8EC2003E7032B7FF41A
:100A5000DEAE95F84E1095F84D3095F84F2043EAEC
:100A60000123A5F8DE3085F8E020F3E6300C042001
:100A7000800C0420FF0C0420E40C0420C00C042093
:100A8000D00C0420F60C04207D0C042095F84A308C
:100A9000C02B7FF483AE95F84B30FC2B7FF47EAEF9
:100AA00095F84D0095F84C30052943EA002000B236
:100AB00095F84E4082B27FF671AEAB8893427FF4D8
:100AC000A6AE40F212238A1F9842D2B23BD01EDD5E
:100AD000B0F5427F00F0828040F20933984273D033
:100AE00040F2152398425CD0D5F88C104F4B9142C0
:100AF000FFF48DAE03F14F01D3F8880003F022FB21
:100B0000122C3FF684AE4A4B33F8140039E6B0F5A8
:100B1000817F2CD040F203239842E5D1072A7FF44D
:100B200076AED5F88C30414A072B7FF470AE114673
:100B3000D2F8883051F84F0F18608988998092F860
:100B400055209A71DCE7002A3FF461AED5F88C306D
:100B50003649052B7FF45BAE91F84F30D1F8880011
:100B60005A0000F8023B503103F0ECFAC8E7042ABF
:100B70007FF44DAED5F88C202C4B042A7FF447AE81
:100B800093F8500093F84F20D3F8881042EA0022DF
:100B90000A8093F8522093F8513043EA02234B80A5
:100BA000AEE7D5F88C30013A9A4220493FF62FAE95
:100BB000D1F8883091F84F2018685A6091F84F208A
:100BC000503103F0BFFA9BE7012CD5F8883029D0CB
:100BD000002C95D101221A700820D2E5002A3FF49A
:100BE00016AED5F88C20114B012A7FF410AED3F845
:100BF000882093F84F30137082E70E4995F84EE045
:100C00000A4652F8950D95F84D30978895F855207D
:100C100043EA0E238F80A5F8E230C5F8E40085F89A
:100C2000EA2017E600221A700A20AAE5300C0420F8
:100C3000E0880000140D042030B40546044C0FCCAD
:100C400028606960AA60EB6023882B8230BC704703
:100C5000FC0C0420014B93F8E0007047300C04209A
:100C6000014B93F8EA007047300C0420014BD3F895
:100C700080301847440D04202DE9F043504D4FF4C7
:100C8000806483B0C5F880410646894690461F4679
:100C9000C5F88040BFF34F8FBFF36F8F2021012035
:100CA00000F076FA18BB0446464D05E0BDF8062074
:100CB00001341ABBAC4252D00DF1060208210020CB
:100CC00000F06EFA03460028F0D03D4B4FF48062EE
:100CD000C3F8802101241A602021012000F050FA7D
:100CE00000280CBF2046012003B0BDE8F08301209E
:100CF000C5F880412C6003B0BDE8F0833148304A2C
:100D00004FF480618442C2F8801111601ED02E4CD5
:100D1000022201A9C4F800D061602281628136B349
:100D20002A4D4222286821468DF801308DF8043082
:100D30008DF805308DF8002001F036F968B99DF87E
:100D40000530984533D93B700524C5E70624C3E731
:100D500028681D4901F028F938B30424BCE7184B72
:100D60004FF48062C3F8802106241A60B4E7174D5F
:100D70008123286821468DF801608DF804608DF884
:100D800005608DF8003001F00FF90028E5D19DF8DD
:100D9000053098453B70D7D326813B782660638128
:100DA000C4F804903B78002BD2D1002494E787F854
:100DB0000080A4F808806081C4F800906060F1E7CA
:100DC00000E100E0A08601000C000420440D042096
:100DD00010B53A4C84B0C4F88000102104F1300002
:100DE00000F05EF910B1012004B010BD23462C22A2
:100DF000211D022000F0CCFE10B1022004B010BD75
:100E00000146206800F002FF0028F6D101220821E7
:100E100000F09AF90028E6D1082100F071F90028C5
:100E2000E1D108220A2100F055F902460028DAD162
:100E300023490A2000F0BEF90028D4D1012210462F
:100E4000202100F065F90028CDD12021012000F0FB
:100E500097F90028C7D101224FF40071022000F059
:100E600057F90028BFD14FF40071022000F090F92B
:100E70000028B8D102904FF6FE7202E0029B0133C7
:100E80000293029B9342F9D94FF40071022000F0C3
:100E900077F90028A7D103904FF6FE7202E0039B7A
:100EA00001330393039B9342F9D90DF107034022C9
:100EB00004490020FFF7E0FE96E700BF440D042040
:100EC0006D0C0000840D042010B50C4682B00DF1AD
:100ED0000703014622460120FFF7CEFE9DF80730AA
:100EE0009C4218BF042002B010BD00BF13460A4642
:100EF00001460020FFF7C0BE10B50A4C1822234659
:100F00000949012000F0FCFA00B110BD052120685C
:100F100000F0D0FB0028F8D120680121BDE8104086
:100F200000F072BBE00D0420C80D042000B5074B93
:100F300083B001A9186800F085FB18B1002003B048
:100F40005DF804FB019803B05DF804FBE00D04209C
:100F5000EFF3108072B6104A1378D3B90F4B01210A
:100F600070B4117059680E4E0E4C6FF0784241F01B
:100F700001014FF4002559609E6025601A62DA6213
:100F80005A63DA639A64DA641A6580F3108870BC75
:100F9000704780F31088704700140420000001405F
:100FA0000010042000E100E030B40C4C012304EBFD
:100FB000C0056960AA60834039B1D4F8DC000343FE
:100FC000C4F8DC30002030BC7047D4F8DC200020AE
:100FD00022EA0303C4F8DC3030BC7047001404205C
:100FE000184B2DE9F047184DD3F84C809C6C1F6DC1
:100FF000D5F8DC3044EA070919EA03091AD0B9FA2E
:1010000089F30126C3F11F0305EBC301D1F804A046
:1010100006FA03F3002229EA0309BAF1000F05D00A
:101020001C42886814BF01210221D047B9FA89F314
:10103000202BE7D1034B9C641F65C3F84C80BDE8AF
:10104000F08700BF00000140001404202DE9F041AA
:101050000F46124E82B0F568002405EBC00556F825
:101060002420092F0CBF138D938DD5F8008099B2E1
:10107000138E0B40ADF806301386B8F1000F00D088
:101080002BB90134032CEAD102B0BDE8F0810DF197
:10109000060221466868C047F3E700BF1C00042031
:1010A0000A4AD3680BB10020704730B408494FF4A6
:1010B00000754FF48064D060036043608360C36058
:1010C0000D6000200C6030BC704700BF1C00042085
:1010D00000E100E0094B53F82000EFF3108372B6F3
:1010E000092906D00A2900D1828583F310880020BF
:1010F0007047028583F31088002070471C0004208D
:10110000024B53F820300020998470471C000420C3
:101110000C4B10B453F82000EFF3108472B68388A0
:101120009BB23AB923EA0101818084F31088002040
:1011300010BC70471943818084F31088002010BCD4
:10114000704700BF1C0004200C4B10B453F8200063
:10115000EFF3108472B683899BB23AB923EA010196
:10116000818184F31088002010BC7047194381816D
:1011700084F31088002010BC704700BF1C000420BE
:10118000024B53F820300020198370471C000420C4
:10119000024B53F820300020998370471C00042034
:1011A000034B53F8203000201B8A194011807047F0
:1011B0001C000420093830B480B2EFF3108372B6FB
:1011C000054CE46804EBC00544F830106A6083F312
:1011D0001088002030BC70471C000420092100202A
:1011E000FFF734BF0A210120FFF730BF4CF614325D
:1011F000F8B51C4B1C48194602250024DA601D6115
:101200000460DA601A692A431A610B69154A9B0562
:10121000FBD546F61A064CF61435144B14491868DB
:10122000144F20F00300186000241F201C605F6032
:10123000DE6058610C608C604C64D56011690E4BA7
:1012400021F004014FF40060402780264FF4007520
:1012500011611F601E605D60586001F07FFB2046D9
:10126000F8BD00BF00C10440E014042000C30440E6
:1012700000C004400404100000E100E038B504465A
:101280000D4601F06BFB8CB1012C0DD10A4B5B6854
:1012900003F03F03094A002B126808BF0123B2FB89
:1012A000F3F300202B6038BD042038BD024B5B688F
:1012B000C3F30523EEE700BF00C304400415042078
:1012C000012810B519D014D3022810D109046FF4E5
:1012D0007F03EFF3108272B6094844682340194334
:1012E000416082F3108801F039FB002010BD04201A
:1012F00010BD09026FF47C53EBE76FF03F03E8E7A2
:1013000000C3044038B50F4A0F4B14689B6903F0C3
:10131000060524B113F004020BD19B0702D40A4B3B
:101320009D6138BD094B07211868A047064B9D6198
:1013300038BD064B002218680821A047024B9D616A
:1013400038BD00BFE014042000C30440E8140420AA
:1013500038B5124A124B15689B6903F4CC445DB151
:101360004CB158040DD4990413D49A0513D45B05D9
:1013700004D5062106E038BD002CFCD0084B9C614A
:1013800038BD0421074B00221868A847044B9C6114
:1013900038BD0321F6E70521F4E700BFE01404207F
:1013A00000C30440E814042008B5084B5968CB0773
:1013B0000BD5074B1B681BB1064A106800229847E3
:1013C000024A536843F00103536008BD00C0044063
:1013D000E0140420E814042038B50E4D0E4A2B68A2
:1013E00054684BB162070ED4A30705D50B4A2B688E
:1013F0001068012100229847074A04F00604536848
:101400001C43546038BD05490022086811469847BE
:10141000EAE700BFE014042000C00440E814042000
:10142000274B0029F0B506BF1946022700270328DD
:1014300044D8DFE800F040393B024FF0FF34062784
:10144000EFF3108372B644F659061E4DDFF878E0CC
:10145000EE60AE6826F003063043A860DEF81000A8
:1014600038430440CEF81040EFF31180520182F36C
:1014700011880A6852B9BFF34F8F30BF83F31088C9
:10148000EFF3108372B60A68002AF4D00A68013AB2
:101490000A6080F311880C490A6922F002020A618D
:1014A000BFF34F8F83F310880020F0BD47F004078F
:1014B0004FF0FF34C4E76FF00604C1E70620F0BD2B
:1014C000E414042000C0044000ED00E0034620B115
:1014D0001A68002001321A607047EFF3108372B669
:1014E00005490A6922F002020A61BFF34F8F83F3B4
:1014F0001088024BECE700BF00ED00E0E41404208C
:101500002DE9F0410D4604460021196028461E468B
:10151000670002F08DFE38483B1950F8231029600F
:101520000A8902F0800292B2002AF9D10A800A8563
:101530008B881A06FCD50B89DB05FCD441F6FF73BA
:101540008B808A88D205FCD500238B810B828A8808
:101550009305FCD5391900EB8101DFF8A8E004EB15
:10156000C4038D609B000EEB03023EF803E02B6882
:10157000B2F80280B2F804C06961A3F800E01189F2
:10158000B2F806E0A3F82880A3F80CC0B2F80AC0AD
:10159000A3F810E0B2F80CE099821849A3F818C03B
:1015A0008B42A3F844E013D03C4400EB840494F94C
:1015B00004303560002B2B7307DB03F01F00012282
:1015C0000F495B09824041F823200020BDE8F081EB
:1015D000118AA3F84C10518AA3F850102B68B2F866
:1015E00014E0D18AA3F854E02B68128BA3F85810AA
:1015F0002B68A3F87020D7E72C00042000140040CB
:1016000000E100E044000420026813891B06FCD4BA
:10161000EFF3108272B669B101680B889BB243F098
:1016200001030B8082F31088026893881B06FCD5A7
:101630000020704701680B8823F001031B041B0C7A
:101640000B80EFE70268138903F4C063002BFAD123
:1016500090F90C30002B22DB70B45A090124144D90
:1016600003F01F03203204FA03F345F82230BFF3DE
:101670004F8FBFF36F8F066890F90C30308AB289B4
:10168000002B92B242EA00420A6005DB03F01F021F
:1016900094405B0945F82340002070BC7047108AD5
:1016A00093899BB243EA00430B600020704700BF60
:1016B00000E100E00268938DDB04FCD430B4EFF36A
:1016C000108472B605682A8D22F4F0731B041B0C7B
:1016D00043EA41132B8584F310880268938D5B04E1
:1016E000FCD5002030BC7047604B2DE9F0419F686D
:1016F0003B6818889A8892B212F07E064BD080B26E
:1017000020F4FF6121F0030189B200296DD1188D09
:101710009A8D80B292B212F01F0502D0C40640F03A
:101720008580B3F85000B3F8482080B292B2C2F37B
:101730000C046CB341F6FE7E00EA0E0EBEF1000F03
:1017400005D0800503D5900501D541F40061B3F8BB
:10175000500080B220F43E6E2EF0030EBEF1000F5A
:101760001BD1D7F80480B8F1000F01D0002937D180
:101770009A8892B232439A809A8D92B22A439A857D
:10178000B3F8482092B22243A3F84820BDE8F08184
:10179000B3F85020E5E73146B9E710F4804F04D0A4
:1017A00012F0100F18BF41F4802110F4005F04D034
:1017B00012F0080F18BF41F4003110F4805F04D01C
:1017C00012F0040F18BF41F480314005C9D5D2078B
:1017D000C7D5D7F8048041F40041B8F1000FC7D055
:1017E0000022B868C0473B68C2E700F0040189B234
:1017F00009B1C2F34001C50403D5140748BF41F045
:101800000401050403D5540648BF41F020014504F6
:1018100003D5940648BF41F0100180047FF577AFEF
:10182000D5067FF574AF41F0080170E7C40603D513
:10183000D40648BF41F48061040703D5140748BFAC
:1018400041F40071440703D5540748BF41F4807147
:10185000840703D5940748BF41F08001C0077FF596
:1018600060AFD40748BF41F040015AE72C00042084
:10187000604B2DE9F0415F693B6818889A8892B205
:1018800012F07E064BD080B220F4FF6121F00301FC
:1018900089B200296DD1188D9A8D80B292B212F062
:1018A0001F0502D0C40640F08580B3F85000B3F89D
:1018B000482080B292B2C2F30C046CB341F6FE7EB3
:1018C00000EA0E0EBEF1000F05D0800503D590058D
:1018D00001D541F40061B3F84C0080B220F43E6EB3
:1018E0002EF0030EBEF1000F1BD1D7F80480B8F123
:1018F000000F01D0002937D19A8892B232439A80E2
:101900009A8D92B22A439A85B3F8482092B2224324
:10191000A3F84820BDE8F081B3F84C20E5E7314654
:10192000B9E710F4804F04D012F0100F18BF41F443
:10193000802110F4005F04D012F0080F18BF41F4AA
:10194000003110F4805F04D012F0040F18BF41F48E
:1019500080314005C9D5D207C7D5D7F8048041F4F6
:101960000041B8F1000FC7D00022B868C0473B68FB
:10197000C2E700F0040189B209B1C2F34001C50415
:1019800003D5140748BF41F00401050403D55406EC
:1019900048BF41F02001450403D5940648BF41F0FB
:1019A000100180047FF577AFD5067FF574AF41F065
:1019B000080170E7C40603D5D40648BF41F480612E
:1019C000040703D5140748BF41F40071440703D549
:1019D000540748BF41F48071840703D5940748BF7A
:1019E00041F08001C0077FF560AFD40748BF41F0E8
:1019F00040015AE72C000420012914D0022908D004
:101A0000016941F04001016183684BB1C068002267
:101A100018470169836841F010010161002BF5D17D
:101A20002830FFF753BD016941F004010161EBE784
:101A3000012915D0022908D0116941F080011161F6
:101A400093684BB1D068002218471169936841F040
:101A500020011161002BF5D102F12800FFF736BDFE
:101A6000116941F008011161EAE700BFF0B50168B2
:101A700083B00B8C9BB2ADF806300C88A4B226065E
:101A800038D5036943F002030361C36963BB0B8A62
:101A90009A0726D48B8A426823F4185392F90C20B3
:101AA0001B041B0C0125002A8B8280F822500CDBC2
:101AB0005309364902F01F02203305FA02F241F8B9
:101AC0002320BFF34F8FBFF36F8F83680546002B32
:101AD00055D001690022C068984729680C8003B07E
:101AE000F0BD0B889B07D5D40369002BD2D10C80A5
:101AF00003B0F0BDE5063DD4BDF80620BDF80650A4
:101B000002F00F02C2F1080292B2C5F303258AB1B6
:101B1000838BABB1466900E093B13778013B0F810D
:101B200090F82070013A9BB23E4492B283834661A2
:101B3000002AF1D190F8243013B1838B002BA4D16B
:101B4000002DA2D0C38B002B9FD0826901E0002B17
:101B50009BD08B88013D1370C38B816990F8212045
:101B6000013B0A449BB2ADB2C38382610168002D80
:101B7000EDD18AE7036943F00103036185E728306B
:101B8000FFF7A4FC29680C8003B0F0BD00E100E081
:101B9000F8B505460C461F460846002102F048FBF2
:101BA000164EA900164A4B1902EB83023144906885
:101BB0004B8836F825500021626014612060A162D4
:101BC000058283813C602268138A9BB243F0010343
:101BD0001382FFF7BDF96368224698780949FFF739
:101BE000E3F908B10E20F8BD6368224698790649EA
:101BF000FFF7DAF90028F5D1F8BD00BF0C89000025
:101C00008C000420311A0000F919000080F8261019
:101C1000002070472DE9F04F4B680C680A894D8908
:101C2000836144618283C5830C7B036880F8204014
:101C30004C7B4FF0000E80F82140CE7B8C7B80F8EF
:101C400022E01F8A85B027F441573F043F0C80F8FB
:101C5000234080F82460C0F810E000961F82002C1A
:101C600000F017819F8A002D40F07481BFB247F4C5
:101C700000579F821F8890F826E0BFB2ADF80E7023
:101C8000BDF80E70009EBFB21F801F8AB1F80A8097
:101C9000BFB247F002071F82A3F830E01EB1B8F1CF
:101CA000010F00F07781B3F810E00F891FFA8EFE64
:101CB0004EF4405EA3F810E0B3F810E02EF4405E5E
:101CC0004FEA0E4E4FEA1E4EA3F810E0B3F81CE0A8
:101CD0002EF0070E4FEA0E4E4FEA1E4EA3F81CE000
:101CE000002F00F04981D0F804E0BEF800A0BEF853
:101CF00002904FFA8AFCBCF1000F0ADB0AF01F0ABF
:101D00004FF0010BA54E4FEA5C1C0BFA0AFA46F89D
:101D10002CA0FE07DFF888A248BF01374FF0010C66
:101D20000CFA09FC48BFBFB2CAF814C8CAF828C0E8
:101D3000CAF824C0CAF834C0DFF868A24FEA570CCA
:101D40000CF1FF3CDAF800604FEA0C1CA7F1020A24
:101D50000F684FEA09194CF0454C06EB090B574444
:101D60004CF0010C03F1080A46F809700196CBF813
:101D700004A04FF00309CBF808C04746B8F1000FA4
:101D800000F0BE80BEF804B0BEF806C04FFA8BFA71
:101D9000BAF1000F0ADB0BF01F064FF0010B0BFA34
:101DA00006FB7E4E4FEA5A1A46F82AB018F0010F89
:101DB000DFF8ECB118BF08F101084FF0010A0AFA88
:101DC0000CFA18BF1FFA88F7CBF81CA8DFF8D481EB
:101DD000CBF828A0CBF824A0CBF834A0C7F34F0A47
:101DE0000AF1FF3AD1F804B04FEA0A11D8F800A07E
:101DF0004FEA0C1C023F41F09A415F4441F001015F
:101E00000AEB0C0B03F104084AF80C80CBF80470C1
:101E1000CBF8081000219984009949F004090029A1
:101E200073D1002D40F0AD80198A89B241F4805100
:101E30001982AA4238BF2A461A83002C7CD14169F4
:101E400079B1828BA2F10806B6B2541E4AB10D7860
:101E5000A2B21D8190F82040B242214482834161A8
:101E6000F3D11A8A520658BF9B889EF90C30002B7A
:101E700007DB03F01F04012248495B09A24041F837
:101E8000232090F82530002B6AD1002005B0BDE852
:101E9000F08F002A14BF4FF408574FF40057002D5D
:101EA00051D19C8AA4B247EA04019982198A89B265
:101EB00041F040011982198890F8264089B2ADF8A6
:101EC0000E10BDF80E1089B21980198A89B241F03E
:101ED000020119821C860024A146198AD0F804E068
:101EE00089B241F440511982198A21F44051090400
:101EF000090C1982998B21F007010904090C9983B7
:101F000000219984009900298BD0998C013A21F005
:101F1000F0010904090C9984998C89B241F00101FE
:101F200041EA820292B29A841A8A92B242F4006220
:101F30001A821D83002C82D09A8B92B242EA090940
:101F4000A3F81C908DE7998A89B241F480613943E6
:101F50009982B0E727F400573F043F0C9F8289E63F
:101F60000146002228311046FFF75AFA00288CD08B
:101F70000D2005B0BDE8F08FD0F804E04FF0010966
:101F8000FBE6002A7FF455AF198A89B241F400516B
:101F900019824EE7002180F823109CE700E100E061
:101FA0000000014008890000012310B580F82530A9
:101FB0000446FFF72FFE002384F8253018B9236963
:101FC000002B18BF0F2010BD014B1869FFF74EBD45
:101FD0008C000420014B586AFFF748BD8C00042098
:101FE000014B986BFFF742BD8C000420024B00228E
:101FF0001B699A83704700BF8C000420084B0021A6
:102000001B691A68D983938B23F007031B041B0CED
:102010009383938A9BB243F400539382704700BF2B
:102020008C000420024B00225B6A9A83704700BF39
:102030008C000420084B00215B6A1A68D983938BBB
:1020400023F007031B041B0C9383938A9BB243F476
:1020500000539382704700BF8C000420024B002283
:102060009B6B9A83704700BF8C000420084B0021B3
:102070009B6B1A68D983938B23F007031B041B0CFB
:102080009383938A9BB243F400539382704700BFBB
:102090008C000420F8B5104B104F53F8206057F80F
:1020A0002030B58B6BB1ADB2EA0704460CD4AB0758
:1020B00007D50B4A57F8243052F824000221002299
:1020C00098470323B381F8BD0549002251F8200049
:1020D00001219847EBE700BF20890000F814042095
:1020E000EC14042070B4204D204C45F8201044F826
:1020F00020202BB31E4B1B56002B07DB03F01F04C5
:1021000001221C495B09A24041F823201A4B1B4EB7
:102110001B4D1C4C1C491D4A53F8203036F81060EA
:1021200035F8105034F8104031F8101032F8102003
:102130001E8100201D809C82198470BC9A84704787
:102140000B4B1B56002BE1DB5A090121094C03F014
:102150001F03203201FA03F344F82230BFF34F8FFC
:10216000BFF36F8FD2E700BFF8140420EC140420F3
:102170002C89000000E100E0208900003089000087
:102180001889000018890000408900003889000083
:10219000174A8B8852F82000CA8803804FF47A735C
:1021A000828200E013B3828B013B12F0400F9BB29E
:1021B000F8D103898A7830B403F4C043CD784C78E1
:1021C000134343EA45130CB143F008030A780AB1FC
:1021D00043F004030A7A0AB143F080034A7A0AB151
:1021E00043F40043038130BC002070470620704751
:1021F000208900000F4A4FF47A7352F8202000E043
:10220000B3B1908B013B00F0400080B29BB200283C
:10221000F6D1138923F010031B041B0C138129B181
:1022200013899BB243F0100313817047084670472F
:1022300006207047208900000020FFF72BBF00BF59
:102240000120FFF727BF00BF0220FFF723BF00BF19
:102250002DE9F0410C461146E36A00261A691E7307
:10226000E26282680129054693881ED023F020038C
:102270001B041B0C938090F82D3073B1EB681BB1DD
:1022800094F83420022A1BD004F13C00FFF71EF919
:10229000E16A0B7B3BBBBDE8F0818268938823F049
:1022A00001031B041B0C9380E8E723F012031B04BB
:1022B0001B0C9380C368DBB194F83420022A17D139
:1022C000206B00270669D0F800E0AA69AF610760BB
:1022D00030682663C8B1A2B1042128699847E16A31
:1022E0000B7B002BD7D0A36B2846BDE8F0411847E5
:1022F000AA68938A5B06FCD5138F9BB2002BF8D19A
:10230000C2E7724628699847C2E784F83400002A79
:10231000F7D0E1E70B46416A012BCA6A70B5044663
:1023200010691CD0022B0CBF4FF480654FF4805510
:1023300003685BB1437B4BB1A36900262B43A361C8
:10234000324606732046FFF783FF616AA369204681
:102350002B43A3610022BDE87040FFF779BF4FF423
:102360008075E5E70B46016A012BCA6A70B5044621
:1023700010691CD0022B0CBF4FF400654FF40055C0
:1023800003685BB1437B4BB1A36900262B43A36178
:10239000012206732046FFF75BFF216AA3692046EE
:1023A0002B43A3610122BDE87040FFF751BF4FF4FA
:1023B0000075E5E74B7B33B9826893889BB243F0A5
:1023C000020393807047426870B4147801230F4A67
:1023D000A340C2F814389362536253634B680C4DA8
:1023E000013B0E682D681A018068210142F04042CD
:1023F00033446C1842F001026B506060A260838825
:102400009BB243F01003838070BC70470000014012
:10241000088900004B7B33B9826893889BB243F0F4
:10242000010393807047426870B4547801230F4AC7
:10243000A340C2F81C389362536253634B680C4D3F
:10244000013B0E682D681A018068210142F040624C
:1024500033446C1842F0010268506360A2608388C4
:102460009BB243F02003838070BC704700000140A2
:102470000889000038B5436A0446DB6A1A68F2B17D
:10248000197B51B9C5683DB1002202212069A847D6
:10249000636ADB6A1A68AAB138BD856899682B88B7
:1024A000DBB25354416ACA6A936854680133A34249
:1024B0009360F1D1BDE838400022FFF7C9BEC5687E
:1024C000002DE1D11B7B002BE6D1A3681B8838BD12
:1024D00070B5164600220C4605463C311046FEF704
:1024E0009FFF68B9226B136910601A6823634AB1B1
:1024F000A86930B1AA69002332600D20AB6170BDBC
:10250000012070BD84F83420F2E700BF8368002208
:1025100010B49A80436893F90320002A0EDB530914
:1025200001211B4C02F01F02203301FA02F244F891
:102530002320BFF34F8FBFF36F8F436893F90220BF
:10254000002A0EDB53090121114C02F01F02203337
:1025500001FA02F244F82320BFF34F8FBFF36F8FCD
:10256000436893F90420002A0EDB53090121084C2B
:1025700002F01F02203301FA02F244F82320BFF3D5
:102580004F8FBFF36F8F43680020D86010BC704737
:1025900000E100E02DE9F84F144605468B4617464A
:1025A000DDF828904FF0000ADFF84C811A465146BA
:1025B0002046C9F800A02E0101F03AFE08EB060300
:1025C0009A686360A26007F830BBFEF7C1FCBBF1FC
:1025D000010F66D04249626804F144031078A16695
:1025E000276284F864A0A7652766E765C4F86CA035
:1025F0006765236422463B49FEF7D6FC002866D176
:10260000BBF1000F4BD13848C5EBC5056D00A36881
:10261000425B28449A81A3684288C1881A85A368CE
:10262000828846449A84A36802899985A36841896F
:102630001A84A36804229987A3689A80C9F8004085
:102640006168F46091F90420002A0DDB53099B00B6
:1026500003F1604302F01F02012003F5614300FA19
:1026600002F2C3F880211A6091F90230002B07DBD7
:1026700003F01F0401221D485B09A24040F82320FB
:1026800091F90330002B28DB03F01F0017490122CA
:1026900082405B0941F823200020BDE8F88F04F157
:1026A00070076168124A487867620023BA6307F1CD
:1026B00014023A61BF623F63FF627F6287F8343081
:1026C000FB6322460B49FEF76FFC00289BD0204697
:1026D000FFF71CFF0F20BDE8F88F0020BDE8F88F42
:1026E000B5230000652300004889000000E100E0F8
:1026F0001524000015230000C8000420F8B5064684
:10270000056A0127AC6A4FF0000CD4F810E085F898
:10271000347084E8060027736373C4F808C0069C0D
:10272000E96AAB6BC5F828E098472246316A304623
:10273000BDE8F840FFF7CCBE6F4B70B5DD6882B0E6
:10274000AB681C8904F00E040C2C1CD8DFE804F0E4
:10275000071B221B1D1B3A1B1B1B1B1B1D00B3F859
:102760004460B3F84020B6B2310792B201D0D2072C
:102770004DD4B3F84020002122F007021204120CBD
:10278000A3F84020297502B070BD2846FFF772FEFD
:1027900002B070BD2A6AD26A11680029F3D0107B9A
:1027A0000028F0D092688A5C1A80296ACA6A936805
:1027B0005068013383429360E5D328460122FFF736
:1027C00047FDE0E79A8A92B2D1061AD51B8880238A
:1027D000560711D5940743F0200301D543F0400379
:1027E0002A7D002ACFD1A96904220B43AB61696A13
:1027F0002846FFF72DFDC6E79007EFD4002BC2D087
:10280000EEE712F0080F14BF10230023E0E701A940
:102810000020FEF733FD08B100230193AB68F007F9
:10282000B3F84810B3F8442089B292B212D5988C0C
:102830001209060442EA013223D4019BDB00B3FBF8
:10284000F2F2AA62EB6813B195F82C2072BBAB6868
:102850001A888EE716F0020F14BF4FF400720022A0
:10286000EC68700748BF42F48072310748BF42F4F9
:10287000806224B1696A91F83410022925D0EA6196
:10288000E6E73F2A18D85102C908A1F500610126E0
:1028900001981E85C000B0FBF2F241F40843A9681C
:1028A0009BB28B84AB689C85AA62CBE7AA6A0321A2
:1028B00028699847AB68CBE77F2A0AD81102C90874
:1028C0000124A1F500612646E2E705212869A04719
:1028D000BDE7FF2A06D8D101C908A1F5006102248D
:1028E0000126D5E7C2F30F26F0009101B1FBF0F10C
:1028F0000324A1F50061CBE7C8000420024B0122AC
:10290000D868016AFFF7A4BCC8000420024B00226B
:10291000D868416AFFF79CBCC8000420FEE700BFEE
:1029200008B50B4A0B4B9A420DD2D0430A491844C2
:102930000B4620F003000430084453F8041B834284
:1029400042F8041BF9D100F047F8FDF757FC00BF2F
:10295000000004205C090420748D000030B4194C80
:10296000236803F00303022B08D0032B22D030BCD2
:10297000154A164B1360164A136070472368E068C7
:10298000E368E268114DC2F3004205FA02F200F07A
:102990001F0000FB02F1C3F3C323B1FBF3F2E368B2
:1029A0000949C3F3002322FA03F3094A0B601360B9
:1029B00030BC7047074B044A1B6830BC1360044AA4
:1029C0001360704700C304400415042080BA8C01D2
:1029D000081504200C15042044F659020A4BDA604D
:1029E0005A6942F003025A61EFF3108372B6074A44
:1029F00007484FF4E02190605162BFF36F8FBFF33F
:102A00004F8F83F31088704700C0044000ED00E052
:102A100000000000B1F5017F08B53AD010D940F2AE
:102A2000062399423CD026D3B1F5A06F1BD040F2CB
:102A30000153994239D1BDE808401E48FDF730BC2A
:102A4000022921D014D9032908D040F20323994246
:102A50002BD1BDE808401848FDF722BC1748BDE857
:102A60000840FDF71DBC1648BDE80840FDF718BC3E
:102A700001291AD108BD1348FDF712FC1249134A67
:102A800000230B70137008BD1148BDE80840FDF726
:102A900007BC1048FDF704FC0C4B01221A7008BD5E
:102AA0000D48BDE80840FDF7FBBB0C48BDE80840F9
:102AB000FDF7F6BB8C8900009C890000FC890000B2
:102AC0007889000068890000111504201015042081
:102AD000D089000058890000B08900002C8A0000CD
:102AE000002210B511460B4C1120FDF755FD41F2A7
:102AF000883140F20320FDF7BDFC2046FDF78EFD36
:102B00002378112B04D0BDE810400348FDF7C8BB63
:102B100010BD00BF111504204C8A00002DE9F047BC
:102B2000474B002482B01C80FDF7DCFBFEF75EFB08
:102B300001210846FEF7C4FB01212046FEF7C0FB39
:102B4000FEF7DAF9FDF794FB3E48FDF7A9FB2146B5
:102B50003D48FDF75DFC0420FDF7FAFC3B4D2346A4
:102B6000224616213A48FDF76BFDFFF7B9FFFDF746
:102B7000A5FD8122012337482A706B70FDF790FB79
:102B8000354FDFF8DCA0DFF8DC80344E05F10209B8
:102B90004FF47A70FDF764FC3B7863B998F8003025
:102BA000112BF5D0FFF79CFF4FF47A70FDF758FC1E
:102BB0003B78002BF2D02A48FEF73EF8FEF7B6F934
:102BC000019001983224C9F80000FEF7AFF901F036
:102BD00081FB01F089FBA6FB00231B0904FB13000A
:102BE000A87101F081FBA6FB00231B0904FB130065
:102BF000E87101F079FBA6FB00231B0904FB13001D
:102C0000287201F071FBA6FB00231B0904FB1300D3
:102C1000687201F069FBA6FB00231B0904FB13008B
:102C2000A87201F061FBA6FB00231B0904FB13043F
:102C3000064A1421BAF80000EC72FDF75FFDA7E721
:102C4000082C00406C8A0000152A0000281504207A
:102C5000908A0000A88A0000101504201F85EB51FF
:102C6000141504201115042003685A004CBF43F0CA
:102C7000004323F000431844704700BF61B32DE9BF
:102C8000F84F01F1FF3A90460646D146002707EB80
:102C9000090404EBD4746410E50071190846FFF7C9
:102CA000E3FFA245834605F10800304409D0FFF751
:102CB000DBFFC34500F1FF3005D8404509D2671C52
:102CC000E5E7C34505D9A74202D004F1FF39DEE7A5
:102CD00000210846BDE8F88F08467047012807D054
:102CE000022807D0044B00280CBF1846002070476C
:102CF0000248704702487047F1330000F533000086
:102D0000F933000030B5254B83B004468D1E7BB3EC
:102D100001A92846AFF3008020B301992A46FFF7A6
:102D2000ADFF0146F0B1FFF79FFF4B68A064012B98
:102D300012D0002B01F1040021DBFFF795FF0023E7
:102D4000E06423650368002B1DDBFFF78DFF002384
:102D50002061184603B030BD0023236105231846C7
:102D600003B030BD002323610923184603B030BDF2
:102D70000B490C4B0846591AC9100191CEE70123A3
:102D8000E0642365DEE7C3F30360FFF7A7FF0028D5
:102D9000206114BF00230923DBE700BF000000000F
:102DA0009C8C0000748D0000036810B5DA0704469F
:102DB00006D49B0700F1480009D500F05BFC2368AE
:102DC000590709D51A070ED5DB0613D510BD00F03B
:102DD00049FC23685907F5D404F1D00000F052FCF7
:102DE00023681A07F0D404F5A87000F053FC236898
:102DF000DB06EBD404F5E870BDE8104000F08EBCB3
:102E000003680BB118447047184670470920704793
:102E1000704700BF70B504460D4608E02A6C236970
:102E2000626121462A4601209847082808D1296C6A
:102E30002046FFF767FF06460028EFD000F086FE29
:102E40000728FBD13046296CFFF7E2FF281D00F070
:102E5000FDFB00BF2DE9F0470646ADF5727D03ADE1
:102E60000C1D17460FCC0FC50FCC0FC50FCC0FC5CF
:102E700094E80F0002ACD6F80C80D6F8189085E8DC
:102E80000F0000233046216C2360FFF73BFF05460F
:102E9000002F14BF0A2709277DB1A36B47F010014B
:102EA0008DE810023246636401203346C04778BB88
:102EB00028460DF5727DBDE8F087236C4FF4F07263
:102EC000736121467AA801F03DF933697AAA314647
:102ED00038469847889B82468DE8100239466364DD
:102EE000324633460120C04790B94FF4F0727AA9B8
:102EF000204601F027F9BAF1080F06D1216C3046BF
:102F0000FFF700FF09270546C6E7BAF1070F04D00F
:102F100009200DF5727DBDE8F0872846216CFFF78A
:102F200077FF03A800F092FB406C7047F0B5CB6BC5
:102F3000F9B00B640E1D01AD0F4604460FCE0FC550
:102F40000FCE0FC50FCE0FC596E80F004FF0FF361E
:102F500085E80F00009606E023696A4621469847F7
:102F60000828054608D110992046FFF7CBFE002817
:102F7000F2D0092079B0F0BD6846FFF715FF062DA5
:102F8000F7D139462046FFF745FF00BF30B4DD6B6F
:102F9000C160826119461D64002230BC5AE700BF3F
:102FA00070B54369C6680B6426B10122FFF752FF72
:102FB00000F0CCFD03690A4604460D460146022096
:102FC0009847072807D0082803D129462046FFF74D
:102FD00021FF00F0BBFD3046296CFFF719FF281DCB
:102FE00000F034FBC2682AB110B4CC6B00220C6430
:102FF00010BC2FE79AE700BF704700BF836813B18A
:10300000014601201847704700B5042907D8DFE8BA
:1030100001F00309060909000BB90F2A05D902209E
:103020005DF804FB01205DF804FB00EB82025268AE
:103030001846019B1A605DF804FB00BF10B584B010
:10304000002303AC0A4600941946FFF7DDFF0398FE
:1030500004B010BD00B5042907D8DFE801F003096A
:10306000060909000BB90F2A05D902205DF804FBF7
:1030700001205DF804FB019900EB82020968184603
:1030800051605DF804FB00BF10B584B004AC44F897
:10309000042D00230A4600941946FFF7DBFF04B015
:1030A00010BD00BFF0B5D36BADF50F7D1364151DDA
:1030B00017AC07460E460FCD0FC40FCD0FC40FCD72
:1030C0000FC495E80F004FF0FF3584E80F00169508
:1030D00011E016A86A46FFF7D7FF314616A8B84791
:1030E00080B9049B16AA694608209847052804461B
:1030F00009D0092806D026996846FFF703FE0C215F
:103100000028E6D0092416A8FFF74EFE20460DF54C
:103110000F7DF0BD2DE9F04FCC6C914622688BB04D
:1031200004340D460792089400F0030B1E46002B52
:1031300064D11202032307928DF825608DF82430A4
:103140002B6DBBF1020F08BFAC6B13F0010343D131
:1031500000F00800C2B2039201932768002F3DD00F
:10316000022E47D02788B4F802800434AB6C28F0D4
:10317000010A0F2148469A44FFF760FF824537D87D
:1031800027F001039A4450452CBF002001204FEA4C
:10319000480808F0020807F0010748EA0708B8F1F4
:1031A000010F41D038D3B8F1020F1DD1236823F0AD
:1031B00000420292BBF1000F79D130B1039900298E
:1031C00000F08180002A00F0A880002B79DB029BB0
:1031D000013304EB8304C0E700230193022E40DD9A
:1031E000FFF714FE002842D009200BB0BDE8F08F95
:1031F0000020CCE7D4F804800834B7E7022B9FDC2A
:10320000130CD9B212048DF82530022304EB81048B
:1032100007928DF8243093E7BBF1000F02D000280D
:1032200040F0B080043498E7BBF1000F26D1B0B174
:1032300094E80C00991C4FEAD272D5D005F15801E0
:103240000133069100F09480201DFFF7D9FD06ABF5
:1032500001462846AFF30080002840F0B8800834CB
:103260007BE707A9484600F0F3FA0028BCD1019B90
:10327000002B5CD108200BB0BDE8F08F0D21484633
:103280002F6AFFF7DBFE8742E9D1AB6A9C42E6D1A9
:103290002046FFF7E9FC0F2102464846FFF7F4FEFF
:1032A00048462A460021FFF7EFFE07209DE70D2143
:1032B00048462F6AFFF7C2FE874248D02368002B9A
:1032C00085DA043483E7029B3BB305F15803271DDD
:1032D000CDF810B0DDF80C80A346DDF808A01C4640
:1032E000059602E0B245B04616D038460694FFF780
:1032F00087FD06AB014600222846AFF3008008F1A7
:10330000010604370028EDD0029B5C464345DDF8FA
:1033100010B0059ED2D100E05C4648460D21FFF773
:103320008DFE069B2862AC626B6206205DE70F2172
:103330004846FFF783FE0E2102464846FFF7A4FEEB
:1033400048462A4A0F21FFF79FFE07204DE7AB6A48
:103350009C42B3D1042202990027A318A962EF620C
:103360002A636B632368BB421FDB012301932EE7B3
:1033700048460D21FFF762FE2862069B6B62AC6235
:10338000062032E72046FFF76FFC04340646AC63A4
:103390002846AFF3008000283FF426AF4846324667
:1033A0000F21FFF771FE07201FE70846013004EBED
:1033B0008000FFF759FC0F2102464846FFF764FEE4
:1033C00048462A463946FFF75FFE07200DE70746C5
:1033D0000D214846FFF732FE022F2862CDD12B4641
:1033E000069A43F82C2F6B62C9E700BF000000006B
:1033F00000238FE601238DE602238BE6F0B5044619
:10340000C5B004290DD8DFE801F057030C310F00D7
:10341000012B4FEA124695B266D17219102A40F27A
:103420009F80022045B0F0BD002BFAD1102AF8D8B9
:103430002368D80600F1C98022AE3046019200F020
:1034400077F9A06B019A0023012505FA03F11142D7
:1034500003D00168043046F823100133042BF4D163
:10346000A063304600F05AF90020DBE7032BD8D1E7
:10347000150C97B2EB19102BD3D823681E0700F157
:10348000B88022AE30467F0000F026F906EBC50278
:103490007B1EA56B57B12946043A51F8040B013B3A
:1034A00042F8040F581CF8D105EB87053046A56398
:1034B00000F0F0F80020B5E7002BB2D1A56B97B271
:1034C000201D012606FA03F1394203F1010302D05F
:1034D000296804350160102B00F10400F2D112F4C8
:1034E00000503BD1A5639DE7052B9AD17719202F7A
:1034F00097D80F2E65D92F46002D48D12A46002790
:10350000002AA06B71DD00EBC202014644A800EB6B
:10351000C6008C3851F8045B914240F8045FF9D141
:10352000084697B13246102E44A938BF102201EB4D
:10353000C202A2F5C4727900043A00EB810150F88E
:10354000045B814242F8045FF9D1012B47D00F2E72
:10355000A16332D917B102A800F094F8002061E706
:103560000F2E3FF65EAF00272268D1070DD522F05F
:103570000101052B21600193204652D022F0030265
:1035800040F8482B00F072F8019B002F51D02268C0
:10359000510736D4012B3ED00F2E06D822A8019316
:1035A00000F06CF8019B002FA8D002A8019300F056
:1035B0006DF8019BC6F11002A2E722A800F05AF8AC
:1035C000C8E7102FCFD9103FCEE723F010032360B8
:1035D00004F5E870019200F0ABF8019A2CE7043191
:1035E000A16322A800F03EF8B8E7002F9AD1014667
:1035F000ABE723F00803236004F5A87000F06CF833
:103600003FE7204622F0040240F8D02B019300F05F
:103610003DF8019BBEE722A8019300F027F8019B2B
:10362000C8E741F0020140F8481B00F027F8019B71
:10363000ABE7012B03D00F2E3FF660AFAEE722A819
:10364000019300F013F8019B58E700BF00F134012B
:1036500091E838009C46A6464CF8045D90E8FF0FC0
:10366000E54600BD90EC210B704700BF80EC210BBC
:10367000704700BF90EC200B704700BF80EC200B20
:10368000704700BFD0EC200B704700BFC0EC200B90
:10369000704700BFF0EC0201F0EC0211F0EC0221E7
:1036A000F0EC0231F0EC0241F0EC0251F0EC02617E
:1036B000F0EC0271F0EC0281F0EC0291F0EC02A16E
:1036C000F0EC02B1F0EC02C1F0EC02D1F0EC02E15E
:1036D000F0EC02F1704700BFE0EC0201E0EC0211F7
:1036E000E0EC0221E0EC0231E0EC0241E0EC0251BE
:1036F000E0EC0261E0EC0271E0EC0281E0EC0291AE
:10370000E0EC02A1E0EC02B1E0EC02C1E0EC02D19D
:10371000E0EC02E1E0EC02F1704700BFB0FC018197
:10372000B0FC0191B0FC01A1B0FC01B1704700BF39
:10373000A0FC0181A0FC0191A0FC01A1A0FC01B1B1
:10374000704700BFEC4600B52DE900502DE9FF1F82
:103750004FF000032DE90C0001A9FFF7E7FBDDF8AE
:1037600040E012B0704700BFEC4600B52DE90050B4
:103770002DE9FF1F4FF000032DE90C0001A9FFF711
:103780000FFCDDF840E012B0704700BFEC4600B51A
:103790002DE900502DE9FF1F4FF000032DE90C002B
:1037A00001A9FFF71FFCDDF840E012B0704700BF31
:1037B000EC4600B52DE900502DE9FF1F4FF0000346
:1037C0002DE90C0001ABFFF7E1FBDDF840E012B0A2
:1037D000704700BFEC4600B52DE900502DE9FF1FF2
:1037E0004FF000032DE90C0001AAFFF75BFCDDF8A8
:1037F00040E012B0704700BF037A1BB9437A43B967
:10380000B02070475A1E036802721A020260180E36
:1038100070474268013B10B4437213680321141DC2
:1038200001721A024460026010BC180E704700BF9B
:1038300000B585B003AA0023009219460C22FFF7B9
:10384000E3FB039805B05DF804FB00BFF0E700BFA1
:103850002DE9F04306460D4685B04FF00008284696
:10386000FFF7CAFFB028044600F0B48020F07F03C1
:1038700013F0FF0320D000F0F003802B7AD0902BC0
:1038800035D0A02B48D0B02B5CD0C02B00F0898065
:1038900000F0F803D02B0BD100F00702013242F404
:1038A0000022052301213046FFF7A8FD0028D6D0CD
:1038B000092005B0BDE8F0830DF10C091946870019
:1038C000CDF800900D223046FFF79EFBFFB2039B20
:1038D000043760064CBFDF1BFF180023CDF80090B3
:1038E00019460D2230460397FFF7B4FBB7E700F007
:1038F0000D030D2BDCD003AF002300F00F0219469F
:1039000000973046FFF780FB0023009719460D22F1
:103910003046FFF79FFBA2E7C2434FF47F6302F0FC
:10392000070243FA02F2010702EA03024FF0000322
:1039300048BF42F4804219463046FFF75FFD002839
:10394000B6D18CE7B1284AD0B22853D0B32800F0C2
:10395000818000F0FC03B42BAAD000F007020132F2
:10396000012342F4002219463046FFF747FD0028A4
:103970009ED174E72846FFF73FFF24022043B0F5AD
:10398000004F95D004010023A2B219463046FFF73C
:1039900035FD00288CD114F4004F18BF4FF00108FA
:1039A0005DE7C62862D0C7286CD000F0F803C02BB2
:1039B0007BD0C82800F09180C9287FF479AF2846D1
:1039C000FFF71AFF020300F00F0002F4702201302B
:1039D000024366E7B8F1000F6ED0002069E7284681
:1039E000FFF70AFF024600283FF462AF10F0F00331
:1039F000B9D05DE700230DF10C090D221946CDF871
:103A000000903046FFF700FB2846FFF7F5FE020660
:103A10004FF002040CD5039B00F07F00A04003444C
:103A200028460393FFF7E8FE030604F10704F2D4E7
:103A3000039B00F07F0000FA04F203F501740023F9
:103A40001444CDF8009019460D2230460394FFF738
:103A500001FB04E72846FFF7CFFE010300F00F004B
:103A600001F47021421C01230A437CE72846FFF73A
:103A7000C3FE010300F00F0001F47021421C032378
:103A80000A4370E72846FFF7B7FE024600283FF4D6
:103A90000FAF10F0F0037FF40BAF04213046FFF7B7
:103AA000ADFC00287FF404AFD9E600F00F0201322C
:103AB000032342F4202256E703AC43460E2241463C
:103AC00000943046FFF7A0FA0094304643460F2298
:103AD0004146FFF7BFFA4046EBE62846FFF78CFE6B
:103AE00000F0F00200F00F031032013343EA02321B
:103AF000D7E600BF10B5C36C84B003205A688DF8B8
:103B00000C00DC7912020833084601A901928DF8F5
:103B10000D400293FFF79CFE04B010BD08B5FFF7FF
:103B200095FE806C08BD00BF08B5FFF78FFEC36C23
:103B3000D87903EB8000083008BD00BF08B500F05D
:103B400005F800BF08B5FFF7F9FF00BF08B506206C
:103B500000F028FC012004F0B5FE00BF08B50021EC
:103B6000044600F09BFC044B1868C36B03B19847F4
:103B7000204604F0A7FE00BFF48A000070B50F4E87
:103B80000F4D761BB61018BF002405D0013455F830
:103B9000043B9847A642F9D10A4E0B4D04F094FE1F
:103BA000761BB61018BF002406D0013455F8043B2C
:103BB0009847A642F9D170BD70BD00BF4C090420E2
:103BC0004C090420540904204C090420024B0146EE
:103BD000186800F00BB800BF00050420024B014636
:103BE000186800F02FBD00BF000504202DE9F04F3C
:103BF00001F10B05162D83B0064640F2A08035F08A
:103C0000070500F1C080A94200F2BD8000F05EFB14
:103C1000B5F5FC7FC0F090826B0A00F0BB80042BEE
:103C200000F27781A80900F1390E4FEA4E013830D1
:103C3000BE4F07EB81014C680839A14207D1AEE0C5
:103C4000002A80F2AE80E468A14200F0A880636898
:103C500023F003035A1B0F2AF2DDB4493C6901F13A
:103C6000080E744500F0A881636823F003035A1B13
:103C70000F2A00F38E81002AC1F814E0C1F810E089
:103C800080F29380B3F5007F80F05C81DB084A68A6
:103C90004FEAA3094FF0010C013351F833800CFABD
:103CA00009F901EBC30C49EA0202ACF1080CC4F8B3
:103CB0000CC0C4F808804A6041F83340C8F80C4092
:103CC000831001249C4094427CD8144206D120F0F9
:103CD00003006400144200F10400FAD007EBC009AD
:103CE000CC468046DCF80C108C4507D166E1002AF2
:103CF00080F27481C9688C4500F060814B6823F0C4
:103D000003035A1B0F2AF2DD0C46CB6854F808CF88
:103D100045F00108C1F804800D4442F00101CCF8DF
:103D20000C303046C3F808C07D613D61C5F80CE039
:103D3000C5F808E06960AA5000F0CAFA1FE010292F
:103D400021D800F0C3FA102506230220774F07EB95
:103D500083035C68A3F10802944200F03881636831
:103D6000E16823F0030323445A68A56842F0010286
:103D7000E96030468D605A6000F0AAFA08342046A7
:103D800003B0BDE8F08F002420460C23336003B05D
:103D9000BDE8F08F80214FF0400E3F2048E770468D
:103DA0005BE723445A68E168DFE723445A683046FA
:103DB00042F001025A60083400F08AFA204603B04B
:103DC000BDE8F08FBC68636823F00308A84504D3FE
:103DD000C5EB08030F2B00F38C80554BDFF8609187
:103DE0001A68D9F800302A44013304EB080A00F0BD
:103DF000608102F580520F3222F47F6222F00F02BE
:103E000011463046019200F08FFAB0F1FF3F834631
:103E1000019A00F05881824500F2FC80454BDA455A
:103E200019681144196000F05381D9F80000DFF8D7
:103E300010E101301BBFCAEB0B0A5144CEF800B0B1
:103E400019601BF0070100F01781C1F10800C1F5EE
:103E50008051834408315A44C2F30B02C2EB01097A
:103E600049463046019300F05FFA431C019B00F085
:103E70003F81CBEB00024A4442F001021968BC4288
:103E80004944C7F808B01960CBF80420DFF8A490C3
:103E900016D0B8F10F0F40F2FD806268A8F10C0354
:103EA00023F0070302F00102E0184FF0050E1A4359
:103EB0000F2B6260C0F804E0C0F808E000F21C813B
:103EC0001D4BBC681A68914288BF19601B4B1A6869
:103ED0009142626888BF196022F003029542A2EB0A
:103EE000050301D80F2B04DC304600F0F1F9002463
:103EF00045E745F0010243F0010325446260304686
:103F0000BD6008346B6000F0E3F9204603B0BDE803
:103F1000F08F142B71D9542B00F2A480280B00F1E0
:103F20006F0E4FEA4E016E3082E600BF040504209A
:103F30004415042048150420401504203C15042095
:103F4000100904205A0A042A5ED9142A00F2B38008
:103F500002F15C0149005B3207EB810C57F821103C
:103F6000ACF1080C8C45DFF8D88100F088804A68F5
:103F700022F00302934202D289688C45F7D1D1F82E
:103F80000CC07A68C4F80CC0A160CCF80840CC60C2
:103F900096E645F0010742F001032544676030468C
:103FA0004D610D61C5F80CE0C5F808E06B60AA50E2
:103FB000083400F08DF9E2E64A6881E608F101086C
:103FC00018F0030F0CF1080C7FF48CAE30E0DC68C5
:103FD000A34208BF02303FF440AEC0E60C460B449B
:103FE0005A68C96854F8085F42F001025A603046C6
:103FF000E9608D6000F06CF9C1E603F15C0E03F13D
:104000005B004FEA4E0113E69A0902F139014900BB
:104010003832A1E7BC424A4B3FF400AF9C6862686B
:1040200022F003025AE759F80839994540F0828096
:1040300010F0030F00F1FF30F5D17B6823EA040391
:104040007B6064009C423FF6BDAE002C3FF4BAAEEC
:104050001C4240467FF442AE64001C4200F1040062
:10406000FAD03BE6B3F5AA7F18D8E80B00F1780E3A
:104070004FEA4E017730DBE54FF48051EBE601214A
:10408000D8F80430921001FA02F21A43C8F804205A
:10409000614677E70123CBF8043025E740F254521C
:1040A000934220D8A80C00F17D0E4FEA4E017C30DF
:1040B000BEE51032A4E6542A26D81A0B02F16F018D
:1040C00049006E3248E7BC68626822F0030205E7E7
:1040D000CAF30B0000287FF4A8AE4244BB6842F04C
:1040E00001025A60ECE6FE214FF07F0E7E209FE534
:1040F00001224FF00009C1E604F10801304600F04A
:10410000A1FAD9F80010DBE6B2F5AA7F05D8DA0BE0
:1041100002F17801490077321EE740F254518A4299
:1041200005D89A0C02F17D0149007C3214E7FE218A
:104130007E2211E77B6884E7E808431C5B0005E604
:1041400004050420844641EA000313F0030349D127
:10415000403A23D30B6803604B6843608B688360ED
:10416000CB68C3600B6903614B6943618B698361F1
:10417000CB69C3610B6A03624B6A43628B6A8362D9
:10418000CB6AC3620B6B03634B6B43638B6B8363C1
:10419000CB6BC36340304031403ADBD230320BD37B
:1041A0000B6803604B6843608B688360CB68C360B7
:1041B00010301031103AF3D20C3205D351F8043BD1
:1041C00040F8043B043AF9D2043208D0D2071CBFAD
:1041D00011F8013B00F8013B01D30B8803806046D6
:1041E000704700BF082A13D38B07B1D010F0030328
:1041F000AED0C3F10403D21ADB071CBF11F8013B98
:1042000000F8013BA4D331F8023B20F8023B9FE7C2
:10421000043AD9D3013A11F8013B00F8013BF9D235
:104220000B7803704B7843708B78837060467047CF
:1042300070B4840746D0541E002A41D0CDB2034644
:1042400002E0621EE4B3144603F8015B9A07F8D15A
:10425000032C2ED9CDB245EA05250F2C45EA05459C
:1042600019D9264603F11002103E0F2E42F8105CB9
:1042700042F80C5C42F8085C42F8045C02F110025F
:10428000F2D8A4F1100222F00F0204F00F04103251
:10429000032C13440DD91E462246043A032A46F83D
:1042A000045BFAD8221F22F003020432134404F004
:1042B00003042CB1C9B21C4403F8011BA342FBD177
:1042C00070BC704714460346C2E700BF704700BF8A
:1042D000704700BF034B00221B68C3F8A800C3F857
:1042E000AC2070470005042030B40C4B0C4C19680E
:1042F0000C4DD1F8A820D1F8AC0004FB02F4A2FBCD
:10430000052305FB00400132034443F10003C1E9EA
:104310002A2323F0004030BC704700BF0005042072
:104320002DF451582D7F954C38B5074C0023054688
:104330000846236004F0B8FA431C00D038BD236857
:10434000002BFBD02B6038BD7C1604201F2938B50C
:1043500022D8D0F8DC2205460C469AB152F821301A
:1043600083B1012B0CD0591C06D00025204642F801
:1043700024509847284638BD16230360012038BDD5
:10438000002038BD284600F029F82246014628467C
:10439000BDE8384000F00EB8162303604FF0FF3040
:1043A00038BD00BF024B01461868FFF7CFBF00BF02
:1043B0000005042038B50B46074C05461146184643
:1043C0000023236004F068FA431C00D038BD236842
:1043D000002BFBD02B6038BD7C16042004F054BAAF
:1043E00020F0030110F00300C0F1000051F8043B7D
:1043F00000F1040C4FEACC0C6FF000021CBF22FA53
:104400000CF213434FF0010C4CEA0C2C4CEA0C4C10
:10441000A3EB0C0222EA030212EACC1204BF51F809
:10442000043B0430F4D0C2F1000102EA0102B2FA06
:1044300082F2C2F11F0200EBD2007047F0B50D46C8
:104440004FF6FF779BB06FF000444FF40276694659
:1044500000950495ADF80E70ADF80C6002940594CB
:1044600000F0D8F9009B00221A701BB0F0BD00BF0D
:1044700010B4044C13460A460146206810BCFFF7EE
:10448000DDBF00BF00050420024B13B1024800F05D
:1044900071B8704700000000814500002DE9F04F21
:1044A0000E46324B85B01B680190029303F5A4734E
:1044B0000393029BD3F848713FB3DDF80CA04FF093
:1044C0000109D3467C68651E0ED4013407EB8404D1
:1044D0004FF00008E6B1D4F800319E4218D0013DFB
:1044E0006B1CA4F10404F5D1214B73B17B68002B44
:1044F00036D13B68002B34D03846CBF80030FFF77C
:104500006DFBDBF80070002FDCD105B0BDE8F08F4B
:104510007B682268013BAB420CBF7D60C4F8008021
:10452000002ADCD0D7F8881109FA05F30B42D7F836
:1045300004A00FD0D7F88C110B420DD1D4F8801005
:10454000019890477B685345B3D1DBF80030BB42FC
:10455000C5D0AEE79047F5E7D4F880009047F1E783
:104560003B68BB461F46002FACD1CEE7F48A000063
:10457000DD3B0000002301461A46184601F0F8BC56
:1045800038B5074D074C2C1BA41005D0013C55F83D
:10459000043D9847002CF9D1BDE8384004F09AB9A1
:1045A0005809042054090420F8B50C46224F064649
:1045B000FFF78CFEBB685D6825F00305291B01F63B
:1045C000EF7121F47F6121F00F01A1F58054B4F562
:1045D000805F07DB00213046FFF7A6FEBB682B4457
:1045E000984204D03046FFF773FE0020F8BD6142C8
:1045F0003046FFF799FE01300DD0104BBA681968AC
:104600002D1B45F001053046091B55601960FFF769
:104610005FFE0120F8BD00213046FFF785FEBA6835
:10462000831A0F2BDEDD064C0449246843F0010396
:10463000001B53600860D5E70405042048150420DA
:1046400010090420002945D02DE9F0410D4680468F
:10465000FFF73CFE55F8047C6A49A5F1080427F0F1
:104660000103E2188E685068B24220F0030062D065
:10467000FE0750600BD455F8087C01F1080EE41BCE
:10468000A5683B4475456FD0E768EF60BD601518BD
:104690006D68ED0742D543F001026260E350B3F567
:1046A000007F18D2DB0848689D100122013351F8C1
:1046B000337002FA05F501EBC3022843083AE260C1
:1046C000A760486041F83340FC604046BDE8F041D7
:1046D000FFF7FEBD70475A0A042A53D89A0902F11F
:1046E00039077F0002F1380501EB870051F82720D8
:1046F0000838904243494DD0516821F003018B4264
:1047000002D292689042F7D1D068E060A2608460E3
:10471000D4604046BDE8F041FFF7DABD95683A4FF6
:104720000344BD423FD0D06843F00102E860856099
:104730006260E350B3E7FF07034407D455F8085C11
:10474000641BE268A0682B44C26090602F4A43F06B
:1047500001001268606093428C60B6D32C4B4046D7
:104760001968FFF721FFB0E711184968C90744D459
:1047700091680344D26843F00100CA6091606060B0
:10478000E350A2E7142A17D802F15C077F0002F178
:104790005B05A9E7AA104B68012505FA02F213434D
:1047A0004B600246B1E743F001024C610C61E560E9
:1047B000A5606260E35088E7542A06D81A0B02F11C
:1047C0006F077F0002F16E058EE7B2F5AA7F06D86B
:1047D000DA0B02F178077F0002F1770584E740F2F7
:1047E0005450824206D89A0C02F17D077F0002F1F4
:1047F0007C0579E7FE277E2576E743F001026260BB
:10480000E35062E7040504200C0504200C09042091
:10481000441504202DE9F04FC1B00C46099115460E
:104820000E930A9002F0B2FB036818461793FFF745
:10483000D7FDA38916901E0603D52369002B01F02E
:104840005D8100231A46A8460DF1C009DFF860A477
:10485000129319930B9325932493CDF88C90149273
:10486000159298F800304446EBB1252B02D11AE09E
:10487000252B03D014F8013F002BF9D1C8EB040518
:104880008DB1249B259A01332A44072BC9F8008057
:10489000C9F804502592249300F3328309F10809E2
:1048A0000B9B2B440B932378002B00F0EA814FF0F5
:1048B000FF3B5D4600231A468DF86F3019460C9376
:1048C0000793637804F1010808F10108A3F12000BF
:1048D000582800F24586DFE810F0F303430643064C
:1048E000FC034306430643064306430643065900BA
:1048F000040443066600D0034306EC03BC05BC0574
:10490000BC05BC05BC05BC05BC05BC05BC05430617
:10491000430643064306430643064306430643064F
:104920004306E205F7044306F7044306430643063D
:1049300043064205430643064A054306430643062B
:1049400043064306740543064306CD054306430666
:10495000430643064306430643064306430643060F
:104960001D060E06F704F704F70415060E064306A7
:104970004306A3044306A805AE046D000A044306DB
:104980001204430635044306430670040E9C236854
:1049900018460C932346002803F104030E9306DA0D
:1049A0000C9B5B420C93079B43F00403079398F81E
:1049B000003089E7AB460E9A00270798302178230C
:1049C000BB4514688DF8701002F104024FF0000529
:1049D0008DF871308DF86F7040F00201C0F23D86A5
:1049E00020F0800141F00201079154EA05010E9286
:1049F0001193AD4800F0318130AE230943EA0573CD
:104A0000290904F00F020D461C46835C06F8013D9F
:104A100054EA0503F1D130AB9B1B0D930D9B5B4515
:104A2000B8BF5B4608930023139317B1089B01336B
:104A30000893079B13F002030F9302D0089B0233E5
:104A40000893079B13F08403109340F018810C9B8C
:104A5000089A9D1A002D40F31281102D2599249A51
:104A6000924F27DD189648461024B946099E2F46D6
:104A70000A9D04E0103F102F00F1080016DD0132FE
:104A80008A4B1031072A2591249280E81800F1DD25
:104A900023AA3146284602F0D9FD002840F0F880CC
:104AA000103F102F30A82599249AE8DC3D464F4648
:104AB0008146189E01326C18072A25942492C9F861
:104AC0000070C9F8045000F3D0809DF86F7009F1B0
:104AD000080977B1249B013401330DF16F010122E4
:104AE000072B2594249389E8060000F3208209F11E
:104AF00008090F9B6BB1249B023401331CA90222CD
:104B0000072B2594249389E8060000F31C8209F101
:104B10000809109B802B00F02C810D9BC3EB0B0729
:104B2000002F33DD624A102F249B0F9222DD224694
:104B30004FF0100B0A9D099C04E0103F102F09F163
:104B4000080916DD01331032072B2592249389E8DA
:104B5000000CF2DD23AA2146284602F077FD00284A
:104B600040F09680103F102F0DF1C009259A249B2C
:104B7000E8DC144601330F9A3C44072B2594249318
:104B800089E8840000F3C78109F10809079BDA0569
:104B900000F19080249B0D9901330C44072B259440
:104BA000C9F80060C9F80410249300F3E28109F108
:104BB0000809079B590736D50C9B089A9D1A002DAA
:104BC00031DD102D249B394F22DD22461026DDF8E1
:104BD00028B0099C04E0103D102D09F1080916DDEC
:104BE000013332491032072B2592249389E8420081
:104BF000F1DD23AA2146584602F028FD002847D1BE
:104C0000103D102D0DF1C009259A249BE8DC1446B7
:104C100001332C44072B25942493C9F80070C9F85C
:104C2000045000F392840B9B0C9A08998A42ACBF03
:104C30009B185B180B93002C40F0598100232493A0
:104C40000DF1C0090DE60027BB458DF86F70C0F26D
:104C50000E85079B23F080030793BBF1000F00F044
:104C60006C84002400250027C6E623AA09990A9827
:104C700002F0ECFC60B99DF86F700DF1C009259C45
:104C800027E7259B23B10A9823AA099902F0DEFCA5
:104C9000099B9B8913F0400F0B9B18BF4FF0FF330C
:104CA000184641B0BDE8F08F2C8B0000F88A000058
:104CB0004C8B0000119B652B40F39F801498159935
:104CC0000022002303F0E0FB002800F06381249B16
:104CD000AE49013301340122072B2594249389E83E
:104CE000060000F3538409F108091D9B129A9342B0
:104CF00003DB079BDB077FF55CAF249B1699013331
:104D0000179A0C44072B2594C9F80020C9F8041001
:104D1000249300F3E68609F10809129B5D1E002D1D
:104D20007FF747AF9A4A102D249B0F9240F31781CB
:104D300010260A9FDDF824B005E009F10809103DAE
:104D4000102D40F30C8101331034072B259424934C
:104D5000C9F800A0C9F80460EFDD23AA5946384617
:104D600002F074FC002893D10DF1C009259C249B0E
:104D7000E5E70C9B089A9F1A002F7FF7CEAE844A76
:104D8000102F249B0F922BDD4A462146B946102551
:104D900037460A9C099E06E0A9F11009B9F1100FE7
:104DA00002F1080218DD01331031072B25912493FD
:104DB000C2F800A05560EFDD23AA3146204602F07C
:104DC00045FC00287FF464AFA9F11009B9F1100F78
:104DD00030AA2599249BE6DC3E460C464F46914678
:104DE00001330F9A3C44072B2594249389E88400CF
:104DF00000F32B8509F108098FE6129B249D012BF6
:104E000004F1010405F1010540F3E8840123072DB5
:104E10002594C9F800602495C9F8043000F3F9849A
:104E200009F10809169A0135179B1444072D25949A
:104E30002495C9F80030C9F8042000F3F88409F17A
:104E40000809002314981599002203F01DFB129BFA
:104E5000002800F0EA805E1E002E40F3F5804C4BE7
:104E6000102E0F932CDDCDF834801027B046DDF8DE
:104E700028B0099E06E0A8F11008B8F1100F09F15A
:104E800008091ADD01351034072D25942495C9F839
:104E900000A0C9F80470EEDD23AA3146584602F09E
:104EA000D5FB00287FF4F4AEA8F11008B8F1100F7C
:104EB0000DF1C009259C249DE4DC4646DDF83480D4
:104EC00001350F9B3444072D2594249589E848002B
:104ED00040F3B88023AA09990A9802F0B7FB00288A
:104EE0007FF4D6AE259C249D0DF1C009ACE023AA29
:104EF00009990A9802F0AAFB00283FF49FAEC7E682
:104F000023AA09990A9802F0A1FB00287FF4C0AEF9
:104F10000DF1C009C4E423AA09990A9802F096FB8E
:104F200000287FF4B5AE0DF1C009259C2EE623AA1A
:104F300009990A9802F08AFB00287FF4A9AE0DF1C6
:104F4000C009259CD5E523AA09990A9802F07EFBA1
:104F500000287FF49DAE0DF1C009259CD9E50133F1
:104F60000F9A2C44072B2594249389E824007FF77B
:104F70001EAE23AA09990A9802F068FB00287FF464
:104F800087AE259C0DF1C00913E600BF488B0000D9
:104F90004C8B00001D9D002D40F30E83139B129A35
:104FA0009342A8BF1346002B1D460DDD249B2C44C5
:104FB0000133072B2594C9F80060C9F804502493E5
:104FC00000F3158609F10809139B002DA8BF5B1B90
:104FD000002B1D4640F3A083B94A102D249B0F924D
:104FE00040F3458522461027DDF828B0099C05E0EE
:104FF00009F10809103D102D40F3388501331032B6
:10500000072B25922493C9F800A0C9F80470EFDD9E
:1050100023AA2146584602F019FB00287FF438AE37
:105020000DF1C009259A249BE4E7013B01350136C7
:105030001C44072DC9F8006024952594C9F8043054
:105040003FF748AF09F10809199A013514441FAB1D
:10505000072D25942495C9F80420C9F800307FF75E
:10506000A6AD23AA09990A9802F0F0FA00287FF465
:105070000FAE0DF1C009259C9BE598F8003008F1B2
:1050800001042A2B00F02B87A3F13000092898BFD8
:10509000002500F2AF8614F8013B05EB850500EB17
:1050A0004505A3F130000928F5D945EAE575A04684
:1050B0000CE4079B43F08003079398F8003003E467
:1050C00098F8003000297FF4FFAB01222021FFF780
:1050D000FBBB079B43F00103079398F80030FFF7F1
:1050E000F3BB98F8003001222B21FFF7EDBB079BA3
:1050F00043F02003079398F80030FFF7E5BB0E9AC2
:10510000AB461668002511938DF86F50141D002EC4
:1051100000F0E585BBF1000FC0F23F855A462946F5
:10512000304601F037FF002800F05886AB46831B5D
:105130000D9323EAE3730E940893CDF84CB09DF8D9
:105140006F7072E41193AB46002A40F0ED86079A27
:1051500012F0200300F043810E9C0027073424F056
:10516000070303F10801BB450E91D3E900458DF813
:105170006F70C0F2C18222F08003079354EA0503E6
:1051800000F04881002D08BF0A2CC0F0488130AEE5
:10519000204629460A22002303F0E6F9303206F8B9
:1051A000012D2046294600230A2203F0DDF904469A
:1051B0000D4654EA0503EBD12DE41193AB46002ACA
:1051C00040F0CA86079B3F489D0640F15D810E9CDA
:1051D000073424F0070303F108020E92D3E90045D7
:1051E000079A12F0010700F0468254EA05033FF4E3
:1051F0002AAD9DF8442000278DF87120079A3023AE
:10520000BB458DF870308DF86F7042F00203C0F22C
:105210008D8522F0800343F002030793FFF7ECBB78
:1052200098F800306C2B00F05284079840F0100082
:105230000790FFF749BB1193AB46002A40F09486D4
:10524000079A12F0200300F0A0800E9C002707347C
:1052500024F0070303F10801BB450E91D3E9004593
:105260008DF86F700BDB22F08003079354EA05037F
:1052700006D1BBF1000F00F0A28500240025002715
:1052800030AEE20842EA4572E90804F007030D4631
:105290001446303354EA050206F8013DF1D1079A6D
:1052A000D1077FF5B8AB302B3FF4B5AB3022731E7E
:1052B00006F8012C30AAD21A0D921E46FFF7AEBB9B
:1052C0004C8B00002C8B00001193AB46002A40F061
:1052D0004786079B0E9C1A0704F1070440F16C8374
:1052E00024F0070303F108020E921A685B68149217
:1052F0001593159B149D23F00044284621464FF03A
:10530000FF32A94B03F0F2F8002840F0CD82284686
:1053100021464FF0FF32A44B03F0CAF8002840F0BA
:10532000C382149815990022002303F0B7F80028CF
:1053300040F0F6849DF86F7007999C4E21F0800133
:105340009B4B0791119903224FF0000B08924729BC
:10535000D8BF1E460D92CDF84CB0FFF766BB079B39
:1053600043F00803079398F80030FFF7ADBA1193A4
:10537000AB46002A40F0EC85079B43F010030793EF
:10538000079A12F020037FF460AF079911F0100222
:1053900000F068820E98BBF1000F024604688DF899
:1053A0006F3002F104024FF00005C0F2C28421F018
:1053B0008001079154EA05010E923FF45AAF1F464F
:1053C0005EE71193AB46002A40F0BE85079B43F091
:1053D00010030793079A12F020037FF4BDAE0799DC
:1053E00011F0100200F026830E98BBF1000F024668
:1053F00004688DF86F3002F104024FF00005C0F22E
:105400008C8421F08001079154EA05010E921F4619
:105410007FF4B8AEBBF1000F00F09080002440AEE6
:10542000303406F8414DFFF7F6BA002A40F088857F
:10543000079B9B0640F1CA820E9A134604330E93D3
:105440000B9B1168DD171A462B46C1E90023FFF7B5
:1054500008BAA3F1300000231C4618F8013B04EB06
:10546000840400EB4404A3F130000928F5D90C941E
:10547000FFF72CBA1193AB46002A40F05D85079BDD
:105480004C489D063FF5A3AE079BDC0640F1B58274
:105490000E9A00251346043314680E93A0E6119368
:1054A000AB46002A40F04485079B43F01003079366
:1054B000079B980640F1F1800E9C073424F0070406
:1054C000D4E9002304F108011D4614460E91002A78
:1054D00073F10003C0F2F280BBF1000F9DF86F7012
:1054E000C0F20A81079B23F08003079354EA050367
:1054F0007FF448AE8EE71193AB46002AD8D08DF8E2
:105500006F10D5E7079B43F04003079398F80030EE
:10551000FFF7DAB90E9911930A68002301201F469C
:105520008DF86F309B4613930B1D08908DF89820D3
:105530000E930D9026AEFFF77CBA5F464FF0000B3E
:10554000CDF834B030AEFFF769BA23AA09990A98AA
:1055500002F07CF800287FF49BAB259CFFF763BB2F
:105560001193002A40F0D384119A002A3FF489ABAA
:10557000002301211F4608918DF898208DF86F3087
:105580009B4613930D9126AEFFF753BA23AA0999B0
:105590000A9802F05BF800287FF47AAB0DF1C0099D
:1055A000259CFFF7A2BB00BFFFFFEF7F0C8B000025
:1055B000088B0000188B0000249BB849013301348C
:1055C0000122072B2594249389E8060000F3C28268
:1055D00009F108092DB9129B1BB9079BDF077FF55D
:1055E000E8AA249B16990133179A0C44072B25949B
:1055F000C9F80020C9F80410249300F3FF8309F1CF
:1056000008096D42002D40F3DB82A54A102D0F9250
:1056100040F34B8322461027DDF828B0099C05E0B3
:1056200009F10809103D102D40F33E83013310327B
:10563000072B25922493C9F800A0C9F80470EFDD68
:1056400023AA2146584602F001F800287FF420AB37
:105650000DF1C009259A249BE4E792480791119324
:1056600054EA05030E924FF000077FF4C5A9002409
:105670000025FFF7C1B9BBF1000F8DF86F70C0F2C4
:10568000038222F08003079354EA05037FF4B4A950
:10569000BBF1000F7FF4E5AA4FE7079BD90640F165
:1056A000BA810E9A13461C680433E51722460E93FE
:1056B0002B46002A73F10003BFF60EAF64424FF091
:1056C0002D0765EB4505BBF1000F8DF86F70FFF6F8
:1056D00059AD079B23F08003079353E50E9ABBF166
:1056E000000F134614688DF86F7003F104034FF038
:1056F000000580F2E2810E9354EA05037FF442AD87
:105700008DE623AA09990A9801F0A0FF00287FF4EA
:10571000BFAA259C0DF1C009139A1D9B3244174660
:10572000129A934249DB079AD50746D412990E4440
:10573000F51BCB1A9D42A8BF1D46002D2E460DDD40
:10574000249A2C440132072A2594C9F80070C9F81C
:105750000450249200F3D28209F10809002EB4BF4C
:105760001D469D1B002D7FF724AA4D4A102D249B1A
:105770000F927FF7F4AB10260A9FDDF824B005E006
:1057800009F10809103D102D7FF7E9AB0133103402
:10579000072B25942493C9F800A0C9F80460EFDD15
:1057A00023AA5946384601F051FF00287FF470AA19
:1057B0000DF1C009259C249BE4E7249A1698013238
:1057C00017990444072A2594C9F80010C9F8040061
:1057D000249200F3778209F10809A7E7079BD8070D
:1057E0003FF514AB0123072D2594C9F800602495DB
:1057F000C9F804307FF726AC23AA09990A9801F06A
:1058000025FF00287FF444AA0DF1C009259C249DA2
:105810001AE423AA09990A9801F018FF00287FF4D6
:1058200037AA0DF1C009259C249DFFF7FBBA23AAD6
:1058300009990A9801F00AFF00287FF429AA0DF1BE
:10584000C009259C249DFFF7FCBA23AA09990A9850
:1058500001F0FCFE00287FF41BAA0DF1C009259C75
:10586000FFF75BB9079911F0400700F00F810E9820
:10587000BBF1000F034604888DF86F2003F1040389
:105880004FF00005C0F2738121F08001079154EAC6
:1058900005010E933FF4EDAC1746F1E4488B000090
:1058A0004C8B00002C8B0000149C22462046159C3B
:1058B0002346214602F01AFE002840F0C182119BC7
:1058C000BBF1FF3F23F020030D9300F04982472BEB
:1058D00000F05081079B43F480731093159B1F1EAB
:1058E000149B0893B7BF3B46002303F100472D23C9
:1058F0000F93119B662B00F01F82462B00F00D8149
:105900000D9B21A8452B18BF5D461EA908BF0BF1B2
:105910000105049003911DA802213B460290089ABC
:10592000019500910A9800F00BFC119B0646672B2D
:1059300040F03482079BDA0740F16F8274190898AF
:1059400039460022002302F09FFD002840F04D81DF
:10595000219B9C4206D930215A1C21921970219B0F
:105960009C42F9D89B1B12930D9B472B00F036816C
:10597000119B652B40F32182119B662B1D9B13937A
:1059800000F0FE81139A12998A42C0F2EC81079BC3
:10599000D90700F1448222EAE2730D926722119244
:1059A0000F9A002A40F0EF800893109B93460793CC
:1059B0009DF86F70FFF739B824F00704236814933B
:1059C0006368159304F108030E9392E4079BDF06C6
:1059D0000BD4079B5E0608D50E9A136804320E920C
:1059E000BDF82C201A80FEF73CBF0E9A13680432D3
:1059F0000E920B9A1A60FEF734BF0E9A079B002591
:105A000013F0400F134603F104030CBF146814880D
:105A10000E93FFF7E5BB079B0E9A13F0400F13465A
:105A20003FF441AEB2F900400433E5170E9322462D
:105A30002B464CE5079911F040073FF44FAE0E9806
:105A4000BBF1000F034604888DF86F2003F10403B7
:105A50004FF00005C0F2948021F08001079154EAD4
:105A600005010E9317467FF48DABD3E41446013342
:105A70000F9A2C44072B2594249389E824003FF7A0
:105A800040AE09F1080947E60E9AE9E50E9ABBF126
:105A9000000F134614688DF86F7003F104034FF084
:105AA000000564DB079A0E9322F08002079254EA05
:105AB00005027FF4E5ABFFF7DCBB079A0E9322F0FB
:105AC0008002079254EA05027FF45CABA2E4079BD4
:105AD00008F1010843F02003079398F80030FEF71F
:105AE000F3BE23AA09990A9801F0B0FD00287FF4BB
:105AF000CFA80DF1C009259CFFF70FB940210A98E6
:105B0000FEF774F8099A10601061002800F0F58122
:105B1000099A40235361FEF794BE21A81EA9049060
