:1000000000400020B5210000B1210000B121000016
:10001000B1210000B1210000B1210000000000006A
:10002000000000000000000000000000B1210000FE
:10003000B121000000000000B1210000B12100004A
:10004000B1210000B1210000B1210000B121000068
:10005000B1210000B1210000E5100000B510000042
:10006000B1210000E90E0000F10E00004D1A000061
:10007000551A0000B12100004D1F0000DD170000DF
:10008000F5170000B1210000B1210000ED0C0000C7
:100090007118000081180000B1210000B12100009A
:1000A000011800001118000039180000491800005C
:1000B0001121000021210000B1210000B121000028
:1000C000B1210000B1210000B1210000B1210000E8
:1000D000B1210000B1210000B1210000B1210000D8
:1000E0005D1A00005D100000E9170000111000000B
:1000F000B1210000B1210000B1210000000000008A
:1001000000000000000000000000000000000000EF
:1001100000000000000000000000000000000000DF
:10012000B1210000B1210000B1210000B121000087
:10013000B1210000B1210000B1210000B121000077
:10018000FFFFFFFFFFFFFFFFFFFFFFFFFFFFFFFF7F
:1001900003329CA77F000000FFFFFFFFFFFFFFFF70
:1001A00010B5054C237833B9044B13B10448AFF3B1
:1001B00000800123237010BD00080420000000000F
:1001C000FC2A0000084B10B51BB108490848AFF3E2
:1001D00000800848036803B910BD074B002BFBD013
:1001E000BDE81040184700BF0000000004080420CC
:1001F000FC2A0000D404042000000000154B002B52
:1002000008BF134B9D46A3F5803A00218B460F464D
:100210001348144A121A02F09DFA0F4B002B00D01B
:1002200098470E4B002B00D0984700200021040077
:100230000D000D48002802D00C4802F07DFB02F0B2
:10024000EBF92000290002F0A9F802F0D5F900BF6F
:100250000000080000400020000000000000000036
:1002600000080420681204203929000045290000F4
:100270000449054B4FF4A0004FF4A8720860002019
:100280001A6070470000024040000240014B01220A
:100290001A70704724080420014B01221A7070471D
:1002A0001C0804200A4A400008B5114683B2002009
:1002B0009380D38001F076FB08B1012008BD054A88
:1002C0000121107001F0A0FB003018BF012008BD13
:1002D000000004201C0804202DE9F04F254CDFF815
:1002E0009CA085B006462746D046234DDFF8909067
:1002F00001E0237893B92B7803F0FF0B002BF8D0A3
:10030000003618BF01260021084601F07DFB0028B9
:100310000CBF3046012005B0BDE8F08F87F800B073
:1003200000F0D0F88642014616D0DAF80030002BF3
:10033000E1D0B0F5C06F13D0B0F5E06F0ED10190F1
:1003400000F040FB04AAD8F80030019902F8010D32
:10035000D9F800009847CEE75E46D4E75A46F7E75B
:10036000019000F029FB04AA02F8010DD8F8003032
:100370000199EDE7240804201C0804202808042023
:100380002008042010B50F4B0F4C0022196020608C
:10039000012310460D4901F0AFFA08B1012010BD4C
:1003A0000B4800F03DF800B110BD41F28830FFF776
:1003B00079FF0028F2D1BDE810404FF48070FFF7BC
:1003C0008BBF00BF200804202808042099020000E9
:1003D0008D02000010B504460846FFF763FF20B900
:1003E0002046BDE81040FFF777BF012010BD00BFD9
:1003F00010F0010F08B5084604D0FFF753FF50B1C5
:10040000012008BDFFF74EFF0028F9D1BDE80840E4
:100410000920FFF761BF0820BDE80840FFF75CBF77
:10042000F8B500F087FB08B10120F8BD0D4B4FF483
:10043000807201276FF03F066FF003050224981DBC
:1004400006219F71DE711D725C725A819A8000F0E4
:10045000EDFB0028E8D1BDE8F8404FF47A710820A0
:10046000FFF7C6BF2C080420F8B50D460346144C10
:100470001146060A2A4604F10F0066732373A5731A
:1004800002F0F2F840F2031305F109016FF03F07A3
:100490006FF0030205350126C9B2A01DE771227273
:1004A00065726381A671A38000F0C0FB08B130467D
:1004B000F8BD3046BDE8F8404FF47A71FFF798BFB9
:1004C0002C080420F0B5C54D83B005F14604002387
:1004D00020460DF107024021C5F84A3085F84E301C
:1004E000C5F8463000F0B4FB10B99DF8073013B9D9
:1004F000012003B0F0BD022B08D995F84620042A4C
:1005000004D195F84810DA1E914202D0022003B0BF
:10051000F0BD95F847200E2A00F07081FF2AF5D132
:1005200095F84920A02AF1D195F84B0095F84A207A
:10053000032942EA002212B295F84C6094B2E5D940
:1005400040F20E21073B8A42DBB200F02E8118DD1B
:1005500040F203318A4246D0B2F5417F39DBB2F531
:10056000A06F00F0BF8040F38D80B2F5C06F00F047
:100570002581B2F5E06F25D1092B00F0F68103202B
:10058000B7E740F201218A423CDCB2F5007F80F2FD
:10059000CD8040F201118A4200F0BF80B2F5817F28
:1005A00010D1022BEBD995F84E0095F84D3095F807
:1005B0004F108B4A43EA0023A5F8BC3085F8BE10E3
:1005C000C5F8C0201EB140F201139C42D7D120468D
:1005D0008FE740F201318A4200F0DB8000F3C580F2
:1005E000B2F5407FEED1032BC9D195F84E1095F8A6
:1005F0004D3095F84F2043EA0123A5F8C43085F823
:10060000C620DFE7B2F5027F00F0CF8049DCA2F51B
:100610000172022AD6D8112BB1D1724A95F84D1029
:10062000134695F84E0053F87EED41EA00209F886E
:1006300095F8591095F85830978043EA012195F8BC
:100640005D7095F85C3095F85BC095F85A2043EAE8
:100650000723A5F8CC0095F84F7095F85000A5F841
:10066000D81095F8571042EA0C22C5F8CFE0A5F84B
:10067000DA20A5F8DC3085F8CE7085F8D50085F84D
:10068000D6109FE7B2F5417F9CD1062B7FF477AF60
:10069000554A134653F8670D9B88C5F8B4009380FC
:1006A00090E740F209218A428CD1082B7FF667AF90
:1006B0004E4B95F84D701A4652F8420D95F854106D
:1006C000B2F804E095F85520C5F890003A3BA3F83D
:1006D0003EE0C5F89C20C5F8983085F8967085F8FE
:1006E00097106FE795F84F703C4D142F3FF647AFCA
:1006F000022B7FF644AF95F84E1095F84D303A46F0
:1007000043EA012305F1F90005F1500185F8F8707D
:10071000A5F8F63001F0A8FF54E7012B7FF42FAFC6
:1007200095F84D30204685F8F430E2E6092B7FF647
:1007300026AF2F4B95F84DE01A4652F8520D95F81A
:1007400054709288C5F8A00095F855109A8095F8D5
:100750005620493BC5F8AC3085F8A6E085F8A7706F
:1007600085F8A810C5F8B0202CE7082B7FF407AF58
:10077000204995F84E700A4652F8770D95F84D309D
:10078000928843EA07238A80A5F8C430C5F8C600DA
:1007900018E7022B7FF4F3AE95F84E2095F84D3014
:1007A00043EA0223A5F8C4300CE7002B3FF4E7AE80
:1007B000114AC5F8F030C5F8EC2003E7032B7FF4AD
:1007C000DEAE95F84E1095F84D3095F84F2043EA7F
:1007D0000123A5F8DE3085F8E020F3E62C0804209C
:1007E0007C080420FB080420E0080420BC08042046
:1007F000CC080420F20804207908042095F84A3037
:10080000C02B7FF483AE95F84B30FC2B7FF47EAE8B
:1008100095F84D0095F84C30052943EA002000B2C8
:1008200095F84E4082B27FF671AEAB8893427FF46A
:10083000A6AE40F212238A1F9842D2B23BD01EDDF0
:10084000B0F5427F00F0828040F20933984273D0C5
:1008500040F2152398425CD0D5F88C104F4B914252
:10086000FFF48DAE03F14F01D3F8880001F0FCFED8
:10087000122C3FF684AE4A4B33F8140039E6B0F53B
:10088000817F2CD040F203239842E5D1072A7FF4E0
:1008900076AED5F88C30414A072B7FF470AE114606
:1008A000D2F8883051F84F0F18608988998092F8F3
:1008B00055209A71DCE7002A3FF461AED5F88C3000
:1008C0003649052B7FF45BAE91F84F30D1F88800A4
:1008D0005A0000F8023B503101F0C6FEC8E7042A76
:1008E0007FF44DAED5F88C202C4B042A7FF447AE14
:1008F00093F8500093F84F20D3F8881042EA002272
:100900000A8093F8522093F8513043EA02234B8037
:10091000AEE7D5F88C30013A9A4220493FF62FAE27
:10092000D1F8883091F84F2018685A6091F84F201C
:10093000503101F099FE9BE7012CD5F8883029D081
:10094000002C95D101221A700820D2E5002A3FF42C
:1009500016AED5F88C20114B012A7FF410AED3F8D7
:10096000882093F84F30137082E70E4995F84EE0D7
:100970000A4652F8950D95F84D30978895F8552010
:1009800043EA0E238F80A5F8E230C5F8E40085F82D
:10099000EA2017E600221A700A20AAE52C08042093
:1009A0002C2A0000100904200246024B03CB1060E1
:1009B00051607047E8080420014B93F8E00070474D
:1009C0002C080420014B93F8EA0070472C080420FF
:1009D000014BD3F880301847400904202DE9F0433B
:1009E000504D4FF4806483B0C5F880410646894677
:1009F00090461F46C5F88040BFF34F8FBFF36F8FFF
:100A00002021012000F04AFA18BB0446464D05E0BB
:100A1000BDF8062001341ABBAC4252D00DF10602DB
:100A20000821002000F042FA03460028F0D03D4B98
:100A30004FF48062C3F8802101241A602021012034
:100A400000F024FA00280CBF2046012003B0BDE8C6
:100A5000F0830120C5F880412C6003B0BDE8F0832D
:100A60003148304A4FF480618442C2F880111160ED
:100A70001ED02E4C022201A9C4F800D06160228150
:100A8000628136B32A4D4222286821468DF8013012
:100A90008DF804308DF805308DF8002000F08EFEC2
:100AA00068B99DF80530984533D93B700524C5E7F2
:100AB0000624C3E728681D4900F080FE38B30424EB
:100AC000BCE7184B4FF48062C3F8802106241A60FB
:100AD000B4E7174D8123286821468DF801608DF811
:100AE00004608DF805608DF8003000F067FE002886
:100AF000E5D19DF8053098453B70D7D326813B78EA
:100B000026606381C4F804903B78002BD2D1002486
:100B100094E787F80080A4F808806081C4F800900A
:100B20006060F1E700E100E0A08601000C00042015
:100B30004009042010B53A4C84B0C4F8800010215C
:100B400004F1300000F032F910B1012004B010BD02
:100B500023462C22211D022000F024FC10B102208B
:100B600004B010BD0146206800F05AFC0028F6D100
:100B70000122082100F06EF90028E6D1082100F0DA
:100B800045F90028E1D108220A2100F029F902469E
:100B90000028DAD123490A2000F092F90028D4D1A4
:100BA00001221046202100F039F90028CDD1202162
:100BB000012000F06BF90028C7D101224FF4007129
:100BC000022000F02BF90028BFD14FF40071022061
:100BD00000F064F90028B8D102904FF6FE7202E0EE
:100BE000029B01330293029B9342F9D94FF40071A7
:100BF000022000F04BF90028A7D103904FF6FE72B7
:100C000002E0039B01330393039B9342F9D90DF157
:100C10000703402204490020FFF7E0FE96E700BFEB
:100C200040090420D10900008009042010B50C46B9
:100C300082B00DF10703014622460120FFF7CEFEE8
:100C40009DF807309C4218BF042002B010BD00BFC1
:100C500013460A4601460020FFF7C0BEEFF310809E
:100C600072B6104A1378D3B90F4B012170B41170CA
:100C700059680E4E0E4C6FF0784241F001014FF46E
:100C8000002559609E6025601A62DA625A63DA6351
:100C90009A64DA641A6580F3108870BC704780F338
:100CA000108870470010042000000140000C042050
:100CB00000E100E030B40C4C012304EBC005696096
:100CC000AA60834039B1D4F8DC000343C4F8DC30B7
:100CD000002030BC7047D4F8DC20002022EA030357
:100CE000C4F8DC3030BC704700100420184B2DE9EC
:100CF000F047184DD3F84C809C6C1F6DD5F8DC3054
:100D000044EA070919EA03091AD0B9FA89F3012656
:100D1000C3F11F0305EBC301D1F804A006FA03F3E6
:100D2000002229EA0309BAF1000F05D01C428868A5
:100D300014BF01210221D047B9FA89F3202BE7D152
:100D4000034B9C641F65C3F84C80BDE8F08700BF6F
:100D500000000140001004202DE9F0410F46124E22
:100D600082B0F568002405EBC00556F82420092F51
:100D70000CBF138D938DD5F8008099B2138E0B4064
:100D8000ADF806301386B8F1000F00D02BB901344E
:100D9000032CEAD102B0BDE8F0810DF10602214634
:100DA0006868C047F3E700BF1C0004200A4AD36804
:100DB0000BB10020704730B408494FF400754FF470
:100DC0008064D060036043608360C3600D60002076
:100DD0000C6030BC704700BF1C00042000E100E044
:100DE000094B53F82000EFF3108372B6092906D09F
:100DF0000A2900D1828583F310880020704702857C
:100E000083F31088002070471C000420024B53F825
:100E100020300020998470471C0004200C4B10B433
:100E200053F82000EFF3108472B683889BB23AB96E
:100E300023EA0101818084F31088002010BC7047F0
:100E40001943818084F31088002010BC704700BFD4
:100E50001C0004200C4B10B453F82000EFF3108456
:100E600072B683899BB23AB923EA0101818184F386
:100E70001088002010BC70471943818184F31088CA
:100E8000002010BC704700BF1C000420024B53F828
:100E900020300020198370471C000420024B53F8B7
:100EA00020300020998370471C000420034B53F826
:100EB000203000201B8A1940118070471C0004203C
:100EC000093830B480B2EFF3108372B6054CE46891
:100ED00004EBC00544F830106A6083F310880020EA
:100EE00030BC70471C00042009210020FFF734BFEC
:100EF0000A210120FFF730BF4CF61432F8B51C4B25
:100F00001C48194602250024DA601D610460DA607D
:100F10001A692A431A610B69154A9B05FBD546F6E7
:100F20001A064CF61435144B14491868144F20F067
:100F30000300186000241F201C605F60DE605861A1
:100F40000C608C604C64D56011690E4B21F004017B
:100F50004FF40060402780264FF4007511611F6038
:100F60001E605D60586001F043F92046F8BD00BF87
:100F700000C10440E010042000C3044000C004404D
:100F80000404100000E100E038B504460D4601F00D
:100F90002FF98CB1012C0DD10A4B5B6803F03F0394
:100FA000094A002B126808BF0123B2FBF3F30020AB
:100FB0002B6038BD042038BD024B5B68C3F30523AA
:100FC000EEE700BF00C3044008110420012810B55B
:100FD00019D014D3022810D109046FF47F03EFF362
:100FE000108272B60948446823401943416082F375
:100FF000108801F0FDF8002010BD042010BD09028A
:101000006FF47C53EBE76FF03F03E8E700C3044065
:1010100038B50F4A0F4B14689B6903F0060524B1DD
:1010200013F004020BD19B0702D40A4B9D6138BD1B
:10103000094B07211868A047064B9D6138BD064B38
:10104000002218680821A047024B9D6138BD00BFEF
:10105000E010042000C30440E810042038B5124A10
:10106000124B15689B6903F4CC445DB14CB1580434
:101070000DD4990413D49A0513D45B0504D5062125
:1010800006E038BD002CFCD0084B9C6138BD042123
:10109000074B00221868A847044B9C6138BD032108
:1010A000F6E70521F4E700BFE010042000C3044088
:1010B000E810042008B5084B5968CB070BD5074B3F
:1010C0001B681BB1064A106800229847024A536801
:1010D00043F00103536008BD00C00440E010042049
:1010E000E810042038B50E4D0E4A2B6854684BB1F9
:1010F00062070ED4A30705D50B4A2B68106801219F
:1011000000229847074A04F0060453681C435460C1
:1011100038BD05490022086811469847EAE700BF34
:10112000E010042000C00440E8100420274B0029F0
:10113000F0B506BF194602270027032844D8DFE888
:1011400000F040393B024FF0FF340627EFF31083E5
:1011500072B644F659061E4DDFF878E0EE60AE68D0
:1011600026F003063043A860DEF810003843044040
:10117000CEF81040EFF31180520182F311880A6813
:1011800052B9BFF34F8F30BF83F31088EFF3108352
:1011900072B60A68002AF4D00A68013A0A6080F33D
:1011A00011880C490A6922F002020A61BFF34F8FCD
:1011B00083F310880020F0BD47F004074FF0FF34A0
:1011C000C4E76FF00604C1E70620F0BDE410042078
:1011D00000C0044000ED00E0034620B11A68002082
:1011E00001321A607047EFF3108372B605490A693D
:1011F00022F002020A61BFF34F8F83F31088024B83
:10120000ECE700BF00ED00E0E4100420012914D059
:10121000022908D0016941F04001016183684BB1A6
:10122000C068002218470169836841F0100101611C
:10123000002BF5D12830FFF7CFBF016941F0040141
:101240000161EBE7012915D0022908D0116941F0AD
:101250008001116193684BB1D06800221847116971
:10126000936841F020011161002BF5D102F12800B3
:10127000FFF7B2BF116941F008011161EAE700BF51
:10128000F0B5016883B00B8C9BB2ADF806300C88CA
:10129000A4B2260638D5036943F002030361C3698B
:1012A00063BB0B8A9A0726D48B8A426823F41853AF
:1012B00092F90C201B041B0C0125002A8B8280F85C
:1012C00022500CDB5309364902F01F02203305FA85
:1012D00002F241F82320BFF34F8FBFF36F8F836873
:1012E0000546002B55D001690022C068984729683F
:1012F0000C8003B0F0BD0B889B07D5D40369002B8D
:10130000D2D10C8003B0F0BDE5063DD4BDF8062077
:10131000BDF8065002F00F02C2F1080292B2C5F306
:1013200003258AB1838BABB1466900E093B137786E
:10133000013B0F8190F82070013A9BB23E4492B27B
:1013400083834661002AF1D190F8243013B1838B56
:10135000002BA4D1002DA2D0C38B002B9FD082697B
:1013600001E0002B9BD08B88013D1370C38B8169FA
:1013700090F82120013B0A449BB2ADB2C383826145
:101380000168002DEDD18AE7036943F00103036191
:1013900085E72830FFF720FF29680C8003B0F0BDF7
:1013A00000E100E0F8B505460C461F46084600215E
:1013B00001F0D0F9164EA900164A4B1902EB830230
:1013C000314490684B8836F82550002162601461E2
:1013D0002060A162058283813C602268138A9BB2EF
:1013E00043F001031382FFF739FC636822469878C3
:1013F0000949FFF75FFC08B10E20F8BD636822467B
:1014000098790649FFF756FC0028F5D1F8BD00BFD2
:10141000582A00002C000420451200000D12000084
:1014200080F82610002070472DE9F04F4B680C68BB
:101430000A894D89836144618283C5830C7B03687B
:1014400080F820404C7B4FF0000E80F82140CE7B8E
:101450008C7B80F822E01F8A85B027F441573F0437
:101460003F0C80F8234080F82460C0F810E000961C
:101470001F82002C00F017819F8A002D40F074819C
:10148000BFB247F400579F821F8890F826E0BFB292
:10149000ADF80E70BDF80E70009EBFB21F801F8A9F
:1014A000B1F80A80BFB247F002071F82A3F830E00C
:1014B0001EB1B8F1010F00F07781B3F810E00F8989
:1014C0001FFA8EFE4EF4405EA3F810E0B3F810E071
:1014D0002EF4405E4FEA0E4E4FEA1E4EA3F810E087
:1014E000B3F81CE02EF0070E4FEA0E4E4FEA1E4EE8
:1014F000A3F81CE0002F00F04981D0F804E0BEF80A
:1015000000A0BEF802904FFA8AFCBCF1000F0ADB83
:101510000AF01F0A4FF0010BA54E4FEA5C1C0BFAB4
:101520000AFA46F82CA0FE07DFF888A248BF013768
:101530004FF0010C0CFA09FC48BFBFB2CAF814C83E
:10154000CAF828C0CAF824C0CAF834C0DFF868A2B4
:101550004FEA570C0CF1FF3CDAF800604FEA0C1C24
:10156000A7F1020A0F684FEA09194CF0454C06EB47
:10157000090B57444CF0010C03F1080A46F80970B6
:101580000196CBF804A04FF00309CBF808C04746FA
:10159000B8F1000F00F0BE80BEF804B0BEF806C07F
:1015A0004FFA8BFABAF1000F0ADB0BF01F064FF06F
:1015B000010B0BFA06FB7E4E4FEA5A1A46F82AB088
:1015C00018F0010FDFF8ECB118BF08F101084FF077
:1015D000010A0AFA0CFA18BF1FFA88F7CBF81CA800
:1015E000DFF8D481CBF828A0CBF824A0CBF834A026
:1015F000C7F34F0A0AF1FF3AD1F804B04FEA0A11D3
:10160000D8F800A04FEA0C1C023F41F09A415F4419
:1016100041F001010AEB0C0B03F104084AF80C80BD
:10162000CBF80470CBF8081000219984009949F098
:101630000409002973D1002D40F0AD80198A89B2C8
:1016400041F480511982AA4238BF2A461A83002CDD
:101650007CD1416979B1828BA2F10806B6B2541EE1
:101660004AB10D78A2B21D8190F82040B2422144C7
:1016700082834161F3D11A8A520658BF9B889EF932
:101680000C30002B07DB03F01F04012248495B09E3
:10169000A24041F8232090F82530002B6AD1002089
:1016A00005B0BDE8F08F002A14BF4FF408574FF47F
:1016B0000057002D51D19C8AA4B247EA04019982B7
:1016C000198A89B241F040011982198890F82640A0
:1016D00089B2ADF80E10BDF80E1089B21980198AC2
:1016E00089B241F0020119821C860024A146198AA0
:1016F000D0F804E089B241F440511982198A21F4EA
:1017000040510904090C1982998B21F00701090441
:10171000090C998300219984009900298BD0998C18
:10172000013A21F0F0010904090C9984998C89B2DD
:1017300041F0010141EA820292B29A841A8A92B27D
:1017400042F400621A821D83002C82D09A8B92B2DE
:1017500042EA0909A3F81C908DE7998A89B241F4FD
:10176000806139439982B0E727F400573F043F0C6A
:101770009F8289E60146002228311046FFF7D6FCF9
:1017800000288CD00D2005B0BDE8F08FD0F804E023
:101790004FF00109FBE6002A7FF455AF198A89B2A0
:1017A00041F4005119824EE7002180F823109CE794
:1017B00000E100E000000140542A0000012310B5C0
:1017C00080F825300446FFF72FFE002384F82530EB
:1017D00018B92369002B18BF0F2010BD014B1869E1
:1017E000FFF74EBD2C000420014B586AFFF748BD9F
:1017F0002C000420014B986BFFF742BD2C00042005
:10180000024B00221B699A83704700BF2C00042002
:10181000084B00211B691A68D983938B23F00703B7
:101820001B041B0C9383938A9BB243F40053938253
:10183000704700BF2C000420024B00225B6A9A8391
:10184000704700BF2C000420084B00215B6A1A6817
:10185000D983938B23F007031B041B0C9383938A78
:101860009BB243F400539382704700BF2C000420C6
:10187000024B00229B6B9A83704700BF2C00042010
:10188000084B00219B6B1A68D983938B23F00703C5
:101890001B041B0C9383938A9BB243F400539382E3
:1018A000704700BF2C000420F8B5104B104F53F8C0
:1018B000206057F82030B58B6BB1ADB2EA07044613
:1018C0000CD4AB0707D50B4A57F8243052F8240044
:1018D0000221002298470323B381F8BD0549002265
:1018E00051F8200001219847EBE700BF6C2A000067
:1018F000F8100420EC10042070B4204D204C45F862
:10190000201044F820202BB31E4B1B56002B07DB66
:1019100003F01F0401221C495B09A24041F8232067
:101920001A4B1B4E1B4D1C4C1C491D4A53F82030B2
:1019300036F8106035F8105034F8104031F81010B7
:1019400032F810201E8100201D809C82198470BCFA
:101950009A8470470B4B1B56002BE1DB5A0901217F
:10196000094C03F01F03203201FA03F344F822303C
:10197000BFF34F8FBFF36F8FD2E700BFF810042083
:10198000EC100420782A000000E100E06C2A00003E
:101990007C2A0000642A0000642A00008C2A0000CF
:1019A000842A0000174A8B8852F82000CA880380D6
:1019B0004FF47A73828200E013B3828B013B12F002
:1019C000400F9BB2F8D103898A7830B403F4C04346
:1019D000CD784C78134343EA45130CB143F0080328
:1019E0000A780AB143F004030A7A0AB143F080038B
:1019F0004A7A0AB143F40043038130BC00207047A7
:101A0000062070476C2A00000F4A4FF47A7352F890
:101A1000202000E0B3B1908B013B00F0400080B289
:101A20009BB20028F6D1138923F010031B041B0C72
:101A3000138129B113899BB243F0100313817047BE
:101A400008467047062070476C2A00000020FFF708
:101A50002BBF00BF0120FFF727BF00BF0220FFF709
:101A600023BF00BF2DE9F0410C461146E36A002672
:101A70001A691E73E26282680129054693881ED0A6
:101A800023F020031B041B0C938090F82D3073B1BE
:101A9000EB681BB194F83420022A1BD004F13C00FF
:101AA000FFF79AFBE16A0B7B3BBBBDE8F0818268E4
:101AB000938823F001031B041B0C9380E8E723F0B9
:101AC00012031B041B0C9380C368DBB194F8342011
:101AD000022A17D1206B00270669D0F800E0AA6916
:101AE000AF61076030682663C8B1A2B104212869DC
:101AF0009847E16A0B7B002BD7D0A36B2846BDE843
:101B0000F0411847AA68938A5B06FCD5138F9BB2F5
:101B1000002BF8D1C2E7724628699847C2E784F8DB
:101B20003400002AF7D0E1E70B46416A012BCA6A6C
:101B300070B5044610691CD0022B0CBF4FF48065B1
:101B40004FF4805503685BB1437B4BB1A36900261A
:101B50002B43A361324606732046FFF783FF616A79
:101B6000A36920462B43A3610022BDE87040FFF724
:101B700079BF4FF48075E5E70B46016A012BCA6A0D
:101B800070B5044610691CD0022B0CBF4FF40065E1
:101B90004FF4005503685BB1437B4BB1A36900264A
:101BA0002B43A361012206732046FFF75BFF216AE6
:101BB000A36920462B43A3610122BDE87040FFF7D3
:101BC00051BF4FF40075E5E74B7B33B982689388CA
:101BD0009BB243F0020393807047426870B414785C
:101BE00001230F4AA340C2F814389362536253632F
:101BF0004B680C4D013B0E682D681A01806821016D
:101C000042F0404233446C1842F001026B50606075
:101C1000A26083889BB243F01003838070BC70473E
:101C200000000140542A00004B7B33B9826893883E
:101C30009BB243F0010393807047426870B45478BC
:101C400001230F4AA340C2F81C38936253625363C6
:101C50004B680C4D013B0E682D681A01806821010C
:101C600042F0406233446C1842F0010268506360F5
:101C7000A26083889BB243F02003838070BC7047CE
:101C800000000140542A000038B5436A0446DB6A6C
:101C90001A68F2B1197B51B9C5683DB10022022121
:101CA0002069A847636ADB6A1A68AAB138BD8568EB
:101CB00099682B88DBB25354416ACA6A93685468A6
:101CC0000133A3429360F1D1BDE838400022FFF711
:101CD000C9BEC568002DE1D11B7B002BE6D1A368EE
:101CE0001B8838BD70B5164600220C4605463C31AF
:101CF0001046FFF71BFA68B9226B136910601A6867
:101D000023634AB1A86930B1AA69002332600D206B
:101D1000AB6170BD012070BD84F83420F2E700BFD4
:101D20008368002210B49A80436893F90320002A44
:101D30000EDB530901211B4C02F01F02203301FA74
:101D400002F244F82320BFF34F8FBFF36F8F436835
:101D500093F90220002A0EDB53090121114C02F0F5
:101D60001F02203301FA02F244F82320BFF34F8F01
:101D7000BFF36F8F436893F90420002A0EDB5309E9
:101D80000121084C02F01F02203301FA02F244F84C
:101D90002320BFF34F8FBFF36F8F43680020D860BD
:101DA00010BC704700E100E02DE9F84F14460546ED
:101DB0008B461746DDF828904FF0000ADFF84C817B
:101DC0001A4651462046C9F800A02E0100F0C2FC78
:101DD00008EB06039A686360A26007F830BBFEF761
:101DE0003DFFBBF1010F66D04249626804F1440334
:101DF0001078A166276284F864A0A7652766E76566
:101E0000C4F86CA06765236422463B49FEF752FF85
:101E1000002866D1BBF1000F4BD13848C5EBC50592
:101E20006D00A368425B28449A81A3684288C188F8
:101E30001A85A368828846449A84A3680289998592
:101E4000A36841891A84A36804229987A3689A80A9
:101E5000C9F800406168F46091F90420002A0DDBA4
:101E600053099B0003F1604302F01F02012003F5B8
:101E7000614300FA02F2C3F880211A6091F902303E
:101E8000002B07DB03F01F0401221D485B09A24061
:101E900040F8232091F90330002B28DB03F01F00CA
:101EA0001749012282405B0941F823200020BDE848
:101EB000F88F04F170076168124A4878676200235E
:101EC000BA6307F114023A61BF623F63FF627F6247
:101ED00087F83430FB6322460B49FEF7EBFE0028FF
:101EE0009BD02046FFF71CFF0F20BDE8F88F002095
:101EF000BDE8F88FC91B0000791B0000942A000080
:101F000000E100E0291C0000291B000068000420FB
:101F1000F8B50646056A0127AC6A4FF0000CD4F804
:101F200010E085F8347084E8060027736373C4F802
:101F300008C0069CE96AAB6BC5F828E098472246C2
:101F4000316A3046BDE8F840FFF7CCBE6F4B70B544
:101F5000DD6882B0AB681C8904F00E040C2C1CD820
:101F6000DFE804F0071B221B1D1B3A1B1B1B1B1B5E
:101F70001D00B3F84460B3F84020B6B2310792B206
:101F800001D0D2074DD4B3F84020002122F007023F
:101F90001204120CA3F84020297502B070BD284627
:101FA000FFF772FE02B070BD2A6AD26A116800297A
:101FB000F3D0107B0028F0D092688A5C1A80296ADE
:101FC000CA6A93685068013383429360E5D3284618
:101FD0000122FFF747FDE0E79A8A92B2D1061AD5AF
:101FE0001B888023560711D5940743F0200301D5A1
:101FF00043F040032A7D002ACFD1A96904220B4374
:10200000AB61696A2846FFF72DFDC6E79007EFD45C
:10201000002BC2D0EEE712F0080F14BF10230023EC
:10202000E0E701A90020FEF7AFFF08B1002301930C
:10203000AB68F007B3F84810B3F8442089B292B205
:1020400012D5988C1209060442EA013223D4019B6E
:10205000DB00B3FBF2F2AA62EB6813B195F82C2017
:1020600072BBAB681A888EE716F0020F14BF4FF4EC
:1020700000720022EC68700748BF42F4807231079A
:1020800048BF42F4806224B1696A91F83410022991
:1020900025D0EA61E6E73F2A18D85102C908A1F520
:1020A0000061012601981E85C000B0FBF2F241F4E8
:1020B0000843A9689BB28B84AB689C85AA62CBE776
:1020C000AA6A032128699847AB68CBE77F2A0AD818
:1020D0001102C9080124A1F500612646E2E70521A5
:1020E0002869A047BDE7FF2A06D8D101C908A1F594
:1020F000006102240126D5E7C2F30F26F00091010A
:10210000B1FBF0F10324A1F50061CBE768000420E6
:10211000024B0122D868016AFFF7A4BC68000420C2
:10212000024B0022D868416AFFF79CBC680004207B
:1021300010B5084A084C136882B0002143F4A0038C
:102140001360084600947023044AFFF72DFE02B086
:1021500010BD00BF000002400411042060110420E3
:1021600070B5114B84B01B6806461A0CADF80830E8
:102170008DF80A2000F03CFB0C4D03AC2B680246A6
:102180003146184600940023FFF7C2FE02A800F073
:102190002FFB2B680246009402A918460023FFF784
:1021A000B7FE04B070BD00BFBC2A000004110420BB
:1021B000FEE700BF08B50B4A0B4B9A420DD2D04345
:1021C0000A4918440B4620F003000430084453F831
:1021D000041B834242F8041BF9D100F047F8FEF7D4
:1021E0000DF800BF00000420D8040420082B0000D4
:1021F00030B4194C236803F00303022B08D0032BDF
:1022000022D030BC154A164B1360164A1360704733
:102210002368E068E368E268114DC2F3004205FA02
:1022200002F200F01F0000FB02F1C3F3C323B1FB75
:10223000F3F2E3680949C3F3002322FA03F3094ADE
:102240000B60136030BC7047074B044A1B6830BCFE
:102250001360044A1360704700C30440081104204F
:1022600080BA8C010C1104201011042044F659028C
:102270000A4BDA605A6942F003025A61EFF31083A5
:1022800072B6074A07484FF4E02190605162BFF3ED
:102290006F8FBFF34F8F83F31088704700C00440E7
:1022A00000ED00E000000000704700BFF0B50D46F3
:1022B00085B0060A040C030E17468DF800006A4626
:1022C00005214FF620408DF804508DF801608DF8FF
:1022D00002408DF80330FEF7C7F810B1032005B0B7
:1022E000F0BD03214FF48170FEF774F8044610B17D
:1022F000042005B0F0BD02A8FEF756FB4FF62043C0
:10230000BDF808209A4201D00520E8E79DF80A2090
:102310006B1C9A42F8D103992A463846013100F0E5
:10232000A3F92046DBE700BFF0B503460D461A4C83
:10233000000A114683B01F0C1E0E2A466070201D35
:102340002370A770E67000F08FF9291DC9B22246EC
:102350004FF62240FEF788F810B1032003B0F0BD1D
:1023600003214FF48170FEF735F810B1042003B05B
:10237000F0BD6846FEF718FB4FF62243BDF800207B
:102380009A4201D00520E9E79DF80230012B14BFE5
:1023900005200020E2E700BF1811042080B58EB0B0
:1023A000FDF766FFFEF7A8FD00287BD0844D854C25
:1023B0000FCC286020682479286169602846AA60CB
:1023C000EB602C75FFF7CCFE01250122114602209F
:1023D000FEF724FD01210220FEF760FD01221046D8
:1023E0004FF40041FEF71AFD4FF400410120FEF7C3
:1023F00055FD754C754E6DB3012210464FF40041EA
:10240000FEF70CFD4FF400410120FEF73FFD0023D5
:102410000393039BA34205D8039B01330393039BC0
:10242000A342F9D9012210464FF40041FEF7F6FC11
:102430004FF400410120FEF731FD00230493049B7B
:10244000A342D8D8049B01330493049BA342F9D937
:10245000002DD1D1012211460220FEF7DFFC01211F
:102460000220FEF713FD0195019BB34205D8019BA5
:1024700001330193019BB342F9D901221146022095
:10248000FEF7CCFC01210220FEF708FD0023029399
:10249000029BB342DED8029B01330293029BB342FC
:1024A000F9D9D7E701210846FEF790FD00287FF40F
:1024B0007DAF0121FEF78AFD044600287FF476AF48
:1024C000FFF736FE21464248FDF75CFF00287FF407
:1024D0006DAF404A404B92461868404F404B414DCB
:1024E000DFF80C8140494624DFF8089183F8234047
:1024F00018613B602A60C8F800104FF480140DF199
:10250000370604AA28212046D04700287FF44EAF82
:102510009DF81020332A08D004A9002302B9013302
:102520008E4216D011F8012FF8E79DF81130392BA3
:10253000F2D19DF812306D2BEED19DF81330652B42
:10254000EAD1059B1C44E30606D01F3424F01F0487
:1025500002E0282B05D028344C4502D8D5F800A03D
:10256000CFE73A68D8F80030282120461B4F98471B
:1025700000287FF41BAF2B6804AA20462821984727
:1025800000287FF413AF3B680DF10F02013B12F8F6
:10259000010F13F8011F88427FF408AFB242F6D151
:1025A000074D124C0FCC28602068A4882861696010
:1025B0002846AA60EB60AC820025FFF7D1FD04E756
:1025C000D0110420C42A0000FEFF0200FEFF2F00ED
:1025D000A9220000AD220000C02A000058110420EA
:1025E000780004205C11042029230000DC2A00006C
:1025F00014110420FEFF1F0008B50021044600F05E
:102600002FF9044B1868C36B03B19847204600F0BC
:10261000FFF900BFF82A000070B50F4E0F4D761B72
:10262000B61018BF002405D0013455F8043B984774
:10263000A642F9D10A4E0B4D00F0ECF9761BB6100C
:1026400018BF002406D0013455F8043B9847A64231
:10265000F9D170BD70BD00BFC8040420C8040420B7
:10266000D0040420C8040420844641EA000313F087
:10267000030349D1403A23D30B6803604B6843609E
:102680008B688360CB68C3600B6903614B694361EE
:102690008B698361CB69C3610B6A03624B6A4362D6
:1026A0008B6A8362CB6AC3620B6B03634B6B4363BE
:1026B0008B6B8363CB6BC36340304031403ADBD2DA
:1026C00030320BD30B6803604B6843608B688360C8
:1026D000CB68C36010301031103AF3D20C3205D3FE
:1026E00051F8043B40F8043B043AF9D2043208D0D4
:1026F000D2071CBF11F8013B00F8013B01D30B8846
:1027000003806046704700BF082A13D38B07B1D0FF
:1027100010F00303AED0C3F10403D21ADB071CBFD1
:1027200011F8013B00F8013BA4D331F8023B20F83B
:10273000023B9FE7043AD9D3013A11F8013B00F874
:10274000013BF9D20B7803704B7843708B78837020
:102750006046704770B4840746D0541E002A41D0AA
:10276000CDB2034602E0621EE4B3144603F8015BF7
:102770009A07F8D1032C2ED9CDB245EA05250F2CA6
:1027800045EA054519D9264603F11002103E0F2EE1
:1027900042F8105C42F80C5C42F8085C42F8045CB9
:1027A00002F11002F2D8A4F1100222F00F0204F09C
:1027B0000F041032032C13440DD91E462246043A4E
:1027C000032A46F8045BFAD8221F22F003020432DF
:1027D000134404F003042CB1C9B21C4403F8011BD8
:1027E000A342FBD170BC704714460346C2E700BF4A
:1027F00020F0030110F00300C0F1000051F8043B89
:1028000000F1040C4FEACC0C6FF000021CBF22FA5E
:102810000CF213434FF0010C4CEA0C2C4CEA0C4C1C
:10282000A3EB0C0222EA030212EACC1204BF51F815
:10283000043B0430F4D0C2F1000102EA0102B2FA12
:1028400082F2C2F11F0200EBD2007047024B13B1BB
:10285000024800F071B870470000000045290000F0
:102860002DE9F04F0E46324B85B01B680190029364
:1028700003F5A4730393029BD3F848713FB3DDF8CB
:102880000CA04FF00109D3467C68651E0ED40134BC
:1028900007EB84044FF00008E6B1D4F800319E4203
:1028A00018D0013D6B1CA4F10404F5D1214B73B188
:1028B0007B68002B36D13B68002B34D03846CBF8F0
:1028C0000030AFF30080DBF80070002FDCD105B0E2
:1028D000BDE8F08F7B682268013BAB420CBF7D6096
:1028E000C4F80080002ADCD0D7F8881109FA05F373
:1028F0000B42D7F804A00FD0D7F88C110B420DD1A2
:10290000D4F88010019890477B685345B3D1DBF829
:102910000030BB42C5D0AEE79047F5E7D4F8800061
:102920009047F1E73B68BB461F46002FACD1CEE78E
:10293000F82A000000000000002301461A4618464D
:1029400000F014B838B5074D074C2C1BA41005D067
:10295000013C55F8043D9847002CF9D1BDE83840BA
:1029600000F05EB8D4040420D00404202DE9F04720
:10297000254C064625688846D5F848419246994632
:10298000C4B360681F2817DC411C76B104EB8003D8
:10299000C3F888A0D4F88851012282401543022E42
:1029A000C4F88851C3F808911ED0831C61600020D0
:1029B00044F82380BDE8F087144B03B34FF4C8708C
:1029C000AFF300800446D0B1D5F84831002784E841
:1029D00088003846C5F848410121C4F88871C4F818
:1029E0008C71002EE1D0D1E7D4F88C311A43C4F8B1
:1029F0008C21DAE705F5A674C5F84841C1E74FF028
:102A0000FF30BDE8F08700BFF82A0000000000009A
:102A1000FEE700BFF8B500BFF8BC08BC9E46704793
:102A2000F8B500BFF8BC08BC9E46704708000A0015
:102A300009000B000C000D000E000F000300030046
:102A40000300030003000300030003001000120052
:102A500013000000000C0420000005000000050029
:102A6000000005009C8FE7235C0E00000000004082
:102A700000040040000800400B0C2800082008203B
:102A8000082000005C0EF908DF0200005E0EFB0863
:102A9000DF02000007001800369C03000100000060
:102AA00004000000416C6C20646F6E65210A0D000B
:102AB0004661696C65643A20000000000A0D000060
:102AC000296515234D4143204348414E4745204643
:102AD00041494C45442E0D0A000000004D41432061
:102AE0004348414E474520535543434553532E0DCC
:102AF0000A00000043000000A000042000000000C5
:082B0000FCD6FF7F010000007C
:102B080000010102000000000000000000000000B9
:102B18000000000000000000010100000000024069
:102B2800400002408000024000000000180004003D
:102B380019000500004000400F00000000000000E0
:102B48001A0006001B000700004400402A0000008D
:102B580000000000140000001500010000400240C1
:102B6800100000000000000008091C1D0E000000F5
:102B7800005000400000000033396D652800000057
:102B880001010014110C00004936D5593402000027
:102B980001020101B7040005F701414434C20100F4
:102BA800000000008C030420F40304205C040420CB
:102BB800000000000000000000000000000000000D
:102BC80000000000000000000000000000000000FD
:102BD80000000000F42A00000000000000000000CF
:102BE80000000000000000000000000000000000DD
:102BF80000000000000000000000000000000000CD
:102C080000000000000000000000000000000000BC
:102C180000000000000000000000000000000000AC
:102C2800000000000000000000000000000000009C
:102C3800000000000000000000000000000000008C
:102C4800000000000000000001000000000000007B
:102C58000E33CDAB34126DE6ECDE05000B00000040
:102C6800000000000000000000000000000000005C
:102C7800000000000000000000000000000000004C
:102C8800000000000000000000000000000000003C
:102C9800000000000000000000000000000000002C
:102FC80000000000000000004D280000C5010000BE
:082FD800A1010000000000004F
:04000003000021B523
:00000001FF
