:10000000004000201D1900001919000019190000F6
:10001000191900001919000019190000000000004A
:10002000000000000000000000000000191900009E
:10003000191900000000000019190000191900002A
:1000400019190000191900001919000019190000E8
:100050001919000019190000A10900007109000018
:1000600019190000A5070000AD070000B511000038
:10007000BD11000019190000B5160000991000000C
:10008000B11000001919000019190000A90500009D
:100090002D1100003D110000191900001919000070
:1000A000BD100000CD100000F5100000051100008B
:1000B00079180000891800001919000019190000AA
:1000C0001919000019190000191900001919000068
:1000D0001919000019190000191900001919000058
:1000E000C511000019090000A5100000CD0800008E
:1000F000191900001919000019190000000000006A
:1001000000000000000000000000000000000000EF
:1001100000000000000000000000000000000000DF
:100120001919000019190000191900001919000007
:1001300019190000191900001919000019190000F7
:10018000FFFFFFFFFFFFFFFFFFFFFFFFFFFFFFFF7F
:1001900003329CA77F000000FFFFFFFFFFFFFFFF70
:1001A00010B5054C237833B9044B13B10448AFF3B1
:1001B00000800123237010BD00080420000000000F
:1001C000AC230000084B10B51BB108490848AFF339
:1001D00000800848036803B910BD074B002BFBD013
:1001E000BDE81040184700BF0000000004080420CC
:1001F000AC230000CC04042000000000154B002BB1
:1002000008BF134B9D46A3F5803A00218B460F464D
:100210001348144A121A01F001FF0F4B002B00D0B3
:1002200098470E4B002B00D0984700200021040077
:100230000D000D48002802D00C4801F0E1FF01F04C
:100240004FFE2000290001F0BBFC01F039FE00BF89
:100250000000080000400020000000000000000036
:10026000000804206C120420012200000D2200006E
:100270000449054B4FF4A0004FF4A8720860002019
:100280001A6070470000024040000240014BD3F862
:10029000803018471C0804202DE9F043504D4FF4DE
:1002A000806483B0C5F880410646894690461F4663
:1002B000C5F88040BFF34F8FBFF36F8F202101201F
:1002C00000F04AFA18BB0446464D05E0BDF806208A
:1002D00001341ABBAC4252D00DF1060208210020B5
:1002E00000F042FA03460028F0D03D4B4FF4806204
:1002F000C3F8802101241A602021012000F024FA93
:1003000000280CBF2046012003B0BDE8F083012087
:10031000C5F880412C6003B0BDE8F0833148304A15
:100320004FF480618442C2F8801111601ED02E4CBF
:10033000022201A9C4F800D061602281628136B333
:100340002A4D4222286821468DF801308DF804306C
:100350008DF805308DF8002000F08EFE68B99DF80C
:100360000530984533D93B700524C5E70624C3E71B
:1003700028681D4900F080FE38B30424BCE7184B00
:100380004FF48062C3F8802106241A60B4E7174D49
:100390008123286821468DF801608DF804608DF86E
:1003A00005608DF8003000F067FE0028E5D19DF86B
:1003B000053098453B70D7D326813B782660638112
:1003C000C4F804903B78002BD2D1002494E787F83E
:1003D0000080A4F808806081C4F800906060F1E7B4
:1003E00000E100E0A0860100000004201C080420B9
:1003F00010B53A4C84B0C4F88000102104F13000EC
:1004000000F032F910B1012004B010BD23462C22B7
:10041000211D022000F024FC10B1022004B010BD08
:100420000146206800F05AFC0028F6D1012208217C
:1004300000F06EF90028E6D1082100F045F9002807
:10044000E1D108220A2100F029F902460028DAD178
:1004500023490A2000F092F90028D4D10122104645
:10046000202100F039F90028CDD12021012000F011
:100470006BF90028C7D101224FF40071022000F06F
:100480002BF90028BFD14FF40071022000F064F96D
:100490000028B8D102904FF6FE7202E0029B0133B1
:1004A0000293029B9342F9D94FF40071022000F0AD
:1004B0004BF90028A7D103904FF6FE7202E0039B90
:1004C00001330393039B9342F9D90DF107034022B3
:1004D00004490020FFF7E0FE96E700BF1C08042057
:1004E0008D0200005C08042010B50C4682B00DF1AE
:1004F0000703014622460120FFF7CEFE9DF8073094
:100500009C4218BF042002B010BD00BF13460A462B
:1005100001460020FFF7C0BEEFF3108072B6104A0C
:100520001378D3B90F4B012170B4117059680E4E76
:100530000E4C6FF0784241F001014FF400255960F4
:100540009E6025601A62DA625A63DA639A64DA643A
:100550001A6580F3108870BC704780F3108870476C
:100560000010042000000140000C042000E100E025
:1005700030B40C4C012304EBC0056960AA608340D1
:1005800039B1D4F8DC000343C4F8DC30002030BCBF
:100590007047D4F8DC20002022EA0303C4F8DC30E2
:1005A00030BC704700100420184B2DE9F047184D5F
:1005B000D3F84C809C6C1F6DD5F8DC3044EA0709F9
:1005C00019EA03091AD0B9FA89F30126C3F11F0306
:1005D00005EBC301D1F804A006FA03F3002229EACF
:1005E0000309BAF1000F05D01C42886814BF01212D
:1005F0000221D047B9FA89F3202BE7D1034B9C6441
:100600001F65C3F84C80BDE8F08700BF00000140C3
:10061000001004202DE9F0410F46124E82B0F5681B
:10062000002405EBC00556F82420092F0CBF138DBC
:10063000938DD5F8008099B2138E0B40ADF806303B
:100640001386B8F1000F00D02BB90134032CEAD186
:1006500002B0BDE8F0810DF1060221466868C0478E
:10066000F3E700BF100004200A4AD3680BB1002052
:10067000704730B408494FF400754FF48064D0607F
:10068000036043608360C3600D6000200C6030BC79
:10069000704700BF1000042000E100E0094B53F850
:1006A0002000EFF3108372B6092906D00A2900D181
:1006B000828583F3108800207047028583F31088B9
:1006C0000020704710000420024B53F82030002017
:1006D00099847047100004200C4B10B453F820008C
:1006E000EFF3108472B683889BB23AB923EA010112
:1006F000818084F31088002010BC704719438180EA
:1007000084F31088002010BC704700BF1000042044
:100710000C4B10B453F82000EFF3108472B68389A9
:100720009BB23AB923EA0101818184F31088002049
:1007300010BC70471943818184F31088002010BCDD
:10074000704700BF10000420024B53F820300020F7
:100750001983704710000420024B53F8203000200A
:100760009983704710000420034B53F82030002079
:100770001B8A19401180704710000420093830B4DA
:1007800080B2EFF3108372B6054CE46804EBC00549
:1007900044F830106A6083F31088002030BC704742
:1007A0001000042009210020FFF734BF0A21012096
:1007B000FFF730BF4CF61432F8B51C4B1C481946F5
:1007C00002250024DA601D610460DA601A692A4398
:1007D0001A610B69154A9B05FBD546F61A064CF6BD
:1007E0001435144B14491868144F20F00300186096
:1007F00000241F201C605F60DE6058610C608C600C
:100800004C64D56011690E4B21F004014FF4006077
:10081000402780264FF4007511611F601E605D60E7
:10082000586001F099F82046F8BD00BF00C10440AF
:10083000E010042000C3044000C004400404100081
:1008400000E100E038B504460D4601F085F88CB1B2
:10085000012C0DD10A4B5B6803F03F03094A002BC2
:10086000126808BF0123B2FBF3F300202B6038BDF0
:10087000042038BD024B5B68C3F30523EEE700BFDD
:1008800000C3044008110420012810B519D014D366
:10089000022810D109046FF47F03EFF3108272B6BF
:1008A0000948446823401943416082F3108801F0ED
:1008B00053F8002010BD042010BD09026FF47C53D2
:1008C000EBE76FF03F03E8E700C3044038B50F4A99
:1008D0000F4B14689B6903F0060524B113F0040262
:1008E0000BD19B0702D40A4B9D6138BD094B0721F0
:1008F0001868A047064B9D6138BD064B002218685A
:100900000821A047024B9D6138BD00BFE0100420C4
:1009100000C30440E810042038B5124A124B156891
:100920009B6903F4CC445DB14CB158040DD49904D7
:1009300013D49A0513D45B0504D5062106E038BD0F
:10094000002CFCD0084B9C6138BD0421074B0022D1
:100950001868A847044B9C6138BD0321F6E70521C0
:10096000F4E700BFE010042000C30440E8100420B6
:1009700008B5084B5968CB070BD5074B1B681BB153
:10098000064A106800229847024A536843F0010360
:10099000536008BD00C00440E0100420E8100420AB
:1009A00038B50E4D0E4A2B6854684BB162070ED411
:1009B000A30705D50B4A2B68106801210022984730
:1009C000074A04F0060453681C43546038BD0549C7
:1009D0000022086811469847EAE700BFE0100420AB
:1009E00000C00440E8100420274B0029F0B506BFE2
:1009F000194602270027032844D8DFE800F04039D1
:100A00003B024FF0FF340627EFF3108372B644F633
:100A100059061E4DDFF878E0EE60AE6826F003065A
:100A20003043A860DEF8100038430440CEF8104090
:100A3000EFF31180520182F311880A6852B9BFF3B3
:100A40004F8F30BF83F31088EFF3108372B60A68BC
:100A5000002AF4D00A68013A0A6080F311880C4930
:100A60000A6922F002020A61BFF34F8F83F31088F4
:100A70000020F0BD47F004074FF0FF34C4E76FF0EB
:100A80000604C1E70620F0BDE410042000C00440C5
:100A900000ED00E0034620B11A68002001321A6020
:100AA0007047EFF3108372B605490A6922F002021B
:100AB0000A61BFF34F8F83F31088024BECE700BF4E
:100AC00000ED00E0E4100420012914D0022908D030
:100AD000016941F04001016183684BB1C0680022A7
:100AE00018470169836841F010010161002BF5D1BD
:100AF0002830FFF7CFBF016941F004010161EBE746
:100B0000012915D0022908D0116941F08001116135
:100B100093684BB1D068002218471169936841F07F
:100B200020011161002BF5D102F12800FFF7B2BFBF
:100B3000116941F008011161EAE700BFF0B50168F1
:100B400083B00B8C9BB2ADF806300C88A4B226069D
:100B500038D5036943F002030361C36963BB0B8AA1
:100B60009A0726D48B8A426823F4185392F90C20F2
:100B70001B041B0C0125002A8B8280F822500CDB01
:100B80005309364902F01F02203305FA02F241F8F8
:100B90002320BFF34F8FBFF36F8F83680546002B71
:100BA00055D001690022C068984729680C8003B0BD
:100BB000F0BD0B889B07D5D40369002BD2D10C80E4
:100BC00003B0F0BDE5063DD4BDF80620BDF80650E3
:100BD00002F00F02C2F1080292B2C5F303258AB1F6
:100BE000838BABB1466900E093B13778013B0F814D
:100BF00090F82070013A9BB23E4492B283834661E2
:100C0000002AF1D190F8243013B1838B002BA4D1AA
:100C1000002DA2D0C38B002B9FD0826901E0002B56
:100C20009BD08B88013D1370C38B816990F8212084
:100C3000013B0A449BB2ADB2C38382610168002DBF
:100C4000EDD18AE7036943F00103036185E72830AA
:100C5000FFF720FF29680C8003B0F0BD00E100E041
:100C6000F8B505460C461F460846002101F0D6F9A6
:100C7000164EA900164A4B1902EB830231449068C4
:100C80004B8836F825500021626014612060A16213
:100C9000058283813C602268138A9BB243F0010382
:100CA0001382FFF739FC6368224698780949FFF7F9
:100CB0005FFC08B10E20F8BD6368224698790649AA
:100CC000FFF756FC0028F5D1F8BD00BFF822000060
:100CD00020000420010B0000C90A000080F8261043
:100CE000002070472DE9F04F4B680C680A894D8948
:100CF000836144618283C5830C7B036880F8204054
:100D00004C7B4FF0000E80F82140CE7B8C7B80F82E
:100D100022E01F8A85B027F441573F043F0C80F83A
:100D2000234080F82460C0F810E000961F82002C59
:100D300000F017819F8A002D40F07481BFB247F404
:100D400000579F821F8890F826E0BFB2ADF80E7062
:100D5000BDF80E70009EBFB21F801F8AB1F80A80D6
:100D6000BFB247F002071F82A3F830E01EB1B8F10E
:100D7000010F00F07781B3F810E00F891FFA8EFEA3
:100D80004EF4405EA3F810E0B3F810E02EF4405E9D
:100D90004FEA0E4E4FEA1E4EA3F810E0B3F81CE0E7
:100DA0002EF0070E4FEA0E4E4FEA1E4EA3F81CE03F
:100DB000002F00F04981D0F804E0BEF800A0BEF892
:100DC00002904FFA8AFCBCF1000F0ADB0AF01F0AFE
:100DD0004FF0010BA54E4FEA5C1C0BFA0AFA46F8DD
:100DE0002CA0FE07DFF888A248BF01374FF0010CA6
:100DF0000CFA09FC48BFBFB2CAF814C8CAF828C028
:100E0000CAF824C0CAF834C0DFF868A24FEA570C09
:100E10000CF1FF3CDAF800604FEA0C1CA7F1020A63
:100E20000F684FEA09194CF0454C06EB090B574483
:100E30004CF0010C03F1080A46F809700196CBF852
:100E400004A04FF00309CBF808C04746B8F1000FE3
:100E500000F0BE80BEF804B0BEF806C04FFA8BFAB0
:100E6000BAF1000F0ADB0BF01F064FF0010B0BFA73
:100E700006FB7E4E4FEA5A1A46F82AB018F0010FC8
:100E8000DFF8ECB118BF08F101084FF0010A0AFAC7
:100E90000CFA18BF1FFA88F7CBF81CA8DFF8D4812A
:100EA000CBF828A0CBF824A0CBF834A0C7F34F0A86
:100EB0000AF1FF3AD1F804B04FEA0A11D8F800A0BD
:100EC0004FEA0C1C023F41F09A415F4441F001019E
:100ED0000AEB0C0B03F104084AF80C80CBF8047001
:100EE000CBF8081000219984009949F004090029E1
:100EF00073D1002D40F0AD80198A89B241F4805140
:100F00001982AA4238BF2A461A83002C7CD1416933
:100F100079B1828BA2F10806B6B2541E4AB10D789F
:100F2000A2B21D8190F82040B242214482834161E7
:100F3000F3D11A8A520658BF9B889EF90C30002BB9
:100F400007DB03F01F04012248495B09A24041F876
:100F5000232090F82530002B6AD1002005B0BDE891
:100F6000F08F002A14BF4FF408574FF40057002D9C
:100F700051D19C8AA4B247EA04019982198A89B2A4
:100F800041F040011982198890F8264089B2ADF8E5
:100F90000E10BDF80E1089B21980198A89B241F07D
:100FA000020119821C860024A146198AD0F804E0A7
:100FB00089B241F440511982198A21F4405109043F
:100FC000090C1982998B21F007010904090C9983F6
:100FD00000219984009900298BD0998C013A21F045
:100FE000F0010904090C9984998C89B241F001013E
:100FF00041EA820292B29A841A8A92B242F4006260
:101000001A821D83002C82D09A8B92B242EA09097F
:10101000A3F81C908DE7998A89B241F48061394325
:101020009982B0E727F400573F043F0C9F8289E67E
:101030000146002228311046FFF7D6FC00288CD04C
:101040000D2005B0BDE8F08FD0F804E04FF00109A5
:10105000FBE6002A7FF455AF198A89B241F40051AA
:1010600019824EE7002180F823109CE700E100E0A0
:1010700000000140F4220000012310B580F8253063
:101080000446FFF72FFE002384F8253018B92369A2
:10109000002B18BF0F2010BD014B1869FFF74EBD84
:1010A00020000420014B586AFFF748BD20000420AF
:1010B000014B986BFFF742BD20000420024B002239
:1010C0001B699A83704700BF20000420084B002151
:1010D0001B691A68D983938B23F007031B041B0C2D
:1010E0009383938A9BB243F400539382704700BF6B
:1010F00020000420024B00225B6A9A83704700BFE5
:1011000020000420084B00215B6A1A68D983938B66
:1011100023F007031B041B0C9383938A9BB243F4B5
:1011200000539382704700BF20000420024B00222E
:101130009B6B9A83704700BF20000420084B00215E
:101140009B6B1A68D983938B23F007031B041B0C3A
:101150009383938A9BB243F400539382704700BFFA
:1011600020000420F8B5104B104F53F8206057F8BA
:101170002030B58B6BB1ADB2EA0704460CD4AB0797
:1011800007D50B4A57F8243052F8240002210022D8
:1011900098470323B381F8BD0549002251F8200088
:1011A00001219847EBE700BF04230000F81004205A
:1011B000EC1004200020FFF7D5BF00BF0120FFF78F
:1011C000D1BF00BF0220FFF7CDBF00BF2DE9F04126
:1011D0000C461146E36A00261A691E73E2628268B1
:1011E0000129054693881ED023F020031B041B0C05
:1011F000938090F82D3073B1EB681BB194F83420D4
:10120000022A1BD004F13C00FFF744FCE16A0B7B8F
:101210003BBBBDE8F0818268938823F001031B0487
:101220001B0C9380E8E723F012031B041B0C938034
:10123000C368DBB194F83420022A17D1206B002751
:101240000669D0F800E0AA69AF61076030682663DC
:10125000C8B1A2B1042128699847E16A0B7B002B31
:10126000D7D0A36B2846BDE8F0411847AA68938AF7
:101270005B06FCD5138F9BB2002BF8D1C2E77246F8
:1012800028699847C2E784F83400002AF7D0E1E7DC
:101290000B46416A012BCA6A70B5044610691CD01E
:1012A000022B0CBF4FF480654FF4805503685BB18F
:1012B000437B4BB1A36900262B43A36132460673DF
:1012C0002046FFF783FF616AA36920462B43A36191
:1012D0000022BDE87040FFF779BF4FF48075E5E765
:1012E0000B46016A012BCA6A70B5044610691CD00E
:1012F000022B0CBF4FF400654FF4005503685BB13F
:10130000437B4BB1A36900262B43A36101220673E3
:101310002046FFF75BFF216AA36920462B43A361A8
:101320000122BDE87040FFF751BF4FF40075E5E7BB
:101330004B7B33B9826893889BB243F0020393805E
:101340007047426870B4147801230F4AA340C2F872
:1013500014389362536253634B680C4D013B0E6823
:101360002D681A018068210142F0404233446C1814
:1013700042F001026B506060A26083889BB243F030
:101380001003838070BC704700000140F42200000D
:101390004B7B33B9826893889BB243F001039380FF
:1013A0007047426870B4547801230F4AA340C2F8D2
:1013B0001C389362536253634B680C4D013B0E68BB
:1013C0002D681A018068210142F0406233446C1894
:1013D00042F0010268506360A26083889BB243F0D0
:1013E0002003838070BC704700000140F42200009D
:1013F00038B5436A0446DB6A1A68F2B1197B51B901
:10140000C5683DB1002202212069A847636ADB6AF2
:101410001A68AAB138BD856899682B88DBB2535425
:10142000416ACA6A936854680133A3429360F1D158
:10143000BDE838400022FFF7C9BEC568002DE1D1E4
:101440001B7B002BE6D1A3681B8838BD70B5164600
:1014500000220C4605463C311046FFF7C5FA68B934
:10146000226B136910601A6823634AB1A86930B10E
:10147000AA69002332600D20AB6170BD012070BDF0
:1014800084F83420F2E700BF8368002210B49A8009
:10149000436893F90320002A0EDB530901211B4CFA
:1014A00002F01F02203301FA02F244F82320BFF3B6
:1014B0004F8FBFF36F8F436893F90220002A0EDB32
:1014C00053090121114C02F01F02203301FA02F2EC
:1014D00044F82320BFF34F8FBFF36F8F436893F916
:1014E0000420002A0EDB53090121084C02F01F02E0
:1014F000203301FA02F244F82320BFF34F8FBFF3E9
:101500006F8F43680020D86010BC704700E100E096
:101510002DE9F84F144605468B461746DDF828900E
:101520004FF0000ADFF84C811A4651462046C9F8B0
:1015300000A02E0100F072FD08EB06039A686360BC
:10154000A26007F830BBFEF7E7FFBBF1010F66D0E2
:101550004249626804F144031078A166276284F866
:1015600064A0A7652766E765C4F86CA06765236477
:1015700022463B49FEF7FCFF002866D1BBF1000F75
:101580004BD13848C5EBC5056D00A368425B2844C4
:101590009A81A3684288C1881A85A36882884644D4
:1015A0009A84A36802899985A36841891A84A368EB
:1015B00004229987A3689A80C9F800406168F460A2
:1015C00091F90420002A0DDB53099B0003F16043CD
:1015D00002F01F02012003F5614300FA02F2C3F892
:1015E00080211A6091F90230002B07DB03F01F0401
:1015F00001221D485B09A24040F8232091F90330E5
:10160000002B28DB03F01F001749012282405B09F1
:1016100041F823200020BDE8F88F04F170076168CD
:10162000124A487867620023BA6307F114023A61EC
:10163000BF623F63FF627F6287F83430FB632246FC
:101640000B49FEF795FF00289BD02046FFF71CFFB3
:101650000F20BDE8F88F0020BDE8F88F311300009F
:10166000E11200001023000000E100E091130000EF
:10167000911200005C000420F8B50646056A0127B7
:10168000AC6A4FF0000CD4F810E085F8347084E8B0
:10169000060027736373C4F808C0069CE96AAB6B45
:1016A000C5F828E098472246316A3046BDE8F84040
:1016B000FFF7CCBE6F4B70B5DD6882B0AB681C899C
:1016C00004F00E040C2C1CD8DFE804F0071B221BCE
:1016D0001D1B3A1B1B1B1B1B1D00B3F84460B3F8FA
:1016E0004020B6B2310792B201D0D2074DD4B3F840
:1016F0004020002122F007021204120CA3F840201F
:10170000297502B070BD2846FFF772FE02B070BDA9
:101710002A6AD26A11680029F3D0107B0028F0D021
:1017200092688A5C1A80296ACA6A93685068013391
:1017300083429360E5D328460122FFF747FDE0E7A7
:101740009A8A92B2D1061AD51B888023560711D5E2
:10175000940743F0200301D543F040032A7D002A7B
:10176000CFD1A96904220B43AB61696A2846FFF710
:101770002DFDC6E79007EFD4002BC2D0EEE712F0A4
:10178000080F14BF10230023E0E701A90020FFF792
:1017900059F808B100230193AB68F007B3F848107B
:1017A000B3F8442089B292B212D5988C120906047B
:1017B00042EA013223D4019BDB00B3FBF2F2AA62BE
:1017C000EB6813B195F82C2072BBAB681A888EE7D2
:1017D00016F0020F14BF4FF400720022EC6870077D
:1017E00048BF42F48072310748BF42F4806224B19E
:1017F000696A91F83410022925D0EA61E6E73F2AA8
:1018000018D85102C908A1F50061012601981E856A
:10181000C000B0FBF2F241F40843A9689BB28B848C
:10182000AB689C85AA62CBE7AA6A0321286998471E
:10183000AB68CBE77F2A0AD81102C9080124A1F5B9
:1018400000612646E2E705212869A047BDE7FF2A97
:1018500006D8D101C908A1F5006102240126D5E707
:10186000C2F30F26F0009101B1FBF0F10324A1F5C2
:101870000061CBE75C000420024B0122D868016ABA
:10188000FFF7A4BC5C000420024B0022D868416A28
:10189000FFF79CBC5C00042010B5084A084C136894
:1018A00082B0002143F4A003136008460094702323
:1018B000044AFFF72DFE02B010BD00BF0000024039
:1018C000041104206411042070B5114B84B01B680E
:1018D00006461A0CADF808308DF80A2000F0ECFB33
:1018E0000C4D03AC2B680246314618460094002389
:1018F000FFF7C2FE02A800F0DFFB2B68024600944F
:1019000002A918460023FFF7B7FE04B070BD00BF60
:101910003823000004110420FEE700BF08B50B4A7D
:101920000B4B9A420DD2D0430A4918440B4620F083
:1019300003000430084453F8041B834242F8041B9C
:10194000F9D100F047F8FEF759FC00BF0000042071
:10195000D0040420B823000030B4194C236803F0ED
:101960000303022B08D0032B22D030BC154A164BA0
:101970001360164A136070472368E068E368E26802
:10198000114DC2F3004205FA02F200F01F0000FB05
:1019900002F1C3F3C323B1FBF3F2E3680949C3F3D4
:1019A000002322FA03F3094A0B60136030BC70472E
:1019B000074B044A1B6830BC1360044A136070472D
:1019C00000C304400811042080BA8C010C110420CB
:1019D0001011042044F659020A4BDA605A6942F0A9
:1019E00003025A61EFF3108372B6074A07484FF4B7
:1019F000E02190605162BFF36F8FBFF34F8F83F38D
:101A00001088704700C0044000ED00E000000000B6
:101A1000014B01221A70704758110420F0B50D4691
:101A200085B0030C010E4FEA102C4FF0000E012779
:101A30008DF80800202416468DF80A30FC22052374
:101A40008DF80B1001A809218DF80C508DF809C0F4
:101A50008DF803E08DF804708DF805408DF80620B0
:101A60008DF80730FEF740FD10B1032005B0F0BD42
:101A70004FF6FF73194901E0013B10D00A78174C6B
:101A8000002AF9D0164F002338460DF103024021F9
:101A90002370FEF73BFD28B1042005B0F0BD237094
:101AA0000820E3E79DF803200735AA4201D005206E
:101AB000DCE74FF62043B9889942F8D1072A0AD0CB
:101AC00007210B46F85C0133DBB231449A4201F83E
:101AD000070C1946F6D80020C8E700BF58110420AB
:101AE00018110420F0B50D46264C2E1D1146012379
:101AF0002222E670060A83B04FF0FC0E207123709C
:101B0000070C030E627066712A4604F10800002675
:101B100084F802E0A771E3718DF8076000F008FA1D
:101B200005F108012046FEF7DFFC10B1032003B0E9
:101B3000F0BD4FF6FF73144901E0013B10D00A7865
:101B4000114C002AF9D00F4D002328460DF1070251
:101B500040212370FEF7DAFC28B1042003B0F0BD69
:101B600023700820E3E79DF80730072B01D00520FC
:101B7000DDE74FF62240AB88834214BF05200020EA
:101B8000D5E700BF181104205811042008B5012220
:101B900011460220FEF7A0FDBDE808400121022009
:101BA000FEF7DABD08B501224FF400411046FEF7FA
:101BB00093FDBDE808404FF400410120FEF7CCBD85
:101BC00080B58EB0FEF754FBFEF7F4FD00285BD025
:101BD000A94DAA4C0FCC286020682479286169603F
:101BE0002846AA60EB602C75FFF76EFE0125FFF713
:101BF000CDFFFFF7D7FFA24CA24E25B3012210461E
:101C00004FF40041FEF768FD4FF400410120FEF75C
:101C10009BFD00230393039BA34205D8039B013341
:101C20000393039BA342F9D9FFF7BCFF002304935E
:101C3000049BA342E1D8049B01330493049BA34279
:101C4000F9D9002DDAD1012211460220FEF744FD18
:101C500001210220FEF778FD0195019BB34205D8D2
:101C6000019B01330193019BB342F9D9FFF78EFF2A
:101C700000230293029BB342E5D8029B01330293F7
:101C8000029BB342F9D9DEE701210846FEF7FCFDCD
:101C900000289DD10121FEF7F7FD002898D1FFF71C
:101CA000FBFD7948FEF7A4FB0446002890D1FFF71E
:101CB0006DFFFFF777FF754A0421134610688DF812
:101CC0000840039053F8040F9A889B79049003A866
:101CD000ADF814208DF81630FEF706FCD0B1664C36
:101CE0006B4D0FCD20602868AD8820616160204673
:101CF000A260E360A582FFF7E7FD664E00250FCEE8
:101D00002060306861602061A2605B48E360FFF79B
:101D1000DBFD6CE74FF6FF735F4D2A785E4C1AB916
:101D2000013BFAD12370DAE7002302AA40215B4885
:101D30002370FEF7EBFB0028D1D19DF80830072B6C
:101D400007D04FF6FF732A78534C92BB013BFAD170
:101D5000E8E7524B04AAD91D12F8014B13F8010B06
:101D60008442EED18B42F7D1DFF84C814C494D4D86
:101D70004D4B4E4F4E4ADFF84491C8F800102B608F
:101D80003A604FF480140DF1370604AA282120464A
:101D9000984700287FF41CAF9DF81020332A22D0EA
:101DA00004A9002302B901338E4230D011F8012F6B
:101DB000F8E7002302AA402138482370FEF7A6FB6B
:101DC00000288CD19DF80830072B88D1334B04AA0A
:101DD000D91D12F8014B13F8010B84427FF47FAF39
:101DE0009942F6D1C0E79DF81130392BD8D19DF832
:101DF00012306D2BD4D19DF81330652BD0D1059BBB
:101E00001C44E30606D01F3424F01F0402E0282BF4
:101E100004D028344C4501D82B68B6E73A68D8F886
:101E2000003028212046214F984700287FF4D0AE6B
:101E30002B6804AA20462821984700287FF4C8AEC2
:101E40003B680DF10F02013B12F8010F13F8011F5F
:101E500088427FF4BDAEB242F6D1074C154D0FCD8E
:101E600020606160A26003CDE36020616161204673
:101E7000FFF72AFD41E700BFD411042060230000D2
:101E8000FEFF0200FEFF2F00111A00003C2300009D
:101E9000482300009023000058110420181104204A
:101EA000E51A0000601104201D1A00005C110420D6
:101EB0006C0004207823000014110420FEFF1F0092
:101EC00008B50021044600F02FF9044B1868C36BD5
:101ED00003B19847204600F0FFF900BFA823000097
:101EE00070B50F4E0F4D761BB61018BF002405D0ED
:101EF000013455F8043B9847A642F9D10A4E0B4DE0
:101F000000F0ECF9761BB61018BF002406D001349F
:101F100055F8043B9847A642F9D170BD70BD00BF8B
:101F2000C0040420C0040420C8040420C004042009
:101F3000844641EA000313F0030349D1403A23D316
:101F40000B6803604B6843608B688360CB68C36039
:101F50000B6903614B6943618B698361CB69C36121
:101F60000B6A03624B6A43628B6A8362CB6AC36209
:101F70000B6B03634B6B43638B6B8363CB6BC363F1
:101F800040304031403ADBD230320BD30B68036033
:101F90004B6843608B688360CB68C360103010313E
:101FA000103AF3D20C3205D351F8043B40F8043B0D
:101FB000043AF9D2043208D0D2071CBF11F8013B11
:101FC00000F8013B01D30B8803806046704700BFD7
:101FD000082A13D38B07B1D010F00303AED0C3F19E
:101FE0000403D21ADB071CBF11F8013B00F8013BC8
:101FF000A4D331F8023B20F8023B9FE7043AD9D33F
:10200000013A11F8013B00F8013BF9D20B7803705B
:102010004B7843708B7883706046704770B4840748
:1020200046D0541E002A41D0CDB2034602E0621EC3
:10203000E4B3144603F8015B9A07F8D1032C2ED9B8
:10204000CDB245EA05250F2C45EA054519D92646A6
:1020500003F11002103E0F2E42F8105C42F80C5CA7
:1020600042F8085C42F8045C02F11002F2D8A4F1D4
:10207000100222F00F0204F00F041032032C13445C
:102080000DD91E462246043A032A46F8045BFAD8C4
:10209000221F22F003020432134404F003042CB183
:1020A000C9B21C4403F8011BA342FBD170BC7047AA
:1020B00014460346C2E700BF20F0030110F00300FE
:1020C000C0F1000051F8043B00F1040C4FEACC0CC5
:1020D0006FF000021CBF22FA0CF213434FF0010C08
:1020E0004CEA0C2C4CEA0C4CA3EB0C0222EA030247
:1020F00012EACC1204BF51F8043B0430F4D0C2F110
:10210000000102EA0102B2FA82F2C2F11F0200EB00
:10211000D2007047024B13B1024800F071B870470B
:10212000000000000D2200002DE9F04F0E46324B5A
:1021300085B01B680190029303F5A4730393029B7F
:10214000D3F848713FB3DDF80CA04FF00109D34636
:102150007C68651E0ED4013407EB84044FF0000840
:10216000E6B1D4F800319E4218D0013D6B1CA4F1B9
:102170000404F5D1214B73B17B68002B36D13B6849
:10218000002B34D03846CBF80030AFF30080DBF8BA
:102190000070002FDCD105B0BDE8F08F7B682268AD
:1021A000013BAB420CBF7D60C4F80080002ADCD04C
:1021B000D7F8881109FA05F30B42D7F804A00FD01D
:1021C000D7F88C110B420DD1D4F8801001989047AC
:1021D0007B685345B3D1DBF80030BB42C5D0AEE7D6
:1021E0009047F5E7D4F880009047F1E73B68BB469D
:1021F0001F46002FACD1CEE7A8230000000000004E
:10220000002301461A46184600F014B838B5074DA9
:10221000074C2C1BA41005D0013C55F8043D9847F1
:10222000002CF9D1BDE8384000F05EB8CC040420A1
:10223000C80404202DE9F047254C06462568884649
:10224000D5F8484192469946C4B360681F2817DC08
:10225000411C76B104EB8003C3F888A0D4F8885100
:10226000012282401543022EC4F88851C3F8089118
:102270001ED0831C6160002044F82380BDE8F087F5
:10228000144B03B34FF4C870AFF300800446D0B1D1
:10229000D5F84831002784E888003846C5F8484119
:1022A0000121C4F88871C4F88C71002EE1D0D1E707
:1022B000D4F88C311A43C4F88C21DAE705F5A674FA
:1022C000C5F84841C1E74FF0FF30BDE8F08700BFD7
:1022D000A823000000000000FEE700BFF8B500BF23
:1022E000F8BC08BC9E467047F8B500BFF8BC08BCF7
:1022F0009E467047000C0420000005000000050009
:1023000000000500000000400004004000080040FC
:1023100007001800369C03000100000004000000C4
:10232000416C6C20646F6E65210A0D004661696C1A
:1023300065643A20000000000A0D000001030C0053
:10234000040E0401030C000050524F4752414D4D02
:10235000455220534B49505045442E0D0A00000071
:1023600050524F4752414D4D4552204641494C45F0
:10237000442E0D0A0000000050524F4752414D4D6F
:10238000494E4720434F4D504C4554452E0D0A00B1
:1023900050524F4752414D4D4552205041535345A5
:1023A000440D0A00430000009800042000000000D3
:0823B0004CDEFF7F010000007C
:1023B8000000000000000000000000000101000013
:1023C800000002404000024080000240000000007F
:1023D8001800040019000500004000400F0000002C
:1023E800000000001A0006001B000700004400401F
:1023F8002A00000000000000140000001500010081
:1024080000400240100000000000000008091C1DE8
:102418000E000000005000400000000033396D65D8
:102428002800000001010014110C00004936D5599C
:102438003402000001020101B7040005F70141441C
:1024480034C20100000000000000000084030420E2
:10245800EC030420540404200000000000000000E5
:102468000000000000000000000000000000000064
:10247800000000000000000000000000A42300008D
:102488000000000000000000000000000000000044
:102498000000000000000000000000000000000034
:1024A8000000000000000000000000000000000024
:1024B8000000000000000000000000000000000014
:1024C8000000000000000000000000000000000004
:1024D80000000000000000000000000000000000F4
:1024E80000000000000000000000000000000000E4
:1024F80001000000000000000E33CDAB34126DE681
:10250800ECDE05000B0000000000000000000000E9
:1025180000000000000000000000000000000000B3
:1025280000000000000000000000000000000000A3
:102538000000000000000000000000000000000093
:102548000000000000000000000000000000000083
:1028780015210000C5010000A101000000000000B2
:040000030000191DC3
:00000001FF
